{
  "contractName": "Dex",
  "abi": [
    {
      "inputs": [
        {
          "internalType": "address",
          "name": "token_addr",
          "type": "address"
        }
      ],
      "stateMutability": "nonpayable",
      "type": "constructor"
    },
    {
      "inputs": [
        {
          "internalType": "address",
          "name": "",
          "type": "address"
        }
      ],
      "name": "ownership",
      "outputs": [
        {
          "internalType": "uint256",
          "name": "",
          "type": "uint256"
        }
      ],
      "stateMutability": "view",
      "type": "function",
      "constant": true
    }
  ],
  "bytecode": "0x608060405234801561001057600080fd5b506040516101633803806101638339818101604052602081101561003357600080fd5b8101908080519060200190929190505050806000806101000a81548173ffffffffffffffffffffffffffffffffffffffff021916908373ffffffffffffffffffffffffffffffffffffffff1602179055505060d0806100936000396000f3fe6080604052348015600f57600080fd5b506004361060285760003560e01c806327d6d6e014602d575b600080fd5b606c60048036036020811015604157600080fd5b81019080803573ffffffffffffffffffffffffffffffffffffffff1690602001909291905050506082565b6040518082815260200191505060405180910390f35b6001602052806000526040600020600091509050548156fea2646970667358221220c56500f35c86cd0db8609d5178255b19f33ada7f8f474c1dd50aa6420627748664736f6c63430006060033",
  "immutableReferences": {},
  "source": "pragma solidity ^0.6.6;\n\nimport \"@openzeppelin/contracts/math/SafeMath.sol\";\nimport \"@openzeppelin/contracts/token/ERC20/IERC20.sol\";\n\n/**\n* @title Dex\n*\n* \n*/\ncontract Dex {\n  using SafeMath for uint256;\n  IERC20 token;\n\n  mapping (address => uint256) public ownership;\n\n\n  constructor(address token_addr) public {\n    token = IERC20(token_addr);\n  }\n}\n",
  "sourcePath": "/Users/sd/Documents/GitHub/virtualmarket/client/src/contracts/Dex.sol",
  "compiler": {
    "name": "solc",
    "version": "0.6.6+commit.6c089d02.Emscripten.clang"
  },
  "schemaVersion": "3.3.4",
  "updatedAt": "2021-04-13T02:20:26.671Z",
  "networkType": "ethereum",
  "devdoc": {
    "methods": {},
    "title": "Dex * "
  },
  "userdoc": {
    "methods": {}
  }
}