{
  "contractName": "ProductToken",
  "abi": [
    {
      "inputs": [
        {
          "internalType": "uint32",
          "name": "_reserveRatio",
          "type": "uint32"
        },
        {
          "internalType": "uint32",
          "name": "_maxTokenCount",
          "type": "uint32"
        },
        {
          "internalType": "uint256",
          "name": "_baseReserve",
          "type": "uint256"
        }
      ],
      "stateMutability": "nonpayable",
      "type": "constructor"
    },
    {
      "anonymous": false,
      "inputs": [
        {
          "indexed": true,
          "internalType": "address",
          "name": "owner",
          "type": "address"
        },
        {
          "indexed": true,
          "internalType": "address",
          "name": "spender",
          "type": "address"
        },
        {
          "indexed": false,
          "internalType": "uint256",
          "name": "value",
          "type": "uint256"
        }
      ],
      "name": "Approval",
      "type": "event"
    },
    {
      "anonymous": false,
      "inputs": [
        {
          "indexed": true,
          "internalType": "address",
          "name": "sender",
          "type": "address"
        },
        {
          "indexed": false,
          "internalType": "uint32",
          "name": "amount",
          "type": "uint32"
        },
        {
          "indexed": false,
          "internalType": "uint256",
          "name": "deposit",
          "type": "uint256"
        }
      ],
      "name": "Buy",
      "type": "event"
    },
    {
      "anonymous": false,
      "inputs": [
        {
          "indexed": false,
          "internalType": "string",
          "name": "msg",
          "type": "string"
        },
        {
          "indexed": false,
          "internalType": "uint256",
          "name": "value",
          "type": "uint256"
        }
      ],
      "name": "Log",
      "type": "event"
    },
    {
      "anonymous": false,
      "inputs": [
        {
          "indexed": true,
          "internalType": "address",
          "name": "previousOwner",
          "type": "address"
        },
        {
          "indexed": true,
          "internalType": "address",
          "name": "newOwner",
          "type": "address"
        }
      ],
      "name": "OwnershipTransferred",
      "type": "event"
    },
    {
      "anonymous": false,
      "inputs": [
        {
          "indexed": true,
          "internalType": "address",
          "name": "sender",
          "type": "address"
        },
        {
          "indexed": false,
          "internalType": "uint32",
          "name": "amount",
          "type": "uint32"
        },
        {
          "indexed": false,
          "internalType": "uint256",
          "name": "refund",
          "type": "uint256"
        }
      ],
      "name": "Sell",
      "type": "event"
    },
    {
      "anonymous": false,
      "inputs": [
        {
          "indexed": true,
          "internalType": "address",
          "name": "sender",
          "type": "address"
        },
        {
          "indexed": false,
          "internalType": "uint32",
          "name": "amount",
          "type": "uint32"
        }
      ],
      "name": "Tradein",
      "type": "event"
    },
    {
      "anonymous": false,
      "inputs": [
        {
          "indexed": true,
          "internalType": "address",
          "name": "from",
          "type": "address"
        },
        {
          "indexed": true,
          "internalType": "address",
          "name": "to",
          "type": "address"
        },
        {
          "indexed": false,
          "internalType": "uint256",
          "name": "value",
          "type": "uint256"
        }
      ],
      "name": "Transfer",
      "type": "event"
    },
    {
      "stateMutability": "payable",
      "type": "fallback",
      "payable": true
    },
    {
      "inputs": [
        {
          "internalType": "address",
          "name": "owner",
          "type": "address"
        },
        {
          "internalType": "address",
          "name": "spender",
          "type": "address"
        }
      ],
      "name": "allowance",
      "outputs": [
        {
          "internalType": "uint256",
          "name": "",
          "type": "uint256"
        }
      ],
      "stateMutability": "view",
      "type": "function",
      "constant": true
    },
    {
      "inputs": [
        {
          "internalType": "address",
          "name": "spender",
          "type": "address"
        },
        {
          "internalType": "uint256",
          "name": "amount",
          "type": "uint256"
        }
      ],
      "name": "approve",
      "outputs": [
        {
          "internalType": "bool",
          "name": "",
          "type": "bool"
        }
      ],
      "stateMutability": "nonpayable",
      "type": "function"
    },
    {
      "inputs": [
        {
          "internalType": "address",
          "name": "account",
          "type": "address"
        }
      ],
      "name": "balanceOf",
      "outputs": [
        {
          "internalType": "uint256",
          "name": "",
          "type": "uint256"
        }
      ],
      "stateMutability": "view",
      "type": "function",
      "constant": true
    },
    {
      "inputs": [
        {
          "internalType": "uint256",
          "name": "_supply",
          "type": "uint256"
        },
        {
          "internalType": "uint256",
          "name": "_reserveBalance",
          "type": "uint256"
        },
        {
          "internalType": "uint32",
          "name": "_reserveRatio",
          "type": "uint32"
        },
        {
          "internalType": "uint32",
          "name": "_amount",
          "type": "uint32"
        }
      ],
      "name": "calculatePriceForNTokens",
      "outputs": [
        {
          "internalType": "uint256",
          "name": "",
          "type": "uint256"
        }
      ],
      "stateMutability": "nonpayable",
      "type": "function"
    },
    {
      "inputs": [
        {
          "internalType": "uint256",
          "name": "_supply",
          "type": "uint256"
        },
        {
          "internalType": "uint256",
          "name": "_reserveBalance",
          "type": "uint256"
        },
        {
          "internalType": "uint32",
          "name": "_reserveRatio",
          "type": "uint32"
        },
        {
          "internalType": "uint256",
          "name": "_depositAmount",
          "type": "uint256"
        }
      ],
      "name": "calculatePurchaseReturn",
      "outputs": [
        {
          "internalType": "uint32",
          "name": "",
          "type": "uint32"
        }
      ],
      "stateMutability": "nonpayable",
      "type": "function"
    },
    {
      "inputs": [
        {
          "internalType": "uint256",
          "name": "_supply",
          "type": "uint256"
        },
        {
          "internalType": "uint256",
          "name": "_reserveBalance",
          "type": "uint256"
        },
        {
          "internalType": "uint32",
          "name": "_reserveRatio",
          "type": "uint32"
        },
        {
          "internalType": "uint256",
          "name": "_sellAmount",
          "type": "uint256"
        }
      ],
      "name": "calculateSaleReturn",
      "outputs": [
        {
          "internalType": "uint256",
          "name": "",
          "type": "uint256"
        }
      ],
      "stateMutability": "nonpayable",
      "type": "function"
    },
    {
      "inputs": [],
      "name": "decimals",
      "outputs": [
        {
          "internalType": "uint8",
          "name": "",
          "type": "uint8"
        }
      ],
      "stateMutability": "view",
      "type": "function",
      "constant": true
    },
    {
      "inputs": [
        {
          "internalType": "address",
          "name": "spender",
          "type": "address"
        },
        {
          "internalType": "uint256",
          "name": "subtractedValue",
          "type": "uint256"
        }
      ],
      "name": "decreaseAllowance",
      "outputs": [
        {
          "internalType": "bool",
          "name": "",
          "type": "bool"
        }
      ],
      "stateMutability": "nonpayable",
      "type": "function"
    },
    {
      "inputs": [
        {
          "internalType": "address",
          "name": "spender",
          "type": "address"
        },
        {
          "internalType": "uint256",
          "name": "addedValue",
          "type": "uint256"
        }
      ],
      "name": "increaseAllowance",
      "outputs": [
        {
          "internalType": "bool",
          "name": "",
          "type": "bool"
        }
      ],
      "stateMutability": "nonpayable",
      "type": "function"
    },
    {
      "inputs": [],
      "name": "maxTokenCount",
      "outputs": [
        {
          "internalType": "uint32",
          "name": "",
          "type": "uint32"
        }
      ],
      "stateMutability": "view",
      "type": "function",
      "constant": true
    },
    {
      "inputs": [],
      "name": "name",
      "outputs": [
        {
          "internalType": "string",
          "name": "",
          "type": "string"
        }
      ],
      "stateMutability": "view",
      "type": "function",
      "constant": true
    },
    {
      "inputs": [],
      "name": "owner",
      "outputs": [
        {
          "internalType": "address",
          "name": "",
          "type": "address"
        }
      ],
      "stateMutability": "view",
      "type": "function",
      "constant": true
    },
    {
      "inputs": [],
      "name": "renounceOwnership",
      "outputs": [],
      "stateMutability": "nonpayable",
      "type": "function"
    },
    {
      "inputs": [],
      "name": "reserveBalance",
      "outputs": [
        {
          "internalType": "uint256",
          "name": "",
          "type": "uint256"
        }
      ],
      "stateMutability": "view",
      "type": "function",
      "constant": true
    },
    {
      "inputs": [],
      "name": "reserveRatio",
      "outputs": [
        {
          "internalType": "uint32",
          "name": "",
          "type": "uint32"
        }
      ],
      "stateMutability": "view",
      "type": "function",
      "constant": true
    },
    {
      "inputs": [],
      "name": "symbol",
      "outputs": [
        {
          "internalType": "string",
          "name": "",
          "type": "string"
        }
      ],
      "stateMutability": "view",
      "type": "function",
      "constant": true
    },
    {
      "inputs": [],
      "name": "totalSupply",
      "outputs": [
        {
          "internalType": "uint256",
          "name": "",
          "type": "uint256"
        }
      ],
      "stateMutability": "view",
      "type": "function",
      "constant": true
    },
    {
      "inputs": [],
      "name": "tradeinCount",
      "outputs": [
        {
          "internalType": "uint32",
          "name": "",
          "type": "uint32"
        }
      ],
      "stateMutability": "view",
      "type": "function",
      "constant": true
    },
    {
      "inputs": [
        {
          "internalType": "address",
          "name": "recipient",
          "type": "address"
        },
        {
          "internalType": "uint256",
          "name": "amount",
          "type": "uint256"
        }
      ],
      "name": "transfer",
      "outputs": [
        {
          "internalType": "bool",
          "name": "",
          "type": "bool"
        }
      ],
      "stateMutability": "nonpayable",
      "type": "function"
    },
    {
      "inputs": [
        {
          "internalType": "address",
          "name": "sender",
          "type": "address"
        },
        {
          "internalType": "address",
          "name": "recipient",
          "type": "address"
        },
        {
          "internalType": "uint256",
          "name": "amount",
          "type": "uint256"
        }
      ],
      "name": "transferFrom",
      "outputs": [
        {
          "internalType": "bool",
          "name": "",
          "type": "bool"
        }
      ],
      "stateMutability": "nonpayable",
      "type": "function"
    },
    {
      "inputs": [
        {
          "internalType": "address",
          "name": "newOwner",
          "type": "address"
        }
      ],
      "name": "transferOwnership",
      "outputs": [],
      "stateMutability": "nonpayable",
      "type": "function"
    },
    {
      "inputs": [],
      "name": "version",
      "outputs": [
        {
          "internalType": "string",
          "name": "",
          "type": "string"
        }
      ],
      "stateMutability": "view",
      "type": "function",
      "constant": true
    },
    {
      "inputs": [],
      "name": "buy",
      "outputs": [],
      "stateMutability": "payable",
      "type": "function",
      "payable": true
    },
    {
      "inputs": [
        {
          "internalType": "uint32",
          "name": "_amount",
          "type": "uint32"
        }
      ],
      "name": "sell",
      "outputs": [],
      "stateMutability": "nonpayable",
      "type": "function"
    },
    {
      "inputs": [
        {
          "internalType": "uint32",
          "name": "_amount",
          "type": "uint32"
        }
      ],
      "name": "tradein",
      "outputs": [],
      "stateMutability": "nonpayable",
      "type": "function"
    },
    {
      "inputs": [],
      "name": "getAvailability",
      "outputs": [
        {
          "internalType": "uint32",
          "name": "available",
          "type": "uint32"
        }
      ],
      "stateMutability": "view",
      "type": "function",
      "constant": true
    },
    {
      "inputs": [],
      "name": "getCurrentPrice",
      "outputs": [
        {
          "internalType": "uint256",
          "name": "price",
          "type": "uint256"
        }
      ],
      "stateMutability": "nonpayable",
      "type": "function"
    },
    {
      "inputs": [
        {
          "internalType": "uint32",
          "name": "_amountProduct",
          "type": "uint32"
        }
      ],
      "name": "getPriceForN",
      "outputs": [
        {
          "internalType": "uint256",
          "name": "price",
          "type": "uint256"
        }
      ],
      "stateMutability": "nonpayable",
      "type": "function"
    },
    {
      "inputs": [
        {
          "internalType": "uint256",
          "name": "_amountReserve",
          "type": "uint256"
        }
      ],
      "name": "calculateBuyReturn",
      "outputs": [
        {
          "internalType": "uint32",
          "name": "mintAmount",
          "type": "uint32"
        }
      ],
      "stateMutability": "nonpayable",
      "type": "function"
    },
    {
      "inputs": [
        {
          "internalType": "uint32",
          "name": "_amountProduct",
          "type": "uint32"
        }
      ],
      "name": "calculateSellReturn",
      "outputs": [
        {
          "internalType": "uint256",
          "name": "soldAmount",
          "type": "uint256"
        }
      ],
      "stateMutability": "nonpayable",
      "type": "function"
    }
  ],
  "bytecode": "0x60806040526040518060400160405280600381526020017f302e330000000000000000000000000000000000000000000000000000000000815250600690805190602001906200005192919062001416565b506000608860086101000a81548163ffffffff021916908363ffffffff1602179055503480156200008157600080fd5b5060405162004a3938038062004a3983398181016040526060811015620000a757600080fd5b810190808051906020019092919080519060200190929190805190602001909291905050506040518060400160405280600c81526020017f50726f64756374546f6b656e00000000000000000000000000000000000000008152506040518060200160405280600081525081600390805190602001906200012a92919062001416565b5080600490805190602001906200014392919062001416565b506012600560006101000a81548160ff021916908360ff1602179055505050600062000174620011a260201b60201c565b905080600560016101000a81548173ffffffffffffffffffffffffffffffffffffffff021916908373ffffffffffffffffffffffffffffffffffffffff1602179055508073ffffffffffffffffffffffffffffffffffffffff16600073ffffffffffffffffffffffffffffffffffffffff167f8be0079c531659141344cd1fd0a4f28419497f9722a3daafe3b4186f6b6457e060405160405180910390a350701c35fedd14ffffffffffffffffffffffff60076020608081106200023457fe5b0181905550701b0ce43b323fffffffffffffffffffffff60076021608081106200025a57fe5b01819055507019f0028ec1ffffffffffffffffffffffff60076022608081106200028057fe5b01819055507018ded91f0e7fffffffffffffffffffffff6007602360808110620002a657fe5b01819055507017d8ec7f0417ffffffffffffffffffffff6007602460808110620002cc57fe5b01819055507016ddc6556cdbffffffffffffffffffffff6007602560808110620002f257fe5b01819055507015ecf52776a1ffffffffffffffffffffff60076026608081106200031857fe5b01819055507015060c256cb2ffffffffffffffffffffff60076027608081106200033e57fe5b0181905550701428a2f98d72ffffffffffffffffffffff60076028608081106200036457fe5b01819055507013545598e5c23fffffffffffffffffffff60076029608081106200038a57fe5b0181905550701288c4161ce1dfffffffffffffffffffff6007602a60808110620003b057fe5b01819055507011c592761c666fffffffffffffffffffff6007602b60808110620003d657fe5b018190555070110a688680a757ffffffffffffffffffff6007602c60808110620003fc57fe5b0181905550701056f1b5bedf77ffffffffffffffffffff6007602d608081106200042257fe5b0181905550700faadceceeff8bffffffffffffffffffff6007602e608081106200044857fe5b0181905550700f05dc6b27edadffffffffffffffffffff6007602f608081106200046e57fe5b0181905550700e67a5a25da4107fffffffffffffffffff60076030608081106200049457fe5b0181905550700dcff115b14eedffffffffffffffffffff6007603160808110620004ba57fe5b0181905550700d3e7a392431239fffffffffffffffffff6007603260808110620004e057fe5b0181905550700cb2ff529eb71e4fffffffffffffffffff60076033608081106200050657fe5b0181905550700c2d415c3db974afffffffffffffffffff60076034608081106200052c57fe5b0181905550700bad03e7d883f69bffffffffffffffffff60076035608081106200055257fe5b0181905550700b320d03b2c343d5ffffffffffffffffff60076036608081106200057857fe5b0181905550700abc25204e02828dffffffffffffffffff60076037608081106200059e57fe5b0181905550700a4b16f74ee4bb207fffffffffffffffff6007603860808110620005c457fe5b01819055507009deaf736ac1f569ffffffffffffffffff6007603960808110620005ea57fe5b0181905550700976bd9952c7aa957fffffffffffffffff6007603a608081106200061057fe5b01819055507009131271922eaa606fffffffffffffffff6007603b608081106200063657fe5b01819055507008b380f3558668c46fffffffffffffffff6007603c608081106200065c57fe5b0181905550700857ddf0117efa215bffffffffffffffff6007603d608081106200068257fe5b01819055507007ffffffffffffffffffffffffffffffff6007603e60808110620006a857fe5b01819055507007abbf6f6abb9d087fffffffffffffffff6007603f60808110620006ce57fe5b018190555070075af62cbac95f7dfa7fffffffffffffff6007604060808110620006f457fe5b018190555070070d7fb7452e187ac13fffffffffffffff60076041608081106200071a57fe5b01819055507006c3390ecc8af379295fffffffffffffff60076042608081106200074057fe5b018190555070067c00a3b07ffc01fd6fffffffffffffff60076043608081106200076657fe5b0181905550700637b647c39cbb9d3d27ffffffffffffff60076044608081106200078c57fe5b01819055507005f63b1fc104dbd39587ffffffffffffff6007604560808110620007b257fe5b01819055507005b771955b36e12f7235ffffffffffffff6007604660808110620007d857fe5b018190555070057b3d49dda84556d6f6ffffffffffffff6007604760808110620007fe57fe5b018190555070054183095b2c8ececf30ffffffffffffff60076048608081106200082457fe5b018190555070050a28be635ca2b888f77fffffffffffff60076049608081106200084a57fe5b01819055507004d5156639708c9db33c3fffffffffffff6007604a608081106200087057fe5b01819055507004a23105873875bd52dfdfffffffffffff6007604b608081106200089657fe5b0181905550700471649d87199aa990756fffffffffffff6007604c60808110620008bc57fe5b01819055507004429a21a029d4c1457cfbffffffffffff6007604d60808110620008e257fe5b0181905550700415bc6d6fb7dd71af2cb3ffffffffffff6007604e608081106200090857fe5b01819055507003eab73b3bbfe282243ce1ffffffffffff6007604f608081106200092e57fe5b01819055507003c1771ac9fb6b4c18e229ffffffffffff60076050608081106200095457fe5b0181905550700399e96897690418f785257fffffffffff60076051608081106200097a57fe5b0181905550700373fc456c53bb779bf0ea9fffffffffff6007605260808110620009a057fe5b018190555070034f9e8e490c48e67e6ab8bfffffffffff6007605360808110620009c657fe5b018190555070032cbfd4a7adc790560b3337ffffffffff6007605460808110620009ec57fe5b018190555070030b50570f6e5d2acca94613ffffffffff600760556080811062000a1257fe5b01819055507002eb40f9f620fda6b56c2861ffffffffff600760566080811062000a3857fe5b01819055507002cc8340ecb0d0f520a6af58ffffffffff600760576080811062000a5e57fe5b01819055507002af09481380a0a35cf1ba02ffffffffff600760586080811062000a8457fe5b0181905550700292c5bdd3b92ec810287b1b3fffffffff600760596080811062000aaa57fe5b0181905550700277abdcdab07d5a77ac6d6b9fffffffff6007605a6080811062000ad057fe5b018190555070025daf6654b1eaa55fd64df5efffffffff6007605b6080811062000af657fe5b0181905550700244c49c648baa98192dce88b7ffffffff6007605c6080811062000b1c57fe5b018190555070022ce03cd5619a311b2471268bffffffff6007605d6080811062000b4257fe5b0181905550700215f77c045fbe885654a44a0fffffffff6007605e6080811062000b6857fe5b01819055507001ffffffffffffffffffffffffffffffff6007605f6080811062000b8e57fe5b01819055507001eaefdbdaaee7421fc4d3ede5ffffffff600760606080811062000bb457fe5b01819055507001d6bd8b2eb257df7e8ca57b09bfffffff600760616080811062000bda57fe5b01819055507001c35fedd14b861eb0443f7f133fffffff600760626080811062000c0057fe5b01819055507001b0ce43b322bcde4a56e8ada5afffffff600760636080811062000c2657fe5b018190555070019f0028ec1fff007f5a195a39dfffffff600760646080811062000c4c57fe5b018190555070018ded91f0e72ee74f49b15ba527ffffff600760656080811062000c7257fe5b018190555070017d8ec7f04136f4e5615fd41a63ffffff600760666080811062000c9857fe5b018190555070016ddc6556cdb84bdc8d12d22e6fffffff600760676080811062000cbe57fe5b018190555070015ecf52776a1155b5bd8395814f7fffff600760686080811062000ce457fe5b018190555070015060c256cb23b3b3cc3754cf40ffffff600760696080811062000d0a57fe5b01819055507001428a2f98d728ae223ddab715be3fffff6007606a6080811062000d3057fe5b018190555070013545598e5c23276ccf0ede68034fffff6007606b6080811062000d5657fe5b01819055507001288c4161ce1d6f54b7f61081194fffff6007606c6080811062000d7c57fe5b018190555070011c592761c666aa641d5a01a40f17ffff6007606d6080811062000da257fe5b0181905550700110a688680a7530515f3e6e6cfdcdffff6007606e6080811062000dc857fe5b01819055507001056f1b5bedf75c6bcb2ce8aed428ffff6007606f6080811062000dee57fe5b01819055506ffaadceceeff8a0890f3875f008277fff600760706080811062000e1357fe5b01819055506ff05dc6b27edad306388a600f6ba0bfff600760716080811062000e3857fe5b01819055506fe67a5a25da41063de1495d5b18cdbfff600760726080811062000e5d57fe5b01819055506fdcff115b14eedde6fc3aa5353f2e4fff600760736080811062000e8257fe5b01819055506fd3e7a3924312399f9aae2e0f868f8fff600760746080811062000ea757fe5b01819055506fcb2ff529eb71e41582cccd5a1ee26fff600760756080811062000ecc57fe5b01819055506fc2d415c3db974ab32a51840c0b67edff600760766080811062000ef157fe5b01819055506fbad03e7d883f69ad5b0a186184e06bff600760776080811062000f1657fe5b01819055506fb320d03b2c343d4829abd6075f0cc5ff600760786080811062000f3b57fe5b01819055506fabc25204e02828d73c6e80bcdb1a95bf600760796080811062000f6057fe5b01819055506fa4b16f74ee4bb2040a1ec6c15fbbf2df6007607a6080811062000f8557fe5b01819055506f9deaf736ac1f569deb1b5ae3f36c130f6007607b6080811062000faa57fe5b01819055506f976bd9952c7aa957f5937d790ef650376007607c6080811062000fcf57fe5b01819055506f9131271922eaa6064b73a22d0bd4f2bf6007607d6080811062000ff457fe5b01819055506f8b380f3558668c46c91c49a2f8e967b96007607e608081106200101957fe5b01819055506f857ddf0117efa215952912839f6473e66007607f608081106200103e57fe5b018190555060008263ffffffff1611620010c0576040517f08c379a00000000000000000000000000000000000000000000000000000000081526004018080602001828103825260188152602001807f496e76616c6964206d617820746f6b656e20636f756e742e000000000000000081525060200191505060405180910390fd5b60008363ffffffff16116200113d576040517f08c379a00000000000000000000000000000000000000000000000000000000081526004018080602001828103825260158152602001807f496e76616c6964207265736572766520726174696f000000000000000000000081525060200191505060405180910390fd5b8060878190555082608860006101000a81548163ffffffff021916908363ffffffff16021790555081608860046101000a81548163ffffffff021916908363ffffffff16021790555062001199336001620011aa60201b60201c565b505050620014c5565b600033905090565b600073ffffffffffffffffffffffffffffffffffffffff168273ffffffffffffffffffffffffffffffffffffffff1614156200124e576040517f08c379a000000000000000000000000000000000000000000000000000000000815260040180806020018281038252601f8152602001807f45524332303a206d696e7420746f20746865207a65726f20616464726573730081525060200191505060405180910390fd5b62001262600083836200138860201b60201c565b6200127e816002546200138d60201b620024bb1790919060201c565b600281905550620012dc816000808573ffffffffffffffffffffffffffffffffffffffff1673ffffffffffffffffffffffffffffffffffffffff168152602001908152602001600020546200138d60201b620024bb1790919060201c565b6000808473ffffffffffffffffffffffffffffffffffffffff1673ffffffffffffffffffffffffffffffffffffffff168152602001908152602001600020819055508173ffffffffffffffffffffffffffffffffffffffff16600073ffffffffffffffffffffffffffffffffffffffff167fddf252ad1be2c89b69c2b068fc378daa952ba7f163c4a11628f55a4df523b3ef836040518082815260200191505060405180910390a35050565b505050565b6000808284019050838110156200140c576040517f08c379a000000000000000000000000000000000000000000000000000000000815260040180806020018281038252601b8152602001807f536166654d6174683a206164646974696f6e206f766572666c6f77000000000081525060200191505060405180910390fd5b8091505092915050565b828054600181600116156101000203166002900490600052602060002090601f016020900481019282601f106200145957805160ff19168380011785556200148a565b828001600101855582156200148a579182015b82811115620014895782518255916020019190600101906200146c565b5b5090506200149991906200149d565b5090565b620014c291905b80821115620014be576000816000905550600101620014a4565b5090565b90565b61356480620014d56000396000f3fe6080604052600436106101d15760003560e01c80637a53e040116100f7578063a6f2ae3a11610095578063dd62ed3e11610064578063dd62ed3e14610ac8578063eb91d37e14610b4d578063f2fde38b14610b78578063f97511d314610bc9576101d2565b8063a6f2ae3a146109dd578063a9059cbb146109e7578063ba7a93b614610a5a578063c4e627c214610a91576101d2565b80638da5cb5b116100d15780638da5cb5b1461085857806395d89b41146108af578063a10954fe1461093f578063a457c2d71461096a576101d2565b80637a53e0401461074d578063828f3a9c146107845780638c1f320e146107df576101d2565b8063313ce5671161016f57806354fd4d501161013e57806354fd4d501461060057806363c51fbb1461069057806370a08231146106d1578063715018a614610736576101d2565b8063313ce567146104a857806339509351146104d957806349f9b0f71461054c5780634ffd23a7146105bf576101d2565b806318160ddd116101ab57806318160ddd14610316578063224e4f481461034157806323b872dd1461039657806329a00e7c14610429576101d2565b806306fdde03146101dc578063095ea7b31461026c5780630c7d5cd8146102df576101d2565b5b6101da610c1e565b005b3480156101e857600080fd5b506101f1610cfc565b6040518080602001828103825283818151815260200191508051906020019080838360005b83811015610231578082015181840152602081019050610216565b50505050905090810190601f16801561025e5780820380516001836020036101000a031916815260200191505b509250505060405180910390f35b34801561027857600080fd5b506102c56004803603604081101561028f57600080fd5b81019080803573ffffffffffffffffffffffffffffffffffffffff16906020019092919080359060200190929190505050610d9e565b604051808215151515815260200191505060405180910390f35b3480156102eb57600080fd5b506102f4610dbc565b604051808263ffffffff1663ffffffff16815260200191505060405180910390f35b34801561032257600080fd5b5061032b610dd2565b6040518082815260200191505060405180910390f35b34801561034d57600080fd5b506103806004803603602081101561036457600080fd5b81019080803563ffffffff169060200190929190505050610ddc565b6040518082815260200191505060405180910390f35b3480156103a257600080fd5b5061040f600480360360608110156103b957600080fd5b81019080803573ffffffffffffffffffffffffffffffffffffffff169060200190929190803573ffffffffffffffffffffffffffffffffffffffff16906020019092919080359060200190929190505050610e2c565b604051808215151515815260200191505060405180910390f35b34801561043557600080fd5b506104866004803603608081101561044c57600080fd5b810190808035906020019092919080359060200190929190803563ffffffff16906020019092919080359060200190929190505050610f05565b604051808263ffffffff1663ffffffff16815260200191505060405180910390f35b3480156104b457600080fd5b506104bd611071565b604051808260ff1660ff16815260200191505060405180910390f35b3480156104e557600080fd5b50610532600480360360408110156104fc57600080fd5b81019080803573ffffffffffffffffffffffffffffffffffffffff16906020019092919080359060200190929190505050611088565b604051808215151515815260200191505060405180910390f35b34801561055857600080fd5b506105a96004803603608081101561056f57600080fd5b810190808035906020019092919080359060200190929190803563ffffffff1690602001909291908035906020019092919050505061113b565b6040518082815260200191505060405180910390f35b3480156105cb57600080fd5b506105fe600480360360208110156105e257600080fd5b81019080803563ffffffff16906020019092919050505061126b565b005b34801561060c57600080fd5b506106156112c3565b6040518080602001828103825283818151815260200191508051906020019080838360005b8381101561065557808201518184015260208101905061063a565b50505050905090810190601f1680156106825780820380516001836020036101000a031916815260200191505b509250505060405180910390f35b34801561069c57600080fd5b506106cf600480360360208110156106b357600080fd5b81019080803563ffffffff169060200190929190505050611361565b005b3480156106dd57600080fd5b50610720600480360360208110156106f457600080fd5b81019080803573ffffffffffffffffffffffffffffffffffffffff16906020019092919050505061136d565b6040518082815260200191505060405180910390f35b34801561074257600080fd5b5061074b6113b5565b005b34801561075957600080fd5b50610762611540565b604051808263ffffffff1663ffffffff16815260200191505060405180910390f35b34801561079057600080fd5b506107bd600480360360208110156107a757600080fd5b8101908080359060200190929190505050611577565b604051808263ffffffff1663ffffffff16815260200191505060405180910390f35b3480156107eb57600080fd5b506108426004803603608081101561080257600080fd5b810190808035906020019092919080359060200190929190803563ffffffff169060200190929190803563ffffffff1690602001909291905050506115c1565b6040518082815260200191505060405180910390f35b34801561086457600080fd5b5061086d6116c9565b604051808273ffffffffffffffffffffffffffffffffffffffff1673ffffffffffffffffffffffffffffffffffffffff16815260200191505060405180910390f35b3480156108bb57600080fd5b506108c46116f3565b6040518080602001828103825283818151815260200191508051906020019080838360005b838110156109045780820151818401526020810190506108e9565b50505050905090810190601f1680156109315780820380516001836020036101000a031916815260200191505b509250505060405180910390f35b34801561094b57600080fd5b50610954611795565b6040518082815260200191505060405180910390f35b34801561097657600080fd5b506109c36004803603604081101561098d57600080fd5b81019080803573ffffffffffffffffffffffffffffffffffffffff1690602001909291908035906020019092919050505061179b565b604051808215151515815260200191505060405180910390f35b6109e5610c1e565b005b3480156109f357600080fd5b50610a4060048036036040811015610a0a57600080fd5b81019080803573ffffffffffffffffffffffffffffffffffffffff16906020019092919080359060200190929190505050611868565b604051808215151515815260200191505060405180910390f35b348015610a6657600080fd5b50610a6f611886565b604051808263ffffffff1663ffffffff16815260200191505060405180910390f35b348015610a9d57600080fd5b50610aa661189c565b604051808263ffffffff1663ffffffff16815260200191505060405180910390f35b348015610ad457600080fd5b50610b3760048036036040811015610aeb57600080fd5b81019080803573ffffffffffffffffffffffffffffffffffffffff169060200190929190803573ffffffffffffffffffffffffffffffffffffffff1690602001909291905050506118b2565b6040518082815260200191505060405180910390f35b348015610b5957600080fd5b50610b62611939565b6040518082815260200191505060405180910390f35b348015610b8457600080fd5b50610bc760048036036020811015610b9b57600080fd5b81019080803573ffffffffffffffffffffffffffffffffffffffff169060200190929190505050611982565b005b348015610bd557600080fd5b50610c0860048036036020811015610bec57600080fd5b81019080803563ffffffff169060200190929190505050611b92565b6040518082815260200191505060405180910390f35b60003411610c94576040517f08c379a000000000000000000000000000000000000000000000000000000000815260040180806020018281038252601e8152602001807f4d7573742073656e6420657468657220746f2062757920746f6b656e732e000081525060200191505060405180910390fd5b600080610ca034611bdc565b8163ffffffff16915080925081935050503373ffffffffffffffffffffffffffffffffffffffff166108fc829081150290604051600060405180830381858888f19350505050158015610cf7573d6000803e3d6000fd5b505050565b606060038054600181600116156101000203166002900480601f016020809104026020016040519081016040528092919081815260200182805460018160011615610100020316600290048015610d945780601f10610d6957610100808354040283529160200191610d94565b820191906000526020600020905b815481529060010190602001808311610d7757829003601f168201915b5050505050905090565b6000610db2610dab611e6b565b8484611e73565b6001905092915050565b608860009054906101000a900463ffffffff1681565b6000600254905090565b6000610e25608860089054906101000a900463ffffffff1663ffffffff16610e02610dd2565b01608754608860009054906101000a900463ffffffff168563ffffffff1661113b565b9050919050565b6000610e3984848461206a565b610efa84610e45611e6b565b610ef58560405180606001604052806028815260200161347860289139600160008b73ffffffffffffffffffffffffffffffffffffffff1673ffffffffffffffffffffffffffffffffffffffff1681526020019081526020016000206000610eab611e6b565b73ffffffffffffffffffffffffffffffffffffffff1673ffffffffffffffffffffffffffffffffffffffff1681526020019081526020016000205461232b9092919063ffffffff16565b611e73565b600190509392505050565b60008085118015610f165750600084115b8015610f28575060008363ffffffff16115b8015610f435750620f424063ffffffff168363ffffffff1611155b610f4c57600080fd5b6000821415610f5e5760009050611069565b620f424063ffffffff168363ffffffff161415610fa157610f9a84610f8c84886123eb90919063ffffffff16565b61247190919063ffffffff16565b9050611069565b6000806000610fb987866124bb90919063ffffffff16565b9050610fca818888620f4240612543565b80935081945050507fdd970dd9b5bfe707922155b058a407655cb18288b807e2216442bca8ad83d6b5836040518080602001838152602001828103825260188152602001807f526573756c74206f6620706f7765722066756e6374696f6e00000000000000008152506020019250505060405180910390a160008260ff1661105b858b6123eb90919063ffffffff16565b901c90508881039450505050505b949350505050565b6000600560009054906101000a900460ff16905090565b6000611131611095611e6b565b8461112c85600160006110a6611e6b565b73ffffffffffffffffffffffffffffffffffffffff1673ffffffffffffffffffffffffffffffffffffffff16815260200190815260200160002060008973ffffffffffffffffffffffffffffffffffffffff1673ffffffffffffffffffffffffffffffffffffffff168152602001908152602001600020546124bb90919063ffffffff16565b611e73565b6001905092915050565b6000808511801561114c5750600084115b801561115e575060008363ffffffff16115b80156111795750620f424063ffffffff168363ffffffff1611155b80156111855750848211155b61118e57600080fd5b60008214156111a05760009050611263565b848214156111b057839050611263565b620f424063ffffffff168363ffffffff1614156111f3576111ec856111de84876123eb90919063ffffffff16565b61247190919063ffffffff16565b9050611263565b6000806000848803905061120c8882620f424089612543565b8093508194505050600061122984896123eb90919063ffffffff16565b905060008360ff1689901b905061125b8561124d838561259b90919063ffffffff16565b61247190919063ffffffff16565b955050505050505b949350505050565b6000611276826125e5565b90503373ffffffffffffffffffffffffffffffffffffffff166108fc829081150290604051600060405180830381858888f193505050501580156112be573d6000803e3d6000fd5b505050565b60068054600181600116156101000203166002900480601f0160208091040260200160405190810160405280929190818152602001828054600181600116156101000203166002900480156113595780601f1061132e57610100808354040283529160200191611359565b820191906000526020600020905b81548152906001019060200180831161133c57829003601f168201915b505050505081565b61136a81612789565b50565b60008060008373ffffffffffffffffffffffffffffffffffffffff1673ffffffffffffffffffffffffffffffffffffffff168152602001908152602001600020549050919050565b6113bd611e6b565b73ffffffffffffffffffffffffffffffffffffffff16600560019054906101000a900473ffffffffffffffffffffffffffffffffffffffff1673ffffffffffffffffffffffffffffffffffffffff161461147f576040517f08c379a00000000000000000000000000000000000000000000000000000000081526004018080602001828103825260208152602001807f4f776e61626c653a2063616c6c6572206973206e6f7420746865206f776e657281525060200191505060405180910390fd5b600073ffffffffffffffffffffffffffffffffffffffff16600560019054906101000a900473ffffffffffffffffffffffffffffffffffffffff1673ffffffffffffffffffffffffffffffffffffffff167f8be0079c531659141344cd1fd0a4f28419497f9722a3daafe3b4186f6b6457e060405160405180910390a36000600560016101000a81548173ffffffffffffffffffffffffffffffffffffffff021916908373ffffffffffffffffffffffffffffffffffffffff160217905550565b6000608860089054906101000a900463ffffffff1661155d610dd2565b608860049054906101000a900463ffffffff160303905090565b60006115ba608860089054906101000a900463ffffffff1663ffffffff1661159d610dd2565b01608754608860009054906101000a900463ffffffff1685610f05565b9050919050565b600080851180156115d25750600084115b80156115e4575060008363ffffffff16115b80156115ff5750620f424063ffffffff168363ffffffff1611155b61160857600080fd5b60008263ffffffff16141561162057600090506116c1565b620f424063ffffffff168363ffffffff1614156116695761166285611654868563ffffffff166123eb90919063ffffffff16565b61247190919063ffffffff16565b90506116c1565b600080611693611688888663ffffffff166124bb90919063ffffffff16565b88620f424088612543565b809250819350505060008160ff166116b484896123eb90919063ffffffff16565b901c905086810393505050505b949350505050565b6000600560019054906101000a900473ffffffffffffffffffffffffffffffffffffffff16905090565b606060048054600181600116156101000203166002900480601f01602080910402602001604051908101604052809291908181526020018280546001816001161561010002031660029004801561178b5780601f106117605761010080835404028352916020019161178b565b820191906000526020600020905b81548152906001019060200180831161176e57829003601f168201915b5050505050905090565b60875481565b600061185e6117a8611e6b565b846118598560405180606001604052806025815260200161350a60259139600160006117d2611e6b565b73ffffffffffffffffffffffffffffffffffffffff1673ffffffffffffffffffffffffffffffffffffffff16815260200190815260200160002060008a73ffffffffffffffffffffffffffffffffffffffff1673ffffffffffffffffffffffffffffffffffffffff1681526020019081526020016000205461232b9092919063ffffffff16565b611e73565b6001905092915050565b600061187c611875611e6b565b848461206a565b6001905092915050565b608860089054906101000a900463ffffffff1681565b608860049054906101000a900463ffffffff1681565b6000600160008473ffffffffffffffffffffffffffffffffffffffff1673ffffffffffffffffffffffffffffffffffffffff16815260200190815260200160002060008373ffffffffffffffffffffffffffffffffffffffff1673ffffffffffffffffffffffffffffffffffffffff16815260200190815260200160002054905092915050565b600061197d608860089054906101000a900463ffffffff1663ffffffff1661195f610dd2565b01608754608860009054906101000a900463ffffffff1660016115c1565b905090565b61198a611e6b565b73ffffffffffffffffffffffffffffffffffffffff16600560019054906101000a900473ffffffffffffffffffffffffffffffffffffffff1673ffffffffffffffffffffffffffffffffffffffff1614611a4c576040517f08c379a00000000000000000000000000000000000000000000000000000000081526004018080602001828103825260208152602001807f4f776e61626c653a2063616c6c6572206973206e6f7420746865206f776e657281525060200191505060405180910390fd5b600073ffffffffffffffffffffffffffffffffffffffff168173ffffffffffffffffffffffffffffffffffffffff161415611ad2576040517f08c379a00000000000000000000000000000000000000000000000000000000081526004018080602001828103825260268152602001806133e96026913960400191505060405180910390fd5b8073ffffffffffffffffffffffffffffffffffffffff16600560019054906101000a900473ffffffffffffffffffffffffffffffffffffffff1673ffffffffffffffffffffffffffffffffffffffff167f8be0079c531659141344cd1fd0a4f28419497f9722a3daafe3b4186f6b6457e060405160405180910390a380600560016101000a81548173ffffffffffffffffffffffffffffffffffffffff021916908373ffffffffffffffffffffffffffffffffffffffff16021790555050565b6000611bd5608860089054906101000a900463ffffffff1663ffffffff16611bb8610dd2565b01608754608860009054906101000a900463ffffffff16856115c1565b9050919050565b600080608860049054906101000a900463ffffffff1663ffffffff16608860089054906101000a900463ffffffff1663ffffffff16611c19610dd2565b0110611c8d576040517f08c379a000000000000000000000000000000000000000000000000000000000815260040180806020018281038252601e8152602001807f536f7272792c207468697320746f6b656e20697320736f6c64206f75742e000081525060200191505060405180910390fd5b60008311611d03576040517f08c379a00000000000000000000000000000000000000000000000000000000081526004018080602001828103825260198152602001807f4465706f736974206d757374206265206e6f6e2d7a65726f2e0000000000000081525060200191505060405180910390fd5b6000611d0e84611577565b9050611d42608860089054906101000a900463ffffffff1663ffffffff16611d34610dd2565b61259b90919063ffffffff16565b608860049054906101000a900463ffffffff160363ffffffff168163ffffffff161115611db257611d9b608860089054906101000a900463ffffffff1663ffffffff16611d8d610dd2565b61259b90919063ffffffff16565b608860049054906101000a900463ffffffff160390505b6000611dbd82611b92565b9050611dcf338363ffffffff1661292b565b611de4816087546124bb90919063ffffffff16565b6087819055503373ffffffffffffffffffffffffffffffffffffffff167f5b55159a377d86da80a65140d62d994ddbb2cbd4bb2d1b59cb0827fecbe47cab8383604051808363ffffffff1663ffffffff1681526020018281526020019250505060405180910390a281611e60828761259b90919063ffffffff16565b935093505050915091565b600033905090565b600073ffffffffffffffffffffffffffffffffffffffff168373ffffffffffffffffffffffffffffffffffffffff161415611ef9576040517f08c379a00000000000000000000000000000000000000000000000000000000081526004018080602001828103825260248152602001806134e66024913960400191505060405180910390fd5b600073ffffffffffffffffffffffffffffffffffffffff168273ffffffffffffffffffffffffffffffffffffffff161415611f7f576040517f08c379a000000000000000000000000000000000000000000000000000000000815260040180806020018281038252602281526020018061340f6022913960400191505060405180910390fd5b80600160008573ffffffffffffffffffffffffffffffffffffffff1673ffffffffffffffffffffffffffffffffffffffff16815260200190815260200160002060008473ffffffffffffffffffffffffffffffffffffffff1673ffffffffffffffffffffffffffffffffffffffff168152602001908152602001600020819055508173ffffffffffffffffffffffffffffffffffffffff168373ffffffffffffffffffffffffffffffffffffffff167f8c5be1e5ebec7d5bd14f71427d1e84f3dd0314c0f7b2291e5b200ac8c7c3b925836040518082815260200191505060405180910390a3505050565b600073ffffffffffffffffffffffffffffffffffffffff168373ffffffffffffffffffffffffffffffffffffffff1614156120f0576040517f08c379a00000000000000000000000000000000000000000000000000000000081526004018080602001828103825260258152602001806134c16025913960400191505060405180910390fd5b600073ffffffffffffffffffffffffffffffffffffffff168273ffffffffffffffffffffffffffffffffffffffff161415612176576040517f08c379a00000000000000000000000000000000000000000000000000000000081526004018080602001828103825260238152602001806133a46023913960400191505060405180910390fd5b612181838383612af2565b6121ec81604051806060016040528060268152602001613431602691396000808773ffffffffffffffffffffffffffffffffffffffff1673ffffffffffffffffffffffffffffffffffffffff1681526020019081526020016000205461232b9092919063ffffffff16565b6000808573ffffffffffffffffffffffffffffffffffffffff1673ffffffffffffffffffffffffffffffffffffffff1681526020019081526020016000208190555061227f816000808573ffffffffffffffffffffffffffffffffffffffff1673ffffffffffffffffffffffffffffffffffffffff168152602001908152602001600020546124bb90919063ffffffff16565b6000808473ffffffffffffffffffffffffffffffffffffffff1673ffffffffffffffffffffffffffffffffffffffff168152602001908152602001600020819055508173ffffffffffffffffffffffffffffffffffffffff168373ffffffffffffffffffffffffffffffffffffffff167fddf252ad1be2c89b69c2b068fc378daa952ba7f163c4a11628f55a4df523b3ef836040518082815260200191505060405180910390a3505050565b60008383111582906123d8576040517f08c379a00000000000000000000000000000000000000000000000000000000081526004018080602001828103825283818151815260200191508051906020019080838360005b8381101561239d578082015181840152602081019050612382565b50505050905090810190601f1680156123ca5780820380516001836020036101000a031916815260200191505b509250505060405180910390fd5b5060008385039050809150509392505050565b6000808314156123fe576000905061246b565b600082840290508284828161240f57fe5b0414612466576040517f08c379a00000000000000000000000000000000000000000000000000000000081526004018080602001828103825260218152602001806134576021913960400191505060405180910390fd5b809150505b92915050565b60006124b383836040518060400160405280601a81526020017f536166654d6174683a206469766973696f6e206279207a65726f000000000000815250612af7565b905092915050565b600080828401905083811015612539576040517f08c379a000000000000000000000000000000000000000000000000000000000815260040180806020018281038252601b8152602001807f536166654d6174683a206164646974696f6e206f766572666c6f77000000000081525060200191505060405180910390fd5b8091505092915050565b60008060008363ffffffff168563ffffffff166125608989612bbd565b028161256857fe5b049050600061257682612d0a565b905061258b81607f0360ff1683901c82612dbf565b8193509350505094509492505050565b60006125dd83836040518060400160405280601e81526020017f536166654d6174683a207375627472616374696f6e206f766572666c6f77000081525061232b565b905092915050565b6000808263ffffffff1611612662576040517f08c379a00000000000000000000000000000000000000000000000000000000081526004018080602001828103825260188152602001807f416d6f756e74206d757374206265206e6f6e2d7a65726f2e000000000000000081525060200191505060405180910390fd5b8163ffffffff166126723361136d565b10156126e6576040517f08c379a000000000000000000000000000000000000000000000000000000000815260040180806020018281038252601c8152602001807f496e73756666696369656e7420746f6b656e7320746f2073656c6c2e0000000081525060200191505060405180910390fd5b60006126f183610ddc565b90506127088160875461259b90919063ffffffff16565b60878190555061271e338463ffffffff1661315d565b3373ffffffffffffffffffffffffffffffffffffffff167f84c8d08e5480cf09cbf77bc575dc4e63845522693c34094f04129a4dedb7abd78483604051808363ffffffff1663ffffffff1681526020018281526020019250505060405180910390a280915050919050565b60008163ffffffff1611612805576040517f08c379a00000000000000000000000000000000000000000000000000000000081526004018080602001828103825260188152602001807f416d6f756e74206d757374206265206e6f6e2d7a65726f2e000000000000000081525060200191505060405180910390fd5b8063ffffffff166128153361136d565b1015612889576040517f08c379a000000000000000000000000000000000000000000000000000000000815260040180806020018281038252601c8152602001807f496e73756666696369656e7420746f6b656e7320746f206275726e2e0000000081525060200191505060405180910390fd5b612899338263ffffffff1661315d565b80608860089054906101000a900463ffffffff1601608860086101000a81548163ffffffff021916908363ffffffff1602179055503373ffffffffffffffffffffffffffffffffffffffff167fe600c25f82e9bac8f9f1663725540d6cd442845726820fd5bee41b66c4bf59be82604051808263ffffffff1663ffffffff16815260200191505060405180910390a250565b600073ffffffffffffffffffffffffffffffffffffffff168273ffffffffffffffffffffffffffffffffffffffff1614156129ce576040517f08c379a000000000000000000000000000000000000000000000000000000000815260040180806020018281038252601f8152602001807f45524332303a206d696e7420746f20746865207a65726f20616464726573730081525060200191505060405180910390fd5b6129da60008383612af2565b6129ef816002546124bb90919063ffffffff16565b600281905550612a46816000808573ffffffffffffffffffffffffffffffffffffffff1673ffffffffffffffffffffffffffffffffffffffff168152602001908152602001600020546124bb90919063ffffffff16565b6000808473ffffffffffffffffffffffffffffffffffffffff1673ffffffffffffffffffffffffffffffffffffffff168152602001908152602001600020819055508173ffffffffffffffffffffffffffffffffffffffff16600073ffffffffffffffffffffffffffffffffffffffff167fddf252ad1be2c89b69c2b068fc378daa952ba7f163c4a11628f55a4df523b3ef836040518082815260200191505060405180910390a35050565b505050565b60008083118290612ba3576040517f08c379a00000000000000000000000000000000000000000000000000000000081526004018080602001828103825283818151815260200191508051906020019080838360005b83811015612b68578082015181840152602081019050612b4d565b50505050905090810190601f168015612b955780820380516001836020036101000a031916815260200191505b509250505060405180910390fd5b506000838581612baf57fe5b049050809150509392505050565b60007001ffffffffffffffffffffffffffffffff831115612bda57fe5b60008090506000836f80000000000000000000000000000000860281612bfc57fe5b0490507001000000000000000000000000000000008110612c60576000612c3b6f800000000000000000000000000000008381612c3557fe5b04613321565b90508060ff1682901c91506f800000000000000000000000000000008160ff16029250505b6f80000000000000000000000000000000811115612ce6576000607f90505b60008160ff161115612ce4576f8000000000000000000000000000000082830281612ca657fe5b0491507001000000000000000000000000000000008210612cd857600182901c91506001810360ff166001901b830192505b80600190039050612c7f565b505b607a60ff166f02c5c85fdf473de6af278ece600fcbda8302901c9250505092915050565b600080602090506000607f90505b8060ff166001830160ff161015612d67576000600282840160ff1681612d3a57fe5b0490508460078260ff1660808110612d4e57fe5b015410612d5d57809250612d61565b8091505b50612d18565b8360078260ff1660808110612d7857fe5b015410612d89578092505050612dba565b8360078360ff1660808110612d9a57fe5b015410612dab578192505050612dba565b6000612db357fe5b6000925050505b919050565b60008083905060008090508360ff16858302901c91506f03442c4e6074a82f1797f72ac00000008202810190508360ff16858302901c91506f0116b96f757c380fb287fd0e400000008202810190508360ff16858302901c91506e45ae5bdd5f0e03eca1ff43900000008202810190508360ff16858302901c91506e0defabf91302cd95b9ffda500000008202810190508360ff16858302901c91506e02529ca9832b22439efff9b80000008202810190508360ff16858302901c91506d54f1cf12bd04e516b6da880000008202810190508360ff16858302901c91506d0a9e39e257a09ca2d6db510000008202810190508360ff16858302901c91506d012e066e7b839fa050c3090000008202810190508360ff16858302901c91506c1e33d7d926c329a1ad1a8000008202810190508360ff16858302901c91506c02bee513bdb4a6b19b5f8000008202810190508360ff16858302901c91506b3a9316fa79b88eccf2a000008202810190508360ff16858302901c91506b048177ebe1fa8123752000008202810190508360ff16858302901c91506a5263fe90242dcbacf000008202810190508360ff16858302901c91506a057e22099c030d941000008202810190508360ff16858302901c91506957e22099c030d94100008202810190508360ff16858302901c915069052b6b545699763100008202810190508360ff16858302901c9150684985f67696bf7480008202810190508360ff16858302901c91506803dea12ea99e4980008202810190508360ff16858302901c91506731880f2214b6e0008202810190508360ff16858302901c915067025bcff56eb360008202810190508360ff16858302901c9150661b722e10ab10008202810190508360ff16858302901c91506601317c700770008202810190508360ff16858302901c9150650cba84aafa008202810190508360ff16858302901c91506482573a0a008202810190508360ff16858302901c91506405035ad9008202810190508360ff16858302901c9150632f881b008202810190508360ff16858302901c91506301b293408202810190508360ff16858302901c9150620efc408202810190508360ff16858302901c9150617fe08202810190508360ff16858302901c91506104208202810190508360ff16858302901c915060218202810190508360ff16858302901c915060018202810190508360ff166001901b856f0688589cc0e9505e2f2fee5580000000838161315057fe5b0401019250505092915050565b600073ffffffffffffffffffffffffffffffffffffffff168273ffffffffffffffffffffffffffffffffffffffff1614156131e3576040517f08c379a00000000000000000000000000000000000000000000000000000000081526004018080602001828103825260218152602001806134a06021913960400191505060405180910390fd5b6131ef82600083612af2565b61325a816040518060600160405280602281526020016133c7602291396000808673ffffffffffffffffffffffffffffffffffffffff1673ffffffffffffffffffffffffffffffffffffffff1681526020019081526020016000205461232b9092919063ffffffff16565b6000808473ffffffffffffffffffffffffffffffffffffffff1673ffffffffffffffffffffffffffffffffffffffff168152602001908152602001600020819055506132b18160025461259b90919063ffffffff16565b600281905550600073ffffffffffffffffffffffffffffffffffffffff168273ffffffffffffffffffffffffffffffffffffffff167fddf252ad1be2c89b69c2b068fc378daa952ba7f163c4a11628f55a4df523b3ef836040518082815260200191505060405180910390a35050565b600080600090506000839050610100811015613358575b600181111561335357600181901c9050600182019150613338565b613399565b6000608090505b60008160ff161115613397578060ff166001901b8210613388578060ff1682901c915080831792505b60018160ff16901c905061335f565b505b819250505091905056fe45524332303a207472616e7366657220746f20746865207a65726f206164647265737345524332303a206275726e20616d6f756e7420657863656564732062616c616e63654f776e61626c653a206e6577206f776e657220697320746865207a65726f206164647265737345524332303a20617070726f766520746f20746865207a65726f206164647265737345524332303a207472616e7366657220616d6f756e7420657863656564732062616c616e6365536166654d6174683a206d756c7469706c69636174696f6e206f766572666c6f7745524332303a207472616e7366657220616d6f756e74206578636565647320616c6c6f77616e636545524332303a206275726e2066726f6d20746865207a65726f206164647265737345524332303a207472616e736665722066726f6d20746865207a65726f206164647265737345524332303a20617070726f76652066726f6d20746865207a65726f206164647265737345524332303a2064656372656173656420616c6c6f77616e63652062656c6f77207a65726fa2646970667358221220baea1f8b0c1687ad49b57a27ef7eb66bb4f2bc0af42d7212055a4818d07a00ae64736f6c63430006060033",
  "immutableReferences": {},
  "source": "pragma solidity ^0.6.6;\n\nimport \"@openzeppelin/contracts/token/ERC20/ERC20.sol\";\nimport \"@openzeppelin/contracts/access/Ownable.sol\";\nimport \"./BancorBondingCurve.sol\";\n\ncontract ProductToken is ERC20, Ownable, BancorBondingCurve {\n\tusing SafeMath for uint256;\n\n\tevent Buy(address indexed sender, uint32 amount, uint deposit);\t\t// event to fire when a new token is minted\n  event Sell(address indexed sender, uint32 amount, uint refund);\t\t\t// event to fire when a token has been sold back\n  event Tradein(address indexed sender, uint32 amount);\t\t\t\t\t\t\t\t\t// event to fire when a token is redeemed in the real world\n\n  // uint256 public basePrice;\n  uint256 public reserveBalance;\t\t// amount in ether, about 1/3 of a ether. This is initialized for testing, according to\n                                                        // a pricing function of y = x ^ 2, at a token supply (x) of 1\n  // uint32 public exponent;\n  uint32 public reserveRatio;\n\n\n  uint32 public maxTokenCount;\n  uint32 public tradeinCount = 0;\n\n\t/**\n   * @dev Constructor\n   *\n   * @param _reserveRatio             the reserve ratio in the curve function\n   * @param _maxTokenCount\t\t\t\t\t\tthe amount of token that will exist for this type.\n  */\n  constructor(uint32 _reserveRatio, uint32 _maxTokenCount, uint256 _baseReserve) ERC20(\"ProductToken\", \"\") public {\t\t\n  \trequire(_maxTokenCount > 0, \"Invalid max token count.\");\n    require(_reserveRatio > 0, \"Invalid reserve ratio\");\n    reserveBalance = _baseReserve;\n  \t// exponent = _exponent;\n    reserveRatio = _reserveRatio;\t\t// initialize the reserve ratio for this token in ppm. \n                                                                      // This is hardcoded right now because we are testing with 33%\n    maxTokenCount = _maxTokenCount;\n    _mint(msg.sender, 1);  \n  }\n\n  /**\n   * @dev When user wants to buy tokens from the pool\n   *\n  */\n  function buy() public payable {\n    require(msg.value > 0, \"Must send ether to buy tokens.\");\n    uint256 amount;\n    uint256 change;\n    (amount, change) = _buyForAmount(msg.value);\n    // return change back to the sender.\n    msg.sender.transfer(change);\n  }\n\n\t/**\n   * @dev When user wants to sell their tokens back to the pool\n   *\n  */\n \tfunction sell(uint32 _amount) public {\n    uint256 returnAmount = _sellForAmount(_amount);\n    msg.sender.transfer(returnAmount);\n  }\n\n\t/**\n   * @dev When user wants to trade in their token for retail product\n   * the logistics for transfering product should be handled elsewhere\n   *\n  */\n  function tradein(uint32 _amount) public {\n  \t_tradeinForAmount(_amount);\n  }\n\n  fallback () external payable { buy(); }\n\n  // View Functions for outside.\n  function getAvailability()\n    public view returns (uint32 available)\n  {\n    return maxTokenCount - uint32(totalSupply()) - tradeinCount;    // add safemath for uint32 later\n  }\n\n  // function getTradeinCount()                                         Don't need these, because public variable have getters by default\n  //   public view returns (uint32 _amountTraded)\n  // {\n  //   return tradeinCount;\n  // }\n\n  // function getSupply()\n  //   public view returns (uint32 maxToken)\n  // {\n  //   return maxTokenCount;\n  // }\n\n  function getCurrentPrice() \n  \tpublic returns\t(uint256 price)\n  {\n  \treturn calculatePriceForNTokens(totalSupply() + tradeinCount, reserveBalance, reserveRatio, 1);\n  }\n\n  function getPriceForN(uint32 _amountProduct) \n  \tpublic returns\t(uint256 price)\n  {\n  \treturn calculatePriceForNTokens(totalSupply() + tradeinCount, reserveBalance, reserveRatio, _amountProduct);\n  }\n\n  function calculateBuyReturn(uint256 _amountReserve)\n    public returns (uint32 mintAmount)\n  {\n    return calculatePurchaseReturn(totalSupply() + tradeinCount, reserveBalance, reserveRatio, _amountReserve);\n  }\n\n  function calculateSellReturn(uint32 _amountProduct)\n    public returns (uint256 soldAmount)\n  {\n    return calculateSaleReturn(totalSupply() + tradeinCount, reserveBalance, reserveRatio, _amountProduct);\n  }\n\n  // specific implementations of transaction logics.\n   /**\n   * @dev calculates the return for a given conversion (in product token) \n   * This function will try to compute the amount of tokens one can buy first, \n   * then it will initiate a transfer and for any extras, return as change.\n   * if any tokens purchases are confirmed, it will update ownerTokenCount mappin. \n   *\n   * @param _deposit              reserve total deposited\n   *\n   * @return token                amount bought in product token\n  */\n  function _buyForAmount(uint256 _deposit)\n    internal returns (uint32, uint256)\n  {\n  \trequire(totalSupply() + tradeinCount < maxTokenCount, \"Sorry, this token is sold out.\");\n    require(_deposit > 0, \"Deposit must be non-zero.\");\n\n    uint32 amount = calculateBuyReturn(_deposit);\t    // have to make it discrete here. Replace amount with uint32\n    // If the amount in _deposit is more than enough to buy out the rest of the token in the pool\n    if (amount > maxTokenCount - uint32(totalSupply().sub(tradeinCount))) {   // this logic can be refactored.\n      amount = maxTokenCount - uint32(totalSupply().sub(tradeinCount));\n    }\n    uint256 actualDeposit = getPriceForN(amount);\n    _mint(msg.sender, amount);\n    reserveBalance = reserveBalance.add(actualDeposit);\n    emit Buy(msg.sender, amount, actualDeposit);\t\t// probably needs to be redesigned for ease of read and understanding.\n    return (amount, _deposit.sub(actualDeposit));    // return amount of token bought and change\n  }\n\n   /**\n   * @dev calculates the return for a given conversion (in the reserve token) \n   * This function will try to compute the amount of liquidity one gets by selling one token, \n   * then it will initiate a transfer.\n   * said token then will be burned to reduce total supply, but won't be added to the tradeinCount variable \n   *\n   * @param _amount              product token wishes to be sold\n   *\n   * @return token               amount sold in reserved token\n  */\n  function _sellForAmount(uint32 _amount)\n    internal returns (uint256)\n  {\n  \trequire(_amount > 0, \"Amount must be non-zero.\");\n    require(balanceOf(msg.sender) >= _amount, \"Insufficient tokens to sell.\");\n    // calculate amount of liquidity to reimburse\n  \tuint256 reimburseAmount = calculateSellReturn(_amount);\n \t\treserveBalance = reserveBalance.sub(reimburseAmount);\n    _burn(msg.sender, _amount);\n    emit Sell(msg.sender, _amount, reimburseAmount);\n    return reimburseAmount;\n  }\n\n\n   /**\n   * @dev initiate token logics after a token is traded in. \n   * This function only handles logics corresponding to \n   *\n   * @param _amount              product token wishes to be traded-in\n  */\n  function _tradeinForAmount(uint32 _amount)\n    internal \n  {\n    require(_amount > 0, \"Amount must be non-zero.\");\n    require(balanceOf(msg.sender) >= _amount, \"Insufficient tokens to burn.\");\n\n    _burn(msg.sender, _amount);\n    tradeinCount = tradeinCount + _amount;\t\t\t// Future: use safe math here.\n    emit Tradein(msg.sender, _amount);\n  }\n}\n",
  "sourcePath": "/Users/sd/Documents/GitHub/virtualmarket/client/src/contracts/ProductToken.sol",
  "compiler": {
    "name": "solc",
    "version": "0.6.6+commit.6c089d02.Emscripten.clang"
  },
  "schemaVersion": "3.3.4",
  "updatedAt": "2021-04-14T21:07:42.316Z",
  "networkType": "ethereum",
  "devdoc": {
    "methods": {
      "allowance(address,address)": {
        "details": "See {IERC20-allowance}."
      },
      "approve(address,uint256)": {
        "details": "See {IERC20-approve}.     * Requirements:     * - `spender` cannot be the zero address."
      },
      "balanceOf(address)": {
        "details": "See {IERC20-balanceOf}."
      },
      "buy()": {
        "details": "When user wants to buy tokens from the pool  "
      },
      "calculatePriceForNTokens(uint256,uint256,uint32,uint32)": {
        "details": "Try to compute the price to purchage n token   * Formula: Return = _reserveBalance * (((_amount / _supply + 1) ^ (1 / _reserveRatio)) - 1)",
        "params": {
          "_amount": "number to tokens one wishes to purchase",
          "_reserveBalance": "total reserve token balance",
          "_reserveRatio": "the reserve ratio in the bancor curve.",
          "_supply": "continuous token total supply"
        },
        "returns": {
          "_0": "price for N tokens "
        }
      },
      "calculatePurchaseReturn(uint256,uint256,uint32,uint256)": {
        "details": "given a continuous token supply, reserve token balance, reserve ratio, and a deposit amount (in the reserve token), calculates the return for a given conversion (in the continuous token)   * Formula: Return = _supply * ((1 + _depositAmount / _reserveBalance) ^ (_reserveRatio / MAX_RESERVE_RATIO) - 1)",
        "params": {
          "_depositAmount": "deposit amount, in reserve token",
          "_reserveBalance": "total reserve token balance",
          "_reserveRatio": "reserve ratio, represented in ppm, 1-1000000",
          "_supply": "continuous token total supply"
        },
        "returns": {
          "_0": "purchase return amount"
        }
      },
      "calculateSaleReturn(uint256,uint256,uint32,uint256)": {
        "details": "given a continuous token supply, reserve token balance, reserve ratio and a sell amount (in the continuous token), calculates the return for a given conversion (in the reserve token)   * Formula: Return = _reserveBalance * (1 - (1 - _sellAmount / _supply) ^ (1 / (_reserveRatio / MAX_RESERVE_RATIO)))",
        "params": {
          "_reserveBalance": "total reserve token balance",
          "_reserveRatio": "constant reserve ratio, represented in ppm, 1-1000000",
          "_sellAmount": "sell amount, in the continuous token itself",
          "_supply": "continuous token total supply"
        },
        "returns": {
          "_0": "sale return amount"
        }
      },
      "constructor": {
        "details": "Constructor",
        "params": {
          "_maxTokenCount": "the amount of token that will exist for this type.",
          "_reserveRatio": "the reserve ratio in the curve function"
        }
      },
      "decimals()": {
        "details": "Returns the number of decimals used to get its user representation. For example, if `decimals` equals `2`, a balance of `505` tokens should be displayed to a user as `5,05` (`505 / 10 ** 2`).     * Tokens usually opt for a value of 18, imitating the relationship between Ether and Wei. This is the value {ERC20} uses, unless {_setupDecimals} is called.     * NOTE: This information is only used for _display_ purposes: it in no way affects any of the arithmetic of the contract, including {IERC20-balanceOf} and {IERC20-transfer}."
      },
      "decreaseAllowance(address,uint256)": {
        "details": "Atomically decreases the allowance granted to `spender` by the caller.     * This is an alternative to {approve} that can be used as a mitigation for problems described in {IERC20-approve}.     * Emits an {Approval} event indicating the updated allowance.     * Requirements:     * - `spender` cannot be the zero address. - `spender` must have allowance for the caller of at least `subtractedValue`."
      },
      "increaseAllowance(address,uint256)": {
        "details": "Atomically increases the allowance granted to `spender` by the caller.     * This is an alternative to {approve} that can be used as a mitigation for problems described in {IERC20-approve}.     * Emits an {Approval} event indicating the updated allowance.     * Requirements:     * - `spender` cannot be the zero address."
      },
      "name()": {
        "details": "Returns the name of the token."
      },
      "owner()": {
        "details": "Returns the address of the current owner."
      },
      "renounceOwnership()": {
        "details": "Leaves the contract without owner. It will not be possible to call `onlyOwner` functions anymore. Can only be called by the current owner.     * NOTE: Renouncing ownership will leave the contract without an owner, thereby removing any functionality that is only available to the owner."
      },
      "sell(uint32)": {
        "details": "When user wants to sell their tokens back to the pool  "
      },
      "symbol()": {
        "details": "Returns the symbol of the token, usually a shorter version of the name."
      },
      "totalSupply()": {
        "details": "See {IERC20-totalSupply}."
      },
      "tradein(uint32)": {
        "details": "When user wants to trade in their token for retail product the logistics for transfering product should be handled elsewhere  "
      },
      "transfer(address,uint256)": {
        "details": "See {IERC20-transfer}.     * Requirements:     * - `recipient` cannot be the zero address. - the caller must have a balance of at least `amount`."
      },
      "transferFrom(address,address,uint256)": {
        "details": "See {IERC20-transferFrom}.     * Emits an {Approval} event indicating the updated allowance. This is not required by the EIP. See the note at the beginning of {ERC20};     * Requirements: - `sender` and `recipient` cannot be the zero address. - `sender` must have a balance of at least `amount`. - the caller must have allowance for ``sender``'s tokens of at least `amount`."
      },
      "transferOwnership(address)": {
        "details": "Transfers ownership of the contract to a new account (`newOwner`). Can only be called by the current owner."
      }
    }
  },
  "userdoc": {
    "methods": {}
  }
}