{
  "_format": "hh-sol-artifact-1",
  "contractName": "ProductTokenV1",
  "sourceName": "contracts/ProductTokenV1.sol",
  "abi": [
    {
      "anonymous": false,
      "inputs": [
        {
          "indexed": true,
          "internalType": "address",
          "name": "owner",
          "type": "address"
        },
        {
          "indexed": true,
          "internalType": "address",
          "name": "spender",
          "type": "address"
        },
        {
          "indexed": false,
          "internalType": "uint256",
          "name": "value",
          "type": "uint256"
        }
      ],
      "name": "Approval",
      "type": "event"
    },
    {
      "anonymous": false,
      "inputs": [
        {
          "indexed": true,
          "internalType": "address",
          "name": "sender",
          "type": "address"
        },
        {
          "indexed": false,
          "internalType": "uint32",
          "name": "amount",
          "type": "uint32"
        },
        {
          "indexed": false,
          "internalType": "uint256",
          "name": "deposit",
          "type": "uint256"
        }
      ],
      "name": "Buy",
      "type": "event"
    },
    {
      "anonymous": false,
      "inputs": [
        {
          "indexed": true,
          "internalType": "address",
          "name": "newCreator",
          "type": "address"
        }
      ],
      "name": "CreatorTransfer",
      "type": "event"
    },
    {
      "anonymous": false,
      "inputs": [
        {
          "indexed": true,
          "internalType": "address",
          "name": "previousOwner",
          "type": "address"
        },
        {
          "indexed": true,
          "internalType": "address",
          "name": "newOwner",
          "type": "address"
        }
      ],
      "name": "OwnershipTransferred",
      "type": "event"
    },
    {
      "anonymous": false,
      "inputs": [
        {
          "indexed": true,
          "internalType": "address",
          "name": "sender",
          "type": "address"
        },
        {
          "indexed": false,
          "internalType": "uint32",
          "name": "amount",
          "type": "uint32"
        },
        {
          "indexed": false,
          "internalType": "uint256",
          "name": "refund",
          "type": "uint256"
        }
      ],
      "name": "Sell",
      "type": "event"
    },
    {
      "anonymous": false,
      "inputs": [
        {
          "indexed": true,
          "internalType": "address",
          "name": "sender",
          "type": "address"
        },
        {
          "indexed": false,
          "internalType": "uint32",
          "name": "amount",
          "type": "uint32"
        }
      ],
      "name": "Tradein",
      "type": "event"
    },
    {
      "anonymous": false,
      "inputs": [
        {
          "indexed": true,
          "internalType": "address",
          "name": "from",
          "type": "address"
        },
        {
          "indexed": true,
          "internalType": "address",
          "name": "to",
          "type": "address"
        },
        {
          "indexed": false,
          "internalType": "uint256",
          "name": "value",
          "type": "uint256"
        }
      ],
      "name": "Transfer",
      "type": "event"
    },
    {
      "anonymous": false,
      "inputs": [
        {
          "indexed": false,
          "internalType": "address",
          "name": "daiAddress",
          "type": "address"
        },
        {
          "indexed": false,
          "internalType": "address",
          "name": "chainlinkAddress",
          "type": "address"
        }
      ],
      "name": "Update",
      "type": "event"
    },
    {
      "anonymous": false,
      "inputs": [
        {
          "indexed": false,
          "internalType": "address",
          "name": "",
          "type": "address"
        },
        {
          "indexed": false,
          "internalType": "uint256",
          "name": "",
          "type": "uint256"
        },
        {
          "components": [
            {
              "internalType": "enum Escrow.escrowState",
              "name": "state",
              "type": "uint8"
            },
            {
              "internalType": "uint32",
              "name": "amount",
              "type": "uint32"
            },
            {
              "internalType": "uint256",
              "name": "value",
              "type": "uint256"
            }
          ],
          "indexed": false,
          "internalType": "struct Escrow.escrowInfo",
          "name": "",
          "type": "tuple"
        }
      ],
      "name": "escrowStateUpdated",
      "type": "event"
    },
    {
      "stateMutability": "nonpayable",
      "type": "fallback"
    },
    {
      "inputs": [],
      "name": "__BancorBondingCurve_init",
      "outputs": [],
      "stateMutability": "nonpayable",
      "type": "function"
    },
    {
      "inputs": [],
      "name": "__Power_init",
      "outputs": [],
      "stateMutability": "nonpayable",
      "type": "function"
    },
    {
      "inputs": [
        {
          "internalType": "address",
          "name": "owner",
          "type": "address"
        },
        {
          "internalType": "address",
          "name": "spender",
          "type": "address"
        }
      ],
      "name": "allowance",
      "outputs": [
        {
          "internalType": "uint256",
          "name": "",
          "type": "uint256"
        }
      ],
      "stateMutability": "view",
      "type": "function"
    },
    {
      "inputs": [
        {
          "internalType": "address",
          "name": "spender",
          "type": "address"
        },
        {
          "internalType": "uint256",
          "name": "amount",
          "type": "uint256"
        }
      ],
      "name": "approve",
      "outputs": [
        {
          "internalType": "bool",
          "name": "",
          "type": "bool"
        }
      ],
      "stateMutability": "nonpayable",
      "type": "function"
    },
    {
      "inputs": [
        {
          "internalType": "address",
          "name": "account",
          "type": "address"
        }
      ],
      "name": "balanceOf",
      "outputs": [
        {
          "internalType": "uint256",
          "name": "",
          "type": "uint256"
        }
      ],
      "stateMutability": "view",
      "type": "function"
    },
    {
      "inputs": [
        {
          "internalType": "uint32",
          "name": "_amount",
          "type": "uint32"
        }
      ],
      "name": "buy",
      "outputs": [],
      "stateMutability": "payable",
      "type": "function"
    },
    {
      "inputs": [
        {
          "internalType": "uint256",
          "name": "_daiAmount",
          "type": "uint256"
        },
        {
          "internalType": "uint32",
          "name": "_amount",
          "type": "uint32"
        }
      ],
      "name": "buyWithDai",
      "outputs": [],
      "stateMutability": "nonpayable",
      "type": "function"
    },
    {
      "inputs": [
        {
          "internalType": "uint256",
          "name": "_amountReserve",
          "type": "uint256"
        }
      ],
      "name": "calculateBuyReturn",
      "outputs": [
        {
          "internalType": "uint32",
          "name": "mintAmount",
          "type": "uint32"
        }
      ],
      "stateMutability": "view",
      "type": "function"
    },
    {
      "inputs": [
        {
          "internalType": "uint32",
          "name": "_supply",
          "type": "uint32"
        },
        {
          "internalType": "uint256",
          "name": "_reserveBalance",
          "type": "uint256"
        },
        {
          "internalType": "uint32",
          "name": "_reserveRatio",
          "type": "uint32"
        },
        {
          "internalType": "uint32",
          "name": "_amount",
          "type": "uint32"
        }
      ],
      "name": "calculatePriceForNTokens",
      "outputs": [
        {
          "internalType": "uint256",
          "name": "",
          "type": "uint256"
        }
      ],
      "stateMutability": "view",
      "type": "function"
    },
    {
      "inputs": [
        {
          "internalType": "uint32",
          "name": "_supply",
          "type": "uint32"
        },
        {
          "internalType": "uint256",
          "name": "_reserveBalance",
          "type": "uint256"
        },
        {
          "internalType": "uint32",
          "name": "_reserveRatio",
          "type": "uint32"
        },
        {
          "internalType": "uint256",
          "name": "_depositAmount",
          "type": "uint256"
        }
      ],
      "name": "calculatePurchaseReturn",
      "outputs": [
        {
          "internalType": "uint32",
          "name": "",
          "type": "uint32"
        }
      ],
      "stateMutability": "view",
      "type": "function"
    },
    {
      "inputs": [
        {
          "internalType": "uint32",
          "name": "_supply",
          "type": "uint32"
        },
        {
          "internalType": "uint256",
          "name": "_reserveBalance",
          "type": "uint256"
        },
        {
          "internalType": "uint32",
          "name": "_reserveRatio",
          "type": "uint32"
        },
        {
          "internalType": "uint32",
          "name": "_sellAmount",
          "type": "uint32"
        }
      ],
      "name": "calculateSaleReturn",
      "outputs": [
        {
          "internalType": "uint256",
          "name": "",
          "type": "uint256"
        }
      ],
      "stateMutability": "view",
      "type": "function"
    },
    {
      "inputs": [
        {
          "internalType": "uint32",
          "name": "_amountProduct",
          "type": "uint32"
        }
      ],
      "name": "calculateSellReturn",
      "outputs": [
        {
          "internalType": "uint256",
          "name": "soldAmount",
          "type": "uint256"
        }
      ],
      "stateMutability": "view",
      "type": "function"
    },
    {
      "inputs": [
        {
          "internalType": "address",
          "name": "buyer",
          "type": "address"
        },
        {
          "internalType": "uint256",
          "name": "id",
          "type": "uint256"
        }
      ],
      "name": "confirmDelivery",
      "outputs": [],
      "stateMutability": "nonpayable",
      "type": "function"
    },
    {
      "inputs": [],
      "name": "creator",
      "outputs": [
        {
          "internalType": "address payable",
          "name": "",
          "type": "address"
        }
      ],
      "stateMutability": "view",
      "type": "function"
    },
    {
      "inputs": [],
      "name": "dai",
      "outputs": [
        {
          "internalType": "contract IERC20",
          "name": "",
          "type": "address"
        }
      ],
      "stateMutability": "view",
      "type": "function"
    },
    {
      "inputs": [],
      "name": "decimals",
      "outputs": [
        {
          "internalType": "uint8",
          "name": "",
          "type": "uint8"
        }
      ],
      "stateMutability": "view",
      "type": "function"
    },
    {
      "inputs": [
        {
          "internalType": "address",
          "name": "spender",
          "type": "address"
        },
        {
          "internalType": "uint256",
          "name": "subtractedValue",
          "type": "uint256"
        }
      ],
      "name": "decreaseAllowance",
      "outputs": [
        {
          "internalType": "bool",
          "name": "",
          "type": "bool"
        }
      ],
      "stateMutability": "nonpayable",
      "type": "function"
    },
    {
      "inputs": [
        {
          "internalType": "address",
          "name": "",
          "type": "address"
        },
        {
          "internalType": "uint256",
          "name": "",
          "type": "uint256"
        }
      ],
      "name": "escrowList",
      "outputs": [
        {
          "internalType": "enum Escrow.escrowState",
          "name": "state",
          "type": "uint8"
        },
        {
          "internalType": "uint32",
          "name": "amount",
          "type": "uint32"
        },
        {
          "internalType": "uint256",
          "name": "value",
          "type": "uint256"
        }
      ],
      "stateMutability": "view",
      "type": "function"
    },
    {
      "inputs": [],
      "name": "getAvailability",
      "outputs": [
        {
          "internalType": "uint32",
          "name": "available",
          "type": "uint32"
        }
      ],
      "stateMutability": "view",
      "type": "function"
    },
    {
      "inputs": [
        {
          "internalType": "address",
          "name": "buyer",
          "type": "address"
        }
      ],
      "name": "getBuyerHistory",
      "outputs": [
        {
          "components": [
            {
              "internalType": "enum Escrow.escrowState",
              "name": "state",
              "type": "uint8"
            },
            {
              "internalType": "uint32",
              "name": "amount",
              "type": "uint32"
            },
            {
              "internalType": "uint256",
              "name": "value",
              "type": "uint256"
            }
          ],
          "internalType": "struct Escrow.escrowInfo[]",
          "name": "",
          "type": "tuple[]"
        }
      ],
      "stateMutability": "view",
      "type": "function"
    },
    {
      "inputs": [],
      "name": "getCurrentPrice",
      "outputs": [
        {
          "internalType": "uint256",
          "name": "price",
          "type": "uint256"
        }
      ],
      "stateMutability": "view",
      "type": "function"
    },
    {
      "inputs": [
        {
          "internalType": "enum Escrow.escrowState",
          "name": "state",
          "type": "uint8"
        }
      ],
      "name": "getEscrowStateByValue",
      "outputs": [
        {
          "internalType": "string",
          "name": "",
          "type": "string"
        }
      ],
      "stateMutability": "pure",
      "type": "function"
    },
    {
      "inputs": [],
      "name": "getLatestDaiEthPrice",
      "outputs": [
        {
          "internalType": "int256",
          "name": "",
          "type": "int256"
        }
      ],
      "stateMutability": "view",
      "type": "function"
    },
    {
      "inputs": [
        {
          "internalType": "uint32",
          "name": "_amountProduct",
          "type": "uint32"
        }
      ],
      "name": "getPriceForN",
      "outputs": [
        {
          "internalType": "uint256",
          "name": "price",
          "type": "uint256"
        }
      ],
      "stateMutability": "view",
      "type": "function"
    },
    {
      "inputs": [
        {
          "internalType": "address",
          "name": "buyer",
          "type": "address"
        },
        {
          "internalType": "uint256",
          "name": "id",
          "type": "uint256"
        }
      ],
      "name": "getRedeemStatus",
      "outputs": [
        {
          "internalType": "enum Escrow.escrowState",
          "name": "",
          "type": "uint8"
        }
      ],
      "stateMutability": "view",
      "type": "function"
    },
    {
      "inputs": [
        {
          "internalType": "address",
          "name": "spender",
          "type": "address"
        },
        {
          "internalType": "uint256",
          "name": "addedValue",
          "type": "uint256"
        }
      ],
      "name": "increaseAllowance",
      "outputs": [
        {
          "internalType": "bool",
          "name": "",
          "type": "bool"
        }
      ],
      "stateMutability": "nonpayable",
      "type": "function"
    },
    {
      "inputs": [
        {
          "internalType": "string",
          "name": "_name",
          "type": "string"
        },
        {
          "internalType": "string",
          "name": "_symbol",
          "type": "string"
        },
        {
          "internalType": "uint32",
          "name": "_reserveRatio",
          "type": "uint32"
        },
        {
          "internalType": "uint32",
          "name": "_maxTokenCount",
          "type": "uint32"
        },
        {
          "internalType": "uint32",
          "name": "_supplyOffset",
          "type": "uint32"
        },
        {
          "internalType": "uint256",
          "name": "_baseReserve",
          "type": "uint256"
        }
      ],
      "name": "initialize",
      "outputs": [],
      "stateMutability": "nonpayable",
      "type": "function"
    },
    {
      "inputs": [
        {
          "internalType": "string",
          "name": "_name",
          "type": "string"
        },
        {
          "internalType": "string",
          "name": "_symbol",
          "type": "string"
        },
        {
          "internalType": "uint32",
          "name": "_reserveRatio",
          "type": "uint32"
        },
        {
          "internalType": "uint32",
          "name": "_maxTokenCount",
          "type": "uint32"
        },
        {
          "internalType": "uint32",
          "name": "_supplyOffset",
          "type": "uint32"
        },
        {
          "internalType": "uint256",
          "name": "_baseReserve",
          "type": "uint256"
        },
        {
          "internalType": "address",
          "name": "_daiAddress",
          "type": "address"
        },
        {
          "internalType": "address",
          "name": "_chainlink",
          "type": "address"
        }
      ],
      "name": "initialize",
      "outputs": [],
      "stateMutability": "nonpayable",
      "type": "function"
    },
    {
      "inputs": [
        {
          "internalType": "enum Escrow.escrowState",
          "name": "state",
          "type": "uint8"
        }
      ],
      "name": "isStateCompleted",
      "outputs": [
        {
          "internalType": "bool",
          "name": "",
          "type": "bool"
        }
      ],
      "stateMutability": "pure",
      "type": "function"
    },
    {
      "inputs": [],
      "name": "maxTokenCount",
      "outputs": [
        {
          "internalType": "uint32",
          "name": "",
          "type": "uint32"
        }
      ],
      "stateMutability": "view",
      "type": "function"
    },
    {
      "inputs": [],
      "name": "name",
      "outputs": [
        {
          "internalType": "string",
          "name": "",
          "type": "string"
        }
      ],
      "stateMutability": "view",
      "type": "function"
    },
    {
      "inputs": [],
      "name": "owner",
      "outputs": [
        {
          "internalType": "address",
          "name": "",
          "type": "address"
        }
      ],
      "stateMutability": "view",
      "type": "function"
    },
    {
      "inputs": [],
      "name": "renounceOwnership",
      "outputs": [],
      "stateMutability": "nonpayable",
      "type": "function"
    },
    {
      "inputs": [],
      "name": "reserveBalance",
      "outputs": [
        {
          "internalType": "uint256",
          "name": "",
          "type": "uint256"
        }
      ],
      "stateMutability": "view",
      "type": "function"
    },
    {
      "inputs": [],
      "name": "reserveRatio",
      "outputs": [
        {
          "internalType": "uint32",
          "name": "",
          "type": "uint32"
        }
      ],
      "stateMutability": "view",
      "type": "function"
    },
    {
      "inputs": [
        {
          "internalType": "uint32",
          "name": "_amount",
          "type": "uint32"
        }
      ],
      "name": "sell",
      "outputs": [],
      "stateMutability": "nonpayable",
      "type": "function"
    },
    {
      "inputs": [
        {
          "internalType": "address payable",
          "name": "_creator",
          "type": "address"
        }
      ],
      "name": "setCreator",
      "outputs": [],
      "stateMutability": "nonpayable",
      "type": "function"
    },
    {
      "inputs": [],
      "name": "symbol",
      "outputs": [
        {
          "internalType": "string",
          "name": "",
          "type": "string"
        }
      ],
      "stateMutability": "view",
      "type": "function"
    },
    {
      "inputs": [],
      "name": "totalSupply",
      "outputs": [
        {
          "internalType": "uint256",
          "name": "",
          "type": "uint256"
        }
      ],
      "stateMutability": "view",
      "type": "function"
    },
    {
      "inputs": [
        {
          "internalType": "uint32",
          "name": "_amount",
          "type": "uint32"
        }
      ],
      "name": "tradein",
      "outputs": [],
      "stateMutability": "nonpayable",
      "type": "function"
    },
    {
      "inputs": [],
      "name": "tradeinCount",
      "outputs": [
        {
          "internalType": "uint32",
          "name": "",
          "type": "uint32"
        }
      ],
      "stateMutability": "view",
      "type": "function"
    },
    {
      "inputs": [
        {
          "internalType": "address",
          "name": "recipient",
          "type": "address"
        },
        {
          "internalType": "uint256",
          "name": "amount",
          "type": "uint256"
        }
      ],
      "name": "transfer",
      "outputs": [
        {
          "internalType": "bool",
          "name": "",
          "type": "bool"
        }
      ],
      "stateMutability": "nonpayable",
      "type": "function"
    },
    {
      "inputs": [
        {
          "internalType": "address",
          "name": "sender",
          "type": "address"
        },
        {
          "internalType": "address",
          "name": "recipient",
          "type": "address"
        },
        {
          "internalType": "uint256",
          "name": "amount",
          "type": "uint256"
        }
      ],
      "name": "transferFrom",
      "outputs": [
        {
          "internalType": "bool",
          "name": "",
          "type": "bool"
        }
      ],
      "stateMutability": "nonpayable",
      "type": "function"
    },
    {
      "inputs": [
        {
          "internalType": "address",
          "name": "newOwner",
          "type": "address"
        }
      ],
      "name": "transferOwnership",
      "outputs": [],
      "stateMutability": "nonpayable",
      "type": "function"
    },
    {
      "inputs": [
        {
          "internalType": "address",
          "name": "_daiAddress",
          "type": "address"
        },
        {
          "internalType": "address",
          "name": "_chainlink",
          "type": "address"
        }
      ],
      "name": "update",
      "outputs": [],
      "stateMutability": "nonpayable",
      "type": "function"
    },
    {
      "inputs": [
        {
          "internalType": "address",
          "name": "buyer",
          "type": "address"
        },
        {
          "internalType": "uint256",
          "name": "id",
          "type": "uint256"
        }
      ],
      "name": "updateServerCheck",
      "outputs": [],
      "stateMutability": "nonpayable",
      "type": "function"
    },
    {
      "inputs": [
        {
          "internalType": "address",
          "name": "buyer",
          "type": "address"
        },
        {
          "internalType": "uint256",
          "name": "id",
          "type": "uint256"
        }
      ],
      "name": "updateUserCompleted",
      "outputs": [],
      "stateMutability": "nonpayable",
      "type": "function"
    },
    {
      "inputs": [
        {
          "internalType": "address",
          "name": "buyer",
          "type": "address"
        },
        {
          "internalType": "uint256",
          "name": "id",
          "type": "uint256"
        }
      ],
      "name": "updateUserRefund",
      "outputs": [],
      "stateMutability": "nonpayable",
      "type": "function"
    },
    {
      "inputs": [],
      "name": "version",
      "outputs": [
        {
          "internalType": "string",
          "name": "",
          "type": "string"
        }
      ],
      "stateMutability": "view",
      "type": "function"
    }
  ],
  "bytecode": "0x608060405234801561001057600080fd5b5061577d80620000216000396000f3fe60806040526004361061031e5760003560e01c806377ea2972116101a5578063b6b9ad03116100ec578063dd304b1a11610095578063eb91d37e1161006f578063eb91d37e1461091d578063f2fde38b14610932578063f4b9fa7514610952578063f97511d3146109735761031e565b8063dd304b1a1461088a578063dd62ed3e146108b7578063de42a7c3146108fd5761031e565b8063c4e627c2116100c6578063c4e627c214610824578063c640752d1461084a578063c757d4c71461086a5761031e565b8063b6b9ad03146107ba578063ba7a93b6146107da578063bff82d84146108045761031e565b80639b9ffbf31161014e578063a457c2d711610128578063a457c2d714610765578063a7ac76da14610785578063a9059cbb1461079a5761031e565b80639b9ffbf3146106ff5780639f4ae6b01461072e578063a10954fe1461074e5761031e565b8063828f3a9c1161017f578063828f3a9c146106ac5780638da5cb5b146106cc57806395d89b41146106ea5761031e565b806377ea29721461066f5780637a53e040146106845780637db5bd52146106995761031e565b80633144f8441161026957806357ed25b6116102125780636e44d2ae116101ec5780636e44d2ae1461060457806370a0823114610624578063715018a61461065a5761031e565b806357ed25b6146105a457806363c51fbb146105c457806367843d47146105e45761031e565b8063491052cd11610243578063491052cd1461054f5780634ffd23a71461056f57806354fd4d501461058f5761031e565b80633144f844146104e2578063395093511461050f5780633f5160181461052f5761031e565b80631c949873116102cb57806323b872dd116102a557806323b872dd146104915780632e501484146104b1578063313ce567146104c65761031e565b80631c9498731461043157806321af9e4614610451578063224e4f48146104715761031e565b80630c7d5cd8116102fc5780630c7d5cd8146103bd5780630ccee99b146103f057806318160ddd146104125761031e565b806302d05d3f1461032d57806306fdde031461036b578063095ea7b31461038d575b34801561032a57600080fd5b50005b34801561033957600080fd5b5061011b5461034e906001600160a01b031681565b6040516001600160a01b0390911681526020015b60405180910390f35b34801561037757600080fd5b50610380610993565b604051610362919061550c565b34801561039957600080fd5b506103ad6103a83660046150d0565b610a25565b6040519015158152602001610362565b3480156103c957600080fd5b5061011a546103db9063ffffffff1681565b60405163ffffffff9091168152602001610362565b3480156103fc57600080fd5b5061041061040b3660046150d0565b610a3c565b005b34801561041e57600080fd5b506035545b604051908152602001610362565b34801561043d57600080fd5b5061042361044c366004615339565b610afc565b34801561045d57600080fd5b5061041061046c3660046150d0565b610c18565b34801561047d57600080fd5b5061042361048c3660046152dc565b610ccf565b34801561049d57600080fd5b506103ad6104ac366004615090565b610cf8565b3480156104bd57600080fd5b50610410610db7565b3480156104d257600080fd5b5060405160128152602001610362565b3480156104ee57600080fd5b506105026104fd36600461503c565b611676565b604051610362919061548b565b34801561051b57600080fd5b506103ad61052a3660046150d0565b611756565b34801561053b57600080fd5b5061041061054a36600461503c565b611792565b34801561055b57600080fd5b506103ad61056a36600461511b565b6118c0565b34801561057b57600080fd5b5061041061058a3660046152dc565b611914565b34801561059b57600080fd5b50610380611a36565b3480156105b057600080fd5b506103806105bf36600461511b565b611ac4565b3480156105d057600080fd5b506104106105df3660046152dc565b611d22565b3480156105f057600080fd5b506104106105ff36600461513a565b611d2b565b34801561061057600080fd5b5061041061061f3660046152b1565b611e01565b34801561063057600080fd5b5061042361063f36600461503c565b6001600160a01b031660009081526033602052604090205490565b34801561066657600080fd5b50610410612102565b34801561067b57600080fd5b50610410612168565b34801561069057600080fd5b506103db612219565b6104106106a73660046152dc565b612266565b3480156106b857600080fd5b506103db6106c7366004615299565b6123f2565b3480156106d857600080fd5b5060e7546001600160a01b031661034e565b3480156106f657600080fd5b50610380612413565b34801561070b57600080fd5b5061071f61071a3660046150d0565b612422565b604051610362939291906154e7565b34801561073a57600080fd5b506103db6107493660046152f6565b61246d565b34801561075a57600080fd5b506104236101195481565b34801561077157600080fd5b506103ad6107803660046150d0565b61253c565b34801561079157600080fd5b506104236125ed565b3480156107a657600080fd5b506103ad6107b53660046150d0565b61268c565b3480156107c657600080fd5b506104106107d53660046150d0565b612699565b3480156107e657600080fd5b5061011a546103db9068010000000000000000900463ffffffff1681565b34801561081057600080fd5b5061042361081f366004615339565b612750565b34801561083057600080fd5b5061011a546103db90640100000000900463ffffffff1681565b34801561085657600080fd5b50610410610865366004615058565b612822565b34801561087657600080fd5b506104106108853660046150d0565b612a2d565b34801561089657600080fd5b506108aa6108a53660046150d0565b612b42565b60405161036291906154d9565b3480156108c357600080fd5b506104236108d2366004615058565b6001600160a01b03918216600090815260346020908152604080832093909416825291909152205490565b34801561090957600080fd5b506104106109183660046151d5565b612b95565b34801561092957600080fd5b50610423612c5f565b34801561093e57600080fd5b5061041061094d36600461503c565b612c81565b34801561095e57600080fd5b5061011c5461034e906001600160a01b031681565b34801561097f57600080fd5b5061042361098e3660046152dc565b612d60565b6060603680546109a290615695565b80601f01602080910402602001604051908101604052809291908181526020018280546109ce90615695565b8015610a1b5780601f106109f057610100808354040283529160200191610a1b565b820191906000526020600020905b8154815290600101906020018083116109fe57829003601f168201915b5050505050905090565b6000610a32338484612d81565b5060015b92915050565b61011b546001600160a01b03163314610aa85760405162461bcd60e51b8152602060048201526024808201527f4f6e6c792063726561746f722063616e2063616c6c20746869732066756e637460448201526334b7b71760e11b60648201526084015b60405180910390fd5b6001600160a01b038216610aee5760405162461bcd60e51b815260206004820152600d60248201526c24b73b30b634b210313abcb2b960991b6044820152606401610a9f565b610af88282612ebe565b5050565b6000808563ffffffff16118015610b135750600084115b8015610b25575060008363ffffffff16115b8015610b3a5750620f424063ffffffff841611155b8015610b5257508463ffffffff168263ffffffff1611155b610b5b57600080fd5b63ffffffff8216610b6e57506000610c10565b8463ffffffff168263ffffffff161415610b89575082610c10565b63ffffffff80861690838116908516620f42401415610bbf57610bb682610bb08884612fbb565b90612fce565b92505050610c10565b60008080610bcd8585612fda565b9050610bde8582620f42408b612fe6565b90935091506000610bef8a85612fbb565b905060ff83168a901b610c0685610bb08484612fda565b9750505050505050505b949350505050565b61011b546001600160a01b03163314610c7f5760405162461bcd60e51b8152602060048201526024808201527f4f6e6c792063726561746f722063616e2063616c6c20746869732066756e637460448201526334b7b71760e11b6064820152608401610a9f565b6001600160a01b038216610cc55760405162461bcd60e51b815260206004820152600d60248201526c24b73b30b634b210313abcb2b960991b6044820152606401610a9f565b610af8828261304d565b6000610cf0610cdc613089565b6101195461011a5463ffffffff1685610afc565b90505b919050565b6000610d058484846130cb565b6001600160a01b038416600090815260346020908152604080832033845290915290205482811015610d9f5760405162461bcd60e51b815260206004820152602860248201527f45524332303a207472616e7366657220616d6f756e742065786365656473206160448201527f6c6c6f77616e63650000000000000000000000000000000000000000000000006064820152608401610a9f565b610dac8533858403612d81565b506001949350505050565b600054610100900460ff1680610dd0575060005460ff16155b610e215760405162461bcd60e51b815260206004820152602e602482015260008051602061572883398151915260448201526d191e481a5b9a5d1a585b1a5e995960921b6064820152608401610a9f565b600054610100900460ff16158015610e4c576000805460ff1961ff0019909116610100171660011790555b6040805180820190915260038082527f302e3300000000000000000000000000000000000000000000000000000000006020909201918252610e9091606591614eee565b50701c35fedd14ffffffffffffffffffffffff608655701b0ce43b323fffffffffffffffffffffff6087557019f0028ec1ffffffffffffffffffffffff6088557018ded91f0e7fffffffffffffffffffffff6089557017d8ec7f0417ffffffffffffffffffffff608a557016ddc6556cdbffffffffffffffffffffff608b557015ecf52776a1ffffffffffffffffffffff608c557015060c256cb2ffffffffffffffffffffff608d55701428a2f98d72ffffffffffffffffffffff608e557013545598e5c23fffffffffffffffffffff608f55701288c4161ce1dfffffffffffffffffffff6090557011c592761c666fffffffffffffffffffff60915570110a688680a757ffffffffffffffffffff609255701056f1b5bedf77ffffffffffffffffffff609355700faadceceeff8bffffffffffffffffffff609455700f05dc6b27edadffffffffffffffffffff609555700e67a5a25da4107fffffffffffffffffff609655700dcff115b14eedffffffffffffffffffff609755700d3e7a392431239fffffffffffffffffff609855700cb2ff529eb71e4fffffffffffffffffff609955700c2d415c3db974afffffffffffffffffff609a55700bad03e7d883f69bffffffffffffffffff609b55700b320d03b2c343d5ffffffffffffffffff609c55700abc25204e02828dffffffffffffffffff609d55700a4b16f74ee4bb207fffffffffffffffff609e557009deaf736ac1f569ffffffffffffffffff609f55700976bd9952c7aa957fffffffffffffffff60a0557009131271922eaa606fffffffffffffffff60a1557008b380f3558668c46fffffffffffffffff60a255700857ddf0117efa215bffffffffffffffff60a3557007ffffffffffffffffffffffffffffffff60a4557007abbf6f6abb9d087fffffffffffffffff60a55570075af62cbac95f7dfa7fffffffffffffff60a65570070d7fb7452e187ac13fffffffffffffff60a7557006c3390ecc8af379295fffffffffffffff60a85570067c00a3b07ffc01fd6fffffffffffffff60a955700637b647c39cbb9d3d27ffffffffffffff60aa557005f63b1fc104dbd39587ffffffffffffff60ab557005b771955b36e12f7235ffffffffffffff60ac5570057b3d49dda84556d6f6ffffffffffffff60ad5570054183095b2c8ececf30ffffffffffffff60ae5570050a28be635ca2b888f77fffffffffffff60af557004d5156639708c9db33c3fffffffffffff60b0557004a23105873875bd52dfdfffffffffffff60b155700471649d87199aa990756fffffffffffff60b2557004429a21a029d4c1457cfbffffffffffff60b355700415bc6d6fb7dd71af2cb3ffffffffffff60b4557003eab73b3bbfe282243ce1ffffffffffff60b5557003c1771ac9fb6b4c18e229ffffffffffff60b655700399e96897690418f785257fffffffffff60b755700373fc456c53bb779bf0ea9fffffffffff60b85570034f9e8e490c48e67e6ab8bfffffffffff60b95570032cbfd4a7adc790560b3337ffffffffff60ba5570030b50570f6e5d2acca94613ffffffffff60bb557002eb40f9f620fda6b56c2861ffffffffff60bc557002cc8340ecb0d0f520a6af58ffffffffff60bd557002af09481380a0a35cf1ba02ffffffffff60be55700292c5bdd3b92ec810287b1b3fffffffff60bf55700277abdcdab07d5a77ac6d6b9fffffffff60c05570025daf6654b1eaa55fd64df5efffffffff60c155700244c49c648baa98192dce88b7ffffffff60c25570022ce03cd5619a311b2471268bffffffff60c355700215f77c045fbe885654a44a0fffffffff60c4557001ffffffffffffffffffffffffffffffff60c5557001eaefdbdaaee7421fc4d3ede5ffffffff60c6557001d6bd8b2eb257df7e8ca57b09bfffffff60c7557001c35fedd14b861eb0443f7f133fffffff60c8557001b0ce43b322bcde4a56e8ada5afffffff60c95570019f0028ec1fff007f5a195a39dfffffff60ca5570018ded91f0e72ee74f49b15ba527ffffff60cb5570017d8ec7f04136f4e5615fd41a63ffffff60cc5570016ddc6556cdb84bdc8d12d22e6fffffff60cd5570015ecf52776a1155b5bd8395814f7fffff60ce5570015060c256cb23b3b3cc3754cf40ffffff60cf557001428a2f98d728ae223ddab715be3fffff60d05570013545598e5c23276ccf0ede68034fffff60d1557001288c4161ce1d6f54b7f61081194fffff60d25570011c592761c666aa641d5a01a40f17ffff60d355700110a688680a7530515f3e6e6cfdcdffff60d4557001056f1b5bedf75c6bcb2ce8aed428ffff60d5556ffaadceceeff8a0890f3875f008277fff60d6556ff05dc6b27edad306388a600f6ba0bfff60d7556fe67a5a25da41063de1495d5b18cdbfff60d8556fdcff115b14eedde6fc3aa5353f2e4fff60d9556fd3e7a3924312399f9aae2e0f868f8fff60da556fcb2ff529eb71e41582cccd5a1ee26fff60db556fc2d415c3db974ab32a51840c0b67edff60dc556fbad03e7d883f69ad5b0a186184e06bff60dd556fb320d03b2c343d4829abd6075f0cc5ff60de556fabc25204e02828d73c6e80bcdb1a95bf60df556fa4b16f74ee4bb2040a1ec6c15fbbf2df60e0556f9deaf736ac1f569deb1b5ae3f36c130f60e1556f976bd9952c7aa957f5937d790ef6503760e2556f9131271922eaa6064b73a22d0bd4f2bf60e3556f8b380f3558668c46c91c49a2f8e967b960e4556f857ddf0117efa215952912839f6473e660e5558015611673576000805461ff00191690555b50565b6001600160a01b038116600090815260e660209081526040808320805482518185028101850190935280835260609492939192909184015b8282101561174b576000848152602090206040805160608101909152600284029091018054829060ff1660058111156116f757634e487b7160e01b600052602160045260246000fd5b600581111561171657634e487b7160e01b600052602160045260246000fd5b81528154610100900463ffffffff166020808301919091526001928301546040909201919091529183529290920191016116ae565b505050509050919050565b3360008181526034602090815260408083206001600160a01b03871684529091528120549091610a3291859061178d90869061555f565b612d81565b60e7546001600160a01b031633146117ec5760405162461bcd60e51b815260206004820181905260248201527f4f776e61626c653a2063616c6c6572206973206e6f7420746865206f776e65726044820152606401610a9f565b6001600160a01b0381166118685760405162461bcd60e51b815260206004820152602560248201527f546865206e6577652063726561746f722061646472657373206973206e6f742060448201527f76616c69640000000000000000000000000000000000000000000000000000006064820152608401610a9f565b61011b805473ffffffffffffffffffffffffffffffffffffffff19166001600160a01b0383169081179091556040517fdcfc2133730165f37ba7f59724d5f807fccab5e376d373e1e68c18a985a748b090600090a250565b600060058260058111156118e457634e487b7160e01b600052602160045260246000fd5b1480610cf05750600482600581111561190d57634e487b7160e01b600052602160045260246000fd5b1492915050565b600061191f826132e3565b61011c549091506000906001600160a01b031663a9059cbb3361194c620f4240610bb087620ef420612fbb565b6040517fffffffff0000000000000000000000000000000000000000000000000000000060e085901b1681526001600160a01b0390921660048301526024820152604401602060405180830381600087803b1580156119aa57600080fd5b505af11580156119be573d6000803e3d6000fd5b505050506040513d601f19601f820116820180604052508101906119e291906150fb565b905080611a315760405162461bcd60e51b815260206004820152601460248201527f73656c6c696e6720746f6b656e206661696c65640000000000000000000000006044820152606401610a9f565b505050565b60658054611a4390615695565b80601f0160208091040260200160405190810160405280929190818152602001828054611a6f90615695565b8015611abc5780601f10611a9157610100808354040283529160200191611abc565b820191906000526020600020905b815481529060010190602001808311611a9f57829003601f168201915b505050505081565b6060816005811115611ae657634e487b7160e01b600052602160045260246000fd5b611b24575060408051808201909152600781527f494e495449414c000000000000000000000000000000000000000000000000006020820152610cf3565b816005811115611b4457634e487b7160e01b600052602160045260246000fd5b60011415611b86575060408051808201909152601581527f4157414954494e475f5345525645525f434845434b00000000000000000000006020820152610cf3565b816005811115611ba657634e487b7160e01b600052602160045260246000fd5b60021415611be8575060408051808201909152601181527f4157414954494e475f44454c49564552590000000000000000000000000000006020820152610cf3565b816005811115611c0857634e487b7160e01b600052602160045260246000fd5b60031415611c4a575060408051808201909152601681527f4157414954494e475f555345525f415050524f56414c000000000000000000006020820152610cf3565b816005811115611c6a57634e487b7160e01b600052602160045260246000fd5b60041415611cac575060408051808201909152601481527f434f4d504c4554455f555345525f524546554e440000000000000000000000006020820152610cf3565b816005811115611ccc57634e487b7160e01b600052602160045260246000fd5b60051415611d0e575060408051808201909152600881527f434f4d504c4554450000000000000000000000000000000000000000000000006020820152610cf3565b505060408051602081019091526000815290565b61167381613416565b600054610100900460ff1680611d44575060005460ff16155b611d955760405162461bcd60e51b815260206004820152602e602482015260008051602061572883398151915260448201526d191e481a5b9a5d1a585b1a5e995960921b6064820152608401610a9f565b600054610100900460ff16158015611dc0576000805460ff1961ff0019909116610100171660011790555b611dc861357f565b611dd28787613624565b611dda612168565b611de6858585856136e1565b8015611df8576000805461ff00191690555b50505050505050565b60008211611e775760405162461bcd60e51b815260206004820152603260248201527f56616c7565206f6620646169206d75737420626520677265617465722074686160448201527f6e203020746f2062757920746f6b656e732e00000000000000000000000000006064820152608401610a9f565b61011c546040517f23b872dd000000000000000000000000000000000000000000000000000000008152336004820152306024820152604481018490526000916001600160a01b0316906323b872dd90606401602060405180830381600087803b158015611ee457600080fd5b505af1158015611ef8573d6000803e3d6000fd5b505050506040513d601f19601f82011682018060405250810190611f1c91906150fb565b905080611fb75760405162461bcd60e51b815260206004820152604660248201527f5075726368617365206661696c65642c20616d6f756e7420746f20627579207460448201527f6f6b656e20776173206e6f74207375636365737366756c6c79207472616e736660648201527f65727265642e0000000000000000000000000000000000000000000000000000608482015260a401610a9f565b600080611fd7611fd1620f4240610bb088620ea600612fbb565b856138ab565b63ffffffff9091169250905081156120745761011c5460405163a9059cbb60e01b8152336004820152602481018390526001600160a01b039091169063a9059cbb90604401602060405180830381600087803b15801561203657600080fd5b505af115801561204a573d6000803e3d6000fd5b505050506040513d601f19601f8201168201806040525081019061206e91906150fb565b506120fb565b61011c5460405163a9059cbb60e01b8152336004820152602481018790526001600160a01b039091169063a9059cbb90604401602060405180830381600087803b1580156120c157600080fd5b505af11580156120d5573d6000803e3d6000fd5b505050506040513d601f19601f820116820180604052508101906120f991906150fb565b505b5050505050565b60e7546001600160a01b0316331461215c5760405162461bcd60e51b815260206004820181905260248201527f4f776e61626c653a2063616c6c6572206973206e6f7420746865206f776e65726044820152606401610a9f565b6121666000613a48565b565b600054610100900460ff1680612181575060005460ff16155b6121d25760405162461bcd60e51b815260206004820152602e602482015260008051602061572883398151915260448201526d191e481a5b9a5d1a585b1a5e995960921b6064820152608401610a9f565b600054610100900460ff161580156121fd576000805460ff1961ff0019909116610100171660011790555b612205610db7565b8015611673576000805461ff001916905550565b61011a5460009068010000000000000000900463ffffffff1661223b60355490565b61011a546122579190640100000000900463ffffffff16615630565b6122619190615630565b905090565b600034116122b65760405162461bcd60e51b815260206004820152601e60248201527f4d7573742073656e6420657468657220746f2062757920746f6b656e732e00006044820152606401610a9f565b60006122c06125ed565b9050600081136123385760405162461bcd60e51b815260206004820152602560248201527f45786368616e6765207261746520697320657175616c206f72206c657373207460448201527f68616e20300000000000000000000000000000000000000000000000000000006064820152608401610a9f565b600061235082610bb034670de0b6b3a7640000612fbb565b905060008061237261236c620f4240610bb086620ea600612fbb565b866138ab565b63ffffffff9091169250905081156123c657336108fc61239e670de0b6b3a7640000610bb08589612fbb565b6040518115909202916000818181858888f1935050505015801561206e573d6000803e3d6000fd5b60405133903480156108fc02916000818181858888f193505050501580156120f9573d6000803e3d6000fd5b6000610cf06123ff613089565b6101195461011a5463ffffffff168561246d565b6060603780546109a290615695565b60e6602052816000526040600020818154811061243e57600080fd5b60009182526020909120600290910201805460019091015460ff8216935061010090910463ffffffff16915083565b6000808563ffffffff161180156124845750600084115b8015612496575060008363ffffffff16115b80156124ab5750620f424063ffffffff841611155b6124b457600080fd5b816124c157506000610c10565b63ffffffff808616908416620f424014156124ec576124e485610bb08386612fbb565b915050610c10565b600080806124fa8689613aa7565b905061250b818989620f4240612fe6565b9093509150600060ff83166125208686612fbb565b901c905061252e8582615619565b9a9950505050505050505050565b3360009081526034602090815260408083206001600160a01b0386168452909152812054828110156125d65760405162461bcd60e51b815260206004820152602560248201527f45524332303a2064656372656173656420616c6c6f77616e63652062656c6f7760448201527f207a65726f0000000000000000000000000000000000000000000000000000006064820152608401610a9f565b6125e33385858403612d81565b5060019392505050565b60008060008060008061011d60009054906101000a90046001600160a01b03166001600160a01b031663feaf968c6040518163ffffffff1660e01b815260040160a06040518083038186803b15801561264557600080fd5b505afa158015612659573d6000803e3d6000fd5b505050506040513d601f19601f8201168201806040525081019061267d9190615385565b50919850505050505050505090565b6000610a323384846130cb565b61011b546001600160a01b031633146127005760405162461bcd60e51b8152602060048201526024808201527f4f6e6c792063726561746f722063616e2063616c6c20746869732066756e637460448201526334b7b71760e11b6064820152608401610a9f565b6001600160a01b0382166127465760405162461bcd60e51b815260206004820152600d60248201526c24b73b30b634b210313abcb2b960991b6044820152606401610a9f565b610af88282613ab3565b6000808563ffffffff161180156127675750600084115b8015612779575060008363ffffffff16115b801561278e5750620f424063ffffffff841611155b61279757600080fd5b63ffffffff82166127aa57506000610c10565b63ffffffff80861690838116908516620f424014156127d157610bb682610bb08389612fbb565b600080806127df8486613aa7565b90506127f08186620f42408b612fe6565b9093509150600060ff83166128058b86612fbb565b901c90506128138a82615619565b9b9a5050505050505050505050565b61011b546001600160a01b031633146128895760405162461bcd60e51b8152602060048201526024808201527f4f6e6c792063726561746f722063616e2063616c6c20746869732066756e637460448201526334b7b71760e11b6064820152608401610a9f565b61011b54600160a01b900460ff16156128e45760405162461bcd60e51b815260206004820152601b60248201527f636f6e747261637420697320616c7265616479207570646174656400000000006044820152606401610a9f565b6001600160a01b03821661293a5760405162461bcd60e51b815260206004820152601c60248201527f496e76616c69642064616920636f6e74726163742061646472657373000000006044820152606401610a9f565b6001600160a01b03811661299b5760405162461bcd60e51b815260206004820152602260248201527f496e76616c696420636861696e6c696e6b20636f6e7472616374206164647265604482015261737360f01b6064820152608401610a9f565b61011c80546001600160a01b0384811673ffffffffffffffffffffffffffffffffffffffff19928316811790935561011d805491851691909216811790915561011b805460ff60a01b1916600160a01b1790556040805192835260208301919091527faef13d210b8a75b8fbff9c55099253b5d1a907b81cfc1eb0401debbbad46628191015b60405180910390a15050565b61011b546001600160a01b03163314612a945760405162461bcd60e51b8152602060048201526024808201527f4f6e6c792063726561746f722063616e2063616c6c20746869732066756e637460448201526334b7b71760e11b6064820152608401610a9f565b6001600160a01b038216612ada5760405162461bcd60e51b815260206004820152600d60248201526c24b73b30b634b210313abcb2b960991b6044820152606401610a9f565b6000612ae68383613ba9565b905060008111612b385760405162461bcd60e51b815260206004820152600d60248201527f496e76616c69642076616c7565000000000000000000000000000000000000006044820152606401610a9f565b611a318382613d00565b6001600160a01b038216600090815260e660205260408120805483908110612b7a57634e487b7160e01b600052603260045260246000fd5b600091825260209091206002909102015460ff169392505050565b600054610100900460ff1680612bae575060005460ff16155b612bff5760405162461bcd60e51b815260206004820152602e602482015260008051602061572883398151915260448201526d191e481a5b9a5d1a585b1a5e995960921b6064820152608401610a9f565b600054610100900460ff16158015612c2a576000805460ff1961ff0019909116610100171660011790555b612c38898989898989611d2b565b612c428383613e0f565b8015612c54576000805461ff00191690555b505050505050505050565b6000612261612c6c613089565b6101195461011a5463ffffffff166001612750565b60e7546001600160a01b03163314612cdb5760405162461bcd60e51b815260206004820181905260248201527f4f776e61626c653a2063616c6c6572206973206e6f7420746865206f776e65726044820152606401610a9f565b6001600160a01b038116612d575760405162461bcd60e51b815260206004820152602660248201527f4f776e61626c653a206e6577206f776e657220697320746865207a65726f206160448201527f64647265737300000000000000000000000000000000000000000000000000006064820152608401610a9f565b61167381613a48565b6000610cf0612d6d613089565b6101195461011a5463ffffffff1685612750565b6001600160a01b038316612dfc5760405162461bcd60e51b8152602060048201526024808201527f45524332303a20617070726f76652066726f6d20746865207a65726f2061646460448201527f72657373000000000000000000000000000000000000000000000000000000006064820152608401610a9f565b6001600160a01b038216612e5d5760405162461bcd60e51b815260206004820152602260248201527f45524332303a20617070726f766520746f20746865207a65726f206164647265604482015261737360f01b6064820152608401610a9f565b6001600160a01b0383811660008181526034602090815260408083209487168084529482529182902085905590518481527f8c5be1e5ebec7d5bd14f71427d1e84f3dd0314c0f7b2291e5b200ac8c7c3b925910160405180910390a3505050565b6001600160a01b038216600090815260e66020526040902080546005919083908110612efa57634e487b7160e01b600052603260045260246000fd5b60009182526020909120600290910201805460ff19166001836005811115612f3257634e487b7160e01b600052602160045260246000fd5b02179055507f09c64bee251b684a6bb80ce179dd520c001481b7c3d7781f1502e3052af474cf828260e66000866001600160a01b03166001600160a01b031681526020019081526020016000208481548110612f9e57634e487b7160e01b600052603260045260246000fd5b9060005260206000209060020201604051612a2193929190615440565b6000612fc782846155fa565b9392505050565b6000612fc782846155c4565b6000612fc78284615619565b60008060008363ffffffff168563ffffffff166130038989613ffe565b61300d91906155fa565b61301791906155c4565b9050600061302482614144565b905061304061303482607f615655565b60ff1683901c8261423a565b9890975095505050505050565b6001600160a01b038216600090815260e66020526040902080546002919083908110612efa57634e487b7160e01b600052603260045260246000fd5b61011a546000906122619063ffffffff6c0100000000000000000000000082048116916130c59168010000000000000000909104168160355490565b90613aa7565b6001600160a01b0383166131475760405162461bcd60e51b815260206004820152602560248201527f45524332303a207472616e736665722066726f6d20746865207a65726f20616460448201527f64726573730000000000000000000000000000000000000000000000000000006064820152608401610a9f565b6001600160a01b0382166131c35760405162461bcd60e51b815260206004820152602360248201527f45524332303a207472616e7366657220746f20746865207a65726f206164647260448201527f65737300000000000000000000000000000000000000000000000000000000006064820152608401610a9f565b6001600160a01b038316600090815260336020526040902054818110156132525760405162461bcd60e51b815260206004820152602660248201527f45524332303a207472616e7366657220616d6f756e742065786365656473206260448201527f616c616e636500000000000000000000000000000000000000000000000000006064820152608401610a9f565b6001600160a01b0380851660009081526033602052604080822085850390559185168152908120805484929061328990849061555f565b92505081905550826001600160a01b0316846001600160a01b03167fddf252ad1be2c89b69c2b068fc378daa952ba7f163c4a11628f55a4df523b3ef846040516132d591815260200190565b60405180910390a350505050565b6000808263ffffffff161161333a5760405162461bcd60e51b815260206004820152601860248201527f416d6f756e74206d757374206265206e6f6e2d7a65726f2e00000000000000006044820152606401610a9f565b3360009081526033602052604090205463ffffffff8316111561339f5760405162461bcd60e51b815260206004820152601c60248201527f496e73756666696369656e7420746f6b656e7320746f2073656c6c2e000000006044820152606401610a9f565b60006133aa83610ccf565b610119549091506133bb9082612fda565b610119556133cf3363ffffffff85166148a1565b6040805163ffffffff851681526020810183905233917f84c8d08e5480cf09cbf77bc575dc4e63845522693c34094f04129a4dedb7abd7910160405180910390a292915050565b60008163ffffffff161161346c5760405162461bcd60e51b815260206004820152601860248201527f416d6f756e74206d757374206265206e6f6e2d7a65726f2e00000000000000006044820152606401610a9f565b3360009081526033602052604090205463ffffffff821611156134d15760405162461bcd60e51b815260206004820152601c60248201527f496e73756666696369656e7420746f6b656e7320746f206275726e2e000000006044820152606401610a9f565b60006134dc82610ccf565b90506134e88282614a26565b506134f9338363ffffffff166148a1565b61011a5461351a90839068010000000000000000900463ffffffff16615577565b61011a80546bffffffff000000000000000019166801000000000000000063ffffffff93841602179055604051908316815233907fe600c25f82e9bac8f9f1663725540d6cd442845726820fd5bee41b66c4bf59be9060200160405180910390a25050565b600054610100900460ff1680613598575060005460ff16155b6135e95760405162461bcd60e51b815260206004820152602e602482015260008051602061572883398151915260448201526d191e481a5b9a5d1a585b1a5e995960921b6064820152608401610a9f565b600054610100900460ff16158015613614576000805460ff1961ff0019909116610100171660011790555b61361c614b86565b612205614c2e565b600054610100900460ff168061363d575060005460ff16155b61368e5760405162461bcd60e51b815260206004820152602e602482015260008051602061572883398151915260448201526d191e481a5b9a5d1a585b1a5e995960921b6064820152608401610a9f565b600054610100900460ff161580156136b9576000805460ff1961ff0019909116610100171660011790555b6136c1614b86565b6136cb8383614ccc565b8015611a31576000805461ff0019169055505050565b600054610100900460ff16806136fa575060005460ff16155b61374b5760405162461bcd60e51b815260206004820152602e602482015260008051602061572883398151915260448201526d191e481a5b9a5d1a585b1a5e995960921b6064820152608401610a9f565b600054610100900460ff16158015613776576000805460ff1961ff0019909116610100171660011790555b60008463ffffffff16116137cc5760405162461bcd60e51b815260206004820152601860248201527f496e76616c6964206d617820746f6b656e20636f756e742e00000000000000006044820152606401610a9f565b60008563ffffffff16116138225760405162461bcd60e51b815260206004820152601560248201527f496e76616c6964207265736572766520726174696f00000000000000000000006044820152606401610a9f565b61011982905561011a80547fffffffffffffffffffffffffffffffff00000000ffffffffffffffffffffffff166c0100000000000000000000000063ffffffff868116919091029190911763ffffffff19168782161767ffffffff0000000019166401000000009187169190910217905580156120fb576000805461ff00191690555050505050565b60008060006138b8612219565b63ffffffff161161390b5760405162461bcd60e51b815260206004820152601e60248201527f536f7272792c207468697320746f6b656e20697320736f6c64206f75742e00006044820152606401610a9f565b6000841161395b5760405162461bcd60e51b815260206004820152601960248201527f4465706f736974206d757374206265206e6f6e2d7a65726f2e000000000000006044820152606401610a9f565b63ffffffff831661397157506000905082613a41565b60008061397c612219565b63ffffffff168563ffffffff16111561399a57613997612219565b94505b6139a385612d60565b9050858111156139c8576139b6866123f2565b91506139c182612d60565b90506139cc565b8491505b6139dc338363ffffffff16614d9f565b610119546139ea9082613aa7565b610119556040805163ffffffff841681526020810183905233917f5b55159a377d86da80a65140d62d994ddbb2cbd4bb2d1b59cb0827fecbe47cab910160405180910390a281613a3a8783612fda565b9350935050505b9250929050565b60e780546001600160a01b0383811673ffffffffffffffffffffffffffffffffffffffff19831681179093556040519116919082907f8be0079c531659141344cd1fd0a4f28419497f9722a3daafe3b4186f6b6457e090600090a35050565b6000612fc7828461555f565b60026001600160a01b038316600090815260e660205260409020805483908110613aed57634e487b7160e01b600052603260045260246000fd5b600091825260209091206002909102015460ff166005811115613b2057634e487b7160e01b600052602160045260246000fd5b14613b6d5760405162461bcd60e51b815260206004820152600d60248201527f496e76616c6964207374617465000000000000000000000000000000000000006044820152606401610a9f565b6001600160a01b038216600090815260e66020526040902080546003919083908110612efa57634e487b7160e01b600052603260045260246000fd5b6001600160a01b038216600090815260e66020526040812080546004919084908110613be557634e487b7160e01b600052603260045260246000fd5b60009182526020909120600290910201805460ff19166001836005811115613c1d57634e487b7160e01b600052602160045260246000fd5b02179055507f09c64bee251b684a6bb80ce179dd520c001481b7c3d7781f1502e3052af474cf838360e66000876001600160a01b03166001600160a01b031681526020019081526020016000208581548110613c8957634e487b7160e01b600052603260045260246000fd5b9060005260206000209060020201604051613ca693929190615440565b60405180910390a16001600160a01b038316600090815260e660205260409020805483908110613ce657634e487b7160e01b600052603260045260246000fd5b906000526020600020906002020160010154905092915050565b61011c546000906001600160a01b031663a9059cbb84613d2a620f4240610bb087620ef420612fbb565b6040517fffffffff0000000000000000000000000000000000000000000000000000000060e085901b1681526001600160a01b0390921660048301526024820152604401602060405180830381600087803b158015613d8857600080fd5b505af1158015613d9c573d6000803e3d6000fd5b505050506040513d601f19601f82011682018060405250810190613dc091906150fb565b905080611a315760405162461bcd60e51b815260206004820152601360248201527f726566756e6420746f6b656e206661696c6564000000000000000000000000006044820152606401610a9f565b600054610100900460ff1680613e28575060005460ff16155b613e795760405162461bcd60e51b815260206004820152602e602482015260008051602061572883398151915260448201526d191e481a5b9a5d1a585b1a5e995960921b6064820152608401610a9f565b600054610100900460ff16158015613ea4576000805460ff1961ff0019909116610100171660011790555b6001600160a01b038316613efa5760405162461bcd60e51b815260206004820152601c60248201527f496e76616c69642064616920636f6e74726163742061646472657373000000006044820152606401610a9f565b6001600160a01b038216613f5b5760405162461bcd60e51b815260206004820152602260248201527f496e76616c696420636861696e6c696e6b20636f6e7472616374206164647265604482015261737360f01b6064820152608401610a9f565b61011c80546001600160a01b0385811673ffffffffffffffffffffffffffffffffffffffff19928316811790935561011d805491861691909216811790915561011b805460ff60a01b1916600160a01b1790556040805192835260208301919091527faef13d210b8a75b8fbff9c55099253b5d1a907b81cfc1eb0401debbbad466281910160405180910390a18015611a31576000805461ff0019169055505050565b60007001ffffffffffffffffffffffffffffffff83111561402f57634e487b7160e01b600052600160045260246000fd5b600080836140416001607f1b876155fa565b61404b91906155c4565b9050700100000000000000000000000000000000811061409b57600061407d6140786001607f1b846155c4565b614e7f565b60ff811692831c92909150614097906001607f1b906155fa565b9250505b6001607f1b81111561411d57607f5b60ff81161561411b576001607f1b6140c283806155fa565b6140cc91906155c4565b9150700100000000000000000000000000000000821061410b57600191821c916140f69082615655565b60ff166001901b83614108919061555f565b92505b61411481615678565b90506140aa565b505b607a6141396f02c5c85fdf473de6af278ece600fcbda846155fa565b901c95945050505050565b60006020607f5b60ff811661415a83600161559f565b60ff1610156141bb5760006002614171838561559f565b61417b91906155d8565b90508460668260ff16608081106141a257634e487b7160e01b600052603260045260246000fd5b0154106141b1578092506141b5565b8091505b5061414b565b8360668260ff16608081106141e057634e487b7160e01b600052603260045260246000fd5b0154106141f0579150610cf39050565b8360668360ff166080811061421557634e487b7160e01b600052603260045260246000fd5b01541061422457509050610cf3565b634e487b7160e01b600052600160045260246000fd5b6000828160ff841661424c83806155fa565b901c915061426a826f03442c4e6074a82f1797f72ac00000006155fa565b614274908261555f565b905060ff841661428486846155fa565b901c91506142a2826f0116b96f757c380fb287fd0e400000006155fa565b6142ac908261555f565b905060ff84166142bc86846155fa565b901c91506142d9826e45ae5bdd5f0e03eca1ff43900000006155fa565b6142e3908261555f565b905060ff84166142f386846155fa565b901c9150614310826e0defabf91302cd95b9ffda500000006155fa565b61431a908261555f565b905060ff841661432a86846155fa565b901c9150614347826e02529ca9832b22439efff9b80000006155fa565b614351908261555f565b905060ff841661436186846155fa565b901c915061437d826d54f1cf12bd04e516b6da880000006155fa565b614387908261555f565b905060ff841661439786846155fa565b901c91506143b3826d0a9e39e257a09ca2d6db510000006155fa565b6143bd908261555f565b905060ff84166143cd86846155fa565b901c91506143e9826d012e066e7b839fa050c3090000006155fa565b6143f3908261555f565b905060ff841661440386846155fa565b901c915061441e826c1e33d7d926c329a1ad1a8000006155fa565b614428908261555f565b905060ff841661443886846155fa565b901c9150614453826c02bee513bdb4a6b19b5f8000006155fa565b61445d908261555f565b905060ff841661446d86846155fa565b901c9150614487826b3a9316fa79b88eccf2a000006155fa565b614491908261555f565b905060ff84166144a186846155fa565b901c91506144bb826b048177ebe1fa8123752000006155fa565b6144c5908261555f565b905060ff84166144d586846155fa565b901c91506144ee826a5263fe90242dcbacf000006155fa565b6144f8908261555f565b905060ff841661450886846155fa565b901c9150614521826a057e22099c030d941000006155fa565b61452b908261555f565b905060ff841661453b86846155fa565b901c9150614553826957e22099c030d94100006155fa565b61455d908261555f565b905060ff841661456d86846155fa565b901c91506145858269052b6b545699763100006155fa565b61458f908261555f565b905060ff841661459f86846155fa565b901c91506145b682684985f67696bf7480006155fa565b6145c0908261555f565b905060ff84166145d086846155fa565b901c91506145e7826803dea12ea99e4980006155fa565b6145f1908261555f565b905060ff841661460186846155fa565b901c9150614617826731880f2214b6e0006155fa565b614621908261555f565b905060ff841661463186846155fa565b901c91506146478267025bcff56eb360006155fa565b614651908261555f565b905060ff841661466186846155fa565b901c915061467682661b722e10ab10006155fa565b614680908261555f565b905060ff841661469086846155fa565b901c91506146a5826601317c700770006155fa565b6146af908261555f565b905060ff84166146bf86846155fa565b901c91506146d382650cba84aafa006155fa565b6146dd908261555f565b905060ff84166146ed86846155fa565b901c9150614700826482573a0a006155fa565b61470a908261555f565b905060ff841661471a86846155fa565b901c915061472d826405035ad9006155fa565b614737908261555f565b905060ff841661474786846155fa565b901c915061475982632f881b006155fa565b614763908261555f565b905060ff841661477386846155fa565b901c9150614785826301b293406155fa565b61478f908261555f565b905060ff841661479f86846155fa565b901c91506147b082620efc406155fa565b6147ba908261555f565b905060ff84166147ca86846155fa565b901c91506147da82617fe06155fa565b6147e4908261555f565b905060ff84166147f486846155fa565b901c9150614804826104206155fa565b61480e908261555f565b905060ff841661481e86846155fa565b901c915061482d8260216155fa565b614837908261555f565b905060ff841661484786846155fa565b901c91506148568260016155fa565b614860908261555f565b9050600160ff85161b856148846f0688589cc0e9505e2f2fee5580000000846155c4565b61488e919061555f565b614898919061555f565b95945050505050565b6001600160a01b03821661491d5760405162461bcd60e51b815260206004820152602160248201527f45524332303a206275726e2066726f6d20746865207a65726f2061646472657360448201527f73000000000000000000000000000000000000000000000000000000000000006064820152608401610a9f565b6001600160a01b038216600090815260336020526040902054818110156149ac5760405162461bcd60e51b815260206004820152602260248201527f45524332303a206275726e20616d6f756e7420657863656564732062616c616e60448201527f63650000000000000000000000000000000000000000000000000000000000006064820152608401610a9f565b6001600160a01b03831660009081526033602052604081208383039055603580548492906149db908490615619565b90915550506040518281526000906001600160a01b038516907fddf252ad1be2c89b69c2b068fc378daa952ba7f163c4a11628f55a4df523b3ef9060200160405180910390a3611a31565b6000808363ffffffff1611614a7d5760405162461bcd60e51b815260206004820152600e60248201527f496e76616c696420416d6f756e740000000000000000000000000000000000006044820152606401610a9f565b60408051606081018252600180825263ffffffff861660208084019190915282840186905233600090815260e68252938420805480840182559085529320825160029094020180549293849391929091839160ff1990911690836005811115614af657634e487b7160e01b600052602160045260246000fd5b0217905550602082810151825463ffffffff9091166101000264ffffffff001990911617825560409283015160019283015533600090815260e690915291822054614b419190615619565b90507f09c64bee251b684a6bb80ce179dd520c001481b7c3d7781f1502e3052af474cf338284604051614b769392919061541c565b60405180910390a1949350505050565b600054610100900460ff1680614b9f575060005460ff16155b614bf05760405162461bcd60e51b815260206004820152602e602482015260008051602061572883398151915260448201526d191e481a5b9a5d1a585b1a5e995960921b6064820152608401610a9f565b600054610100900460ff16158015612205576000805460ff1961ff0019909116610100171660011790558015611673576000805461ff001916905550565b600054610100900460ff1680614c47575060005460ff16155b614c985760405162461bcd60e51b815260206004820152602e602482015260008051602061572883398151915260448201526d191e481a5b9a5d1a585b1a5e995960921b6064820152608401610a9f565b600054610100900460ff16158015614cc3576000805460ff1961ff0019909116610100171660011790555b61220533613a48565b600054610100900460ff1680614ce5575060005460ff16155b614d365760405162461bcd60e51b815260206004820152602e602482015260008051602061572883398151915260448201526d191e481a5b9a5d1a585b1a5e995960921b6064820152608401610a9f565b600054610100900460ff16158015614d61576000805460ff1961ff0019909116610100171660011790555b8251614d74906036906020860190614eee565b508151614d88906037906020850190614eee565b508015611a31576000805461ff0019169055505050565b6001600160a01b038216614df55760405162461bcd60e51b815260206004820152601f60248201527f45524332303a206d696e7420746f20746865207a65726f2061646472657373006044820152606401610a9f565b8060356000828254614e07919061555f565b90915550506001600160a01b03821660009081526033602052604081208054839290614e3490849061555f565b90915550506040518181526001600160a01b038316906000907fddf252ad1be2c89b69c2b068fc378daa952ba7f163c4a11628f55a4df523b3ef9060200160405180910390a3610af8565b60008082610100811015614eb3575b6001811115614eae57600190811c90614ea7908361559f565b9150614e8e565b614ee7565b60805b60ff811615614ee557600160ff82161b8210614eda579182179160ff81169190911c905b60011c607f16614eb6565b505b5092915050565b828054614efa90615695565b90600052602060002090601f016020900481019282614f1c5760008555614f62565b82601f10614f3557805160ff1916838001178555614f62565b82800160010185558215614f62579182015b82811115614f62578251825591602001919060010190614f47565b50614f6e929150614f72565b5090565b5b80821115614f6e5760008155600101614f73565b600082601f830112614f97578081fd5b813567ffffffffffffffff80821115614fb257614fb26156fc565b604051601f8301601f19908116603f01168101908282118183101715614fda57614fda6156fc565b81604052838152866020858801011115614ff2578485fd5b8360208701602083013792830160200193909352509392505050565b803563ffffffff81168114610cf357600080fd5b805169ffffffffffffffffffff81168114610cf357600080fd5b60006020828403121561504d578081fd5b8135612fc781615712565b6000806040838503121561506a578081fd5b823561507581615712565b9150602083013561508581615712565b809150509250929050565b6000806000606084860312156150a4578081fd5b83356150af81615712565b925060208401356150bf81615712565b929592945050506040919091013590565b600080604083850312156150e2578182fd5b82356150ed81615712565b946020939093013593505050565b60006020828403121561510c578081fd5b81518015158114612fc7578182fd5b60006020828403121561512c578081fd5b813560068110612fc7578182fd5b60008060008060008060c08789031215615152578182fd5b863567ffffffffffffffff80821115615169578384fd5b6151758a838b01614f87565b9750602089013591508082111561518a578384fd5b5061519789828a01614f87565b9550506151a66040880161500e565b93506151b46060880161500e565b92506151c26080880161500e565b915060a087013590509295509295509295565b600080600080600080600080610100898b0312156151f1578182fd5b883567ffffffffffffffff80821115615208578384fd5b6152148c838d01614f87565b995060208b0135915080821115615229578384fd5b506152368b828c01614f87565b97505061524560408a0161500e565b955061525360608a0161500e565b945061526160808a0161500e565b935060a0890135925060c089013561527881615712565b915060e089013561528881615712565b809150509295985092959890939650565b6000602082840312156152aa578081fd5b5035919050565b600080604083850312156152c3578182fd5b823591506152d36020840161500e565b90509250929050565b6000602082840312156152ed578081fd5b612fc78261500e565b6000806000806080858703121561530b578182fd5b6153148561500e565b9350602085013592506153296040860161500e565b9396929550929360600135925050565b6000806000806080858703121561534e578182fd5b6153578561500e565b93506020850135925061536c6040860161500e565b915061537a6060860161500e565b905092959194509250565b600080600080600060a0868803121561539c578283fd5b6153a586615022565b94506020860151935060408601519250606086015191506153c860808701615022565b90509295509295909350565b600681106153f257634e487b7160e01b600052602160045260246000fd5b9052565b6154018282516153d4565b60208181015163ffffffff1690830152604090810151910152565b6001600160a01b03841681526020810183905260a08101610c1060408301846153f6565b6001600160a01b038416815260208101839052815460a082019061546a6040840160ff83166153d4565b60081c63ffffffff1660608301526001929092015460809091015292915050565b6020808252825182820181905260009190848201906040850190845b818110156154cd576154ba8385516153f6565b92840192606092909201916001016154a7565b50909695505050505050565b60208101610a3682846153d4565b606081016154f582866153d4565b63ffffffff93909316602082015260400152919050565b6000602080835283518082850152825b818110156155385785810183015185820160400152820161551c565b818111156155495783604083870101525b50601f01601f1916929092016040019392505050565b60008219821115615572576155726156d0565b500190565b600063ffffffff808316818516808303821115615596576155966156d0565b01949350505050565b600060ff821660ff84168060ff038211156155bc576155bc6156d0565b019392505050565b6000826155d3576155d36156e6565b500490565b600060ff8316806155eb576155eb6156e6565b8060ff84160491505092915050565b6000816000190483118215151615615614576156146156d0565b500290565b60008282101561562b5761562b6156d0565b500390565b600063ffffffff8381169083168181101561564d5761564d6156d0565b039392505050565b600060ff821660ff84168082101561566f5761566f6156d0565b90039392505050565b600060ff82168061568b5761568b6156d0565b6000190192915050565b6002810460018216806156a957607f821691505b602082108114156156ca57634e487b7160e01b600052602260045260246000fd5b50919050565b634e487b7160e01b600052601160045260246000fd5b634e487b7160e01b600052601260045260246000fd5b634e487b7160e01b600052604160045260246000fd5b6001600160a01b038116811461167357600080fdfe496e697469616c697a61626c653a20636f6e747261637420697320616c726561a264697066735822122072f5fd2f88ae5a989e05858e1ec7417ab2414f770d4cd1b700df7ff7762654fc64736f6c63430008020033",
  "linkReferences": {},
  "deployedLinkReferences": {}
}