{
  "_format": "hh-sol-artifact-1",
  "contractName": "TokenFactory",
  "sourceName": "contracts/TokenFactory.sol",
  "abi": [
    {
      "anonymous": false,
      "inputs": [
        {
          "indexed": false,
          "internalType": "address",
          "name": "previousAdmin",
          "type": "address"
        },
        {
          "indexed": false,
          "internalType": "address",
          "name": "newAdmin",
          "type": "address"
        }
      ],
      "name": "AdminChanged",
      "type": "event"
    },
    {
      "anonymous": false,
      "inputs": [
        {
          "indexed": true,
          "internalType": "address",
          "name": "beacon",
          "type": "address"
        }
      ],
      "name": "BeaconUpgraded",
      "type": "event"
    },
    {
      "anonymous": false,
      "inputs": [
        {
          "indexed": false,
          "internalType": "string",
          "name": "name",
          "type": "string"
        },
        {
          "indexed": false,
          "internalType": "bool",
          "name": "state",
          "type": "bool"
        }
      ],
      "name": "Create",
      "type": "event"
    },
    {
      "anonymous": false,
      "inputs": [
        {
          "indexed": true,
          "internalType": "address",
          "name": "previousOwner",
          "type": "address"
        },
        {
          "indexed": true,
          "internalType": "address",
          "name": "newOwner",
          "type": "address"
        }
      ],
      "name": "OwnershipTransferred",
      "type": "event"
    },
    {
      "anonymous": false,
      "inputs": [
        {
          "indexed": false,
          "internalType": "address",
          "name": "newBeacon",
          "type": "address"
        }
      ],
      "name": "UpdatedBeacon",
      "type": "event"
    },
    {
      "anonymous": false,
      "inputs": [
        {
          "indexed": true,
          "internalType": "address",
          "name": "implementation",
          "type": "address"
        }
      ],
      "name": "Upgraded",
      "type": "event"
    },
    {
      "inputs": [
        {
          "internalType": "address",
          "name": "_beacon",
          "type": "address"
        }
      ],
      "name": "UpdateBeacon",
      "outputs": [],
      "stateMutability": "nonpayable",
      "type": "function"
    },
    {
      "inputs": [],
      "name": "beacon",
      "outputs": [
        {
          "internalType": "contract IBeacon",
          "name": "",
          "type": "address"
        }
      ],
      "stateMutability": "view",
      "type": "function"
    },
    {
      "inputs": [
        {
          "internalType": "string",
          "name": "_productName",
          "type": "string"
        },
        {
          "internalType": "bytes",
          "name": "_data",
          "type": "bytes"
        }
      ],
      "name": "createToken",
      "outputs": [],
      "stateMutability": "nonpayable",
      "type": "function"
    },
    {
      "inputs": [
        {
          "internalType": "address",
          "name": "_beacon",
          "type": "address"
        }
      ],
      "name": "initialize",
      "outputs": [],
      "stateMutability": "nonpayable",
      "type": "function"
    },
    {
      "inputs": [],
      "name": "owner",
      "outputs": [
        {
          "internalType": "address",
          "name": "",
          "type": "address"
        }
      ],
      "stateMutability": "view",
      "type": "function"
    },
    {
      "inputs": [],
      "name": "renounceOwnership",
      "outputs": [],
      "stateMutability": "nonpayable",
      "type": "function"
    },
    {
      "inputs": [
        {
          "internalType": "string",
          "name": "_productName",
          "type": "string"
        }
      ],
      "name": "retrieveToken",
      "outputs": [
        {
          "internalType": "address",
          "name": "",
          "type": "address"
        }
      ],
      "stateMutability": "view",
      "type": "function"
    },
    {
      "inputs": [
        {
          "internalType": "address",
          "name": "newOwner",
          "type": "address"
        }
      ],
      "name": "transferOwnership",
      "outputs": [],
      "stateMutability": "nonpayable",
      "type": "function"
    },
    {
      "inputs": [
        {
          "internalType": "address",
          "name": "newImplementation",
          "type": "address"
        }
      ],
      "name": "upgradeTo",
      "outputs": [],
      "stateMutability": "nonpayable",
      "type": "function"
    },
    {
      "inputs": [
        {
          "internalType": "address",
          "name": "newImplementation",
          "type": "address"
        },
        {
          "internalType": "bytes",
          "name": "data",
          "type": "bytes"
        }
      ],
      "name": "upgradeToAndCall",
      "outputs": [],
      "stateMutability": "payable",
      "type": "function"
    }
  ],
  "bytecode": "0x608060405234801561001057600080fd5b50611dae806100206000396000f3fe608060405260043610620000c25760003560e01c8063715018a61162000073578063c4d66de81162000055578063c4d66de814620001c5578063d7c5ad0d14620001ea578063f2fde38b146200020f57620000c2565b8063715018a6146200018d5780638da5cb5b14620001a557620000c2565b80634f1ef28611620000a95780634f1ef286146200011357806359659e90146200012a57806368a2f7c8146200016857620000c2565b80632f7fc1cd14620000c75780633659cfe614620000ee575b600080fd5b348015620000d457600080fd5b50620000ec620000e6366004620011bf565b62000234565b005b348015620000fb57600080fd5b50620000ec6200010d36600462001111565b620004c6565b620000ec620001243660046200112e565b620004f1565b3480156200013757600080fd5b506065546200014c906001600160a01b031681565b6040516001600160a01b03909116815260200160405180910390f35b3480156200017557600080fd5b50620000ec6200018736600462001111565b6200050e565b3480156200019a57600080fd5b50620000ec6200061b565b348015620001b257600080fd5b506033546001600160a01b03166200014c565b348015620001d257600080fd5b50620000ec620001e436600462001111565b62000685565b348015620001f757600080fd5b506200014c6200020936600462001180565b6200075b565b3480156200021c57600080fd5b50620000ec6200022e36600462001111565b6200083b565b6033546001600160a01b03163314620002945760405162461bcd60e51b815260206004820181905260248201527f4f776e61626c653a2063616c6c6572206973206e6f7420746865206f776e657260448201526064015b60405180910390fd5b60006001600160a01b0316606683604051620002b191906200124b565b908152604051908190036020019020546001600160a01b031614620003195760405162461bcd60e51b815260206004820152601f60248201527f5468652070726f6475637420746f6b656e20616c72656164792065786973740060448201526064016200028b565b6065546040516000916001600160a01b031690839062000339906200105c565b6200034692919062001269565b604051809103906000f08015801562000363573d6000803e3d6000fd5b506040513360248201529091506000906001600160a01b0383169060440160408051601f198184030181529181526020820180517bffffffffffffffffffffffffffffffffffffffffffffffffffffffff167f3f5160180000000000000000000000000000000000000000000000000000000017905251620003e691906200124b565b6000604051808303816000865af19150503d806000811462000425576040519150601f19603f3d011682016040523d82523d6000602084013e6200042a565b606091505b5050905080156200048557816066856040516200044891906200124b565b90815260405190819003602001902080546001600160a01b039290921673ffffffffffffffffffffffffffffffffffffffff199092169190911790555b7fc4a2411d92a7e8fc5591ff677f18422a31b35d0737c593723933d3ff35e00f788482604051620004b8929190620012a2565b60405180910390a150505050565b620004d18162000920565b620004ee816040518060200160405280600081525060006200097c565b50565b620004fc8262000920565b6200050a828260016200097c565b5050565b6033546001600160a01b031633146200056a5760405162461bcd60e51b815260206004820181905260248201527f4f776e61626c653a2063616c6c6572206973206e6f7420746865206f776e657260448201526064016200028b565b803b620005ba5760405162461bcd60e51b815260206004820152601660248201527f496e76616c696420426561636f6e20616464726573730000000000000000000060448201526064016200028b565b6065805473ffffffffffffffffffffffffffffffffffffffff19166001600160a01b0383169081179091556040519081527f678add5849bd439fa17780efc6d18ec5a025c93a49d9c373d51a6111e8c908b19060200160405180910390a150565b6033546001600160a01b03163314620006775760405162461bcd60e51b815260206004820181905260248201527f4f776e61626c653a2063616c6c6572206973206e6f7420746865206f776e657260448201526064016200028b565b62000683600062000b4e565b565b600054610100900460ff16806200069f575060005460ff16155b620007045760405162461bcd60e51b815260206004820152602e60248201527f496e697469616c697a61626c653a20636f6e747261637420697320616c72656160448201526d191e481a5b9a5d1a585b1a5e995960921b60648201526084016200028b565b600054610100900460ff1615801562000730576000805460ff1961ff0019909116610100171660011790555b6200073a62000bad565b62000745826200050e565b80156200050a576000805461ff00191690555050565b6000806001600160a01b03166066836040516200077991906200124b565b908152604051908190036020019020546001600160a01b03161415620008085760405162461bcd60e51b815260206004820152602160248201527f546869732070726f6475637420746f6b656e20646f6573206e6f74206578697360448201527f740000000000000000000000000000000000000000000000000000000000000060648201526084016200028b565b6066826040516200081a91906200124b565b908152604051908190036020019020546001600160a01b031690505b919050565b6033546001600160a01b03163314620008975760405162461bcd60e51b815260206004820181905260248201527f4f776e61626c653a2063616c6c6572206973206e6f7420746865206f776e657260448201526064016200028b565b6001600160a01b038116620009155760405162461bcd60e51b815260206004820152602660248201527f4f776e61626c653a206e6577206f776e657220697320746865207a65726f206160448201527f646472657373000000000000000000000000000000000000000000000000000060648201526084016200028b565b620004ee8162000b4e565b6033546001600160a01b03163314620004ee5760405162461bcd60e51b815260206004820181905260248201527f4f776e61626c653a2063616c6c6572206973206e6f7420746865206f776e657260448201526064016200028b565b6000620009b07f360894a13ba1a3210667c828492db98dca3e2076cc3735a920a3ca505d382bbc546001600160a01b031690565b9050620009bd8462000c81565b600083511180620009cb5750815b15620009df57620009dd848462000d45565b505b7f4910fdfa16fed3260ed0e7147f7cc6da11a60208b5b9406d12a635614ffd9143805460ff1662000b4757805460ff191660011781556040516001600160a01b038316602482015262000a8f90869060440160408051601f198184030181529190526020810180517bffffffffffffffffffffffffffffffffffffffffffffffffffffffff167f3659cfe60000000000000000000000000000000000000000000000000000000017905262000d45565b50805460ff191681557f360894a13ba1a3210667c828492db98dca3e2076cc3735a920a3ca505d382bbc546001600160a01b0383811691161462000b3c5760405162461bcd60e51b815260206004820152602f60248201527f45524331393637557067726164653a207570677261646520627265616b73206660448201527f757274686572207570677261646573000000000000000000000000000000000060648201526084016200028b565b62000b478562000d74565b5050505050565b603380546001600160a01b0383811673ffffffffffffffffffffffffffffffffffffffff19831681179093556040519116919082907f8be0079c531659141344cd1fd0a4f28419497f9722a3daafe3b4186f6b6457e090600090a35050565b600054610100900460ff168062000bc7575060005460ff16155b62000c2c5760405162461bcd60e51b815260206004820152602e60248201527f496e697469616c697a61626c653a20636f6e747261637420697320616c72656160448201526d191e481a5b9a5d1a585b1a5e995960921b60648201526084016200028b565b600054610100900460ff1615801562000c58576000805460ff1961ff0019909116610100171660011790555b62000c6262000db6565b62000c6c62000e75565b8015620004ee576000805461ff001916905550565b803b62000cf75760405162461bcd60e51b815260206004820152602d60248201527f455243313936373a206e657720696d706c656d656e746174696f6e206973206e60448201527f6f74206120636f6e74726163740000000000000000000000000000000000000060648201526084016200028b565b7f360894a13ba1a3210667c828492db98dca3e2076cc3735a920a3ca505d382bbc805473ffffffffffffffffffffffffffffffffffffffff19166001600160a01b0392909216919091179055565b606062000d6d838360405180606001604052806027815260200162001d526027913962000f2b565b9392505050565b62000d7f8162000c81565b6040516001600160a01b038216907fbc7cd75a20ee27fd9adebab32041f755214dbc6bffa90cc0225b39da2e5c2d3b90600090a250565b600054610100900460ff168062000dd0575060005460ff16155b62000e355760405162461bcd60e51b815260206004820152602e60248201527f496e697469616c697a61626c653a20636f6e747261637420697320616c72656160448201526d191e481a5b9a5d1a585b1a5e995960921b60648201526084016200028b565b600054610100900460ff1615801562000c6c576000805460ff1961ff0019909116610100171660011790558015620004ee576000805461ff001916905550565b600054610100900460ff168062000e8f575060005460ff16155b62000ef45760405162461bcd60e51b815260206004820152602e60248201527f496e697469616c697a61626c653a20636f6e747261637420697320616c72656160448201526d191e481a5b9a5d1a585b1a5e995960921b60648201526084016200028b565b600054610100900460ff1615801562000f20576000805460ff1961ff0019909116610100171660011790555b62000c6c3362000b4e565b6060833b62000fa35760405162461bcd60e51b815260206004820152602660248201527f416464726573733a2064656c65676174652063616c6c20746f206e6f6e2d636f60448201527f6e7472616374000000000000000000000000000000000000000000000000000060648201526084016200028b565b600080856001600160a01b03168560405162000fc091906200124b565b600060405180830381855af49150503d806000811462000ffd576040519150601f19603f3d011682016040523d82523d6000602084013e62001002565b606091505b5091509150620010148282866200101e565b9695505050505050565b606083156200102f57508162000d6d565b825115620010405782518084602001fd5b8160405162461bcd60e51b81526004016200028b91906200128d565b610a27806200132b83390190565b80356001600160a01b03811681146200083657600080fd5b600082601f83011262001093578081fd5b813567ffffffffffffffff80821115620010b157620010b1620012fb565b604051601f8301601f19908116603f01168101908282118183101715620010dc57620010dc620012fb565b81604052838152866020858801011115620010f5578485fd5b8360208701602083013792830160200193909352509392505050565b60006020828403121562001123578081fd5b62000d6d826200106a565b6000806040838503121562001141578081fd5b6200114c836200106a565b9150602083013567ffffffffffffffff81111562001168578182fd5b620011768582860162001082565b9150509250929050565b60006020828403121562001192578081fd5b813567ffffffffffffffff811115620011a9578182fd5b620011b78482850162001082565b949350505050565b60008060408385031215620011d2578182fd5b823567ffffffffffffffff80821115620011ea578384fd5b620011f88683870162001082565b935060208501359150808211156200120e578283fd5b50620011768582860162001082565b6000815180845262001237816020860160208601620012c8565b601f01601f19169290920160200192915050565b600082516200125f818460208701620012c8565b9190910192915050565b60006001600160a01b038416825260406020830152620011b760408301846200121d565b60006020825262000d6d60208301846200121d565b600060408252620012b760408301856200121d565b905082151560208301529392505050565b60005b83811015620012e5578181015183820152602001620012cb565b83811115620012f5576000848401525b50505050565b7f4e487b7100000000000000000000000000000000000000000000000000000000600052604160045260246000fdfe608060405260405162000a2738038062000a278339810160408190526200002691620004c0565b6200005360017fa3f0ad74e5423aebfd80d3ef4346578335a9a72aeaee59ff6cb3582b35133d51620005dd565b600080516020620009e0833981519152146200007f57634e487b7160e01b600052600160045260246000fd5b6200008d8282600062000095565b505062000646565b620000a0836200017a565b6040516001600160a01b038416907f1cf3b03a6cf19fa2baba4df148e9dcabedea7f8a5c07840e207e5c089be95d3e90600090a2600082511180620000e25750805b15620001755762000173836001600160a01b0316635c60da1b6040518163ffffffff1660e01b815260040160206040518083038186803b1580156200012657600080fd5b505afa1580156200013b573d6000803e3d6000fd5b505050506040513d601f19601f82011682018060405250810190620001619190620004a3565b836200032b60201b620000291760201c565b505b505050565b62000190816200035a60201b620000551760201c565b620001f05760405162461bcd60e51b815260206004820152602560248201527f455243313936373a206e657720626561636f6e206973206e6f74206120636f6e6044820152641d1c9858dd60da1b60648201526084015b60405180910390fd5b6200027a816001600160a01b0316635c60da1b6040518163ffffffff1660e01b815260040160206040518083038186803b1580156200022e57600080fd5b505afa15801562000243573d6000803e3d6000fd5b505050506040513d601f19601f82011682018060405250810190620002699190620004a3565b6200035a60201b620000551760201c565b620002e15760405162461bcd60e51b815260206004820152603060248201527f455243313936373a20626561636f6e20696d706c656d656e746174696f6e206960448201526f1cc81b9bdd08184818dbdb9d1c9858dd60821b6064820152608401620001e7565b806200030a600080516020620009e083398151915260001b6200036460201b6200005b1760201c565b80546001600160a01b0319166001600160a01b039290921691909117905550565b606062000353838360405180606001604052806027815260200162000a006027913962000367565b9392505050565b803b15155b919050565b90565b606062000374846200035a565b620003d15760405162461bcd60e51b815260206004820152602660248201527f416464726573733a2064656c65676174652063616c6c20746f206e6f6e2d636f6044820152651b9d1c9858dd60d21b6064820152608401620001e7565b600080856001600160a01b031685604051620003ee91906200058a565b600060405180830381855af49150503d80600081146200042b576040519150601f19603f3d011682016040523d82523d6000602084013e62000430565b606091505b509092509050620004438282866200044d565b9695505050505050565b606083156200045e57508162000353565b8251156200046f5782518084602001fd5b8160405162461bcd60e51b8152600401620001e79190620005a8565b80516001600160a01b03811681146200035f57600080fd5b600060208284031215620004b5578081fd5b62000353826200048b565b60008060408385031215620004d3578081fd5b620004de836200048b565b60208401519092506001600160401b0380821115620004fb578283fd5b818501915085601f8301126200050f578283fd5b81518181111562000524576200052462000630565b604051601f8201601f19908116603f011681019083821181831017156200054f576200054f62000630565b8160405282815288602084870101111562000568578586fd5b6200057b83602083016020880162000601565b80955050505050509250929050565b600082516200059e81846020870162000601565b9190910192915050565b6000602082528251806020840152620005c981604085016020870162000601565b601f01601f19169190910160400192915050565b600082821015620005fc57634e487b7160e01b81526011600452602481fd5b500390565b60005b838110156200061e57818101518382015260200162000604565b83811115620001735750506000910152565b634e487b7160e01b600052604160045260246000fd5b61038a80620006566000396000f3fe60806040523661001357610011610017565b005b6100115b61002761002261005e565b610120565b565b606061004e838360405180606001604052806027815260200161032e60279139610144565b9392505050565b3b151590565b90565b600061009e7fa3f0ad74e5423aebfd80d3ef4346578335a9a72aeaee59ff6cb3582b35133d505473ffffffffffffffffffffffffffffffffffffffff1690565b73ffffffffffffffffffffffffffffffffffffffff16635c60da1b6040518163ffffffff1660e01b815260040160206040518083038186803b1580156100e357600080fd5b505afa1580156100f7573d6000803e3d6000fd5b505050506040513d601f19601f8201168201806040525081019061011b919061027a565b905090565b3660008037600080366000845af43d6000803e80801561013f573d6000f35b3d6000fd5b6060833b6101bf5760405162461bcd60e51b815260206004820152602660248201527f416464726573733a2064656c65676174652063616c6c20746f206e6f6e2d636f60448201527f6e7472616374000000000000000000000000000000000000000000000000000060648201526084015b60405180910390fd5b6000808573ffffffffffffffffffffffffffffffffffffffff16856040516101e791906102ae565b600060405180830381855af49150503d8060008114610222576040519150601f19603f3d011682016040523d82523d6000602084013e610227565b606091505b5091509150610237828286610241565b9695505050505050565b6060831561025057508161004e565b8251156102605782518084602001fd5b8160405162461bcd60e51b81526004016101b691906102ca565b60006020828403121561028b578081fd5b815173ffffffffffffffffffffffffffffffffffffffff8116811461004e578182fd5b600082516102c08184602087016102fd565b9190910192915050565b60006020825282518060208401526102e98160408501602087016102fd565b601f01601f19169190910160400192915050565b60005b83811015610318578181015183820152602001610300565b83811115610327576000848401525b5050505056fe416464726573733a206c6f772d6c6576656c2064656c65676174652063616c6c206661696c6564a2646970667358221220f426b688bca38ad3a9d98b65f097a934b14f2df101f8008ae0f6bfdffbfd961164736f6c63430008020033a3f0ad74e5423aebfd80d3ef4346578335a9a72aeaee59ff6cb3582b35133d50416464726573733a206c6f772d6c6576656c2064656c65676174652063616c6c206661696c6564416464726573733a206c6f772d6c6576656c2064656c65676174652063616c6c206661696c6564a26469706673582212200bff27a9c8e817127e5b0b30e37c981c977ed264da0819bde805e49b6812a11c64736f6c63430008020033",
  "linkReferences": {},
  "deployedLinkReferences": {}
}