{
  "contractName": "BancorBondingCurve",
  "abi": [
    {
      "inputs": [],
      "name": "version",
      "outputs": [
        {
          "internalType": "string",
          "name": "",
          "type": "string"
        }
      ],
      "stateMutability": "view",
      "type": "function"
    },
    {
      "inputs": [
        {
          "internalType": "uint256",
          "name": "_supply",
          "type": "uint256"
        },
        {
          "internalType": "uint256",
          "name": "_reserveBalance",
          "type": "uint256"
        },
        {
          "internalType": "uint32",
          "name": "_reserveRatio",
          "type": "uint32"
        }
      ],
      "name": "calculateUnitPrice",
      "outputs": [
        {
          "internalType": "uint256",
          "name": "",
          "type": "uint256"
        }
      ],
      "stateMutability": "view",
      "type": "function"
    },
    {
      "inputs": [
        {
          "internalType": "uint256",
          "name": "_supply",
          "type": "uint256"
        },
        {
          "internalType": "uint256",
          "name": "_reserveBalance",
          "type": "uint256"
        },
        {
          "internalType": "uint32",
          "name": "_exponent",
          "type": "uint32"
        },
        {
          "internalType": "uint32",
          "name": "_amount",
          "type": "uint32"
        }
      ],
      "name": "calculatePriceForNTokens",
      "outputs": [
        {
          "internalType": "uint256",
          "name": "",
          "type": "uint256"
        }
      ],
      "stateMutability": "view",
      "type": "function"
    },
    {
      "inputs": [
        {
          "internalType": "uint256",
          "name": "_supply",
          "type": "uint256"
        },
        {
          "internalType": "uint256",
          "name": "_reserveBalance",
          "type": "uint256"
        },
        {
          "internalType": "uint32",
          "name": "_reserveRatio",
          "type": "uint32"
        },
        {
          "internalType": "uint256",
          "name": "_depositAmount",
          "type": "uint256"
        }
      ],
      "name": "calculatePurchaseReturn",
      "outputs": [
        {
          "internalType": "uint256",
          "name": "",
          "type": "uint256"
        }
      ],
      "stateMutability": "view",
      "type": "function"
    },
    {
      "inputs": [
        {
          "internalType": "uint256",
          "name": "_supply",
          "type": "uint256"
        },
        {
          "internalType": "uint256",
          "name": "_reserveBalance",
          "type": "uint256"
        },
        {
          "internalType": "uint32",
          "name": "_reserveRatio",
          "type": "uint32"
        },
        {
          "internalType": "uint256",
          "name": "_sellAmount",
          "type": "uint256"
        }
      ],
      "name": "calculateSaleReturn",
      "outputs": [
        {
          "internalType": "uint256",
          "name": "",
          "type": "uint256"
        }
      ],
      "stateMutability": "view",
      "type": "function"
    }
  ],
  "bytecode": "0x60806040526040518060400160405280600381526020017f302e330000000000000000000000000000000000000000000000000000000000815250600090805190602001906200005192919062000e88565b50701c35fedd14ffffffffffffffffffffffff60016020608081106200007357fe5b0181905550701b0ce43b323fffffffffffffffffffffff60016021608081106200009957fe5b01819055507019f0028ec1ffffffffffffffffffffffff6001602260808110620000bf57fe5b01819055507018ded91f0e7fffffffffffffffffffffff6001602360808110620000e557fe5b01819055507017d8ec7f0417ffffffffffffffffffffff60016024608081106200010b57fe5b01819055507016ddc6556cdbffffffffffffffffffffff60016025608081106200013157fe5b01819055507015ecf52776a1ffffffffffffffffffffff60016026608081106200015757fe5b01819055507015060c256cb2ffffffffffffffffffffff60016027608081106200017d57fe5b0181905550701428a2f98d72ffffffffffffffffffffff6001602860808110620001a357fe5b01819055507013545598e5c23fffffffffffffffffffff6001602960808110620001c957fe5b0181905550701288c4161ce1dfffffffffffffffffffff6001602a60808110620001ef57fe5b01819055507011c592761c666fffffffffffffffffffff6001602b608081106200021557fe5b018190555070110a688680a757ffffffffffffffffffff6001602c608081106200023b57fe5b0181905550701056f1b5bedf77ffffffffffffffffffff6001602d608081106200026157fe5b0181905550700faadceceeff8bffffffffffffffffffff6001602e608081106200028757fe5b0181905550700f05dc6b27edadffffffffffffffffffff6001602f60808110620002ad57fe5b0181905550700e67a5a25da4107fffffffffffffffffff6001603060808110620002d357fe5b0181905550700dcff115b14eedffffffffffffffffffff6001603160808110620002f957fe5b0181905550700d3e7a392431239fffffffffffffffffff60016032608081106200031f57fe5b0181905550700cb2ff529eb71e4fffffffffffffffffff60016033608081106200034557fe5b0181905550700c2d415c3db974afffffffffffffffffff60016034608081106200036b57fe5b0181905550700bad03e7d883f69bffffffffffffffffff60016035608081106200039157fe5b0181905550700b320d03b2c343d5ffffffffffffffffff6001603660808110620003b757fe5b0181905550700abc25204e02828dffffffffffffffffff6001603760808110620003dd57fe5b0181905550700a4b16f74ee4bb207fffffffffffffffff60016038608081106200040357fe5b01819055507009deaf736ac1f569ffffffffffffffffff60016039608081106200042957fe5b0181905550700976bd9952c7aa957fffffffffffffffff6001603a608081106200044f57fe5b01819055507009131271922eaa606fffffffffffffffff6001603b608081106200047557fe5b01819055507008b380f3558668c46fffffffffffffffff6001603c608081106200049b57fe5b0181905550700857ddf0117efa215bffffffffffffffff6001603d60808110620004c157fe5b01819055507007ffffffffffffffffffffffffffffffff6001603e60808110620004e757fe5b01819055507007abbf6f6abb9d087fffffffffffffffff6001603f608081106200050d57fe5b018190555070075af62cbac95f7dfa7fffffffffffffff60016040608081106200053357fe5b018190555070070d7fb7452e187ac13fffffffffffffff60016041608081106200055957fe5b01819055507006c3390ecc8af379295fffffffffffffff60016042608081106200057f57fe5b018190555070067c00a3b07ffc01fd6fffffffffffffff6001604360808110620005a557fe5b0181905550700637b647c39cbb9d3d27ffffffffffffff6001604460808110620005cb57fe5b01819055507005f63b1fc104dbd39587ffffffffffffff6001604560808110620005f157fe5b01819055507005b771955b36e12f7235ffffffffffffff60016046608081106200061757fe5b018190555070057b3d49dda84556d6f6ffffffffffffff60016047608081106200063d57fe5b018190555070054183095b2c8ececf30ffffffffffffff60016048608081106200066357fe5b018190555070050a28be635ca2b888f77fffffffffffff60016049608081106200068957fe5b01819055507004d5156639708c9db33c3fffffffffffff6001604a60808110620006af57fe5b01819055507004a23105873875bd52dfdfffffffffffff6001604b60808110620006d557fe5b0181905550700471649d87199aa990756fffffffffffff6001604c60808110620006fb57fe5b01819055507004429a21a029d4c1457cfbffffffffffff6001604d608081106200072157fe5b0181905550700415bc6d6fb7dd71af2cb3ffffffffffff6001604e608081106200074757fe5b01819055507003eab73b3bbfe282243ce1ffffffffffff6001604f608081106200076d57fe5b01819055507003c1771ac9fb6b4c18e229ffffffffffff60016050608081106200079357fe5b0181905550700399e96897690418f785257fffffffffff6001605160808110620007b957fe5b0181905550700373fc456c53bb779bf0ea9fffffffffff6001605260808110620007df57fe5b018190555070034f9e8e490c48e67e6ab8bfffffffffff60016053608081106200080557fe5b018190555070032cbfd4a7adc790560b3337ffffffffff60016054608081106200082b57fe5b018190555070030b50570f6e5d2acca94613ffffffffff60016055608081106200085157fe5b01819055507002eb40f9f620fda6b56c2861ffffffffff60016056608081106200087757fe5b01819055507002cc8340ecb0d0f520a6af58ffffffffff60016057608081106200089d57fe5b01819055507002af09481380a0a35cf1ba02ffffffffff6001605860808110620008c357fe5b0181905550700292c5bdd3b92ec810287b1b3fffffffff6001605960808110620008e957fe5b0181905550700277abdcdab07d5a77ac6d6b9fffffffff6001605a608081106200090f57fe5b018190555070025daf6654b1eaa55fd64df5efffffffff6001605b608081106200093557fe5b0181905550700244c49c648baa98192dce88b7ffffffff6001605c608081106200095b57fe5b018190555070022ce03cd5619a311b2471268bffffffff6001605d608081106200098157fe5b0181905550700215f77c045fbe885654a44a0fffffffff6001605e60808110620009a757fe5b01819055507001ffffffffffffffffffffffffffffffff6001605f60808110620009cd57fe5b01819055507001eaefdbdaaee7421fc4d3ede5ffffffff6001606060808110620009f357fe5b01819055507001d6bd8b2eb257df7e8ca57b09bfffffff600160616080811062000a1957fe5b01819055507001c35fedd14b861eb0443f7f133fffffff600160626080811062000a3f57fe5b01819055507001b0ce43b322bcde4a56e8ada5afffffff600160636080811062000a6557fe5b018190555070019f0028ec1fff007f5a195a39dfffffff600160646080811062000a8b57fe5b018190555070018ded91f0e72ee74f49b15ba527ffffff600160656080811062000ab157fe5b018190555070017d8ec7f04136f4e5615fd41a63ffffff600160666080811062000ad757fe5b018190555070016ddc6556cdb84bdc8d12d22e6fffffff600160676080811062000afd57fe5b018190555070015ecf52776a1155b5bd8395814f7fffff600160686080811062000b2357fe5b018190555070015060c256cb23b3b3cc3754cf40ffffff600160696080811062000b4957fe5b01819055507001428a2f98d728ae223ddab715be3fffff6001606a6080811062000b6f57fe5b018190555070013545598e5c23276ccf0ede68034fffff6001606b6080811062000b9557fe5b01819055507001288c4161ce1d6f54b7f61081194fffff6001606c6080811062000bbb57fe5b018190555070011c592761c666aa641d5a01a40f17ffff6001606d6080811062000be157fe5b0181905550700110a688680a7530515f3e6e6cfdcdffff6001606e6080811062000c0757fe5b01819055507001056f1b5bedf75c6bcb2ce8aed428ffff6001606f6080811062000c2d57fe5b01819055506ffaadceceeff8a0890f3875f008277fff600160706080811062000c5257fe5b01819055506ff05dc6b27edad306388a600f6ba0bfff600160716080811062000c7757fe5b01819055506fe67a5a25da41063de1495d5b18cdbfff600160726080811062000c9c57fe5b01819055506fdcff115b14eedde6fc3aa5353f2e4fff600160736080811062000cc157fe5b01819055506fd3e7a3924312399f9aae2e0f868f8fff600160746080811062000ce657fe5b01819055506fcb2ff529eb71e41582cccd5a1ee26fff600160756080811062000d0b57fe5b01819055506fc2d415c3db974ab32a51840c0b67edff600160766080811062000d3057fe5b01819055506fbad03e7d883f69ad5b0a186184e06bff600160776080811062000d5557fe5b01819055506fb320d03b2c343d4829abd6075f0cc5ff600160786080811062000d7a57fe5b01819055506fabc25204e02828d73c6e80bcdb1a95bf600160796080811062000d9f57fe5b01819055506fa4b16f74ee4bb2040a1ec6c15fbbf2df6001607a6080811062000dc457fe5b01819055506f9deaf736ac1f569deb1b5ae3f36c130f6001607b6080811062000de957fe5b01819055506f976bd9952c7aa957f5937d790ef650376001607c6080811062000e0e57fe5b01819055506f9131271922eaa6064b73a22d0bd4f2bf6001607d6080811062000e3357fe5b01819055506f8b380f3558668c46c91c49a2f8e967b96001607e6080811062000e5857fe5b01819055506f857ddf0117efa215952912839f6473e66001607f6080811062000e7d57fe5b018190555062000f37565b828054600181600116156101000203166002900490600052602060002090601f016020900481019282601f1062000ecb57805160ff191683800117855562000efc565b8280016001018555821562000efc579182015b8281111562000efb57825182559160200191906001019062000ede565b5b50905062000f0b919062000f0f565b5090565b62000f3491905b8082111562000f3057600081600090555060010162000f16565b5090565b90565b611d188062000f476000396000f3fe608060405234801561001057600080fd5b50600436106100575760003560e01c806329a00e7c1461005c57806349f9b0f7146100c257806354fd4d50146101285780638c1f320e146101ab578063d93404b514610217575b600080fd5b6100ac6004803603608081101561007257600080fd5b810190808035906020019092919080359060200190929190803563ffffffff16906020019092919080359060200190929190505050610273565b6040518082815260200191505060405180910390f35b610112600480360360808110156100d857600080fd5b810190808035906020019092919080359060200190929190803563ffffffff1690602001909291908035906020019092919050505061036f565b6040518082815260200191505060405180910390f35b61013061049f565b6040518080602001828103825283818151815260200191508051906020019080838360005b83811015610170578082015181840152602081019050610155565b50505050905090810190601f16801561019d5780820380516001836020036101000a031916815260200191505b509250505060405180910390f35b610201600480360360808110156101c157600080fd5b810190808035906020019092919080359060200190929190803563ffffffff169060200190929190803563ffffffff16906020019092919050505061053d565b6040518082815260200191505060405180910390f35b61025d6004803603606081101561022d57600080fd5b810190808035906020019092919080359060200190929190803563ffffffff16906020019092919050505061061c565b6040518082815260200191505060405180910390f35b600080851180156102845750600084115b8015610296575060008363ffffffff16115b80156102b15750620f424063ffffffff168363ffffffff1611155b6102ba57600080fd5b60008214156102cc5760009050610367565b620f424063ffffffff168363ffffffff16141561030f57610308846102fa84886106be90919063ffffffff16565b61074490919063ffffffff16565b9050610367565b6000806000610327878661078e90919063ffffffff16565b9050610338818888620f4240610816565b809350819450505060008260ff16610359858b6106be90919063ffffffff16565b901c90508881039450505050505b949350505050565b600080851180156103805750600084115b8015610392575060008363ffffffff16115b80156103ad5750620f424063ffffffff168363ffffffff1611155b80156103b95750848211155b6103c257600080fd5b60008214156103d45760009050610497565b848214156103e457839050610497565b620f424063ffffffff168363ffffffff161415610427576104208561041284876106be90919063ffffffff16565b61074490919063ffffffff16565b9050610497565b600080600084880390506104408882620f424089610816565b8093508194505050600061045d84896106be90919063ffffffff16565b905060008360ff1689901b905061048f8561048183856109ea90919063ffffffff16565b61074490919063ffffffff16565b955050505050505b949350505050565b60008054600181600116156101000203166002900480601f0160208091040260200160405190810160405280929190818152602001828054600181600116156101000203166002900480156105355780601f1061050a57610100808354040283529160200191610535565b820191906000526020600020905b81548152906001019060200180831161051857829003601f168201915b505050505081565b6000808511801561054e5750600084115b8015610560575060008363ffffffff16115b61056957600080fd5b60008263ffffffff1614156105815760009050610614565b60018363ffffffff1614156105c2576105bb856105ad868563ffffffff166106be90919063ffffffff16565b61074490919063ffffffff16565b9050610614565b6000806105ee8463ffffffff166105e360018a61078e90919063ffffffff16565b600188016001610816565b80925081935050508060ff1661060d83886106be90919063ffffffff16565b901c925050505b949350505050565b6000808411801561062d5750600083115b801561063f575060008263ffffffff16115b801561065a5750620f424063ffffffff168263ffffffff1611155b61066357600080fd5b6000610681620f424063ffffffff16856106be90919063ffffffff16565b9050600061069e8463ffffffff16876106be90919063ffffffff16565b90506106b3818361074490919063ffffffff16565b925050509392505050565b6000808314156106d1576000905061073e565b60008284029050828482816106e257fe5b0414610739576040517f08c379a0000000000000000000000000000000000000000000000000000000008152600401808060200182810382526021815260200180611cc26021913960400191505060405180910390fd5b809150505b92915050565b600061078683836040518060400160405280601a81526020017f536166654d6174683a206469766973696f6e206279207a65726f000000000000815250610a34565b905092915050565b60008082840190508381101561080c576040517f08c379a000000000000000000000000000000000000000000000000000000000815260040180806020018281038252601b8152602001807f536166654d6174683a206164646974696f6e206f766572666c6f77000000000081525060200191505060405180910390fd5b8091505092915050565b600080700200000000000000000000000000000000861061089f576040517f08c379a00000000000000000000000000000000000000000000000000000000081526004018080602001828103825260188152602001807f626173654e2065786365656473206d61782076616c75652e000000000000000081525060200191505060405180910390fd5b84861015610915576040517f08c379a000000000000000000000000000000000000000000000000000000000815260040180806020018281038252601c8152602001807f4261736573203c203120617265206e6f7420737570706f727465642e0000000081525060200191505060405180910390fd5b600080866f8000000000000000000000000000000089028161093357fe5b04905070015bf0a8b1457695355fb8ac404e7a79e381101561095f5761095881610afa565b915061096b565b6109688161108a565b91505b60008563ffffffff168763ffffffff1684028161098457fe5b0490507008000000000000000000000000000000008110156109b7576109a9816111b2565b607f945094505050506109e1565b60006109c28261172c565b90506109d781607f0360ff1683901c826117e1565b8195509550505050505b94509492505050565b6000610a2c83836040518060400160405280601e81526020017f536166654d6174683a207375627472616374696f6e206f766572666c6f770000815250611b7f565b905092915050565b60008083118290610ae0576040517f08c379a00000000000000000000000000000000000000000000000000000000081526004018080602001828103825283818151815260200191508051906020019080838360005b83811015610aa5578082015181840152602081019050610a8a565b50505050905090810190601f168015610ad25780820380516001836020036101000a031916815260200191505b509250505060405180910390fd5b506000838581610aec57fe5b049050809150509392505050565b6000806000905060008060006fd3094c70f034de4b96ff7d5b6f99fcd88610610b61576f40000000000000000000000000000000840193506fd3094c70f034de4b96ff7d5b6f99fcd86f80000000000000000000000000000000870281610b5d57fe5b0495505b6fa45af1e1f40c333b3de1db4dd55f29a78610610bbc576f20000000000000000000000000000000840193506fa45af1e1f40c333b3de1db4dd55f29a76f80000000000000000000000000000000870281610bb857fe5b0495505b6f910b022db7ae67ce76b441c27035c6a18610610c17576f10000000000000000000000000000000840193506f910b022db7ae67ce76b441c27035c6a16f80000000000000000000000000000000870281610c1357fe5b0495505b6f88415abbe9a76bead8d00cf112e4d4a88610610c72576f08000000000000000000000000000000840193506f88415abbe9a76bead8d00cf112e4d4a86f80000000000000000000000000000000870281610c6e57fe5b0495505b6f84102b00893f64c705e841d5d4064bd38610610ccd576f04000000000000000000000000000000840193506f84102b00893f64c705e841d5d4064bd36f80000000000000000000000000000000870281610cc957fe5b0495505b6f8204055aaef1c8bd5c3259f4822735a28610610d28576f02000000000000000000000000000000840193506f8204055aaef1c8bd5c3259f4822735a26f80000000000000000000000000000000870281610d2457fe5b0495505b6f810100ab00222d861931c15e39b44e998610610d83576f01000000000000000000000000000000840193506f810100ab00222d861931c15e39b44e996f80000000000000000000000000000000870281610d7f57fe5b0495505b6f808040155aabbbe9451521693554f7338610610ddd576e800000000000000000000000000000840193506f808040155aabbbe9451521693554f7336f80000000000000000000000000000000870281610dd957fe5b0495505b6f80000000000000000000000000000000860392508291506f8000000000000000000000000000000083840281610e1057fe5b0490507001000000000000000000000000000000008370010000000000000000000000000000000003830281610e4257fe5b04840193506f8000000000000000000000000000000081830281610e6257fe5b049150700200000000000000000000000000000000836faaaaaaaaaaaaaaaaaaaaaaaaaaaaaaaa03830281610e9357fe5b04840193506f8000000000000000000000000000000081830281610eb357fe5b049150700300000000000000000000000000000000836f9999999999999999999999999999999903830281610ee457fe5b04840193506f8000000000000000000000000000000081830281610f0457fe5b049150700400000000000000000000000000000000836f9249249249249249249249249249249203830281610f3557fe5b04840193506f8000000000000000000000000000000081830281610f5557fe5b049150700500000000000000000000000000000000836f8e38e38e38e38e38e38e38e38e38e38e03830281610f8657fe5b04840193506f8000000000000000000000000000000081830281610fa657fe5b049150700600000000000000000000000000000000836f8ba2e8ba2e8ba2e8ba2e8ba2e8ba2e8b03830281610fd757fe5b04840193506f8000000000000000000000000000000081830281610ff757fe5b049150700700000000000000000000000000000000836f89d89d89d89d89d89d89d89d89d89d890383028161102857fe5b04840193506f800000000000000000000000000000008183028161104857fe5b049150700800000000000000000000000000000000836f888888888888888888888888888888880383028161107957fe5b048401935083945050505050919050565b60008060009050600083905070010000000000000000000000000000000081106110f75760006110d26f8000000000000000000000000000000083816110cc57fe5b04611c3f565b90508060ff1682901c91506f800000000000000000000000000000008160ff16029250505b6f8000000000000000000000000000000081111561117d576000607f90505b60008160ff16111561117b576f800000000000000000000000000000008283028161113d57fe5b049150700100000000000000000000000000000000821061116f57600182901c91506001810360ff166001901b830192505b80600190039050611116565b505b6f05b9de1d10bf4103d647b0955897ba806f03f80fe03f80fe03f80fe03f80fe03f88302816111a857fe5b0492505050919050565b600080600090506000806f1000000000000000000000000000000085816111d557fe5b0691508190506f80000000000000000000000000000000828202816111f657fe5b0490506710e1b3be415a00008102830192506f800000000000000000000000000000008282028161122357fe5b0490506705a0913f6b1e00008102830192506f800000000000000000000000000000008282028161125057fe5b049050670168244fdac780008102830192506f800000000000000000000000000000008282028161127d57fe5b049050664807432bc180008102830192506f80000000000000000000000000000000828202816112a957fe5b049050660c0135dca040008102830192506f80000000000000000000000000000000828202816112d557fe5b0490506601b707b1cdc0008102830192506f800000000000000000000000000000008282028161130157fe5b0490506536e0f639b8008102830192506f800000000000000000000000000000008282028161132c57fe5b049050650618fee9f8008102830192506f800000000000000000000000000000008282028161135757fe5b049050649c197dcc008102830192506f800000000000000000000000000000008282028161138157fe5b049050640e30dce4008102830192506f80000000000000000000000000000000828202816113ab57fe5b04905064012ebd13008102830192506f80000000000000000000000000000000828202816113d557fe5b0490506317499f008102830192506f80000000000000000000000000000000828202816113fe57fe5b0490506301a9d4808102830192506f800000000000000000000000000000008282028161142757fe5b049050621c63808102830192506f800000000000000000000000000000008282028161144f57fe5b0490506201c6388102830192506f800000000000000000000000000000008282028161147757fe5b049050611ab88102830192506f800000000000000000000000000000008282028161149e57fe5b04905061017c8102830192506f80000000000000000000000000000000828202816114c557fe5b04905060148102830192506f80000000000000000000000000000000828202816114eb57fe5b04905060018102830192506f80000000000000000000000000000000826721c3677c82b40000858161151957fe5b040101925060006f100000000000000000000000000000008616146115695770018ebef9eac820ae8682b9793ac6d1e7767001c3d6a24ed82218787d624d3e5eba95f984028161156557fe5b0492505b60006f200000000000000000000000000000008616146115b4577001368b2fc6f9609fe7aceb46aa619baed470018ebef9eac820ae8682b9793ac6d1e7788402816115b057fe5b0492505b60006f400000000000000000000000000000008616146115fe576fbc5ab1b16779be3575bd8f0520a9f21f7001368b2fc6f9609fe7aceb46aa619baed58402816115fa57fe5b0492505b60006f80000000000000000000000000000000861614611647576f454aaa8efe072e7f6ddbab84b40a55c96fbc5ab1b16779be3575bd8f0520a9f21e84028161164357fe5b0492505b6000700100000000000000000000000000000000861614611691576f0960aadc109e7a3bf4578099615711ea6f454aaa8efe072e7f6ddbab84b40a55c584028161168d57fe5b0492505b60007002000000000000000000000000000000008616146116da576e2bf84208204f5977f9a8cf01fdce3d6f0960aadc109e7a3bf4578099615711d78402816116d657fe5b0492505b6000700400000000000000000000000000000000861614611721576d03c6ab775dd0b95b4cbee7e65d116e2bf84208204f5977f9a8cf01fdc30784028161171d57fe5b0492505b829350505050919050565b600080602090506000607f90505b8060ff166001830160ff161015611789576000600282840160ff168161175c57fe5b0490508460018260ff166080811061177057fe5b01541061177f57809250611783565b8091505b5061173a565b8360018260ff166080811061179a57fe5b0154106117ab5780925050506117dc565b8360018360ff16608081106117bc57fe5b0154106117cd5781925050506117dc565b60006117d557fe5b6000925050505b919050565b60008083905060008090508360ff16858302901c91506f03442c4e6074a82f1797f72ac00000008202810190508360ff16858302901c91506f0116b96f757c380fb287fd0e400000008202810190508360ff16858302901c91506e45ae5bdd5f0e03eca1ff43900000008202810190508360ff16858302901c91506e0defabf91302cd95b9ffda500000008202810190508360ff16858302901c91506e02529ca9832b22439efff9b80000008202810190508360ff16858302901c91506d54f1cf12bd04e516b6da880000008202810190508360ff16858302901c91506d0a9e39e257a09ca2d6db510000008202810190508360ff16858302901c91506d012e066e7b839fa050c3090000008202810190508360ff16858302901c91506c1e33d7d926c329a1ad1a8000008202810190508360ff16858302901c91506c02bee513bdb4a6b19b5f8000008202810190508360ff16858302901c91506b3a9316fa79b88eccf2a000008202810190508360ff16858302901c91506b048177ebe1fa8123752000008202810190508360ff16858302901c91506a5263fe90242dcbacf000008202810190508360ff16858302901c91506a057e22099c030d941000008202810190508360ff16858302901c91506957e22099c030d94100008202810190508360ff16858302901c915069052b6b545699763100008202810190508360ff16858302901c9150684985f67696bf7480008202810190508360ff16858302901c91506803dea12ea99e4980008202810190508360ff16858302901c91506731880f2214b6e0008202810190508360ff16858302901c915067025bcff56eb360008202810190508360ff16858302901c9150661b722e10ab10008202810190508360ff16858302901c91506601317c700770008202810190508360ff16858302901c9150650cba84aafa008202810190508360ff16858302901c91506482573a0a008202810190508360ff16858302901c91506405035ad9008202810190508360ff16858302901c9150632f881b008202810190508360ff16858302901c91506301b293408202810190508360ff16858302901c9150620efc408202810190508360ff16858302901c9150617fe08202810190508360ff16858302901c91506104208202810190508360ff16858302901c915060218202810190508360ff16858302901c915060018202810190508360ff166001901b856f0688589cc0e9505e2f2fee55800000008381611b7257fe5b0401019250505092915050565b6000838311158290611c2c576040517f08c379a00000000000000000000000000000000000000000000000000000000081526004018080602001828103825283818151815260200191508051906020019080838360005b83811015611bf1578082015181840152602081019050611bd6565b50505050905090810190601f168015611c1e5780820380516001836020036101000a031916815260200191505b509250505060405180910390fd5b5060008385039050809150509392505050565b600080600090506000839050610100811015611c76575b6001811115611c7157600181901c9050600182019150611c56565b611cb7565b6000608090505b60008160ff161115611cb5578060ff166001901b8210611ca6578060ff1682901c915080831792505b60018160ff16901c9050611c7d565b505b819250505091905056fe536166654d6174683a206d756c7469706c69636174696f6e206f766572666c6f77a264697066735822122005fe1adb4fd7fe3b05a10fc6d40cebddd50942f530966da4d5f5e7448c40e8a264736f6c63430006060033",
  "immutableReferences": {},
  "source": "pragma solidity ^0.6.6;\n\nimport \"@openzeppelin/contracts/math/SafeMath.sol\";\nimport \"./Power.sol\"; // Efficient power function.\n\n/**\n* @title Bancor formula by Bancor\n*\n* Licensed to the Apache Software Foundation (ASF) under one or more contributor license agreements;\n* and to You under the Apache License, Version 2.0. \"\n*/\ncontract BancorBondingCurve is Power {\n  using SafeMath for uint256;\n  uint32 private constant MAX_RESERVE_RATIO = 1000000;\n\n /**\n   * @dev Try to compute the current price for a given token\n   *\n   * Formula:\n   * Return = balance / (supply * reserve ratio)\n   *\n   * @param _supply              continuous token total supply\n   * @param _reserveBalance    total reserve token balance\n   * @param _reserveRatio     reserve ratio, represented in ppm, 1-1000000\n   *\n   *  @return unit price per token (as of function call)\n  */\n  function calculateUnitPrice(\n    uint256 _supply,\n    uint256 _reserveBalance,\n    uint32 _reserveRatio\n  ) public view returns (uint256) \n  {\n     // validate input\n    require(_supply > 0 && _reserveBalance > 0 && _reserveRatio > 0 && _reserveRatio <= MAX_RESERVE_RATIO);\n    uint256 numerator =  _reserveBalance.mul(MAX_RESERVE_RATIO);\n    uint256 denumerator = _supply.mul(_reserveRatio);   // this returns the price based on reserve unit.\n    return numerator.div(denumerator);\n  }\n\n  /**\n   * @dev Try to compute the price to purchage n token\n   *\n   * Formula:\n   * Return = _reserveBalance * ((_amount / _supply + 1) ^ (_exponent + 1) -1)\n   *\n   * @param _supply              continuous token total supply\n   * @param _reserveBalance    total reserve token balance\n   * @param _exponent         The exponent component in the bancor curve.\n   * @param _amount           number to tokens one wishes to purchase\n   *\n   *  @return price for N tokens \n  */\n  function calculatePriceForNTokens(\n    uint256 _supply,\n    uint256 _reserveBalance,\n    uint32 _exponent,\n    uint32 _amount) public view returns (uint256)\n  {\n    require(_supply > 0 && _reserveBalance > 0 && _exponent > 0);\n    // special case for 0 tokens\n    if (_amount == 0) {\n      return 0;\n    } \n    // special case if this is a linear function\n    if (_exponent == 1) {\n      return uint256(_amount).mul(_reserveBalance).div(_supply);\n    }\n    uint256 result;\n    uint8 precision;\n    (result, precision) = power(\n      _amount, _supply.add(1), _exponent + 1, 1\n    );    // need safe math for uint32 here.\n    return _reserveBalance.mul(result) >> precision;\n  }\n\n  /**\n   * @dev given a continuous token supply, reserve token balance, reserve ratio, and a deposit amount (in the reserve token),\n   * calculates the return for a given conversion (in the continuous token)\n   *\n   * Formula:\n   * Return = _supply * ((1 + _depositAmount / _reserveBalance) ^ (_reserveRatio / MAX_RESERVE_RATIO) - 1)\n   *\n   * @param _supply              continuous token total supply\n   * @param _reserveBalance    total reserve token balance\n   * @param _reserveRatio     reserve ratio, represented in ppm, 1-1000000\n   * @param _depositAmount       deposit amount, in reserve token\n   *\n   *  @return purchase return amount\n  */\n  function calculatePurchaseReturn(\n    uint256 _supply,\n    uint256 _reserveBalance,\n    uint32 _reserveRatio,\n    uint256 _depositAmount) public view returns (uint256)\n  {\n    // validate input\n    require(_supply > 0 && _reserveBalance > 0 && _reserveRatio > 0 && _reserveRatio <= MAX_RESERVE_RATIO);\n     // special case for 0 deposit amount\n    if (_depositAmount == 0) {\n      return 0;\n    }\n     // special case if the ratio = 100%\n    if (_reserveRatio == MAX_RESERVE_RATIO) {\n      return _supply.mul(_depositAmount).div(_reserveBalance);\n    }\n    uint256 result;\n    uint8 precision;\n    uint256 baseN = _depositAmount.add(_reserveBalance);\n    (result, precision) = power(\n      baseN, _reserveBalance, _reserveRatio, MAX_RESERVE_RATIO\n    );\n    uint256 newTokenSupply = _supply.mul(result) >> precision;\n    return newTokenSupply - _supply;\n  }\n\n   /**\n   * @dev given a continuous token supply, reserve token balance, reserve ratio and a sell amount (in the continuous token),\n   * calculates the return for a given conversion (in the reserve token)\n   *\n   * Formula:\n   * Return = _reserveBalance * (1 - (1 - _sellAmount / _supply) ^ (1 / (_reserveRatio / MAX_RESERVE_RATIO)))\n   *\n   * @param _supply              continuous token total supply\n   * @param _reserveBalance    total reserve token balance\n   * @param _reserveRatio     constant reserve ratio, represented in ppm, 1-1000000\n   * @param _sellAmount          sell amount, in the continuous token itself\n   *\n   * @return sale return amount\n  */\n  function calculateSaleReturn(\n    uint256 _supply,\n    uint256 _reserveBalance,\n    uint32 _reserveRatio,\n    uint256 _sellAmount) public view returns (uint256)\n  {\n    // validate input\n    require(_supply > 0 && _reserveBalance > 0 && _reserveRatio > 0 && _reserveRatio <= MAX_RESERVE_RATIO && _sellAmount <= _supply);\n     // special case for 0 sell amount\n    if (_sellAmount == 0) {\n      return 0;\n    }\n     // special case for selling the entire supply\n    if (_sellAmount == _supply) {\n      return _reserveBalance;\n    }\n     // special case if the ratio = 100%\n    if (_reserveRatio == MAX_RESERVE_RATIO) {\n      return _reserveBalance.mul(_sellAmount).div(_supply);\n    }\n    uint256 result;\n    uint8 precision;\n    uint256 baseD = _supply - _sellAmount;\n    (result, precision) = power(\n      _supply, baseD, MAX_RESERVE_RATIO, _reserveRatio\n    );\n    uint256 oldBalance = _reserveBalance.mul(result);\n    uint256 newBalance = _reserveBalance << precision;\n    return oldBalance.sub(newBalance).div(result);\n  }\n}",
  "sourcePath": "/Users/sd/Documents/GitHub/virtualmarket/contracts/BancorBondingCurve.sol",
  "compiler": {
    "name": "solc",
    "version": "0.6.6+commit.6c089d02.Emscripten.clang"
  },
  "schemaVersion": "3.3.4",
  "updatedAt": "2021-03-31T22:53:14.420Z",
  "devdoc": {
    "methods": {
      "calculatePriceForNTokens(uint256,uint256,uint32,uint32)": {
        "details": "Try to compute the price to purchage n token   * Formula: Return = _reserveBalance * ((_amount / _supply + 1) ^ (_exponent + 1) -1)",
        "params": {
          "_amount": "number to tokens one wishes to purchase",
          "_exponent": "The exponent component in the bancor curve.",
          "_reserveBalance": "total reserve token balance",
          "_supply": "continuous token total supply"
        },
        "returns": {
          "_0": "price for N tokens "
        }
      },
      "calculatePurchaseReturn(uint256,uint256,uint32,uint256)": {
        "details": "given a continuous token supply, reserve token balance, reserve ratio, and a deposit amount (in the reserve token), calculates the return for a given conversion (in the continuous token)   * Formula: Return = _supply * ((1 + _depositAmount / _reserveBalance) ^ (_reserveRatio / MAX_RESERVE_RATIO) - 1)",
        "params": {
          "_depositAmount": "deposit amount, in reserve token",
          "_reserveBalance": "total reserve token balance",
          "_reserveRatio": "reserve ratio, represented in ppm, 1-1000000",
          "_supply": "continuous token total supply"
        },
        "returns": {
          "_0": "purchase return amount"
        }
      },
      "calculateSaleReturn(uint256,uint256,uint32,uint256)": {
        "details": "given a continuous token supply, reserve token balance, reserve ratio and a sell amount (in the continuous token), calculates the return for a given conversion (in the reserve token)   * Formula: Return = _reserveBalance * (1 - (1 - _sellAmount / _supply) ^ (1 / (_reserveRatio / MAX_RESERVE_RATIO)))",
        "params": {
          "_reserveBalance": "total reserve token balance",
          "_reserveRatio": "constant reserve ratio, represented in ppm, 1-1000000",
          "_sellAmount": "sell amount, in the continuous token itself",
          "_supply": "continuous token total supply"
        },
        "returns": {
          "_0": "sale return amount"
        }
      },
      "calculateUnitPrice(uint256,uint256,uint32)": {
        "details": "Try to compute the current price for a given token   * Formula: Return = balance / (supply * reserve ratio)",
        "params": {
          "_reserveBalance": "total reserve token balance",
          "_reserveRatio": "reserve ratio, represented in ppm, 1-1000000",
          "_supply": "continuous token total supply"
        },
        "returns": {
          "_0": "unit price per token (as of function call)"
        }
      }
    },
    "title": "Bancor formula by Bancor * Licensed to the Apache Software Foundation (ASF) under one or more contributor license agreements; and to You under the Apache License, Version 2.0. \""
  },
  "userdoc": {
    "methods": {}
  }
}