{
  "contractName": "BancorBondingCurve",
  "abi": [
    {
      "anonymous": false,
      "inputs": [
        {
          "indexed": false,
          "internalType": "string",
          "name": "msg",
          "type": "string"
        },
        {
          "indexed": false,
          "internalType": "uint256",
          "name": "value",
          "type": "uint256"
        }
      ],
      "name": "Log",
      "type": "event"
    },
    {
      "inputs": [],
      "name": "version",
      "outputs": [
        {
          "internalType": "string",
          "name": "",
          "type": "string"
        }
      ],
      "stateMutability": "view",
      "type": "function"
    },
    {
      "inputs": [
        {
          "internalType": "uint256",
          "name": "_supply",
          "type": "uint256"
        },
        {
          "internalType": "uint256",
          "name": "_reserveBalance",
          "type": "uint256"
        },
        {
          "internalType": "uint32",
          "name": "_reserveRatio",
          "type": "uint32"
        },
        {
          "internalType": "uint32",
          "name": "_amount",
          "type": "uint32"
        }
      ],
      "name": "calculatePriceForNTokens",
      "outputs": [
        {
          "internalType": "uint256",
          "name": "",
          "type": "uint256"
        }
      ],
      "stateMutability": "nonpayable",
      "type": "function"
    },
    {
      "inputs": [
        {
          "internalType": "uint256",
          "name": "_supply",
          "type": "uint256"
        },
        {
          "internalType": "uint256",
          "name": "_reserveBalance",
          "type": "uint256"
        },
        {
          "internalType": "uint32",
          "name": "_reserveRatio",
          "type": "uint32"
        },
        {
          "internalType": "uint256",
          "name": "_depositAmount",
          "type": "uint256"
        }
      ],
      "name": "calculatePurchaseReturn",
      "outputs": [
        {
          "internalType": "uint32",
          "name": "",
          "type": "uint32"
        }
      ],
      "stateMutability": "nonpayable",
      "type": "function"
    },
    {
      "inputs": [
        {
          "internalType": "uint256",
          "name": "_supply",
          "type": "uint256"
        },
        {
          "internalType": "uint256",
          "name": "_reserveBalance",
          "type": "uint256"
        },
        {
          "internalType": "uint32",
          "name": "_reserveRatio",
          "type": "uint32"
        },
        {
          "internalType": "uint256",
          "name": "_sellAmount",
          "type": "uint256"
        }
      ],
      "name": "calculateSaleReturn",
      "outputs": [
        {
          "internalType": "uint256",
          "name": "",
          "type": "uint256"
        }
      ],
      "stateMutability": "nonpayable",
      "type": "function"
    }
  ],
  "bytecode": "0x60806040526040518060400160405280600381526020017f302e330000000000000000000000000000000000000000000000000000000000815250600090805190602001906200005192919062000e88565b50701c35fedd14ffffffffffffffffffffffff60016020608081106200007357fe5b0181905550701b0ce43b323fffffffffffffffffffffff60016021608081106200009957fe5b01819055507019f0028ec1ffffffffffffffffffffffff6001602260808110620000bf57fe5b01819055507018ded91f0e7fffffffffffffffffffffff6001602360808110620000e557fe5b01819055507017d8ec7f0417ffffffffffffffffffffff60016024608081106200010b57fe5b01819055507016ddc6556cdbffffffffffffffffffffff60016025608081106200013157fe5b01819055507015ecf52776a1ffffffffffffffffffffff60016026608081106200015757fe5b01819055507015060c256cb2ffffffffffffffffffffff60016027608081106200017d57fe5b0181905550701428a2f98d72ffffffffffffffffffffff6001602860808110620001a357fe5b01819055507013545598e5c23fffffffffffffffffffff6001602960808110620001c957fe5b0181905550701288c4161ce1dfffffffffffffffffffff6001602a60808110620001ef57fe5b01819055507011c592761c666fffffffffffffffffffff6001602b608081106200021557fe5b018190555070110a688680a757ffffffffffffffffffff6001602c608081106200023b57fe5b0181905550701056f1b5bedf77ffffffffffffffffffff6001602d608081106200026157fe5b0181905550700faadceceeff8bffffffffffffffffffff6001602e608081106200028757fe5b0181905550700f05dc6b27edadffffffffffffffffffff6001602f60808110620002ad57fe5b0181905550700e67a5a25da4107fffffffffffffffffff6001603060808110620002d357fe5b0181905550700dcff115b14eedffffffffffffffffffff6001603160808110620002f957fe5b0181905550700d3e7a392431239fffffffffffffffffff60016032608081106200031f57fe5b0181905550700cb2ff529eb71e4fffffffffffffffffff60016033608081106200034557fe5b0181905550700c2d415c3db974afffffffffffffffffff60016034608081106200036b57fe5b0181905550700bad03e7d883f69bffffffffffffffffff60016035608081106200039157fe5b0181905550700b320d03b2c343d5ffffffffffffffffff6001603660808110620003b757fe5b0181905550700abc25204e02828dffffffffffffffffff6001603760808110620003dd57fe5b0181905550700a4b16f74ee4bb207fffffffffffffffff60016038608081106200040357fe5b01819055507009deaf736ac1f569ffffffffffffffffff60016039608081106200042957fe5b0181905550700976bd9952c7aa957fffffffffffffffff6001603a608081106200044f57fe5b01819055507009131271922eaa606fffffffffffffffff6001603b608081106200047557fe5b01819055507008b380f3558668c46fffffffffffffffff6001603c608081106200049b57fe5b0181905550700857ddf0117efa215bffffffffffffffff6001603d60808110620004c157fe5b01819055507007ffffffffffffffffffffffffffffffff6001603e60808110620004e757fe5b01819055507007abbf6f6abb9d087fffffffffffffffff6001603f608081106200050d57fe5b018190555070075af62cbac95f7dfa7fffffffffffffff60016040608081106200053357fe5b018190555070070d7fb7452e187ac13fffffffffffffff60016041608081106200055957fe5b01819055507006c3390ecc8af379295fffffffffffffff60016042608081106200057f57fe5b018190555070067c00a3b07ffc01fd6fffffffffffffff6001604360808110620005a557fe5b0181905550700637b647c39cbb9d3d27ffffffffffffff6001604460808110620005cb57fe5b01819055507005f63b1fc104dbd39587ffffffffffffff6001604560808110620005f157fe5b01819055507005b771955b36e12f7235ffffffffffffff60016046608081106200061757fe5b018190555070057b3d49dda84556d6f6ffffffffffffff60016047608081106200063d57fe5b018190555070054183095b2c8ececf30ffffffffffffff60016048608081106200066357fe5b018190555070050a28be635ca2b888f77fffffffffffff60016049608081106200068957fe5b01819055507004d5156639708c9db33c3fffffffffffff6001604a60808110620006af57fe5b01819055507004a23105873875bd52dfdfffffffffffff6001604b60808110620006d557fe5b0181905550700471649d87199aa990756fffffffffffff6001604c60808110620006fb57fe5b01819055507004429a21a029d4c1457cfbffffffffffff6001604d608081106200072157fe5b0181905550700415bc6d6fb7dd71af2cb3ffffffffffff6001604e608081106200074757fe5b01819055507003eab73b3bbfe282243ce1ffffffffffff6001604f608081106200076d57fe5b01819055507003c1771ac9fb6b4c18e229ffffffffffff60016050608081106200079357fe5b0181905550700399e96897690418f785257fffffffffff6001605160808110620007b957fe5b0181905550700373fc456c53bb779bf0ea9fffffffffff6001605260808110620007df57fe5b018190555070034f9e8e490c48e67e6ab8bfffffffffff60016053608081106200080557fe5b018190555070032cbfd4a7adc790560b3337ffffffffff60016054608081106200082b57fe5b018190555070030b50570f6e5d2acca94613ffffffffff60016055608081106200085157fe5b01819055507002eb40f9f620fda6b56c2861ffffffffff60016056608081106200087757fe5b01819055507002cc8340ecb0d0f520a6af58ffffffffff60016057608081106200089d57fe5b01819055507002af09481380a0a35cf1ba02ffffffffff6001605860808110620008c357fe5b0181905550700292c5bdd3b92ec810287b1b3fffffffff6001605960808110620008e957fe5b0181905550700277abdcdab07d5a77ac6d6b9fffffffff6001605a608081106200090f57fe5b018190555070025daf6654b1eaa55fd64df5efffffffff6001605b608081106200093557fe5b0181905550700244c49c648baa98192dce88b7ffffffff6001605c608081106200095b57fe5b018190555070022ce03cd5619a311b2471268bffffffff6001605d608081106200098157fe5b0181905550700215f77c045fbe885654a44a0fffffffff6001605e60808110620009a757fe5b01819055507001ffffffffffffffffffffffffffffffff6001605f60808110620009cd57fe5b01819055507001eaefdbdaaee7421fc4d3ede5ffffffff6001606060808110620009f357fe5b01819055507001d6bd8b2eb257df7e8ca57b09bfffffff600160616080811062000a1957fe5b01819055507001c35fedd14b861eb0443f7f133fffffff600160626080811062000a3f57fe5b01819055507001b0ce43b322bcde4a56e8ada5afffffff600160636080811062000a6557fe5b018190555070019f0028ec1fff007f5a195a39dfffffff600160646080811062000a8b57fe5b018190555070018ded91f0e72ee74f49b15ba527ffffff600160656080811062000ab157fe5b018190555070017d8ec7f04136f4e5615fd41a63ffffff600160666080811062000ad757fe5b018190555070016ddc6556cdb84bdc8d12d22e6fffffff600160676080811062000afd57fe5b018190555070015ecf52776a1155b5bd8395814f7fffff600160686080811062000b2357fe5b018190555070015060c256cb23b3b3cc3754cf40ffffff600160696080811062000b4957fe5b01819055507001428a2f98d728ae223ddab715be3fffff6001606a6080811062000b6f57fe5b018190555070013545598e5c23276ccf0ede68034fffff6001606b6080811062000b9557fe5b01819055507001288c4161ce1d6f54b7f61081194fffff6001606c6080811062000bbb57fe5b018190555070011c592761c666aa641d5a01a40f17ffff6001606d6080811062000be157fe5b0181905550700110a688680a7530515f3e6e6cfdcdffff6001606e6080811062000c0757fe5b01819055507001056f1b5bedf75c6bcb2ce8aed428ffff6001606f6080811062000c2d57fe5b01819055506ffaadceceeff8a0890f3875f008277fff600160706080811062000c5257fe5b01819055506ff05dc6b27edad306388a600f6ba0bfff600160716080811062000c7757fe5b01819055506fe67a5a25da41063de1495d5b18cdbfff600160726080811062000c9c57fe5b01819055506fdcff115b14eedde6fc3aa5353f2e4fff600160736080811062000cc157fe5b01819055506fd3e7a3924312399f9aae2e0f868f8fff600160746080811062000ce657fe5b01819055506fcb2ff529eb71e41582cccd5a1ee26fff600160756080811062000d0b57fe5b01819055506fc2d415c3db974ab32a51840c0b67edff600160766080811062000d3057fe5b01819055506fbad03e7d883f69ad5b0a186184e06bff600160776080811062000d5557fe5b01819055506fb320d03b2c343d4829abd6075f0cc5ff600160786080811062000d7a57fe5b01819055506fabc25204e02828d73c6e80bcdb1a95bf600160796080811062000d9f57fe5b01819055506fa4b16f74ee4bb2040a1ec6c15fbbf2df6001607a6080811062000dc457fe5b01819055506f9deaf736ac1f569deb1b5ae3f36c130f6001607b6080811062000de957fe5b01819055506f976bd9952c7aa957f5937d790ef650376001607c6080811062000e0e57fe5b01819055506f9131271922eaa6064b73a22d0bd4f2bf6001607d6080811062000e3357fe5b01819055506f8b380f3558668c46c91c49a2f8e967b96001607e6080811062000e5857fe5b01819055506f857ddf0117efa215952912839f6473e66001607f6080811062000e7d57fe5b018190555062000f37565b828054600181600116156101000203166002900490600052602060002090601f016020900481019282601f1062000ecb57805160ff191683800117855562000efc565b8280016001018555821562000efc579182015b8281111562000efb57825182559160200191906001019062000ede565b5b50905062000f0b919062000f0f565b5090565b62000f3491905b8082111562000f3057600081600090555060010162000f16565b5090565b90565b6110538062000f476000396000f3fe608060405234801561001057600080fd5b506004361061004c5760003560e01c806329a00e7c1461005157806349f9b0f7146100c357806354fd4d50146101295780638c1f320e146101ac575b600080fd5b6100a16004803603608081101561006757600080fd5b810190808035906020019092919080359060200190929190803563ffffffff16906020019092919080359060200190929190505050610218565b604051808263ffffffff1663ffffffff16815260200191505060405180910390f35b610113600480360360808110156100d957600080fd5b810190808035906020019092919080359060200190929190803563ffffffff16906020019092919080359060200190929190505050610384565b6040518082815260200191505060405180910390f35b6101316104b4565b6040518080602001828103825283818151815260200191508051906020019080838360005b83811015610171578082015181840152602081019050610156565b50505050905090810190601f16801561019e5780820380516001836020036101000a031916815260200191505b509250505060405180910390f35b610202600480360360808110156101c257600080fd5b810190808035906020019092919080359060200190929190803563ffffffff169060200190929190803563ffffffff169060200190929190505050610552565b6040518082815260200191505060405180910390f35b600080851180156102295750600084115b801561023b575060008363ffffffff16115b80156102565750620f424063ffffffff168363ffffffff1611155b61025f57600080fd5b6000821415610271576000905061037c565b620f424063ffffffff168363ffffffff1614156102b4576102ad8461029f848861065a90919063ffffffff16565b6106e090919063ffffffff16565b905061037c565b60008060006102cc878661072a90919063ffffffff16565b90506102dd818888620f42406107b2565b80935081945050507fdd970dd9b5bfe707922155b058a407655cb18288b807e2216442bca8ad83d6b5836040518080602001838152602001828103825260188152602001807f526573756c74206f6620706f7765722066756e6374696f6e00000000000000008152506020019250505060405180910390a160008260ff1661036e858b61065a90919063ffffffff16565b901c90508881039450505050505b949350505050565b600080851180156103955750600084115b80156103a7575060008363ffffffff16115b80156103c25750620f424063ffffffff168363ffffffff1611155b80156103ce5750848211155b6103d757600080fd5b60008214156103e957600090506104ac565b848214156103f9578390506104ac565b620f424063ffffffff168363ffffffff16141561043c5761043585610427848761065a90919063ffffffff16565b6106e090919063ffffffff16565b90506104ac565b600080600084880390506104558882620f4240896107b2565b80935081945050506000610472848961065a90919063ffffffff16565b905060008360ff1689901b90506104a485610496838561080a90919063ffffffff16565b6106e090919063ffffffff16565b955050505050505b949350505050565b60008054600181600116156101000203166002900480601f01602080910402602001604051908101604052809291908181526020018280546001816001161561010002031660029004801561054a5780601f1061051f5761010080835404028352916020019161054a565b820191906000526020600020905b81548152906001019060200180831161052d57829003601f168201915b505050505081565b600080851180156105635750600084115b8015610575575060008363ffffffff16115b80156105905750620f424063ffffffff168363ffffffff1611155b61059957600080fd5b60008263ffffffff1614156105b15760009050610652565b620f424063ffffffff168363ffffffff1614156105fa576105f3856105e5868563ffffffff1661065a90919063ffffffff16565b6106e090919063ffffffff16565b9050610652565b600080610624610619888663ffffffff1661072a90919063ffffffff16565b88620f4240886107b2565b809250819350505060008160ff16610645848961065a90919063ffffffff16565b901c905086810393505050505b949350505050565b60008083141561066d57600090506106da565b600082840290508284828161067e57fe5b04146106d5576040517f08c379a0000000000000000000000000000000000000000000000000000000008152600401808060200182810382526021815260200180610ffd6021913960400191505060405180910390fd5b809150505b92915050565b600061072283836040518060400160405280601a81526020017f536166654d6174683a206469766973696f6e206279207a65726f000000000000815250610854565b905092915050565b6000808284019050838110156107a8576040517f08c379a000000000000000000000000000000000000000000000000000000000815260040180806020018281038252601b8152602001807f536166654d6174683a206164646974696f6e206f766572666c6f77000000000081525060200191505060405180910390fd5b8091505092915050565b60008060008363ffffffff168563ffffffff166107cf898961091a565b02816107d757fe5b04905060006107e582610a67565b90506107fa81607f0360ff1683901c82610b1c565b8193509350505094509492505050565b600061084c83836040518060400160405280601e81526020017f536166654d6174683a207375627472616374696f6e206f766572666c6f770000815250610eba565b905092915050565b60008083118290610900576040517f08c379a00000000000000000000000000000000000000000000000000000000081526004018080602001828103825283818151815260200191508051906020019080838360005b838110156108c55780820151818401526020810190506108aa565b50505050905090810190601f1680156108f25780820380516001836020036101000a031916815260200191505b509250505060405180910390fd5b50600083858161090c57fe5b049050809150509392505050565b60007001ffffffffffffffffffffffffffffffff83111561093757fe5b60008090506000836f8000000000000000000000000000000086028161095957fe5b04905070010000000000000000000000000000000081106109bd5760006109986f80000000000000000000000000000000838161099257fe5b04610f7a565b90508060ff1682901c91506f800000000000000000000000000000008160ff16029250505b6f80000000000000000000000000000000811115610a43576000607f90505b60008160ff161115610a41576f8000000000000000000000000000000082830281610a0357fe5b0491507001000000000000000000000000000000008210610a3557600182901c91506001810360ff166001901b830192505b806001900390506109dc565b505b607a60ff166f02c5c85fdf473de6af278ece600fcbda8302901c9250505092915050565b600080602090506000607f90505b8060ff166001830160ff161015610ac4576000600282840160ff1681610a9757fe5b0490508460018260ff1660808110610aab57fe5b015410610aba57809250610abe565b8091505b50610a75565b8360018260ff1660808110610ad557fe5b015410610ae6578092505050610b17565b8360018360ff1660808110610af757fe5b015410610b08578192505050610b17565b6000610b1057fe5b6000925050505b919050565b60008083905060008090508360ff16858302901c91506f03442c4e6074a82f1797f72ac00000008202810190508360ff16858302901c91506f0116b96f757c380fb287fd0e400000008202810190508360ff16858302901c91506e45ae5bdd5f0e03eca1ff43900000008202810190508360ff16858302901c91506e0defabf91302cd95b9ffda500000008202810190508360ff16858302901c91506e02529ca9832b22439efff9b80000008202810190508360ff16858302901c91506d54f1cf12bd04e516b6da880000008202810190508360ff16858302901c91506d0a9e39e257a09ca2d6db510000008202810190508360ff16858302901c91506d012e066e7b839fa050c3090000008202810190508360ff16858302901c91506c1e33d7d926c329a1ad1a8000008202810190508360ff16858302901c91506c02bee513bdb4a6b19b5f8000008202810190508360ff16858302901c91506b3a9316fa79b88eccf2a000008202810190508360ff16858302901c91506b048177ebe1fa8123752000008202810190508360ff16858302901c91506a5263fe90242dcbacf000008202810190508360ff16858302901c91506a057e22099c030d941000008202810190508360ff16858302901c91506957e22099c030d94100008202810190508360ff16858302901c915069052b6b545699763100008202810190508360ff16858302901c9150684985f67696bf7480008202810190508360ff16858302901c91506803dea12ea99e4980008202810190508360ff16858302901c91506731880f2214b6e0008202810190508360ff16858302901c915067025bcff56eb360008202810190508360ff16858302901c9150661b722e10ab10008202810190508360ff16858302901c91506601317c700770008202810190508360ff16858302901c9150650cba84aafa008202810190508360ff16858302901c91506482573a0a008202810190508360ff16858302901c91506405035ad9008202810190508360ff16858302901c9150632f881b008202810190508360ff16858302901c91506301b293408202810190508360ff16858302901c9150620efc408202810190508360ff16858302901c9150617fe08202810190508360ff16858302901c91506104208202810190508360ff16858302901c915060218202810190508360ff16858302901c915060018202810190508360ff166001901b856f0688589cc0e9505e2f2fee55800000008381610ead57fe5b0401019250505092915050565b6000838311158290610f67576040517f08c379a00000000000000000000000000000000000000000000000000000000081526004018080602001828103825283818151815260200191508051906020019080838360005b83811015610f2c578082015181840152602081019050610f11565b50505050905090810190601f168015610f595780820380516001836020036101000a031916815260200191505b509250505060405180910390fd5b5060008385039050809150509392505050565b600080600090506000839050610100811015610fb1575b6001811115610fac57600181901c9050600182019150610f91565b610ff2565b6000608090505b60008160ff161115610ff0578060ff166001901b8210610fe1578060ff1682901c915080831792505b60018160ff16901c9050610fb8565b505b819250505091905056fe536166654d6174683a206d756c7469706c69636174696f6e206f766572666c6f77a2646970667358221220a92d2d6f8813d24f44ed2565ba897cd2f14a72921e9df9e06c84960072762de664736f6c63430006060033",
  "immutableReferences": {},
  "source": "pragma solidity ^0.6.6;\n\nimport \"@openzeppelin/contracts/math/SafeMath.sol\";\nimport \"./Power.sol\"; // Efficient power function.\n\n/**\n* @title Bancor formula by Bancor\n*\n* Licensed to the Apache Software Foundation (ASF) under one or more contributor license agreements;\n* and to You under the Apache License, Version 2.0. \"\n*/\ncontract BancorBondingCurve is Power {\n  using SafeMath for uint256;\n  uint32 private constant MAX_RESERVE_RATIO = 1000000;\n\n  event Log(string msg, uint256 value);\n  /**\n   * @dev Try to compute the price to purchage n token\n   *\n   * Formula:\n   * Return = _reserveBalance * (((_amount / _supply + 1) ^ (1 / _reserveRatio)) - 1)\n   *\n   * @param _supply              continuous token total supply\n   * @param _reserveBalance     total reserve token balance\n   * @param _reserveRatio       the reserve ratio in the bancor curve.\n   * @param _amount             number to tokens one wishes to purchase\n   *\n   *  @return price for N tokens \n  */\n  function calculatePriceForNTokens(\n    uint256 _supply,\n    uint256 _reserveBalance,\n    uint32 _reserveRatio,\n    uint32 _amount) public returns (uint256)\n  {\n    require(_supply > 0 && _reserveBalance > 0 && _reserveRatio > 0 && _reserveRatio <= MAX_RESERVE_RATIO);\n    // special case for 0 tokens\n    if (_amount == 0) {\n      return 0;\n    } \n    // special case if this is a linear function\n    if (_reserveRatio == MAX_RESERVE_RATIO) {\n      return uint256(_amount).mul(_reserveBalance).div(_supply);\n    } \n\n    uint256 result;\n    uint8 precision;\n    (result, precision) = power(\n      uint256(_amount).add(_supply), _supply, MAX_RESERVE_RATIO, _reserveRatio\n    );\n    uint256 temp =  _reserveBalance.mul(result) >> precision;\n    return temp - _reserveBalance;\n  }\n\n  /**\n   * @dev given a continuous token supply, reserve token balance, reserve ratio, and a deposit amount (in the reserve token),\n   * calculates the return for a given conversion (in the continuous token)\n   *\n   * Formula:\n   * Return = _supply * ((1 + _depositAmount / _reserveBalance) ^ (_reserveRatio / MAX_RESERVE_RATIO) - 1)\n   *\n   * @param _supply              continuous token total supply\n   * @param _reserveBalance    total reserve token balance\n   * @param _reserveRatio     reserve ratio, represented in ppm, 1-1000000\n   * @param _depositAmount       deposit amount, in reserve token\n   *\n   *  @return purchase return amount\n  */\n  // Remember this is a view function. Removed view modifier for testing only\n  function calculatePurchaseReturn(\n    uint256 _supply,\n    uint256 _reserveBalance,\n    uint32 _reserveRatio,\n    uint256 _depositAmount) public returns (uint32)\n  {\n    // validate input\n    require(_supply > 0 && _reserveBalance > 0 && _reserveRatio > 0 && _reserveRatio <= MAX_RESERVE_RATIO);\n     // special case for 0 deposit amount\n    if (_depositAmount == 0) {\n      return 0;\n    }\n     // special case if the ratio = 100%\n    if (_reserveRatio == MAX_RESERVE_RATIO) {\n      return uint32(_supply.mul(_depositAmount).div(_reserveBalance));\n    }\n\n    uint256 result;\n    // result = _depositAmount.add(_reserveBalance).div(_reserveBalance) ** (_reserveRatio / MAX_RESERVE_RATIO) - 1;\n    // return uint32(_supply.mul(result));\n    uint8 precision;\n    uint256 baseN = _depositAmount.add(_reserveBalance);\n    (result, precision) = power(\n      baseN, _reserveBalance, _reserveRatio, MAX_RESERVE_RATIO\n    );\n    // // uint256 tokens = _supply.mul(result) >> precision;  // This can cause future issues due to unit conversion. Needs to check for safety later\n    // // return uint32(tokens);\n    emit Log(\"Result of power function\", result);\n    uint256 temp = _supply.mul(result) >> precision;\n    return uint32(temp - _supply);\n  }\n\n   /**\n   * @dev given a continuous token supply, reserve token balance, reserve ratio and a sell amount (in the continuous token),\n   * calculates the return for a given conversion (in the reserve token)\n   *\n   * Formula:\n   * Return = _reserveBalance * (1 - (1 - _sellAmount / _supply) ^ (1 / (_reserveRatio / MAX_RESERVE_RATIO)))\n   *\n   * @param _supply              continuous token total supply\n   * @param _reserveBalance    total reserve token balance\n   * @param _reserveRatio     constant reserve ratio, represented in ppm, 1-1000000\n   * @param _sellAmount          sell amount, in the continuous token itself\n   *\n   * @return sale return amount\n  */\n  function calculateSaleReturn(\n    uint256 _supply,\n    uint256 _reserveBalance,\n    uint32 _reserveRatio,\n    uint256 _sellAmount) public returns (uint256)\n  {\n    // validate input\n    require(_supply > 0 && _reserveBalance > 0 && _reserveRatio > 0 && _reserveRatio <= MAX_RESERVE_RATIO && _sellAmount <= _supply);\n     // special case for 0 sell amount\n    if (_sellAmount == 0) {\n      return 0;\n    }\n     // special case for selling the entire supply\n    if (_sellAmount == _supply) {\n      return _reserveBalance;\n    }\n     // special case if the ratio = 100%\n    if (_reserveRatio == MAX_RESERVE_RATIO) {\n      return _reserveBalance.mul(_sellAmount).div(_supply);\n    }\n    uint256 result;\n    uint8 precision;\n    // uint256 baseN = _supply - _sellAmount;\n    // result = (1 - (_supply.sub(_sellAmount).div(_supply)) ** (MAX_RESERVE_RATIO / _reserveRatio));\n    // return _reserveBalance.mul(result);\n    // result = baseN.div(_supply) ** (MAX_RESERVE_RATIO / _reserveRatio);\n    // return _reserveBalance.sub(result.mul(_reserveBalance));\n    // (result, precision) = power(\n    //   baseN, _supply, MAX_RESERVE_RATIO, _reserveRatio\n    // );\n    // return _reserveBalance.sub((result >> precision).mul(_reserveBalance));\n\n    uint256 baseD = _supply - _sellAmount;\n    (result, precision) = power(\n      _supply, baseD, MAX_RESERVE_RATIO, _reserveRatio\n    );\n    uint256 oldBalance = _reserveBalance.mul(result);\n    uint256 newBalance = _reserveBalance << precision;\n    return oldBalance.sub(newBalance).div(result);\n  }\n}",
  "sourcePath": "/Users/sd/Documents/GitHub/virtualmarket/contracts/BancorBondingCurve.sol",
  "compiler": {
    "name": "solc",
    "version": "0.6.6+commit.6c089d02.Emscripten.clang"
  },
  "schemaVersion": "3.3.4",
  "updatedAt": "2021-04-09T02:03:41.667Z",
  "devdoc": {
    "methods": {
      "calculatePriceForNTokens(uint256,uint256,uint32,uint32)": {
        "details": "Try to compute the price to purchage n token   * Formula: Return = _reserveBalance * (((_amount / _supply + 1) ^ (1 / _reserveRatio)) - 1)",
        "params": {
          "_amount": "number to tokens one wishes to purchase",
          "_reserveBalance": "total reserve token balance",
          "_reserveRatio": "the reserve ratio in the bancor curve.",
          "_supply": "continuous token total supply"
        },
        "returns": {
          "_0": "price for N tokens "
        }
      },
      "calculatePurchaseReturn(uint256,uint256,uint32,uint256)": {
        "details": "given a continuous token supply, reserve token balance, reserve ratio, and a deposit amount (in the reserve token), calculates the return for a given conversion (in the continuous token)   * Formula: Return = _supply * ((1 + _depositAmount / _reserveBalance) ^ (_reserveRatio / MAX_RESERVE_RATIO) - 1)",
        "params": {
          "_depositAmount": "deposit amount, in reserve token",
          "_reserveBalance": "total reserve token balance",
          "_reserveRatio": "reserve ratio, represented in ppm, 1-1000000",
          "_supply": "continuous token total supply"
        },
        "returns": {
          "_0": "purchase return amount"
        }
      },
      "calculateSaleReturn(uint256,uint256,uint32,uint256)": {
        "details": "given a continuous token supply, reserve token balance, reserve ratio and a sell amount (in the continuous token), calculates the return for a given conversion (in the reserve token)   * Formula: Return = _reserveBalance * (1 - (1 - _sellAmount / _supply) ^ (1 / (_reserveRatio / MAX_RESERVE_RATIO)))",
        "params": {
          "_reserveBalance": "total reserve token balance",
          "_reserveRatio": "constant reserve ratio, represented in ppm, 1-1000000",
          "_sellAmount": "sell amount, in the continuous token itself",
          "_supply": "continuous token total supply"
        },
        "returns": {
          "_0": "sale return amount"
        }
      }
    },
    "title": "Bancor formula by Bancor * Licensed to the Apache Software Foundation (ASF) under one or more contributor license agreements; and to You under the Apache License, Version 2.0. \""
  },
  "userdoc": {
    "methods": {}
  }
}