{
  "contractName": "BancorBondingCurve",
  "abi": [
    {
      "inputs": [],
      "name": "version",
      "outputs": [
        {
          "internalType": "string",
          "name": "",
          "type": "string"
        }
      ],
      "stateMutability": "view",
      "type": "function"
    },
    {
      "inputs": [
        {
          "internalType": "uint256",
          "name": "_supply",
          "type": "uint256"
        },
        {
          "internalType": "uint256",
          "name": "_reserveBalance",
          "type": "uint256"
        },
        {
          "internalType": "uint32",
          "name": "_reserveRatio",
          "type": "uint32"
        },
        {
          "internalType": "uint256",
          "name": "_depositAmount",
          "type": "uint256"
        }
      ],
      "name": "calculatePurchaseReturn",
      "outputs": [
        {
          "internalType": "uint256",
          "name": "",
          "type": "uint256"
        }
      ],
      "stateMutability": "view",
      "type": "function"
    },
    {
      "inputs": [
        {
          "internalType": "uint256",
          "name": "_supply",
          "type": "uint256"
        },
        {
          "internalType": "uint256",
          "name": "_reserveBalance",
          "type": "uint256"
        },
        {
          "internalType": "uint32",
          "name": "_reserveRatio",
          "type": "uint32"
        },
        {
          "internalType": "uint256",
          "name": "_sellAmount",
          "type": "uint256"
        }
      ],
      "name": "calculateSaleReturn",
      "outputs": [
        {
          "internalType": "uint256",
          "name": "",
          "type": "uint256"
        }
      ],
      "stateMutability": "view",
      "type": "function"
    }
  ],
  "bytecode": "0x60806040526040518060400160405280600381526020017f302e330000000000000000000000000000000000000000000000000000000000815250600090805190602001906200005192919062000e88565b50701c35fedd14ffffffffffffffffffffffff60016020608081106200007357fe5b0181905550701b0ce43b323fffffffffffffffffffffff60016021608081106200009957fe5b01819055507019f0028ec1ffffffffffffffffffffffff6001602260808110620000bf57fe5b01819055507018ded91f0e7fffffffffffffffffffffff6001602360808110620000e557fe5b01819055507017d8ec7f0417ffffffffffffffffffffff60016024608081106200010b57fe5b01819055507016ddc6556cdbffffffffffffffffffffff60016025608081106200013157fe5b01819055507015ecf52776a1ffffffffffffffffffffff60016026608081106200015757fe5b01819055507015060c256cb2ffffffffffffffffffffff60016027608081106200017d57fe5b0181905550701428a2f98d72ffffffffffffffffffffff6001602860808110620001a357fe5b01819055507013545598e5c23fffffffffffffffffffff6001602960808110620001c957fe5b0181905550701288c4161ce1dfffffffffffffffffffff6001602a60808110620001ef57fe5b01819055507011c592761c666fffffffffffffffffffff6001602b608081106200021557fe5b018190555070110a688680a757ffffffffffffffffffff6001602c608081106200023b57fe5b0181905550701056f1b5bedf77ffffffffffffffffffff6001602d608081106200026157fe5b0181905550700faadceceeff8bffffffffffffffffffff6001602e608081106200028757fe5b0181905550700f05dc6b27edadffffffffffffffffffff6001602f60808110620002ad57fe5b0181905550700e67a5a25da4107fffffffffffffffffff6001603060808110620002d357fe5b0181905550700dcff115b14eedffffffffffffffffffff6001603160808110620002f957fe5b0181905550700d3e7a392431239fffffffffffffffffff60016032608081106200031f57fe5b0181905550700cb2ff529eb71e4fffffffffffffffffff60016033608081106200034557fe5b0181905550700c2d415c3db974afffffffffffffffffff60016034608081106200036b57fe5b0181905550700bad03e7d883f69bffffffffffffffffff60016035608081106200039157fe5b0181905550700b320d03b2c343d5ffffffffffffffffff6001603660808110620003b757fe5b0181905550700abc25204e02828dffffffffffffffffff6001603760808110620003dd57fe5b0181905550700a4b16f74ee4bb207fffffffffffffffff60016038608081106200040357fe5b01819055507009deaf736ac1f569ffffffffffffffffff60016039608081106200042957fe5b0181905550700976bd9952c7aa957fffffffffffffffff6001603a608081106200044f57fe5b01819055507009131271922eaa606fffffffffffffffff6001603b608081106200047557fe5b01819055507008b380f3558668c46fffffffffffffffff6001603c608081106200049b57fe5b0181905550700857ddf0117efa215bffffffffffffffff6001603d60808110620004c157fe5b01819055507007ffffffffffffffffffffffffffffffff6001603e60808110620004e757fe5b01819055507007abbf6f6abb9d087fffffffffffffffff6001603f608081106200050d57fe5b018190555070075af62cbac95f7dfa7fffffffffffffff60016040608081106200053357fe5b018190555070070d7fb7452e187ac13fffffffffffffff60016041608081106200055957fe5b01819055507006c3390ecc8af379295fffffffffffffff60016042608081106200057f57fe5b018190555070067c00a3b07ffc01fd6fffffffffffffff6001604360808110620005a557fe5b0181905550700637b647c39cbb9d3d27ffffffffffffff6001604460808110620005cb57fe5b01819055507005f63b1fc104dbd39587ffffffffffffff6001604560808110620005f157fe5b01819055507005b771955b36e12f7235ffffffffffffff60016046608081106200061757fe5b018190555070057b3d49dda84556d6f6ffffffffffffff60016047608081106200063d57fe5b018190555070054183095b2c8ececf30ffffffffffffff60016048608081106200066357fe5b018190555070050a28be635ca2b888f77fffffffffffff60016049608081106200068957fe5b01819055507004d5156639708c9db33c3fffffffffffff6001604a60808110620006af57fe5b01819055507004a23105873875bd52dfdfffffffffffff6001604b60808110620006d557fe5b0181905550700471649d87199aa990756fffffffffffff6001604c60808110620006fb57fe5b01819055507004429a21a029d4c1457cfbffffffffffff6001604d608081106200072157fe5b0181905550700415bc6d6fb7dd71af2cb3ffffffffffff6001604e608081106200074757fe5b01819055507003eab73b3bbfe282243ce1ffffffffffff6001604f608081106200076d57fe5b01819055507003c1771ac9fb6b4c18e229ffffffffffff60016050608081106200079357fe5b0181905550700399e96897690418f785257fffffffffff6001605160808110620007b957fe5b0181905550700373fc456c53bb779bf0ea9fffffffffff6001605260808110620007df57fe5b018190555070034f9e8e490c48e67e6ab8bfffffffffff60016053608081106200080557fe5b018190555070032cbfd4a7adc790560b3337ffffffffff60016054608081106200082b57fe5b018190555070030b50570f6e5d2acca94613ffffffffff60016055608081106200085157fe5b01819055507002eb40f9f620fda6b56c2861ffffffffff60016056608081106200087757fe5b01819055507002cc8340ecb0d0f520a6af58ffffffffff60016057608081106200089d57fe5b01819055507002af09481380a0a35cf1ba02ffffffffff6001605860808110620008c357fe5b0181905550700292c5bdd3b92ec810287b1b3fffffffff6001605960808110620008e957fe5b0181905550700277abdcdab07d5a77ac6d6b9fffffffff6001605a608081106200090f57fe5b018190555070025daf6654b1eaa55fd64df5efffffffff6001605b608081106200093557fe5b0181905550700244c49c648baa98192dce88b7ffffffff6001605c608081106200095b57fe5b018190555070022ce03cd5619a311b2471268bffffffff6001605d608081106200098157fe5b0181905550700215f77c045fbe885654a44a0fffffffff6001605e60808110620009a757fe5b01819055507001ffffffffffffffffffffffffffffffff6001605f60808110620009cd57fe5b01819055507001eaefdbdaaee7421fc4d3ede5ffffffff6001606060808110620009f357fe5b01819055507001d6bd8b2eb257df7e8ca57b09bfffffff600160616080811062000a1957fe5b01819055507001c35fedd14b861eb0443f7f133fffffff600160626080811062000a3f57fe5b01819055507001b0ce43b322bcde4a56e8ada5afffffff600160636080811062000a6557fe5b018190555070019f0028ec1fff007f5a195a39dfffffff600160646080811062000a8b57fe5b018190555070018ded91f0e72ee74f49b15ba527ffffff600160656080811062000ab157fe5b018190555070017d8ec7f04136f4e5615fd41a63ffffff600160666080811062000ad757fe5b018190555070016ddc6556cdb84bdc8d12d22e6fffffff600160676080811062000afd57fe5b018190555070015ecf52776a1155b5bd8395814f7fffff600160686080811062000b2357fe5b018190555070015060c256cb23b3b3cc3754cf40ffffff600160696080811062000b4957fe5b01819055507001428a2f98d728ae223ddab715be3fffff6001606a6080811062000b6f57fe5b018190555070013545598e5c23276ccf0ede68034fffff6001606b6080811062000b9557fe5b01819055507001288c4161ce1d6f54b7f61081194fffff6001606c6080811062000bbb57fe5b018190555070011c592761c666aa641d5a01a40f17ffff6001606d6080811062000be157fe5b0181905550700110a688680a7530515f3e6e6cfdcdffff6001606e6080811062000c0757fe5b01819055507001056f1b5bedf75c6bcb2ce8aed428ffff6001606f6080811062000c2d57fe5b01819055506ffaadceceeff8a0890f3875f008277fff600160706080811062000c5257fe5b01819055506ff05dc6b27edad306388a600f6ba0bfff600160716080811062000c7757fe5b01819055506fe67a5a25da41063de1495d5b18cdbfff600160726080811062000c9c57fe5b01819055506fdcff115b14eedde6fc3aa5353f2e4fff600160736080811062000cc157fe5b01819055506fd3e7a3924312399f9aae2e0f868f8fff600160746080811062000ce657fe5b01819055506fcb2ff529eb71e41582cccd5a1ee26fff600160756080811062000d0b57fe5b01819055506fc2d415c3db974ab32a51840c0b67edff600160766080811062000d3057fe5b01819055506fbad03e7d883f69ad5b0a186184e06bff600160776080811062000d5557fe5b01819055506fb320d03b2c343d4829abd6075f0cc5ff600160786080811062000d7a57fe5b01819055506fabc25204e02828d73c6e80bcdb1a95bf600160796080811062000d9f57fe5b01819055506fa4b16f74ee4bb2040a1ec6c15fbbf2df6001607a6080811062000dc457fe5b01819055506f9deaf736ac1f569deb1b5ae3f36c130f6001607b6080811062000de957fe5b01819055506f976bd9952c7aa957f5937d790ef650376001607c6080811062000e0e57fe5b01819055506f9131271922eaa6064b73a22d0bd4f2bf6001607d6080811062000e3357fe5b01819055506f8b380f3558668c46c91c49a2f8e967b96001607e6080811062000e5857fe5b01819055506f857ddf0117efa215952912839f6473e66001607f6080811062000e7d57fe5b018190555062000f37565b828054600181600116156101000203166002900490600052602060002090601f016020900481019282601f1062000ecb57805160ff191683800117855562000efc565b8280016001018555821562000efc579182015b8281111562000efb57825182559160200191906001019062000ede565b5b50905062000f0b919062000f0f565b5090565b62000f3491905b8082111562000f3057600081600090555060010162000f16565b5090565b90565b611ab98062000f476000396000f3fe608060405234801561001057600080fd5b50600436106100415760003560e01c806329a00e7c1461004657806349f9b0f7146100ac57806354fd4d5014610112575b600080fd5b6100966004803603608081101561005c57600080fd5b810190808035906020019092919080359060200190929190803563ffffffff16906020019092919080359060200190929190505050610195565b6040518082815260200191505060405180910390f35b6100fc600480360360808110156100c257600080fd5b810190808035906020019092919080359060200190929190803563ffffffff16906020019092919080359060200190929190505050610291565b6040518082815260200191505060405180910390f35b61011a6103c1565b6040518080602001828103825283818151815260200191508051906020019080838360005b8381101561015a57808201518184015260208101905061013f565b50505050905090810190601f1680156101875780820380516001836020036101000a031916815260200191505b509250505060405180910390f35b600080851180156101a65750600084115b80156101b8575060008363ffffffff16115b80156101d35750620f424063ffffffff168363ffffffff1611155b6101dc57600080fd5b60008214156101ee5760009050610289565b620f424063ffffffff168363ffffffff1614156102315761022a8461021c848861045f90919063ffffffff16565b6104e590919063ffffffff16565b9050610289565b6000806000610249878661052f90919063ffffffff16565b905061025a818888620f42406105b7565b809350819450505060008260ff1661027b858b61045f90919063ffffffff16565b901c90508881039450505050505b949350505050565b600080851180156102a25750600084115b80156102b4575060008363ffffffff16115b80156102cf5750620f424063ffffffff168363ffffffff1611155b80156102db5750848211155b6102e457600080fd5b60008214156102f657600090506103b9565b84821415610306578390506103b9565b620f424063ffffffff168363ffffffff1614156103495761034285610334848761045f90919063ffffffff16565b6104e590919063ffffffff16565b90506103b9565b600080600084880390506103628882620f4240896105b7565b8093508194505050600061037f848961045f90919063ffffffff16565b905060008360ff1689901b90506103b1856103a3838561078b90919063ffffffff16565b6104e590919063ffffffff16565b955050505050505b949350505050565b60008054600181600116156101000203166002900480601f0160208091040260200160405190810160405280929190818152602001828054600181600116156101000203166002900480156104575780601f1061042c57610100808354040283529160200191610457565b820191906000526020600020905b81548152906001019060200180831161043a57829003601f168201915b505050505081565b60008083141561047257600090506104df565b600082840290508284828161048357fe5b04146104da576040517f08c379a0000000000000000000000000000000000000000000000000000000008152600401808060200182810382526021815260200180611a636021913960400191505060405180910390fd5b809150505b92915050565b600061052783836040518060400160405280601a81526020017f536166654d6174683a206469766973696f6e206279207a65726f0000000000008152506107d5565b905092915050565b6000808284019050838110156105ad576040517f08c379a000000000000000000000000000000000000000000000000000000000815260040180806020018281038252601b8152602001807f536166654d6174683a206164646974696f6e206f766572666c6f77000000000081525060200191505060405180910390fd5b8091505092915050565b6000807002000000000000000000000000000000008610610640576040517f08c379a00000000000000000000000000000000000000000000000000000000081526004018080602001828103825260188152602001807f626173654e2065786365656473206d61782076616c75652e000000000000000081525060200191505060405180910390fd5b848610156106b6576040517f08c379a000000000000000000000000000000000000000000000000000000000815260040180806020018281038252601c8152602001807f4261736573203c203120617265206e6f7420737570706f727465642e0000000081525060200191505060405180910390fd5b600080866f800000000000000000000000000000008902816106d457fe5b04905070015bf0a8b1457695355fb8ac404e7a79e3811015610700576106f98161089b565b915061070c565b61070981610e2b565b91505b60008563ffffffff168763ffffffff1684028161072557fe5b0490507008000000000000000000000000000000008110156107585761074a81610f53565b607f94509450505050610782565b6000610763826114cd565b905061077881607f0360ff1683901c82611582565b8195509550505050505b94509492505050565b60006107cd83836040518060400160405280601e81526020017f536166654d6174683a207375627472616374696f6e206f766572666c6f770000815250611920565b905092915050565b60008083118290610881576040517f08c379a00000000000000000000000000000000000000000000000000000000081526004018080602001828103825283818151815260200191508051906020019080838360005b8381101561084657808201518184015260208101905061082b565b50505050905090810190601f1680156108735780820380516001836020036101000a031916815260200191505b509250505060405180910390fd5b50600083858161088d57fe5b049050809150509392505050565b6000806000905060008060006fd3094c70f034de4b96ff7d5b6f99fcd88610610902576f40000000000000000000000000000000840193506fd3094c70f034de4b96ff7d5b6f99fcd86f800000000000000000000000000000008702816108fe57fe5b0495505b6fa45af1e1f40c333b3de1db4dd55f29a7861061095d576f20000000000000000000000000000000840193506fa45af1e1f40c333b3de1db4dd55f29a76f8000000000000000000000000000000087028161095957fe5b0495505b6f910b022db7ae67ce76b441c27035c6a186106109b8576f10000000000000000000000000000000840193506f910b022db7ae67ce76b441c27035c6a16f800000000000000000000000000000008702816109b457fe5b0495505b6f88415abbe9a76bead8d00cf112e4d4a88610610a13576f08000000000000000000000000000000840193506f88415abbe9a76bead8d00cf112e4d4a86f80000000000000000000000000000000870281610a0f57fe5b0495505b6f84102b00893f64c705e841d5d4064bd38610610a6e576f04000000000000000000000000000000840193506f84102b00893f64c705e841d5d4064bd36f80000000000000000000000000000000870281610a6a57fe5b0495505b6f8204055aaef1c8bd5c3259f4822735a28610610ac9576f02000000000000000000000000000000840193506f8204055aaef1c8bd5c3259f4822735a26f80000000000000000000000000000000870281610ac557fe5b0495505b6f810100ab00222d861931c15e39b44e998610610b24576f01000000000000000000000000000000840193506f810100ab00222d861931c15e39b44e996f80000000000000000000000000000000870281610b2057fe5b0495505b6f808040155aabbbe9451521693554f7338610610b7e576e800000000000000000000000000000840193506f808040155aabbbe9451521693554f7336f80000000000000000000000000000000870281610b7a57fe5b0495505b6f80000000000000000000000000000000860392508291506f8000000000000000000000000000000083840281610bb157fe5b0490507001000000000000000000000000000000008370010000000000000000000000000000000003830281610be357fe5b04840193506f8000000000000000000000000000000081830281610c0357fe5b049150700200000000000000000000000000000000836faaaaaaaaaaaaaaaaaaaaaaaaaaaaaaaa03830281610c3457fe5b04840193506f8000000000000000000000000000000081830281610c5457fe5b049150700300000000000000000000000000000000836f9999999999999999999999999999999903830281610c8557fe5b04840193506f8000000000000000000000000000000081830281610ca557fe5b049150700400000000000000000000000000000000836f9249249249249249249249249249249203830281610cd657fe5b04840193506f8000000000000000000000000000000081830281610cf657fe5b049150700500000000000000000000000000000000836f8e38e38e38e38e38e38e38e38e38e38e03830281610d2757fe5b04840193506f8000000000000000000000000000000081830281610d4757fe5b049150700600000000000000000000000000000000836f8ba2e8ba2e8ba2e8ba2e8ba2e8ba2e8b03830281610d7857fe5b04840193506f8000000000000000000000000000000081830281610d9857fe5b049150700700000000000000000000000000000000836f89d89d89d89d89d89d89d89d89d89d8903830281610dc957fe5b04840193506f8000000000000000000000000000000081830281610de957fe5b049150700800000000000000000000000000000000836f8888888888888888888888888888888803830281610e1a57fe5b048401935083945050505050919050565b6000806000905060008390507001000000000000000000000000000000008110610e98576000610e736f800000000000000000000000000000008381610e6d57fe5b046119e0565b90508060ff1682901c91506f800000000000000000000000000000008160ff16029250505b6f80000000000000000000000000000000811115610f1e576000607f90505b60008160ff161115610f1c576f8000000000000000000000000000000082830281610ede57fe5b0491507001000000000000000000000000000000008210610f1057600182901c91506001810360ff166001901b830192505b80600190039050610eb7565b505b6f05b9de1d10bf4103d647b0955897ba806f03f80fe03f80fe03f80fe03f80fe03f8830281610f4957fe5b0492505050919050565b600080600090506000806f100000000000000000000000000000008581610f7657fe5b0691508190506f8000000000000000000000000000000082820281610f9757fe5b0490506710e1b3be415a00008102830192506f8000000000000000000000000000000082820281610fc457fe5b0490506705a0913f6b1e00008102830192506f8000000000000000000000000000000082820281610ff157fe5b049050670168244fdac780008102830192506f800000000000000000000000000000008282028161101e57fe5b049050664807432bc180008102830192506f800000000000000000000000000000008282028161104a57fe5b049050660c0135dca040008102830192506f800000000000000000000000000000008282028161107657fe5b0490506601b707b1cdc0008102830192506f80000000000000000000000000000000828202816110a257fe5b0490506536e0f639b8008102830192506f80000000000000000000000000000000828202816110cd57fe5b049050650618fee9f8008102830192506f80000000000000000000000000000000828202816110f857fe5b049050649c197dcc008102830192506f800000000000000000000000000000008282028161112257fe5b049050640e30dce4008102830192506f800000000000000000000000000000008282028161114c57fe5b04905064012ebd13008102830192506f800000000000000000000000000000008282028161117657fe5b0490506317499f008102830192506f800000000000000000000000000000008282028161119f57fe5b0490506301a9d4808102830192506f80000000000000000000000000000000828202816111c857fe5b049050621c63808102830192506f80000000000000000000000000000000828202816111f057fe5b0490506201c6388102830192506f800000000000000000000000000000008282028161121857fe5b049050611ab88102830192506f800000000000000000000000000000008282028161123f57fe5b04905061017c8102830192506f800000000000000000000000000000008282028161126657fe5b04905060148102830192506f800000000000000000000000000000008282028161128c57fe5b04905060018102830192506f80000000000000000000000000000000826721c3677c82b4000085816112ba57fe5b040101925060006f1000000000000000000000000000000086161461130a5770018ebef9eac820ae8682b9793ac6d1e7767001c3d6a24ed82218787d624d3e5eba95f984028161130657fe5b0492505b60006f20000000000000000000000000000000861614611355577001368b2fc6f9609fe7aceb46aa619baed470018ebef9eac820ae8682b9793ac6d1e77884028161135157fe5b0492505b60006f4000000000000000000000000000000086161461139f576fbc5ab1b16779be3575bd8f0520a9f21f7001368b2fc6f9609fe7aceb46aa619baed584028161139b57fe5b0492505b60006f800000000000000000000000000000008616146113e8576f454aaa8efe072e7f6ddbab84b40a55c96fbc5ab1b16779be3575bd8f0520a9f21e8402816113e457fe5b0492505b6000700100000000000000000000000000000000861614611432576f0960aadc109e7a3bf4578099615711ea6f454aaa8efe072e7f6ddbab84b40a55c584028161142e57fe5b0492505b600070020000000000000000000000000000000086161461147b576e2bf84208204f5977f9a8cf01fdce3d6f0960aadc109e7a3bf4578099615711d784028161147757fe5b0492505b60007004000000000000000000000000000000008616146114c2576d03c6ab775dd0b95b4cbee7e65d116e2bf84208204f5977f9a8cf01fdc3078402816114be57fe5b0492505b829350505050919050565b600080602090506000607f90505b8060ff166001830160ff16101561152a576000600282840160ff16816114fd57fe5b0490508460018260ff166080811061151157fe5b01541061152057809250611524565b8091505b506114db565b8360018260ff166080811061153b57fe5b01541061154c57809250505061157d565b8360018360ff166080811061155d57fe5b01541061156e57819250505061157d565b600061157657fe5b6000925050505b919050565b60008083905060008090508360ff16858302901c91506f03442c4e6074a82f1797f72ac00000008202810190508360ff16858302901c91506f0116b96f757c380fb287fd0e400000008202810190508360ff16858302901c91506e45ae5bdd5f0e03eca1ff43900000008202810190508360ff16858302901c91506e0defabf91302cd95b9ffda500000008202810190508360ff16858302901c91506e02529ca9832b22439efff9b80000008202810190508360ff16858302901c91506d54f1cf12bd04e516b6da880000008202810190508360ff16858302901c91506d0a9e39e257a09ca2d6db510000008202810190508360ff16858302901c91506d012e066e7b839fa050c3090000008202810190508360ff16858302901c91506c1e33d7d926c329a1ad1a8000008202810190508360ff16858302901c91506c02bee513bdb4a6b19b5f8000008202810190508360ff16858302901c91506b3a9316fa79b88eccf2a000008202810190508360ff16858302901c91506b048177ebe1fa8123752000008202810190508360ff16858302901c91506a5263fe90242dcbacf000008202810190508360ff16858302901c91506a057e22099c030d941000008202810190508360ff16858302901c91506957e22099c030d94100008202810190508360ff16858302901c915069052b6b545699763100008202810190508360ff16858302901c9150684985f67696bf7480008202810190508360ff16858302901c91506803dea12ea99e4980008202810190508360ff16858302901c91506731880f2214b6e0008202810190508360ff16858302901c915067025bcff56eb360008202810190508360ff16858302901c9150661b722e10ab10008202810190508360ff16858302901c91506601317c700770008202810190508360ff16858302901c9150650cba84aafa008202810190508360ff16858302901c91506482573a0a008202810190508360ff16858302901c91506405035ad9008202810190508360ff16858302901c9150632f881b008202810190508360ff16858302901c91506301b293408202810190508360ff16858302901c9150620efc408202810190508360ff16858302901c9150617fe08202810190508360ff16858302901c91506104208202810190508360ff16858302901c915060218202810190508360ff16858302901c915060018202810190508360ff166001901b856f0688589cc0e9505e2f2fee5580000000838161191357fe5b0401019250505092915050565b60008383111582906119cd576040517f08c379a00000000000000000000000000000000000000000000000000000000081526004018080602001828103825283818151815260200191508051906020019080838360005b83811015611992578082015181840152602081019050611977565b50505050905090810190601f1680156119bf5780820380516001836020036101000a031916815260200191505b509250505060405180910390fd5b5060008385039050809150509392505050565b600080600090506000839050610100811015611a17575b6001811115611a1257600181901c90506001820191506119f7565b611a58565b6000608090505b60008160ff161115611a56578060ff166001901b8210611a47578060ff1682901c915080831792505b60018160ff16901c9050611a1e565b505b819250505091905056fe536166654d6174683a206d756c7469706c69636174696f6e206f766572666c6f77a264697066735822122012d4d7f1d14dc34f019888830062c9907b1531a66ca961d4050d51fe2dd1909364736f6c63430006060033",
  "immutableReferences": {},
  "source": "pragma solidity ^0.6.6;\n\nimport \"@openzeppelin/contracts/math/SafeMath.sol\";\nimport \"./Power.sol\"; // Efficient power function.\n\n/**\n* @title Bancor formula by Bancor\n*\n* Licensed to the Apache Software Foundation (ASF) under one or more contributor license agreements;\n* and to You under the Apache License, Version 2.0. \"\n*/\ncontract BancorBondingCurve is Power {\n   using SafeMath for uint256;\n   uint32 private constant MAX_RESERVE_RATIO = 1000000;\n\n   /**\n   * @dev given a continuous token supply, reserve token balance, reserve ratio, and a deposit amount (in the reserve token),\n   * calculates the return for a given conversion (in the continuous token)\n   *\n   * Formula:\n   * Return = _supply * ((1 + _depositAmount / _reserveBalance) ^ (_reserveRatio / MAX_RESERVE_RATIO) - 1)\n   *\n   * @param _supply              continuous token total supply\n   * @param _reserveBalance    total reserve token balance\n   * @param _reserveRatio     reserve ratio, represented in ppm, 1-1000000\n   * @param _depositAmount       deposit amount, in reserve token\n   *\n   *  @return purchase return amount\n  */\n  function calculatePurchaseReturn(\n    uint256 _supply,\n    uint256 _reserveBalance,\n    uint32 _reserveRatio,\n    uint256 _depositAmount) public view returns (uint256)\n  {\n    // validate input\n    require(_supply > 0 && _reserveBalance > 0 && _reserveRatio > 0 && _reserveRatio <= MAX_RESERVE_RATIO);\n     // special case for 0 deposit amount\n    if (_depositAmount == 0) {\n      return 0;\n    }\n     // special case if the ratio = 100%\n    if (_reserveRatio == MAX_RESERVE_RATIO) {\n      return _supply.mul(_depositAmount).div(_reserveBalance);\n    }\n     uint256 result;\n    uint8 precision;\n    uint256 baseN = _depositAmount.add(_reserveBalance);\n    (result, precision) = power(\n      baseN, _reserveBalance, _reserveRatio, MAX_RESERVE_RATIO\n    );\n    uint256 newTokenSupply = _supply.mul(result) >> precision;\n    return newTokenSupply - _supply;\n  }\n   /**\n   * @dev given a continuous token supply, reserve token balance, reserve ratio and a sell amount (in the continuous token),\n   * calculates the return for a given conversion (in the reserve token)\n   *\n   * Formula:\n   * Return = _reserveBalance * (1 - (1 - _sellAmount / _supply) ^ (1 / (_reserveRatio / MAX_RESERVE_RATIO)))\n   *\n   * @param _supply              continuous token total supply\n   * @param _reserveBalance    total reserve token balance\n   * @param _reserveRatio     constant reserve ratio, represented in ppm, 1-1000000\n   * @param _sellAmount          sell amount, in the continuous token itself\n   *\n   * @return sale return amount\n  */\n  function calculateSaleReturn(\n    uint256 _supply,\n    uint256 _reserveBalance,\n    uint32 _reserveRatio,\n    uint256 _sellAmount) public view returns (uint256)\n  {\n    // validate input\n    require(_supply > 0 && _reserveBalance > 0 && _reserveRatio > 0 && _reserveRatio <= MAX_RESERVE_RATIO && _sellAmount <= _supply);\n     // special case for 0 sell amount\n    if (_sellAmount == 0) {\n      return 0;\n    }\n     // special case for selling the entire supply\n    if (_sellAmount == _supply) {\n      return _reserveBalance;\n    }\n     // special case if the ratio = 100%\n    if (_reserveRatio == MAX_RESERVE_RATIO) {\n      return _reserveBalance.mul(_sellAmount).div(_supply);\n    }\n     uint256 result;\n    uint8 precision;\n    uint256 baseD = _supply - _sellAmount;\n    (result, precision) = power(\n      _supply, baseD, MAX_RESERVE_RATIO, _reserveRatio\n    );\n    uint256 oldBalance = _reserveBalance.mul(result);\n    uint256 newBalance = _reserveBalance << precision;\n    return oldBalance.sub(newBalance).div(result);\n  }\n}",
  "sourcePath": "/Users/sd/Documents/GitHub/virtualmarket/contracts/BancorBondingCurve.sol",
  "compiler": {
    "name": "solc",
    "version": "0.6.6+commit.6c089d02.Emscripten.clang"
  },
  "schemaVersion": "3.3.4",
  "updatedAt": "2021-03-30T19:54:08.474Z",
  "devdoc": {
    "methods": {
      "calculatePurchaseReturn(uint256,uint256,uint32,uint256)": {
        "details": "given a continuous token supply, reserve token balance, reserve ratio, and a deposit amount (in the reserve token), calculates the return for a given conversion (in the continuous token)   * Formula: Return = _supply * ((1 + _depositAmount / _reserveBalance) ^ (_reserveRatio / MAX_RESERVE_RATIO) - 1)",
        "params": {
          "_depositAmount": "deposit amount, in reserve token",
          "_reserveBalance": "total reserve token balance",
          "_reserveRatio": "reserve ratio, represented in ppm, 1-1000000",
          "_supply": "continuous token total supply"
        },
        "returns": {
          "_0": "purchase return amount"
        }
      },
      "calculateSaleReturn(uint256,uint256,uint32,uint256)": {
        "details": "given a continuous token supply, reserve token balance, reserve ratio and a sell amount (in the continuous token), calculates the return for a given conversion (in the reserve token)   * Formula: Return = _reserveBalance * (1 - (1 - _sellAmount / _supply) ^ (1 / (_reserveRatio / MAX_RESERVE_RATIO)))",
        "params": {
          "_reserveBalance": "total reserve token balance",
          "_reserveRatio": "constant reserve ratio, represented in ppm, 1-1000000",
          "_sellAmount": "sell amount, in the continuous token itself",
          "_supply": "continuous token total supply"
        },
        "returns": {
          "_0": "sale return amount"
        }
      }
    },
    "title": "Bancor formula by Bancor * Licensed to the Apache Software Foundation (ASF) under one or more contributor license agreements; and to You under the Apache License, Version 2.0. \""
  },
  "userdoc": {
    "methods": {}
  }
}