{
  "contractName": "DEX",
  "abi": [
    {
      "inputs": [
        {
          "internalType": "address",
          "name": "token_addr",
          "type": "address"
        }
      ],
      "stateMutability": "nonpayable",
      "type": "constructor"
    },
    {
      "inputs": [
        {
          "internalType": "address",
          "name": "",
          "type": "address"
        }
      ],
      "name": "liquidity",
      "outputs": [
        {
          "internalType": "uint256",
          "name": "",
          "type": "uint256"
        }
      ],
      "stateMutability": "view",
      "type": "function"
    },
    {
      "inputs": [],
      "name": "totalLiquidity",
      "outputs": [
        {
          "internalType": "uint256",
          "name": "",
          "type": "uint256"
        }
      ],
      "stateMutability": "view",
      "type": "function"
    },
    {
      "inputs": [
        {
          "internalType": "uint256",
          "name": "tokens",
          "type": "uint256"
        }
      ],
      "name": "init",
      "outputs": [
        {
          "internalType": "uint256",
          "name": "",
          "type": "uint256"
        }
      ],
      "stateMutability": "payable",
      "type": "function"
    },
    {
      "inputs": [
        {
          "internalType": "uint256",
          "name": "input_amount",
          "type": "uint256"
        },
        {
          "internalType": "uint256",
          "name": "input_reserve",
          "type": "uint256"
        },
        {
          "internalType": "uint256",
          "name": "output_reserve",
          "type": "uint256"
        }
      ],
      "name": "price",
      "outputs": [
        {
          "internalType": "uint256",
          "name": "",
          "type": "uint256"
        }
      ],
      "stateMutability": "view",
      "type": "function"
    },
    {
      "inputs": [],
      "name": "ethToToken",
      "outputs": [
        {
          "internalType": "uint256",
          "name": "",
          "type": "uint256"
        }
      ],
      "stateMutability": "payable",
      "type": "function"
    },
    {
      "inputs": [
        {
          "internalType": "uint256",
          "name": "tokens",
          "type": "uint256"
        }
      ],
      "name": "tokenToEth",
      "outputs": [
        {
          "internalType": "uint256",
          "name": "",
          "type": "uint256"
        }
      ],
      "stateMutability": "nonpayable",
      "type": "function"
    },
    {
      "inputs": [],
      "name": "deposit",
      "outputs": [
        {
          "internalType": "uint256",
          "name": "",
          "type": "uint256"
        }
      ],
      "stateMutability": "payable",
      "type": "function"
    },
    {
      "inputs": [
        {
          "internalType": "uint256",
          "name": "amount",
          "type": "uint256"
        }
      ],
      "name": "withdraw",
      "outputs": [
        {
          "internalType": "uint256",
          "name": "",
          "type": "uint256"
        },
        {
          "internalType": "uint256",
          "name": "",
          "type": "uint256"
        }
      ],
      "stateMutability": "nonpayable",
      "type": "function"
    }
  ],
  "bytecode": "0x608060405234801561001057600080fd5b506040516112b33803806112b38339818101604052602081101561003357600080fd5b8101908080519060200190929190505050806000806101000a81548173ffffffffffffffffffffffffffffffffffffffff021916908373ffffffffffffffffffffffffffffffffffffffff1602179055505061121f806100946000396000f3fe60806040526004361061007b5760003560e01c8063789770f41161004e578063789770f4146101b3578063b7b0422d146101d1578063b8c876b114610213578063d0e30db0146102785761007b565b806315770f92146100805780632071a9f4146100ab5780632e1a7d4d1461010e57806370b2a30f14610164575b600080fd5b34801561008c57600080fd5b50610095610296565b6040518082815260200191505060405180910390f35b3480156100b757600080fd5b506100f8600480360360608110156100ce57600080fd5b8101908080359060200190929190803590602001909291908035906020019092919050505061029c565b6040518082815260200191505060405180910390f35b34801561011a57600080fd5b506101476004803603602081101561013157600080fd5b810190808035906020019092919050505061030e565b604051808381526020018281526020019250505060405180910390f35b34801561017057600080fd5b5061019d6004803603602081101561018757600080fd5b8101908080359060200190929190505050610623565b6040518082815260200191505060405180910390f35b6101bb610881565b6040518082815260200191505060405180910390f35b6101fd600480360360208110156101e757600080fd5b8101908080359060200190929190505050610a74565b6040518082815260200191505060405180910390f35b34801561021f57600080fd5b506102626004803603602081101561023657600080fd5b81019080803573ffffffffffffffffffffffffffffffffffffffff169060200190929190505050610c47565b6040518082815260200191505060405180910390f35b610280610c5f565b6040518082815260200191505060405180910390f35b60015481565b6000806102b46103e586610f8390919063ffffffff16565b905060006102cb8483610f8390919063ffffffff16565b905060006102f6836102e86103e889610f8390919063ffffffff16565b61100990919063ffffffff16565b905080828161030157fe5b0493505050509392505050565b60008060008060009054906101000a900473ffffffffffffffffffffffffffffffffffffffff1673ffffffffffffffffffffffffffffffffffffffff166370a08231306040518263ffffffff1660e01b8152600401808273ffffffffffffffffffffffffffffffffffffffff1673ffffffffffffffffffffffffffffffffffffffff16815260200191505060206040518083038186803b1580156103b157600080fd5b505afa1580156103c5573d6000803e3d6000fd5b505050506040513d60208110156103db57600080fd5b8101908080519060200190929190505050905060006001546104064787610f8390919063ffffffff16565b8161040d57fe5b04905060006001546104288488610f8390919063ffffffff16565b8161042f57fe5b04905061048482600260003373ffffffffffffffffffffffffffffffffffffffff1673ffffffffffffffffffffffffffffffffffffffff1681526020019081526020016000205461109190919063ffffffff16565b600260003373ffffffffffffffffffffffffffffffffffffffff1673ffffffffffffffffffffffffffffffffffffffff168152602001908152602001600020819055506104dc8260015461109190919063ffffffff16565b6001819055503373ffffffffffffffffffffffffffffffffffffffff166108fc839081150290604051600060405180830381858888f19350505050158015610528573d6000803e3d6000fd5b506000809054906101000a900473ffffffffffffffffffffffffffffffffffffffff1673ffffffffffffffffffffffffffffffffffffffff1663a9059cbb33836040518363ffffffff1660e01b8152600401808373ffffffffffffffffffffffffffffffffffffffff1673ffffffffffffffffffffffffffffffffffffffff16815260200182815260200192505050602060405180830381600087803b1580156105d157600080fd5b505af11580156105e5573d6000803e3d6000fd5b505050506040513d60208110156105fb57600080fd5b810190808051906020019092919050505061061557600080fd5b818194509450505050915091565b6000806000809054906101000a900473ffffffffffffffffffffffffffffffffffffffff1673ffffffffffffffffffffffffffffffffffffffff166370a08231306040518263ffffffff1660e01b8152600401808273ffffffffffffffffffffffffffffffffffffffff1673ffffffffffffffffffffffffffffffffffffffff16815260200191505060206040518083038186803b1580156106c457600080fd5b505afa1580156106d8573d6000803e3d6000fd5b505050506040513d60208110156106ee57600080fd5b81019080805190602001909291905050509050600061070e84834761029c565b90503373ffffffffffffffffffffffffffffffffffffffff166108fc829081150290604051600060405180830381858888f19350505050158015610756573d6000803e3d6000fd5b506000809054906101000a900473ffffffffffffffffffffffffffffffffffffffff1673ffffffffffffffffffffffffffffffffffffffff166323b872dd3330876040518463ffffffff1660e01b8152600401808473ffffffffffffffffffffffffffffffffffffffff1673ffffffffffffffffffffffffffffffffffffffff1681526020018373ffffffffffffffffffffffffffffffffffffffff1673ffffffffffffffffffffffffffffffffffffffff1681526020018281526020019350505050602060405180830381600087803b15801561083357600080fd5b505af1158015610847573d6000803e3d6000fd5b505050506040513d602081101561085d57600080fd5b810190808051906020019092919050505061087757600080fd5b8092505050919050565b6000806000809054906101000a900473ffffffffffffffffffffffffffffffffffffffff1673ffffffffffffffffffffffffffffffffffffffff166370a08231306040518263ffffffff1660e01b8152600401808273ffffffffffffffffffffffffffffffffffffffff1673ffffffffffffffffffffffffffffffffffffffff16815260200191505060206040518083038186803b15801561092257600080fd5b505afa158015610936573d6000803e3d6000fd5b505050506040513d602081101561094c57600080fd5b81019080805190602001909291905050509050600061097e34610978344761109190919063ffffffff16565b8461029c565b90506000809054906101000a900473ffffffffffffffffffffffffffffffffffffffff1673ffffffffffffffffffffffffffffffffffffffff1663a9059cbb33836040518363ffffffff1660e01b8152600401808373ffffffffffffffffffffffffffffffffffffffff1673ffffffffffffffffffffffffffffffffffffffff16815260200182815260200192505050602060405180830381600087803b158015610a2857600080fd5b505af1158015610a3c573d6000803e3d6000fd5b505050506040513d6020811015610a5257600080fd5b8101908080519060200190929190505050610a6c57600080fd5b809250505090565b60008060015414610ad0576040517f08c379a000000000000000000000000000000000000000000000000000000000815260040180806020018281038252602d8152602001806111bd602d913960400191505060405180910390fd5b47600181905550600154600260003373ffffffffffffffffffffffffffffffffffffffff1673ffffffffffffffffffffffffffffffffffffffff168152602001908152602001600020819055506000809054906101000a900473ffffffffffffffffffffffffffffffffffffffff1673ffffffffffffffffffffffffffffffffffffffff166323b872dd3330856040518463ffffffff1660e01b8152600401808473ffffffffffffffffffffffffffffffffffffffff1673ffffffffffffffffffffffffffffffffffffffff1681526020018373ffffffffffffffffffffffffffffffffffffffff1673ffffffffffffffffffffffffffffffffffffffff1681526020018281526020019350505050602060405180830381600087803b158015610bf957600080fd5b505af1158015610c0d573d6000803e3d6000fd5b505050506040513d6020811015610c2357600080fd5b8101908080519060200190929190505050610c3d57600080fd5b6001549050919050565b60026020528060005260406000206000915090505481565b600080610c75344761109190919063ffffffff16565b905060008060009054906101000a900473ffffffffffffffffffffffffffffffffffffffff1673ffffffffffffffffffffffffffffffffffffffff166370a08231306040518263ffffffff1660e01b8152600401808273ffffffffffffffffffffffffffffffffffffffff1673ffffffffffffffffffffffffffffffffffffffff16815260200191505060206040518083038186803b158015610d1757600080fd5b505afa158015610d2b573d6000803e3d6000fd5b505050506040513d6020811015610d4157600080fd5b810190808051906020019092919050505090506000610d85600184610d6f8534610f8390919063ffffffff16565b81610d7657fe5b0461100990919063ffffffff16565b9050600083610d9f60015434610f8390919063ffffffff16565b81610da657fe5b049050610dfb81600260003373ffffffffffffffffffffffffffffffffffffffff1673ffffffffffffffffffffffffffffffffffffffff1681526020019081526020016000205461100990919063ffffffff16565b600260003373ffffffffffffffffffffffffffffffffffffffff1673ffffffffffffffffffffffffffffffffffffffff16815260200190815260200160002081905550610e538160015461100990919063ffffffff16565b6001819055506000809054906101000a900473ffffffffffffffffffffffffffffffffffffffff1673ffffffffffffffffffffffffffffffffffffffff166323b872dd3330856040518463ffffffff1660e01b8152600401808473ffffffffffffffffffffffffffffffffffffffff1673ffffffffffffffffffffffffffffffffffffffff1681526020018373ffffffffffffffffffffffffffffffffffffffff1673ffffffffffffffffffffffffffffffffffffffff1681526020018281526020019350505050602060405180830381600087803b158015610f3557600080fd5b505af1158015610f49573d6000803e3d6000fd5b505050506040513d6020811015610f5f57600080fd5b8101908080519060200190929190505050610f7957600080fd5b8094505050505090565b600080831415610f965760009050611003565b6000828402905082848281610fa757fe5b0414610ffe576040517f08c379a000000000000000000000000000000000000000000000000000000000815260040180806020018281038252602181526020018061119c6021913960400191505060405180910390fd5b809150505b92915050565b600080828401905083811015611087576040517f08c379a000000000000000000000000000000000000000000000000000000000815260040180806020018281038252601b8152602001807f536166654d6174683a206164646974696f6e206f766572666c6f77000000000081525060200191505060405180910390fd5b8091505092915050565b60006110d383836040518060400160405280601e81526020017f536166654d6174683a207375627472616374696f6e206f766572666c6f7700008152506110db565b905092915050565b6000838311158290611188576040517f08c379a00000000000000000000000000000000000000000000000000000000081526004018080602001828103825283818151815260200191508051906020019080838360005b8381101561114d578082015181840152602081019050611132565b50505050905090810190601f16801561117a5780820380516001836020036101000a031916815260200191505b509250505060405180910390fd5b506000838503905080915050939250505056fe536166654d6174683a206d756c7469706c69636174696f6e206f766572666c6f774445583a696e697428293a20416c726561647920686173206c697175696469747920696e2074686520706f6f6ca2646970667358221220040d4fcd447746f8877bfe1c9e149bcfde269322348c8ec6018f3b9dc3b36c3964736f6c63430006060033",
  "immutableReferences": {},
  "source": "pragma solidity ^0.6.6;\n\nimport \"@openzeppelin/contracts/math/SafeMath.sol\";\nimport \"@openzeppelin/contracts/token/ERC20/IERC20.sol\";\n\ncontract DEX {\n\n  using SafeMath for uint256;\n  IERC20 token;\n\n  uint256 public totalLiquidity;\n\tmapping (address => uint256) public liquidity;\n\n  constructor(address token_addr) public {\n    token = IERC20(token_addr);\n  }\n\n  function init(uint256 tokens) public payable returns (uint256) {\n  \trequire(totalLiquidity == 0, \"DEX:init(): Already has liquidity in the pool\");\n  \ttotalLiquidity = address(this).balance;\n  \tliquidity[msg.sender] = totalLiquidity;\n  \trequire(token.transferFrom(msg.sender, address(this), tokens));\n  \treturn totalLiquidity;\n  }\n\n  function price(uint256 input_amount, uint256 input_reserve, uint256 output_reserve) public view returns (uint256) {\n  \tuint256 input_amount_with_fee = input_amount.mul(997);\t// 3% transaction fee\n  \tuint256 numerator = input_amount_with_fee.mul(output_reserve);\n  \tuint256 denominator = input_reserve.mul(1000).add(input_amount_with_fee);\n  \treturn numerator / denominator;\n\t}\n\n\tfunction ethToToken() public payable returns (uint256) {\n  \tuint256 token_reserve = token.balanceOf(address(this));\n  \tuint256 tokens_bought = price(msg.value, address(this).balance.sub(msg.value), token_reserve);\n  \trequire(token.transfer(msg.sender, tokens_bought));\n  \treturn tokens_bought;\n\t}\n\n\tfunction tokenToEth(uint256 tokens) public returns (uint256) {\n  \tuint256 token_reserve = token.balanceOf(address(this));\n  \tuint256 eth_bought = price(tokens, token_reserve, address(this).balance);\n  \tmsg.sender.transfer(eth_bought);\n  \trequire(token.transferFrom(msg.sender, address(this), tokens));\n  \treturn eth_bought;\n\t}\n\n\tfunction deposit() public payable returns (uint256) {\n\t  uint256 eth_reserve = address(this).balance.sub(msg.value);\n\t  uint256 token_reserve = token.balanceOf(address(this));\n\t  uint256 token_amount = (msg.value.mul(token_reserve) / eth_reserve).add(1);\n\t  uint256 liquidity_minted = msg.value.mul(totalLiquidity) / eth_reserve;\n\t  liquidity[msg.sender] = liquidity[msg.sender].add(liquidity_minted);\n\t  totalLiquidity = totalLiquidity.add(liquidity_minted);\n\t  require(token.transferFrom(msg.sender, address(this), token_amount));\n\t  return liquidity_minted;\n\t}\n\t\n\tfunction withdraw(uint256 amount) public returns (uint256, uint256) {\n\t  uint256 token_reserve = token.balanceOf(address(this));\n\t  uint256 eth_amount = amount.mul(address(this).balance) / totalLiquidity;\n\t  uint256 token_amount = amount.mul(token_reserve) / totalLiquidity;\n\t  liquidity[msg.sender] = liquidity[msg.sender].sub(eth_amount);\n\t  totalLiquidity = totalLiquidity.sub(eth_amount);\n\t  msg.sender.transfer(eth_amount);\n\t  require(token.transfer(msg.sender, token_amount));\n\t  return (eth_amount, token_amount);\n\t}\n\n}\n",
  "sourcePath": "/Users/sd/Documents/GitHub/virtualmarket/contracts/DEX.sol",
  "compiler": {
    "name": "solc",
    "version": "0.6.6+commit.6c089d02.Emscripten.clang"
  },
  "schemaVersion": "3.3.4",
  "updatedAt": "2021-03-29T05:16:18.095Z",
  "devdoc": {
    "methods": {}
  },
  "userdoc": {
    "methods": {}
  }
}