{
  "contractName": "LumiToken",
  "abi": [
    {
      "inputs": [
        {
          "internalType": "uint256",
          "name": "_reserveRatio",
          "type": "uint256"
        }
      ],
      "stateMutability": "nonpayable",
      "type": "constructor"
    },
    {
      "anonymous": false,
      "inputs": [
        {
          "indexed": true,
          "internalType": "address",
          "name": "owner",
          "type": "address"
        },
        {
          "indexed": true,
          "internalType": "address",
          "name": "spender",
          "type": "address"
        },
        {
          "indexed": false,
          "internalType": "uint256",
          "name": "value",
          "type": "uint256"
        }
      ],
      "name": "Approval",
      "type": "event"
    },
    {
      "anonymous": false,
      "inputs": [
        {
          "indexed": false,
          "internalType": "address",
          "name": "sender",
          "type": "address"
        },
        {
          "indexed": false,
          "internalType": "uint256",
          "name": "amount",
          "type": "uint256"
        },
        {
          "indexed": false,
          "internalType": "uint256",
          "name": "refund",
          "type": "uint256"
        }
      ],
      "name": "Burned",
      "type": "event"
    },
    {
      "anonymous": false,
      "inputs": [
        {
          "indexed": false,
          "internalType": "address",
          "name": "sender",
          "type": "address"
        },
        {
          "indexed": false,
          "internalType": "uint256",
          "name": "amount",
          "type": "uint256"
        },
        {
          "indexed": false,
          "internalType": "uint256",
          "name": "deposit",
          "type": "uint256"
        }
      ],
      "name": "Minted",
      "type": "event"
    },
    {
      "anonymous": false,
      "inputs": [
        {
          "indexed": true,
          "internalType": "address",
          "name": "previousOwner",
          "type": "address"
        },
        {
          "indexed": true,
          "internalType": "address",
          "name": "newOwner",
          "type": "address"
        }
      ],
      "name": "OwnershipTransferred",
      "type": "event"
    },
    {
      "anonymous": false,
      "inputs": [
        {
          "indexed": true,
          "internalType": "address",
          "name": "from",
          "type": "address"
        },
        {
          "indexed": true,
          "internalType": "address",
          "name": "to",
          "type": "address"
        },
        {
          "indexed": false,
          "internalType": "uint256",
          "name": "value",
          "type": "uint256"
        }
      ],
      "name": "Transfer",
      "type": "event"
    },
    {
      "inputs": [
        {
          "internalType": "address",
          "name": "owner",
          "type": "address"
        },
        {
          "internalType": "address",
          "name": "spender",
          "type": "address"
        }
      ],
      "name": "allowance",
      "outputs": [
        {
          "internalType": "uint256",
          "name": "",
          "type": "uint256"
        }
      ],
      "stateMutability": "view",
      "type": "function"
    },
    {
      "inputs": [
        {
          "internalType": "address",
          "name": "spender",
          "type": "address"
        },
        {
          "internalType": "uint256",
          "name": "amount",
          "type": "uint256"
        }
      ],
      "name": "approve",
      "outputs": [
        {
          "internalType": "bool",
          "name": "",
          "type": "bool"
        }
      ],
      "stateMutability": "nonpayable",
      "type": "function"
    },
    {
      "inputs": [
        {
          "internalType": "address",
          "name": "account",
          "type": "address"
        }
      ],
      "name": "balanceOf",
      "outputs": [
        {
          "internalType": "uint256",
          "name": "",
          "type": "uint256"
        }
      ],
      "stateMutability": "view",
      "type": "function"
    },
    {
      "inputs": [
        {
          "internalType": "uint256",
          "name": "_supply",
          "type": "uint256"
        },
        {
          "internalType": "uint256",
          "name": "_reserveBalance",
          "type": "uint256"
        },
        {
          "internalType": "uint32",
          "name": "_reserveRatio",
          "type": "uint32"
        },
        {
          "internalType": "uint256",
          "name": "_depositAmount",
          "type": "uint256"
        }
      ],
      "name": "calculatePurchaseReturn",
      "outputs": [
        {
          "internalType": "uint256",
          "name": "",
          "type": "uint256"
        }
      ],
      "stateMutability": "view",
      "type": "function"
    },
    {
      "inputs": [
        {
          "internalType": "uint256",
          "name": "_supply",
          "type": "uint256"
        },
        {
          "internalType": "uint256",
          "name": "_reserveBalance",
          "type": "uint256"
        },
        {
          "internalType": "uint32",
          "name": "_reserveRatio",
          "type": "uint32"
        },
        {
          "internalType": "uint256",
          "name": "_sellAmount",
          "type": "uint256"
        }
      ],
      "name": "calculateSaleReturn",
      "outputs": [
        {
          "internalType": "uint256",
          "name": "",
          "type": "uint256"
        }
      ],
      "stateMutability": "view",
      "type": "function"
    },
    {
      "inputs": [],
      "name": "decimals",
      "outputs": [
        {
          "internalType": "uint8",
          "name": "",
          "type": "uint8"
        }
      ],
      "stateMutability": "view",
      "type": "function"
    },
    {
      "inputs": [
        {
          "internalType": "address",
          "name": "spender",
          "type": "address"
        },
        {
          "internalType": "uint256",
          "name": "subtractedValue",
          "type": "uint256"
        }
      ],
      "name": "decreaseAllowance",
      "outputs": [
        {
          "internalType": "bool",
          "name": "",
          "type": "bool"
        }
      ],
      "stateMutability": "nonpayable",
      "type": "function"
    },
    {
      "inputs": [
        {
          "internalType": "address",
          "name": "spender",
          "type": "address"
        },
        {
          "internalType": "uint256",
          "name": "addedValue",
          "type": "uint256"
        }
      ],
      "name": "increaseAllowance",
      "outputs": [
        {
          "internalType": "bool",
          "name": "",
          "type": "bool"
        }
      ],
      "stateMutability": "nonpayable",
      "type": "function"
    },
    {
      "inputs": [],
      "name": "name",
      "outputs": [
        {
          "internalType": "string",
          "name": "",
          "type": "string"
        }
      ],
      "stateMutability": "view",
      "type": "function"
    },
    {
      "inputs": [],
      "name": "owner",
      "outputs": [
        {
          "internalType": "address",
          "name": "",
          "type": "address"
        }
      ],
      "stateMutability": "view",
      "type": "function"
    },
    {
      "inputs": [],
      "name": "renounceOwnership",
      "outputs": [],
      "stateMutability": "nonpayable",
      "type": "function"
    },
    {
      "inputs": [],
      "name": "reserveBalance",
      "outputs": [
        {
          "internalType": "uint256",
          "name": "",
          "type": "uint256"
        }
      ],
      "stateMutability": "view",
      "type": "function"
    },
    {
      "inputs": [],
      "name": "reserveRatio",
      "outputs": [
        {
          "internalType": "uint256",
          "name": "",
          "type": "uint256"
        }
      ],
      "stateMutability": "view",
      "type": "function"
    },
    {
      "inputs": [],
      "name": "scale",
      "outputs": [
        {
          "internalType": "uint256",
          "name": "",
          "type": "uint256"
        }
      ],
      "stateMutability": "view",
      "type": "function"
    },
    {
      "inputs": [],
      "name": "symbol",
      "outputs": [
        {
          "internalType": "string",
          "name": "",
          "type": "string"
        }
      ],
      "stateMutability": "view",
      "type": "function"
    },
    {
      "inputs": [],
      "name": "totalSupply",
      "outputs": [
        {
          "internalType": "uint256",
          "name": "",
          "type": "uint256"
        }
      ],
      "stateMutability": "view",
      "type": "function"
    },
    {
      "inputs": [
        {
          "internalType": "address",
          "name": "recipient",
          "type": "address"
        },
        {
          "internalType": "uint256",
          "name": "amount",
          "type": "uint256"
        }
      ],
      "name": "transfer",
      "outputs": [
        {
          "internalType": "bool",
          "name": "",
          "type": "bool"
        }
      ],
      "stateMutability": "nonpayable",
      "type": "function"
    },
    {
      "inputs": [
        {
          "internalType": "address",
          "name": "sender",
          "type": "address"
        },
        {
          "internalType": "address",
          "name": "recipient",
          "type": "address"
        },
        {
          "internalType": "uint256",
          "name": "amount",
          "type": "uint256"
        }
      ],
      "name": "transferFrom",
      "outputs": [
        {
          "internalType": "bool",
          "name": "",
          "type": "bool"
        }
      ],
      "stateMutability": "nonpayable",
      "type": "function"
    },
    {
      "inputs": [
        {
          "internalType": "address",
          "name": "newOwner",
          "type": "address"
        }
      ],
      "name": "transferOwnership",
      "outputs": [],
      "stateMutability": "nonpayable",
      "type": "function"
    },
    {
      "inputs": [],
      "name": "version",
      "outputs": [
        {
          "internalType": "string",
          "name": "",
          "type": "string"
        }
      ],
      "stateMutability": "view",
      "type": "function"
    },
    {
      "inputs": [],
      "name": "mint",
      "outputs": [],
      "stateMutability": "payable",
      "type": "function"
    },
    {
      "inputs": [
        {
          "internalType": "uint256",
          "name": "_amount",
          "type": "uint256"
        }
      ],
      "name": "burn",
      "outputs": [],
      "stateMutability": "nonpayable",
      "type": "function"
    },
    {
      "inputs": [
        {
          "internalType": "uint256",
          "name": "_amount",
          "type": "uint256"
        }
      ],
      "name": "calculateContinuousMintReturn",
      "outputs": [
        {
          "internalType": "uint256",
          "name": "mintAmount",
          "type": "uint256"
        }
      ],
      "stateMutability": "view",
      "type": "function"
    },
    {
      "inputs": [
        {
          "internalType": "uint256",
          "name": "_amount",
          "type": "uint256"
        }
      ],
      "name": "calculateContinuousBurnReturn",
      "outputs": [
        {
          "internalType": "uint256",
          "name": "burnAmount",
          "type": "uint256"
        }
      ],
      "stateMutability": "view",
      "type": "function"
    }
  ],
  "bytecode": "0x60806040526040518060400160405280600381526020017f302e3300000000000000000000000000000000000000000000000000000000008152506006908051906020019062000051929190620012bb565b50670de0b6b3a7640000608755608754600a026088553480156200007457600080fd5b5060405162004c8838038062004c88833981810160405260208110156200009a57600080fd5b81019080805190602001909291905050506040518060400160405280600981526020017f4c756d69546f6b656e000000000000000000000000000000000000000000000081525060405180602001604052806000815250816003908051906020019062000109929190620012bb565b50806004908051906020019062000122929190620012bb565b506012600560006101000a81548160ff021916908360ff16021790555050506000620001536200104760201b60201c565b905080600560016101000a81548173ffffffffffffffffffffffffffffffffffffffff021916908373ffffffffffffffffffffffffffffffffffffffff1602179055508073ffffffffffffffffffffffffffffffffffffffff16600073ffffffffffffffffffffffffffffffffffffffff167f8be0079c531659141344cd1fd0a4f28419497f9722a3daafe3b4186f6b6457e060405160405180910390a350701c35fedd14ffffffffffffffffffffffff60076020608081106200021357fe5b0181905550701b0ce43b323fffffffffffffffffffffff60076021608081106200023957fe5b01819055507019f0028ec1ffffffffffffffffffffffff60076022608081106200025f57fe5b01819055507018ded91f0e7fffffffffffffffffffffff60076023608081106200028557fe5b01819055507017d8ec7f0417ffffffffffffffffffffff6007602460808110620002ab57fe5b01819055507016ddc6556cdbffffffffffffffffffffff6007602560808110620002d157fe5b01819055507015ecf52776a1ffffffffffffffffffffff6007602660808110620002f757fe5b01819055507015060c256cb2ffffffffffffffffffffff60076027608081106200031d57fe5b0181905550701428a2f98d72ffffffffffffffffffffff60076028608081106200034357fe5b01819055507013545598e5c23fffffffffffffffffffff60076029608081106200036957fe5b0181905550701288c4161ce1dfffffffffffffffffffff6007602a608081106200038f57fe5b01819055507011c592761c666fffffffffffffffffffff6007602b60808110620003b557fe5b018190555070110a688680a757ffffffffffffffffffff6007602c60808110620003db57fe5b0181905550701056f1b5bedf77ffffffffffffffffffff6007602d608081106200040157fe5b0181905550700faadceceeff8bffffffffffffffffffff6007602e608081106200042757fe5b0181905550700f05dc6b27edadffffffffffffffffffff6007602f608081106200044d57fe5b0181905550700e67a5a25da4107fffffffffffffffffff60076030608081106200047357fe5b0181905550700dcff115b14eedffffffffffffffffffff60076031608081106200049957fe5b0181905550700d3e7a392431239fffffffffffffffffff6007603260808110620004bf57fe5b0181905550700cb2ff529eb71e4fffffffffffffffffff6007603360808110620004e557fe5b0181905550700c2d415c3db974afffffffffffffffffff60076034608081106200050b57fe5b0181905550700bad03e7d883f69bffffffffffffffffff60076035608081106200053157fe5b0181905550700b320d03b2c343d5ffffffffffffffffff60076036608081106200055757fe5b0181905550700abc25204e02828dffffffffffffffffff60076037608081106200057d57fe5b0181905550700a4b16f74ee4bb207fffffffffffffffff6007603860808110620005a357fe5b01819055507009deaf736ac1f569ffffffffffffffffff6007603960808110620005c957fe5b0181905550700976bd9952c7aa957fffffffffffffffff6007603a60808110620005ef57fe5b01819055507009131271922eaa606fffffffffffffffff6007603b608081106200061557fe5b01819055507008b380f3558668c46fffffffffffffffff6007603c608081106200063b57fe5b0181905550700857ddf0117efa215bffffffffffffffff6007603d608081106200066157fe5b01819055507007ffffffffffffffffffffffffffffffff6007603e608081106200068757fe5b01819055507007abbf6f6abb9d087fffffffffffffffff6007603f60808110620006ad57fe5b018190555070075af62cbac95f7dfa7fffffffffffffff6007604060808110620006d357fe5b018190555070070d7fb7452e187ac13fffffffffffffff6007604160808110620006f957fe5b01819055507006c3390ecc8af379295fffffffffffffff60076042608081106200071f57fe5b018190555070067c00a3b07ffc01fd6fffffffffffffff60076043608081106200074557fe5b0181905550700637b647c39cbb9d3d27ffffffffffffff60076044608081106200076b57fe5b01819055507005f63b1fc104dbd39587ffffffffffffff60076045608081106200079157fe5b01819055507005b771955b36e12f7235ffffffffffffff6007604660808110620007b757fe5b018190555070057b3d49dda84556d6f6ffffffffffffff6007604760808110620007dd57fe5b018190555070054183095b2c8ececf30ffffffffffffff60076048608081106200080357fe5b018190555070050a28be635ca2b888f77fffffffffffff60076049608081106200082957fe5b01819055507004d5156639708c9db33c3fffffffffffff6007604a608081106200084f57fe5b01819055507004a23105873875bd52dfdfffffffffffff6007604b608081106200087557fe5b0181905550700471649d87199aa990756fffffffffffff6007604c608081106200089b57fe5b01819055507004429a21a029d4c1457cfbffffffffffff6007604d60808110620008c157fe5b0181905550700415bc6d6fb7dd71af2cb3ffffffffffff6007604e60808110620008e757fe5b01819055507003eab73b3bbfe282243ce1ffffffffffff6007604f608081106200090d57fe5b01819055507003c1771ac9fb6b4c18e229ffffffffffff60076050608081106200093357fe5b0181905550700399e96897690418f785257fffffffffff60076051608081106200095957fe5b0181905550700373fc456c53bb779bf0ea9fffffffffff60076052608081106200097f57fe5b018190555070034f9e8e490c48e67e6ab8bfffffffffff6007605360808110620009a557fe5b018190555070032cbfd4a7adc790560b3337ffffffffff6007605460808110620009cb57fe5b018190555070030b50570f6e5d2acca94613ffffffffff6007605560808110620009f157fe5b01819055507002eb40f9f620fda6b56c2861ffffffffff600760566080811062000a1757fe5b01819055507002cc8340ecb0d0f520a6af58ffffffffff600760576080811062000a3d57fe5b01819055507002af09481380a0a35cf1ba02ffffffffff600760586080811062000a6357fe5b0181905550700292c5bdd3b92ec810287b1b3fffffffff600760596080811062000a8957fe5b0181905550700277abdcdab07d5a77ac6d6b9fffffffff6007605a6080811062000aaf57fe5b018190555070025daf6654b1eaa55fd64df5efffffffff6007605b6080811062000ad557fe5b0181905550700244c49c648baa98192dce88b7ffffffff6007605c6080811062000afb57fe5b018190555070022ce03cd5619a311b2471268bffffffff6007605d6080811062000b2157fe5b0181905550700215f77c045fbe885654a44a0fffffffff6007605e6080811062000b4757fe5b01819055507001ffffffffffffffffffffffffffffffff6007605f6080811062000b6d57fe5b01819055507001eaefdbdaaee7421fc4d3ede5ffffffff600760606080811062000b9357fe5b01819055507001d6bd8b2eb257df7e8ca57b09bfffffff600760616080811062000bb957fe5b01819055507001c35fedd14b861eb0443f7f133fffffff600760626080811062000bdf57fe5b01819055507001b0ce43b322bcde4a56e8ada5afffffff600760636080811062000c0557fe5b018190555070019f0028ec1fff007f5a195a39dfffffff600760646080811062000c2b57fe5b018190555070018ded91f0e72ee74f49b15ba527ffffff600760656080811062000c5157fe5b018190555070017d8ec7f04136f4e5615fd41a63ffffff600760666080811062000c7757fe5b018190555070016ddc6556cdb84bdc8d12d22e6fffffff600760676080811062000c9d57fe5b018190555070015ecf52776a1155b5bd8395814f7fffff600760686080811062000cc357fe5b018190555070015060c256cb23b3b3cc3754cf40ffffff600760696080811062000ce957fe5b01819055507001428a2f98d728ae223ddab715be3fffff6007606a6080811062000d0f57fe5b018190555070013545598e5c23276ccf0ede68034fffff6007606b6080811062000d3557fe5b01819055507001288c4161ce1d6f54b7f61081194fffff6007606c6080811062000d5b57fe5b018190555070011c592761c666aa641d5a01a40f17ffff6007606d6080811062000d8157fe5b0181905550700110a688680a7530515f3e6e6cfdcdffff6007606e6080811062000da757fe5b01819055507001056f1b5bedf75c6bcb2ce8aed428ffff6007606f6080811062000dcd57fe5b01819055506ffaadceceeff8a0890f3875f008277fff600760706080811062000df257fe5b01819055506ff05dc6b27edad306388a600f6ba0bfff600760716080811062000e1757fe5b01819055506fe67a5a25da41063de1495d5b18cdbfff600760726080811062000e3c57fe5b01819055506fdcff115b14eedde6fc3aa5353f2e4fff600760736080811062000e6157fe5b01819055506fd3e7a3924312399f9aae2e0f868f8fff600760746080811062000e8657fe5b01819055506fcb2ff529eb71e41582cccd5a1ee26fff600760756080811062000eab57fe5b01819055506fc2d415c3db974ab32a51840c0b67edff600760766080811062000ed057fe5b01819055506fbad03e7d883f69ad5b0a186184e06bff600760776080811062000ef557fe5b01819055506fb320d03b2c343d4829abd6075f0cc5ff600760786080811062000f1a57fe5b01819055506fabc25204e02828d73c6e80bcdb1a95bf600760796080811062000f3f57fe5b01819055506fa4b16f74ee4bb2040a1ec6c15fbbf2df6007607a6080811062000f6457fe5b01819055506f9deaf736ac1f569deb1b5ae3f36c130f6007607b6080811062000f8957fe5b01819055506f976bd9952c7aa957f5937d790ef650376007607c6080811062000fae57fe5b01819055506f9131271922eaa6064b73a22d0bd4f2bf6007607d6080811062000fd357fe5b01819055506f8b380f3558668c46c91c49a2f8e967b96007607e6080811062000ff857fe5b01819055506f857ddf0117efa215952912839f6473e66007607f608081106200101d57fe5b01819055508060898190555062001040336087546001026200104f60201b60201c565b506200136a565b600033905090565b600073ffffffffffffffffffffffffffffffffffffffff168273ffffffffffffffffffffffffffffffffffffffff161415620010f3576040517f08c379a000000000000000000000000000000000000000000000000000000000815260040180806020018281038252601f8152602001807f45524332303a206d696e7420746f20746865207a65726f20616464726573730081525060200191505060405180910390fd5b62001107600083836200122d60201b60201c565b62001123816002546200123260201b62001da71790919060201c565b60028190555062001181816000808573ffffffffffffffffffffffffffffffffffffffff1673ffffffffffffffffffffffffffffffffffffffff168152602001908152602001600020546200123260201b62001da71790919060201c565b6000808473ffffffffffffffffffffffffffffffffffffffff1673ffffffffffffffffffffffffffffffffffffffff168152602001908152602001600020819055508173ffffffffffffffffffffffffffffffffffffffff16600073ffffffffffffffffffffffffffffffffffffffff167fddf252ad1be2c89b69c2b068fc378daa952ba7f163c4a11628f55a4df523b3ef836040518082815260200191505060405180910390a35050565b505050565b600080828401905083811015620012b1576040517f08c379a000000000000000000000000000000000000000000000000000000000815260040180806020018281038252601b8152602001807f536166654d6174683a206164646974696f6e206f766572666c6f77000000000081525060200191505060405180910390fd5b8091505092915050565b828054600181600116156101000203166002900490600052602060002090601f016020900481019282601f10620012fe57805160ff19168380011785556200132f565b828001600101855582156200132f579182015b828111156200132e57825182559160200191906001019062001311565b5b5090506200133e919062001342565b5090565b6200136791905b808211156200136357600081600090555060010162001349565b5090565b90565b61390e806200137a6000396000f3fe60806040526004361061014b5760003560e01c806354fd4d50116100b6578063a10954fe1161006f578063a10954fe1461079c578063a457c2d7146107c7578063a9059cbb1461083a578063dd62ed3e146108ad578063f2fde38b14610932578063f51e181a146109835761014b565b806354fd4d501461055a57806370a08231146105ea578063715018a61461064f5780638da5cb5b1461066657806390f0c2ea146106bd57806395d89b411461070c5761014b565b806328c3d7011161010857806328c3d7011461034657806329a00e7c14610395578063313ce56714610408578063395093511461043957806342966c68146104ac57806349f9b0f7146104e75761014b565b806306fdde0314610150578063095ea7b3146101e05780630c7d5cd8146102535780631249c58b1461027e57806318160ddd1461028857806323b872dd146102b3575b600080fd5b34801561015c57600080fd5b506101656109ae565b6040518080602001828103825283818151815260200191508051906020019080838360005b838110156101a557808201518184015260208101905061018a565b50505050905090810190601f1680156101d25780820380516001836020036101000a031916815260200191505b509250505060405180910390f35b3480156101ec57600080fd5b506102396004803603604081101561020357600080fd5b81019080803573ffffffffffffffffffffffffffffffffffffffff16906020019092919080359060200190929190505050610a50565b604051808215151515815260200191505060405180910390f35b34801561025f57600080fd5b50610268610a6e565b6040518082815260200191505060405180910390f35b610286610a74565b005b34801561029457600080fd5b5061029d610af6565b6040518082815260200191505060405180910390f35b3480156102bf57600080fd5b5061032c600480360360608110156102d657600080fd5b81019080803573ffffffffffffffffffffffffffffffffffffffff169060200190929190803573ffffffffffffffffffffffffffffffffffffffff16906020019092919080359060200190929190505050610b00565b604051808215151515815260200191505060405180910390f35b34801561035257600080fd5b5061037f6004803603602081101561036957600080fd5b8101908080359060200190929190505050610bd9565b6040518082815260200191505060405180910390f35b3480156103a157600080fd5b506103f2600480360360808110156103b857600080fd5b810190808035906020019092919080359060200190929190803563ffffffff16906020019092919080359060200190929190505050610bf9565b6040518082815260200191505060405180910390f35b34801561041457600080fd5b5061041d610cf5565b604051808260ff1660ff16815260200191505060405180910390f35b34801561044557600080fd5b506104926004803603604081101561045c57600080fd5b81019080803573ffffffffffffffffffffffffffffffffffffffff16906020019092919080359060200190929190505050610d0c565b604051808215151515815260200191505060405180910390f35b3480156104b857600080fd5b506104e5600480360360208110156104cf57600080fd5b8101908080359060200190929190505050610dbf565b005b3480156104f357600080fd5b506105446004803603608081101561050a57600080fd5b810190808035906020019092919080359060200190929190803563ffffffff16906020019092919080359060200190929190505050610e17565b6040518082815260200191505060405180910390f35b34801561056657600080fd5b5061056f610f47565b6040518080602001828103825283818151815260200191508051906020019080838360005b838110156105af578082015181840152602081019050610594565b50505050905090810190601f1680156105dc5780820380516001836020036101000a031916815260200191505b509250505060405180910390f35b3480156105f657600080fd5b506106396004803603602081101561060d57600080fd5b81019080803573ffffffffffffffffffffffffffffffffffffffff169060200190929190505050610fe5565b6040518082815260200191505060405180910390f35b34801561065b57600080fd5b5061066461102d565b005b34801561067257600080fd5b5061067b6111b8565b604051808273ffffffffffffffffffffffffffffffffffffffff1673ffffffffffffffffffffffffffffffffffffffff16815260200191505060405180910390f35b3480156106c957600080fd5b506106f6600480360360208110156106e057600080fd5b81019080803590602001909291905050506111e2565b6040518082815260200191505060405180910390f35b34801561071857600080fd5b50610721611202565b6040518080602001828103825283818151815260200191508051906020019080838360005b83811015610761578082015181840152602081019050610746565b50505050905090810190601f16801561078e5780820380516001836020036101000a031916815260200191505b509250505060405180910390f35b3480156107a857600080fd5b506107b16112a4565b6040518082815260200191505060405180910390f35b3480156107d357600080fd5b50610820600480360360408110156107ea57600080fd5b81019080803573ffffffffffffffffffffffffffffffffffffffff169060200190929190803590602001909291905050506112aa565b604051808215151515815260200191505060405180910390f35b34801561084657600080fd5b506108936004803603604081101561085d57600080fd5b81019080803573ffffffffffffffffffffffffffffffffffffffff16906020019092919080359060200190929190505050611377565b604051808215151515815260200191505060405180910390f35b3480156108b957600080fd5b5061091c600480360360408110156108d057600080fd5b81019080803573ffffffffffffffffffffffffffffffffffffffff169060200190929190803573ffffffffffffffffffffffffffffffffffffffff169060200190929190505050611395565b6040518082815260200191505060405180910390f35b34801561093e57600080fd5b506109816004803603602081101561095557600080fd5b81019080803573ffffffffffffffffffffffffffffffffffffffff16906020019092919050505061141c565b005b34801561098f57600080fd5b5061099861162c565b6040518082815260200191505060405180910390f35b606060038054600181600116156101000203166002900480601f016020809104026020016040519081016040528092919081815260200182805460018160011615610100020316600290048015610a465780601f10610a1b57610100808354040283529160200191610a46565b820191906000526020600020905b815481529060010190602001808311610a2957829003601f168201915b5050505050905090565b6000610a64610a5d611632565b848461163a565b6001905092915050565b60895481565b60003411610aea576040517f08c379a000000000000000000000000000000000000000000000000000000000815260040180806020018281038252601e8152602001807f4d7573742073656e6420657468657220746f2062757920746f6b656e732e000081525060200191505060405180910390fd5b610af334611831565b50565b6000600254905090565b6000610b0d848484611956565b610bce84610b19611632565b610bc98560405180606001604052806028815260200161382260289139600160008b73ffffffffffffffffffffffffffffffffffffffff1673ffffffffffffffffffffffffffffffffffffffff1681526020019081526020016000206000610b7f611632565b73ffffffffffffffffffffffffffffffffffffffff1673ffffffffffffffffffffffffffffffffffffffff16815260200190815260200160002054611c179092919063ffffffff16565b61163a565b600190509392505050565b6000610bf2610be6610af6565b60885460895485610bf9565b9050919050565b60008085118015610c0a5750600084115b8015610c1c575060008363ffffffff16115b8015610c375750620f424063ffffffff168363ffffffff1611155b610c4057600080fd5b6000821415610c525760009050610ced565b620f424063ffffffff168363ffffffff161415610c9557610c8e84610c808488611cd790919063ffffffff16565b611d5d90919063ffffffff16565b9050610ced565b6000806000610cad8786611da790919063ffffffff16565b9050610cbe818888620f4240611e2f565b809350819450505060008260ff16610cdf858b611cd790919063ffffffff16565b901c90508881039450505050505b949350505050565b6000600560009054906101000a900460ff16905090565b6000610db5610d19611632565b84610db08560016000610d2a611632565b73ffffffffffffffffffffffffffffffffffffffff1673ffffffffffffffffffffffffffffffffffffffff16815260200190815260200160002060008973ffffffffffffffffffffffffffffffffffffffff1673ffffffffffffffffffffffffffffffffffffffff16815260200190815260200160002054611da790919063ffffffff16565b61163a565b6001905092915050565b6000610dca82612003565b90503373ffffffffffffffffffffffffffffffffffffffff166108fc829081150290604051600060405180830381858888f19350505050158015610e12573d6000803e3d6000fd5b505050565b60008085118015610e285750600084115b8015610e3a575060008363ffffffff16115b8015610e555750620f424063ffffffff168363ffffffff1611155b8015610e615750848211155b610e6a57600080fd5b6000821415610e7c5760009050610f3f565b84821415610e8c57839050610f3f565b620f424063ffffffff168363ffffffff161415610ecf57610ec885610eba8487611cd790919063ffffffff16565b611d5d90919063ffffffff16565b9050610f3f565b60008060008488039050610ee88882620f424089611e2f565b80935081945050506000610f058489611cd790919063ffffffff16565b905060008360ff1689901b9050610f3785610f2983856121a690919063ffffffff16565b611d5d90919063ffffffff16565b955050505050505b949350505050565b60068054600181600116156101000203166002900480601f016020809104026020016040519081016040528092919081815260200182805460018160011615610100020316600290048015610fdd5780601f10610fb257610100808354040283529160200191610fdd565b820191906000526020600020905b815481529060010190602001808311610fc057829003601f168201915b505050505081565b60008060008373ffffffffffffffffffffffffffffffffffffffff1673ffffffffffffffffffffffffffffffffffffffff168152602001908152602001600020549050919050565b611035611632565b73ffffffffffffffffffffffffffffffffffffffff16600560019054906101000a900473ffffffffffffffffffffffffffffffffffffffff1673ffffffffffffffffffffffffffffffffffffffff16146110f7576040517f08c379a00000000000000000000000000000000000000000000000000000000081526004018080602001828103825260208152602001807f4f776e61626c653a2063616c6c6572206973206e6f7420746865206f776e657281525060200191505060405180910390fd5b600073ffffffffffffffffffffffffffffffffffffffff16600560019054906101000a900473ffffffffffffffffffffffffffffffffffffffff1673ffffffffffffffffffffffffffffffffffffffff167f8be0079c531659141344cd1fd0a4f28419497f9722a3daafe3b4186f6b6457e060405160405180910390a36000600560016101000a81548173ffffffffffffffffffffffffffffffffffffffff021916908373ffffffffffffffffffffffffffffffffffffffff160217905550565b6000600560019054906101000a900473ffffffffffffffffffffffffffffffffffffffff16905090565b60006111fb6111ef610af6565b60885460895485610e17565b9050919050565b606060048054600181600116156101000203166002900480601f01602080910402602001604051908101604052809291908181526020018280546001816001161561010002031660029004801561129a5780601f1061126f5761010080835404028352916020019161129a565b820191906000526020600020905b81548152906001019060200180831161127d57829003601f168201915b5050505050905090565b60885481565b600061136d6112b7611632565b84611368856040518060600160405280602581526020016138b460259139600160006112e1611632565b73ffffffffffffffffffffffffffffffffffffffff1673ffffffffffffffffffffffffffffffffffffffff16815260200190815260200160002060008a73ffffffffffffffffffffffffffffffffffffffff1673ffffffffffffffffffffffffffffffffffffffff16815260200190815260200160002054611c179092919063ffffffff16565b61163a565b6001905092915050565b600061138b611384611632565b8484611956565b6001905092915050565b6000600160008473ffffffffffffffffffffffffffffffffffffffff1673ffffffffffffffffffffffffffffffffffffffff16815260200190815260200160002060008373ffffffffffffffffffffffffffffffffffffffff1673ffffffffffffffffffffffffffffffffffffffff16815260200190815260200160002054905092915050565b611424611632565b73ffffffffffffffffffffffffffffffffffffffff16600560019054906101000a900473ffffffffffffffffffffffffffffffffffffffff1673ffffffffffffffffffffffffffffffffffffffff16146114e6576040517f08c379a00000000000000000000000000000000000000000000000000000000081526004018080602001828103825260208152602001807f4f776e61626c653a2063616c6c6572206973206e6f7420746865206f776e657281525060200191505060405180910390fd5b600073ffffffffffffffffffffffffffffffffffffffff168173ffffffffffffffffffffffffffffffffffffffff16141561156c576040517f08c379a00000000000000000000000000000000000000000000000000000000081526004018080602001828103825260268152602001806137936026913960400191505060405180910390fd5b8073ffffffffffffffffffffffffffffffffffffffff16600560019054906101000a900473ffffffffffffffffffffffffffffffffffffffff1673ffffffffffffffffffffffffffffffffffffffff167f8be0079c531659141344cd1fd0a4f28419497f9722a3daafe3b4186f6b6457e060405160405180910390a380600560016101000a81548173ffffffffffffffffffffffffffffffffffffffff021916908373ffffffffffffffffffffffffffffffffffffffff16021790555050565b60875481565b600033905090565b600073ffffffffffffffffffffffffffffffffffffffff168373ffffffffffffffffffffffffffffffffffffffff1614156116c0576040517f08c379a00000000000000000000000000000000000000000000000000000000081526004018080602001828103825260248152602001806138906024913960400191505060405180910390fd5b600073ffffffffffffffffffffffffffffffffffffffff168273ffffffffffffffffffffffffffffffffffffffff161415611746576040517f08c379a00000000000000000000000000000000000000000000000000000000081526004018080602001828103825260228152602001806137b96022913960400191505060405180910390fd5b80600160008573ffffffffffffffffffffffffffffffffffffffff1673ffffffffffffffffffffffffffffffffffffffff16815260200190815260200160002060008473ffffffffffffffffffffffffffffffffffffffff1673ffffffffffffffffffffffffffffffffffffffff168152602001908152602001600020819055508173ffffffffffffffffffffffffffffffffffffffff168373ffffffffffffffffffffffffffffffffffffffff167f8c5be1e5ebec7d5bd14f71427d1e84f3dd0314c0f7b2291e5b200ac8c7c3b925836040518082815260200191505060405180910390a3505050565b60008082116118a8576040517f08c379a00000000000000000000000000000000000000000000000000000000081526004018080602001828103825260198152602001807f4465706f736974206d757374206265206e6f6e2d7a65726f2e0000000000000081525060200191505060405180910390fd5b60006118b383610bd9565b90506118bf33826121f0565b6118d483608854611da790919063ffffffff16565b6088819055507f25b428dfde728ccfaddad7e29e4ac23c24ed7fd1a6e3e3f91894a9a073f5dfff338285604051808473ffffffffffffffffffffffffffffffffffffffff1673ffffffffffffffffffffffffffffffffffffffff168152602001838152602001828152602001935050505060405180910390a180915050919050565b600073ffffffffffffffffffffffffffffffffffffffff168373ffffffffffffffffffffffffffffffffffffffff1614156119dc576040517f08c379a000000000000000000000000000000000000000000000000000000000815260040180806020018281038252602581526020018061386b6025913960400191505060405180910390fd5b600073ffffffffffffffffffffffffffffffffffffffff168273ffffffffffffffffffffffffffffffffffffffff161415611a62576040517f08c379a000000000000000000000000000000000000000000000000000000000815260040180806020018281038252602381526020018061374e6023913960400191505060405180910390fd5b611a6d8383836123b7565b611ad8816040518060600160405280602681526020016137db602691396000808773ffffffffffffffffffffffffffffffffffffffff1673ffffffffffffffffffffffffffffffffffffffff16815260200190815260200160002054611c179092919063ffffffff16565b6000808573ffffffffffffffffffffffffffffffffffffffff1673ffffffffffffffffffffffffffffffffffffffff16815260200190815260200160002081905550611b6b816000808573ffffffffffffffffffffffffffffffffffffffff1673ffffffffffffffffffffffffffffffffffffffff16815260200190815260200160002054611da790919063ffffffff16565b6000808473ffffffffffffffffffffffffffffffffffffffff1673ffffffffffffffffffffffffffffffffffffffff168152602001908152602001600020819055508173ffffffffffffffffffffffffffffffffffffffff168373ffffffffffffffffffffffffffffffffffffffff167fddf252ad1be2c89b69c2b068fc378daa952ba7f163c4a11628f55a4df523b3ef836040518082815260200191505060405180910390a3505050565b6000838311158290611cc4576040517f08c379a00000000000000000000000000000000000000000000000000000000081526004018080602001828103825283818151815260200191508051906020019080838360005b83811015611c89578082015181840152602081019050611c6e565b50505050905090810190601f168015611cb65780820380516001836020036101000a031916815260200191505b509250505060405180910390fd5b5060008385039050809150509392505050565b600080831415611cea5760009050611d57565b6000828402905082848281611cfb57fe5b0414611d52576040517f08c379a00000000000000000000000000000000000000000000000000000000081526004018080602001828103825260218152602001806138016021913960400191505060405180910390fd5b809150505b92915050565b6000611d9f83836040518060400160405280601a81526020017f536166654d6174683a206469766973696f6e206279207a65726f0000000000008152506123bc565b905092915050565b600080828401905083811015611e25576040517f08c379a000000000000000000000000000000000000000000000000000000000815260040180806020018281038252601b8152602001807f536166654d6174683a206164646974696f6e206f766572666c6f77000000000081525060200191505060405180910390fd5b8091505092915050565b6000807002000000000000000000000000000000008610611eb8576040517f08c379a00000000000000000000000000000000000000000000000000000000081526004018080602001828103825260188152602001807f626173654e2065786365656473206d61782076616c75652e000000000000000081525060200191505060405180910390fd5b84861015611f2e576040517f08c379a000000000000000000000000000000000000000000000000000000000815260040180806020018281038252601c8152602001807f4261736573203c203120617265206e6f7420737570706f727465642e0000000081525060200191505060405180910390fd5b600080866f80000000000000000000000000000000890281611f4c57fe5b04905070015bf0a8b1457695355fb8ac404e7a79e3811015611f7857611f7181612482565b9150611f84565b611f8181612a12565b91505b60008563ffffffff168763ffffffff16840281611f9d57fe5b049050700800000000000000000000000000000000811015611fd057611fc281612b3a565b607f94509450505050611ffa565b6000611fdb826130b4565b9050611ff081607f0360ff1683901c82613169565b8195509550505050505b94509492505050565b600080821161207a576040517f08c379a00000000000000000000000000000000000000000000000000000000081526004018080602001828103825260188152602001807f416d6f756e74206d757374206265206e6f6e2d7a65726f2e000000000000000081525060200191505060405180910390fd5b8161208433610fe5565b10156120f8576040517f08c379a000000000000000000000000000000000000000000000000000000000815260040180806020018281038252601c8152602001807f496e73756666696369656e7420746f6b656e7320746f206275726e2e0000000081525060200191505060405180910390fd5b6000612103836111e2565b905061211a816088546121a690919063ffffffff16565b60888190555061212a3384613507565b7f23ff0e75edf108e3d0392d92e13e8c8a868ef19001bd49f9e94876dc46dff87f338483604051808473ffffffffffffffffffffffffffffffffffffffff1673ffffffffffffffffffffffffffffffffffffffff168152602001838152602001828152602001935050505060405180910390a180915050919050565b60006121e883836040518060400160405280601e81526020017f536166654d6174683a207375627472616374696f6e206f766572666c6f770000815250611c17565b905092915050565b600073ffffffffffffffffffffffffffffffffffffffff168273ffffffffffffffffffffffffffffffffffffffff161415612293576040517f08c379a000000000000000000000000000000000000000000000000000000000815260040180806020018281038252601f8152602001807f45524332303a206d696e7420746f20746865207a65726f20616464726573730081525060200191505060405180910390fd5b61229f600083836123b7565b6122b481600254611da790919063ffffffff16565b60028190555061230b816000808573ffffffffffffffffffffffffffffffffffffffff1673ffffffffffffffffffffffffffffffffffffffff16815260200190815260200160002054611da790919063ffffffff16565b6000808473ffffffffffffffffffffffffffffffffffffffff1673ffffffffffffffffffffffffffffffffffffffff168152602001908152602001600020819055508173ffffffffffffffffffffffffffffffffffffffff16600073ffffffffffffffffffffffffffffffffffffffff167fddf252ad1be2c89b69c2b068fc378daa952ba7f163c4a11628f55a4df523b3ef836040518082815260200191505060405180910390a35050565b505050565b60008083118290612468576040517f08c379a00000000000000000000000000000000000000000000000000000000081526004018080602001828103825283818151815260200191508051906020019080838360005b8381101561242d578082015181840152602081019050612412565b50505050905090810190601f16801561245a5780820380516001836020036101000a031916815260200191505b509250505060405180910390fd5b50600083858161247457fe5b049050809150509392505050565b6000806000905060008060006fd3094c70f034de4b96ff7d5b6f99fcd886106124e9576f40000000000000000000000000000000840193506fd3094c70f034de4b96ff7d5b6f99fcd86f800000000000000000000000000000008702816124e557fe5b0495505b6fa45af1e1f40c333b3de1db4dd55f29a78610612544576f20000000000000000000000000000000840193506fa45af1e1f40c333b3de1db4dd55f29a76f8000000000000000000000000000000087028161254057fe5b0495505b6f910b022db7ae67ce76b441c27035c6a1861061259f576f10000000000000000000000000000000840193506f910b022db7ae67ce76b441c27035c6a16f8000000000000000000000000000000087028161259b57fe5b0495505b6f88415abbe9a76bead8d00cf112e4d4a886106125fa576f08000000000000000000000000000000840193506f88415abbe9a76bead8d00cf112e4d4a86f800000000000000000000000000000008702816125f657fe5b0495505b6f84102b00893f64c705e841d5d4064bd38610612655576f04000000000000000000000000000000840193506f84102b00893f64c705e841d5d4064bd36f8000000000000000000000000000000087028161265157fe5b0495505b6f8204055aaef1c8bd5c3259f4822735a286106126b0576f02000000000000000000000000000000840193506f8204055aaef1c8bd5c3259f4822735a26f800000000000000000000000000000008702816126ac57fe5b0495505b6f810100ab00222d861931c15e39b44e99861061270b576f01000000000000000000000000000000840193506f810100ab00222d861931c15e39b44e996f8000000000000000000000000000000087028161270757fe5b0495505b6f808040155aabbbe9451521693554f7338610612765576e800000000000000000000000000000840193506f808040155aabbbe9451521693554f7336f8000000000000000000000000000000087028161276157fe5b0495505b6f80000000000000000000000000000000860392508291506f800000000000000000000000000000008384028161279857fe5b04905070010000000000000000000000000000000083700100000000000000000000000000000000038302816127ca57fe5b04840193506f80000000000000000000000000000000818302816127ea57fe5b049150700200000000000000000000000000000000836faaaaaaaaaaaaaaaaaaaaaaaaaaaaaaaa0383028161281b57fe5b04840193506f800000000000000000000000000000008183028161283b57fe5b049150700300000000000000000000000000000000836f999999999999999999999999999999990383028161286c57fe5b04840193506f800000000000000000000000000000008183028161288c57fe5b049150700400000000000000000000000000000000836f92492492492492492492492492492492038302816128bd57fe5b04840193506f80000000000000000000000000000000818302816128dd57fe5b049150700500000000000000000000000000000000836f8e38e38e38e38e38e38e38e38e38e38e0383028161290e57fe5b04840193506f800000000000000000000000000000008183028161292e57fe5b049150700600000000000000000000000000000000836f8ba2e8ba2e8ba2e8ba2e8ba2e8ba2e8b0383028161295f57fe5b04840193506f800000000000000000000000000000008183028161297f57fe5b049150700700000000000000000000000000000000836f89d89d89d89d89d89d89d89d89d89d89038302816129b057fe5b04840193506f80000000000000000000000000000000818302816129d057fe5b049150700800000000000000000000000000000000836f8888888888888888888888888888888803830281612a0157fe5b048401935083945050505050919050565b6000806000905060008390507001000000000000000000000000000000008110612a7f576000612a5a6f800000000000000000000000000000008381612a5457fe5b046136cb565b90508060ff1682901c91506f800000000000000000000000000000008160ff16029250505b6f80000000000000000000000000000000811115612b05576000607f90505b60008160ff161115612b03576f8000000000000000000000000000000082830281612ac557fe5b0491507001000000000000000000000000000000008210612af757600182901c91506001810360ff166001901b830192505b80600190039050612a9e565b505b6f05b9de1d10bf4103d647b0955897ba806f03f80fe03f80fe03f80fe03f80fe03f8830281612b3057fe5b0492505050919050565b600080600090506000806f100000000000000000000000000000008581612b5d57fe5b0691508190506f8000000000000000000000000000000082820281612b7e57fe5b0490506710e1b3be415a00008102830192506f8000000000000000000000000000000082820281612bab57fe5b0490506705a0913f6b1e00008102830192506f8000000000000000000000000000000082820281612bd857fe5b049050670168244fdac780008102830192506f8000000000000000000000000000000082820281612c0557fe5b049050664807432bc180008102830192506f8000000000000000000000000000000082820281612c3157fe5b049050660c0135dca040008102830192506f8000000000000000000000000000000082820281612c5d57fe5b0490506601b707b1cdc0008102830192506f8000000000000000000000000000000082820281612c8957fe5b0490506536e0f639b8008102830192506f8000000000000000000000000000000082820281612cb457fe5b049050650618fee9f8008102830192506f8000000000000000000000000000000082820281612cdf57fe5b049050649c197dcc008102830192506f8000000000000000000000000000000082820281612d0957fe5b049050640e30dce4008102830192506f8000000000000000000000000000000082820281612d3357fe5b04905064012ebd13008102830192506f8000000000000000000000000000000082820281612d5d57fe5b0490506317499f008102830192506f8000000000000000000000000000000082820281612d8657fe5b0490506301a9d4808102830192506f8000000000000000000000000000000082820281612daf57fe5b049050621c63808102830192506f8000000000000000000000000000000082820281612dd757fe5b0490506201c6388102830192506f8000000000000000000000000000000082820281612dff57fe5b049050611ab88102830192506f8000000000000000000000000000000082820281612e2657fe5b04905061017c8102830192506f8000000000000000000000000000000082820281612e4d57fe5b04905060148102830192506f8000000000000000000000000000000082820281612e7357fe5b04905060018102830192506f80000000000000000000000000000000826721c3677c82b400008581612ea157fe5b040101925060006f10000000000000000000000000000000861614612ef15770018ebef9eac820ae8682b9793ac6d1e7767001c3d6a24ed82218787d624d3e5eba95f9840281612eed57fe5b0492505b60006f20000000000000000000000000000000861614612f3c577001368b2fc6f9609fe7aceb46aa619baed470018ebef9eac820ae8682b9793ac6d1e778840281612f3857fe5b0492505b60006f40000000000000000000000000000000861614612f86576fbc5ab1b16779be3575bd8f0520a9f21f7001368b2fc6f9609fe7aceb46aa619baed5840281612f8257fe5b0492505b60006f80000000000000000000000000000000861614612fcf576f454aaa8efe072e7f6ddbab84b40a55c96fbc5ab1b16779be3575bd8f0520a9f21e840281612fcb57fe5b0492505b6000700100000000000000000000000000000000861614613019576f0960aadc109e7a3bf4578099615711ea6f454aaa8efe072e7f6ddbab84b40a55c584028161301557fe5b0492505b6000700200000000000000000000000000000000861614613062576e2bf84208204f5977f9a8cf01fdce3d6f0960aadc109e7a3bf4578099615711d784028161305e57fe5b0492505b60007004000000000000000000000000000000008616146130a9576d03c6ab775dd0b95b4cbee7e65d116e2bf84208204f5977f9a8cf01fdc3078402816130a557fe5b0492505b829350505050919050565b600080602090506000607f90505b8060ff166001830160ff161015613111576000600282840160ff16816130e457fe5b0490508460078260ff16608081106130f857fe5b0154106131075780925061310b565b8091505b506130c2565b8360078260ff166080811061312257fe5b015410613133578092505050613164565b8360078360ff166080811061314457fe5b015410613155578192505050613164565b600061315d57fe5b6000925050505b919050565b60008083905060008090508360ff16858302901c91506f03442c4e6074a82f1797f72ac00000008202810190508360ff16858302901c91506f0116b96f757c380fb287fd0e400000008202810190508360ff16858302901c91506e45ae5bdd5f0e03eca1ff43900000008202810190508360ff16858302901c91506e0defabf91302cd95b9ffda500000008202810190508360ff16858302901c91506e02529ca9832b22439efff9b80000008202810190508360ff16858302901c91506d54f1cf12bd04e516b6da880000008202810190508360ff16858302901c91506d0a9e39e257a09ca2d6db510000008202810190508360ff16858302901c91506d012e066e7b839fa050c3090000008202810190508360ff16858302901c91506c1e33d7d926c329a1ad1a8000008202810190508360ff16858302901c91506c02bee513bdb4a6b19b5f8000008202810190508360ff16858302901c91506b3a9316fa79b88eccf2a000008202810190508360ff16858302901c91506b048177ebe1fa8123752000008202810190508360ff16858302901c91506a5263fe90242dcbacf000008202810190508360ff16858302901c91506a057e22099c030d941000008202810190508360ff16858302901c91506957e22099c030d94100008202810190508360ff16858302901c915069052b6b545699763100008202810190508360ff16858302901c9150684985f67696bf7480008202810190508360ff16858302901c91506803dea12ea99e4980008202810190508360ff16858302901c91506731880f2214b6e0008202810190508360ff16858302901c915067025bcff56eb360008202810190508360ff16858302901c9150661b722e10ab10008202810190508360ff16858302901c91506601317c700770008202810190508360ff16858302901c9150650cba84aafa008202810190508360ff16858302901c91506482573a0a008202810190508360ff16858302901c91506405035ad9008202810190508360ff16858302901c9150632f881b008202810190508360ff16858302901c91506301b293408202810190508360ff16858302901c9150620efc408202810190508360ff16858302901c9150617fe08202810190508360ff16858302901c91506104208202810190508360ff16858302901c915060218202810190508360ff16858302901c915060018202810190508360ff166001901b856f0688589cc0e9505e2f2fee558000000083816134fa57fe5b0401019250505092915050565b600073ffffffffffffffffffffffffffffffffffffffff168273ffffffffffffffffffffffffffffffffffffffff16141561358d576040517f08c379a000000000000000000000000000000000000000000000000000000000815260040180806020018281038252602181526020018061384a6021913960400191505060405180910390fd5b613599826000836123b7565b61360481604051806060016040528060228152602001613771602291396000808673ffffffffffffffffffffffffffffffffffffffff1673ffffffffffffffffffffffffffffffffffffffff16815260200190815260200160002054611c179092919063ffffffff16565b6000808473ffffffffffffffffffffffffffffffffffffffff1673ffffffffffffffffffffffffffffffffffffffff1681526020019081526020016000208190555061365b816002546121a690919063ffffffff16565b600281905550600073ffffffffffffffffffffffffffffffffffffffff168273ffffffffffffffffffffffffffffffffffffffff167fddf252ad1be2c89b69c2b068fc378daa952ba7f163c4a11628f55a4df523b3ef836040518082815260200191505060405180910390a35050565b600080600090506000839050610100811015613702575b60018111156136fd57600181901c90506001820191506136e2565b613743565b6000608090505b60008160ff161115613741578060ff166001901b8210613732578060ff1682901c915080831792505b60018160ff16901c9050613709565b505b819250505091905056fe45524332303a207472616e7366657220746f20746865207a65726f206164647265737345524332303a206275726e20616d6f756e7420657863656564732062616c616e63654f776e61626c653a206e6577206f776e657220697320746865207a65726f206164647265737345524332303a20617070726f766520746f20746865207a65726f206164647265737345524332303a207472616e7366657220616d6f756e7420657863656564732062616c616e6365536166654d6174683a206d756c7469706c69636174696f6e206f766572666c6f7745524332303a207472616e7366657220616d6f756e74206578636565647320616c6c6f77616e636545524332303a206275726e2066726f6d20746865207a65726f206164647265737345524332303a207472616e736665722066726f6d20746865207a65726f206164647265737345524332303a20617070726f76652066726f6d20746865207a65726f206164647265737345524332303a2064656372656173656420616c6c6f77616e63652062656c6f77207a65726fa2646970667358221220e456848d7758add1ad0fe413849058f0101953060a3a8c45994f137797af5b0264736f6c63430006060033",
  "immutableReferences": {},
  "source": "pragma solidity ^0.6.6;\n\nimport \"@openzeppelin/contracts/token/ERC20/ERC20.sol\";\nimport \"@openzeppelin/contracts/access/Ownable.sol\";\nimport \"./BancorBondingCurve.sol\";\n\ncontract LumiToken is ERC20, Ownable, BancorBondingCurve {\n\tusing SafeMath for uint256;\n\n\tevent Minted(address sender, uint amount, uint deposit);\n  event Burned(address sender, uint amount, uint refund);\n\n\tuint256 public scale = 10**18;\n  uint256 public reserveBalance = 10*scale;\n  uint256 public reserveRatio;\n\n  constructor(uint256 _reserveRatio) ERC20(\"LumiToken\", \"\") public {\n    reserveRatio = _reserveRatio;\t\t// initialize the reserve ratio for this token.\n    _mint(msg.sender, 1*scale);\n  }\n\n  function mint() public payable {\n    require(msg.value > 0, \"Must send ether to buy tokens.\");\n    _continuousMint(msg.value);\n  }\n\n \tfunction burn(uint256 _amount) public {\n    uint256 returnAmount = _continuousBurn(_amount);\n    msg.sender.transfer(returnAmount);\n  }\n\n  // function () public payable { mint(); }\n\n  function calculateContinuousMintReturn(uint256 _amount)\n    public view returns (uint256 mintAmount)\n  {\n    return calculatePurchaseReturn(totalSupply(), reserveBalance, uint32(reserveRatio), _amount);\n  }\n\n  function calculateContinuousBurnReturn(uint256 _amount)\n    public view returns (uint256 burnAmount)\n  {\n    return calculateSaleReturn(totalSupply(), reserveBalance, uint32(reserveRatio), _amount);\n  }\n\n  function _continuousMint(uint256 _deposit)\n    internal returns (uint256)\n  {\n    require(_deposit > 0, \"Deposit must be non-zero.\");\n\n    uint256 amount = calculateContinuousMintReturn(_deposit);\n    _mint(msg.sender, amount);\n    reserveBalance = reserveBalance.add(_deposit);\n    emit Minted(msg.sender, amount, _deposit);\n    return amount;\n  }\n\n  function _continuousBurn(uint256 _amount)\n    internal returns (uint256)\n  {\n    require(_amount > 0, \"Amount must be non-zero.\");\n    require(balanceOf(msg.sender) >= _amount, \"Insufficient tokens to burn.\");\n\n    uint256 reimburseAmount = calculateContinuousBurnReturn(_amount);\n    reserveBalance = reserveBalance.sub(reimburseAmount);\n    _burn(msg.sender, _amount);\n    emit Burned(msg.sender, _amount, reimburseAmount);\n    return reimburseAmount;\n  }\n}\n",
  "sourcePath": "/Users/sd/Documents/GitHub/virtualmarket/contracts/LumiToken.sol",
  "compiler": {
    "name": "solc",
    "version": "0.6.6+commit.6c089d02.Emscripten.clang"
  },
  "schemaVersion": "3.3.4",
  "updatedAt": "2021-03-31T00:35:56.927Z",
  "devdoc": {
    "methods": {
      "allowance(address,address)": {
        "details": "See {IERC20-allowance}."
      },
      "approve(address,uint256)": {
        "details": "See {IERC20-approve}.     * Requirements:     * - `spender` cannot be the zero address."
      },
      "balanceOf(address)": {
        "details": "See {IERC20-balanceOf}."
      },
      "calculatePurchaseReturn(uint256,uint256,uint32,uint256)": {
        "details": "given a continuous token supply, reserve token balance, reserve ratio, and a deposit amount (in the reserve token), calculates the return for a given conversion (in the continuous token)   * Formula: Return = _supply * ((1 + _depositAmount / _reserveBalance) ^ (_reserveRatio / MAX_RESERVE_RATIO) - 1)",
        "params": {
          "_depositAmount": "deposit amount, in reserve token",
          "_reserveBalance": "total reserve token balance",
          "_reserveRatio": "reserve ratio, represented in ppm, 1-1000000",
          "_supply": "continuous token total supply"
        },
        "returns": {
          "_0": "purchase return amount"
        }
      },
      "calculateSaleReturn(uint256,uint256,uint32,uint256)": {
        "details": "given a continuous token supply, reserve token balance, reserve ratio and a sell amount (in the continuous token), calculates the return for a given conversion (in the reserve token)   * Formula: Return = _reserveBalance * (1 - (1 - _sellAmount / _supply) ^ (1 / (_reserveRatio / MAX_RESERVE_RATIO)))",
        "params": {
          "_reserveBalance": "total reserve token balance",
          "_reserveRatio": "constant reserve ratio, represented in ppm, 1-1000000",
          "_sellAmount": "sell amount, in the continuous token itself",
          "_supply": "continuous token total supply"
        },
        "returns": {
          "_0": "sale return amount"
        }
      },
      "decimals()": {
        "details": "Returns the number of decimals used to get its user representation. For example, if `decimals` equals `2`, a balance of `505` tokens should be displayed to a user as `5,05` (`505 / 10 ** 2`).     * Tokens usually opt for a value of 18, imitating the relationship between Ether and Wei. This is the value {ERC20} uses, unless {_setupDecimals} is called.     * NOTE: This information is only used for _display_ purposes: it in no way affects any of the arithmetic of the contract, including {IERC20-balanceOf} and {IERC20-transfer}."
      },
      "decreaseAllowance(address,uint256)": {
        "details": "Atomically decreases the allowance granted to `spender` by the caller.     * This is an alternative to {approve} that can be used as a mitigation for problems described in {IERC20-approve}.     * Emits an {Approval} event indicating the updated allowance.     * Requirements:     * - `spender` cannot be the zero address. - `spender` must have allowance for the caller of at least `subtractedValue`."
      },
      "increaseAllowance(address,uint256)": {
        "details": "Atomically increases the allowance granted to `spender` by the caller.     * This is an alternative to {approve} that can be used as a mitigation for problems described in {IERC20-approve}.     * Emits an {Approval} event indicating the updated allowance.     * Requirements:     * - `spender` cannot be the zero address."
      },
      "name()": {
        "details": "Returns the name of the token."
      },
      "owner()": {
        "details": "Returns the address of the current owner."
      },
      "renounceOwnership()": {
        "details": "Leaves the contract without owner. It will not be possible to call `onlyOwner` functions anymore. Can only be called by the current owner.     * NOTE: Renouncing ownership will leave the contract without an owner, thereby removing any functionality that is only available to the owner."
      },
      "symbol()": {
        "details": "Returns the symbol of the token, usually a shorter version of the name."
      },
      "totalSupply()": {
        "details": "See {IERC20-totalSupply}."
      },
      "transfer(address,uint256)": {
        "details": "See {IERC20-transfer}.     * Requirements:     * - `recipient` cannot be the zero address. - the caller must have a balance of at least `amount`."
      },
      "transferFrom(address,address,uint256)": {
        "details": "See {IERC20-transferFrom}.     * Emits an {Approval} event indicating the updated allowance. This is not required by the EIP. See the note at the beginning of {ERC20};     * Requirements: - `sender` and `recipient` cannot be the zero address. - `sender` must have a balance of at least `amount`. - the caller must have allowance for ``sender``'s tokens of at least `amount`."
      },
      "transferOwnership(address)": {
        "details": "Transfers ownership of the contract to a new account (`newOwner`). Can only be called by the current owner."
      }
    }
  },
  "userdoc": {
    "methods": {}
  }
}