{
  "contractName": "LumiToken",
  "abi": [
    {
      "inputs": [
        {
          "internalType": "uint256",
          "name": "_reserveRatio",
          "type": "uint256"
        },
        {
          "internalType": "uint32",
          "name": "_maxTokenCount",
          "type": "uint32"
        }
      ],
      "stateMutability": "nonpayable",
      "type": "constructor"
    },
    {
      "anonymous": false,
      "inputs": [
        {
          "indexed": true,
          "internalType": "address",
          "name": "owner",
          "type": "address"
        },
        {
          "indexed": true,
          "internalType": "address",
          "name": "spender",
          "type": "address"
        },
        {
          "indexed": false,
          "internalType": "uint256",
          "name": "value",
          "type": "uint256"
        }
      ],
      "name": "Approval",
      "type": "event"
    },
    {
      "anonymous": false,
      "inputs": [
        {
          "indexed": false,
          "internalType": "address",
          "name": "sender",
          "type": "address"
        },
        {
          "indexed": false,
          "internalType": "uint256",
          "name": "amount",
          "type": "uint256"
        }
      ],
      "name": "Burned",
      "type": "event"
    },
    {
      "anonymous": false,
      "inputs": [
        {
          "indexed": false,
          "internalType": "address",
          "name": "sender",
          "type": "address"
        },
        {
          "indexed": false,
          "internalType": "uint256",
          "name": "amount",
          "type": "uint256"
        },
        {
          "indexed": false,
          "internalType": "uint256",
          "name": "deposit",
          "type": "uint256"
        }
      ],
      "name": "Minted",
      "type": "event"
    },
    {
      "anonymous": false,
      "inputs": [
        {
          "indexed": true,
          "internalType": "address",
          "name": "previousOwner",
          "type": "address"
        },
        {
          "indexed": true,
          "internalType": "address",
          "name": "newOwner",
          "type": "address"
        }
      ],
      "name": "OwnershipTransferred",
      "type": "event"
    },
    {
      "anonymous": false,
      "inputs": [
        {
          "indexed": false,
          "internalType": "address",
          "name": "sender",
          "type": "address"
        },
        {
          "indexed": false,
          "internalType": "uint256",
          "name": "amount",
          "type": "uint256"
        },
        {
          "indexed": false,
          "internalType": "uint256",
          "name": "refund",
          "type": "uint256"
        }
      ],
      "name": "Traded",
      "type": "event"
    },
    {
      "anonymous": false,
      "inputs": [
        {
          "indexed": true,
          "internalType": "address",
          "name": "from",
          "type": "address"
        },
        {
          "indexed": true,
          "internalType": "address",
          "name": "to",
          "type": "address"
        },
        {
          "indexed": false,
          "internalType": "uint256",
          "name": "value",
          "type": "uint256"
        }
      ],
      "name": "Transfer",
      "type": "event"
    },
    {
      "inputs": [
        {
          "internalType": "address",
          "name": "owner",
          "type": "address"
        },
        {
          "internalType": "address",
          "name": "spender",
          "type": "address"
        }
      ],
      "name": "allowance",
      "outputs": [
        {
          "internalType": "uint256",
          "name": "",
          "type": "uint256"
        }
      ],
      "stateMutability": "view",
      "type": "function"
    },
    {
      "inputs": [
        {
          "internalType": "address",
          "name": "spender",
          "type": "address"
        },
        {
          "internalType": "uint256",
          "name": "amount",
          "type": "uint256"
        }
      ],
      "name": "approve",
      "outputs": [
        {
          "internalType": "bool",
          "name": "",
          "type": "bool"
        }
      ],
      "stateMutability": "nonpayable",
      "type": "function"
    },
    {
      "inputs": [
        {
          "internalType": "address",
          "name": "account",
          "type": "address"
        }
      ],
      "name": "balanceOf",
      "outputs": [
        {
          "internalType": "uint256",
          "name": "",
          "type": "uint256"
        }
      ],
      "stateMutability": "view",
      "type": "function"
    },
    {
      "inputs": [],
      "name": "burnedCount",
      "outputs": [
        {
          "internalType": "uint32",
          "name": "",
          "type": "uint32"
        }
      ],
      "stateMutability": "view",
      "type": "function"
    },
    {
      "inputs": [
        {
          "internalType": "uint256",
          "name": "_supply",
          "type": "uint256"
        },
        {
          "internalType": "uint256",
          "name": "_reserveBalance",
          "type": "uint256"
        },
        {
          "internalType": "uint32",
          "name": "_reserveRatio",
          "type": "uint32"
        },
        {
          "internalType": "uint256",
          "name": "_depositAmount",
          "type": "uint256"
        }
      ],
      "name": "calculatePurchaseReturn",
      "outputs": [
        {
          "internalType": "uint256",
          "name": "",
          "type": "uint256"
        }
      ],
      "stateMutability": "view",
      "type": "function"
    },
    {
      "inputs": [
        {
          "internalType": "uint256",
          "name": "_supply",
          "type": "uint256"
        },
        {
          "internalType": "uint256",
          "name": "_reserveBalance",
          "type": "uint256"
        },
        {
          "internalType": "uint32",
          "name": "_reserveRatio",
          "type": "uint32"
        },
        {
          "internalType": "uint256",
          "name": "_sellAmount",
          "type": "uint256"
        }
      ],
      "name": "calculateSaleReturn",
      "outputs": [
        {
          "internalType": "uint256",
          "name": "",
          "type": "uint256"
        }
      ],
      "stateMutability": "view",
      "type": "function"
    },
    {
      "inputs": [
        {
          "internalType": "uint256",
          "name": "_supply",
          "type": "uint256"
        },
        {
          "internalType": "uint256",
          "name": "_reserveBalance",
          "type": "uint256"
        },
        {
          "internalType": "uint32",
          "name": "_reserveRatio",
          "type": "uint32"
        }
      ],
      "name": "calculateUnitPrice",
      "outputs": [
        {
          "internalType": "uint256",
          "name": "",
          "type": "uint256"
        }
      ],
      "stateMutability": "view",
      "type": "function"
    },
    {
      "inputs": [],
      "name": "decimals",
      "outputs": [
        {
          "internalType": "uint8",
          "name": "",
          "type": "uint8"
        }
      ],
      "stateMutability": "view",
      "type": "function"
    },
    {
      "inputs": [
        {
          "internalType": "address",
          "name": "spender",
          "type": "address"
        },
        {
          "internalType": "uint256",
          "name": "subtractedValue",
          "type": "uint256"
        }
      ],
      "name": "decreaseAllowance",
      "outputs": [
        {
          "internalType": "bool",
          "name": "",
          "type": "bool"
        }
      ],
      "stateMutability": "nonpayable",
      "type": "function"
    },
    {
      "inputs": [
        {
          "internalType": "address",
          "name": "spender",
          "type": "address"
        },
        {
          "internalType": "uint256",
          "name": "addedValue",
          "type": "uint256"
        }
      ],
      "name": "increaseAllowance",
      "outputs": [
        {
          "internalType": "bool",
          "name": "",
          "type": "bool"
        }
      ],
      "stateMutability": "nonpayable",
      "type": "function"
    },
    {
      "inputs": [],
      "name": "maxTokenCount",
      "outputs": [
        {
          "internalType": "uint32",
          "name": "",
          "type": "uint32"
        }
      ],
      "stateMutability": "view",
      "type": "function"
    },
    {
      "inputs": [],
      "name": "name",
      "outputs": [
        {
          "internalType": "string",
          "name": "",
          "type": "string"
        }
      ],
      "stateMutability": "view",
      "type": "function"
    },
    {
      "inputs": [],
      "name": "owner",
      "outputs": [
        {
          "internalType": "address",
          "name": "",
          "type": "address"
        }
      ],
      "stateMutability": "view",
      "type": "function"
    },
    {
      "inputs": [],
      "name": "renounceOwnership",
      "outputs": [],
      "stateMutability": "nonpayable",
      "type": "function"
    },
    {
      "inputs": [],
      "name": "reserveBalance",
      "outputs": [
        {
          "internalType": "uint256",
          "name": "",
          "type": "uint256"
        }
      ],
      "stateMutability": "view",
      "type": "function"
    },
    {
      "inputs": [],
      "name": "reserveRatio",
      "outputs": [
        {
          "internalType": "uint256",
          "name": "",
          "type": "uint256"
        }
      ],
      "stateMutability": "view",
      "type": "function"
    },
    {
      "inputs": [],
      "name": "scale",
      "outputs": [
        {
          "internalType": "uint256",
          "name": "",
          "type": "uint256"
        }
      ],
      "stateMutability": "view",
      "type": "function"
    },
    {
      "inputs": [],
      "name": "symbol",
      "outputs": [
        {
          "internalType": "string",
          "name": "",
          "type": "string"
        }
      ],
      "stateMutability": "view",
      "type": "function"
    },
    {
      "inputs": [],
      "name": "totalSupply",
      "outputs": [
        {
          "internalType": "uint256",
          "name": "",
          "type": "uint256"
        }
      ],
      "stateMutability": "view",
      "type": "function"
    },
    {
      "inputs": [
        {
          "internalType": "address",
          "name": "recipient",
          "type": "address"
        },
        {
          "internalType": "uint256",
          "name": "amount",
          "type": "uint256"
        }
      ],
      "name": "transfer",
      "outputs": [
        {
          "internalType": "bool",
          "name": "",
          "type": "bool"
        }
      ],
      "stateMutability": "nonpayable",
      "type": "function"
    },
    {
      "inputs": [
        {
          "internalType": "address",
          "name": "sender",
          "type": "address"
        },
        {
          "internalType": "address",
          "name": "recipient",
          "type": "address"
        },
        {
          "internalType": "uint256",
          "name": "amount",
          "type": "uint256"
        }
      ],
      "name": "transferFrom",
      "outputs": [
        {
          "internalType": "bool",
          "name": "",
          "type": "bool"
        }
      ],
      "stateMutability": "nonpayable",
      "type": "function"
    },
    {
      "inputs": [
        {
          "internalType": "address",
          "name": "newOwner",
          "type": "address"
        }
      ],
      "name": "transferOwnership",
      "outputs": [],
      "stateMutability": "nonpayable",
      "type": "function"
    },
    {
      "inputs": [],
      "name": "version",
      "outputs": [
        {
          "internalType": "string",
          "name": "",
          "type": "string"
        }
      ],
      "stateMutability": "view",
      "type": "function"
    },
    {
      "inputs": [],
      "name": "mint",
      "outputs": [],
      "stateMutability": "payable",
      "type": "function"
    },
    {
      "inputs": [
        {
          "internalType": "uint32",
          "name": "_amount",
          "type": "uint32"
        }
      ],
      "name": "sale",
      "outputs": [],
      "stateMutability": "nonpayable",
      "type": "function"
    },
    {
      "inputs": [
        {
          "internalType": "uint32",
          "name": "_amount",
          "type": "uint32"
        }
      ],
      "name": "burn",
      "outputs": [],
      "stateMutability": "nonpayable",
      "type": "function"
    },
    {
      "inputs": [
        {
          "internalType": "uint256",
          "name": "_amount",
          "type": "uint256"
        }
      ],
      "name": "calculateBuyReturn",
      "outputs": [
        {
          "internalType": "uint256",
          "name": "mintAmount",
          "type": "uint256"
        }
      ],
      "stateMutability": "view",
      "type": "function"
    },
    {
      "inputs": [
        {
          "internalType": "uint256",
          "name": "_amount",
          "type": "uint256"
        }
      ],
      "name": "calculateSellReturn",
      "outputs": [
        {
          "internalType": "uint256",
          "name": "burnAmount",
          "type": "uint256"
        }
      ],
      "stateMutability": "view",
      "type": "function"
    },
    {
      "inputs": [],
      "name": "calculateTokenPrice",
      "outputs": [
        {
          "internalType": "uint256",
          "name": "price",
          "type": "uint256"
        }
      ],
      "stateMutability": "view",
      "type": "function"
    }
  ],
  "bytecode": "0x60806040526040518060400160405280600381526020017f302e330000000000000000000000000000000000000000000000000000000000815250600690805190602001906200005192919062001382565b50670de0b6b3a7640000608755608754600a026088556000608a60046101000a81548163ffffffff021916908363ffffffff1602179055503480156200009657600080fd5b50604051620051ae380380620051ae83398181016040526040811015620000bc57600080fd5b8101908080519060200190929190805190602001909291905050506040518060400160405280600981526020017f4c756d69546f6b656e00000000000000000000000000000000000000000000008152506040518060200160405280600081525081600390805190602001906200013592919062001382565b5080600490805190602001906200014e92919062001382565b506012600560006101000a81548160ff021916908360ff160217905550505060006200017f6200110e60201b60201c565b905080600560016101000a81548173ffffffffffffffffffffffffffffffffffffffff021916908373ffffffffffffffffffffffffffffffffffffffff1602179055508073ffffffffffffffffffffffffffffffffffffffff16600073ffffffffffffffffffffffffffffffffffffffff167f8be0079c531659141344cd1fd0a4f28419497f9722a3daafe3b4186f6b6457e060405160405180910390a350701c35fedd14ffffffffffffffffffffffff60076020608081106200023f57fe5b0181905550701b0ce43b323fffffffffffffffffffffff60076021608081106200026557fe5b01819055507019f0028ec1ffffffffffffffffffffffff60076022608081106200028b57fe5b01819055507018ded91f0e7fffffffffffffffffffffff6007602360808110620002b157fe5b01819055507017d8ec7f0417ffffffffffffffffffffff6007602460808110620002d757fe5b01819055507016ddc6556cdbffffffffffffffffffffff6007602560808110620002fd57fe5b01819055507015ecf52776a1ffffffffffffffffffffff60076026608081106200032357fe5b01819055507015060c256cb2ffffffffffffffffffffff60076027608081106200034957fe5b0181905550701428a2f98d72ffffffffffffffffffffff60076028608081106200036f57fe5b01819055507013545598e5c23fffffffffffffffffffff60076029608081106200039557fe5b0181905550701288c4161ce1dfffffffffffffffffffff6007602a60808110620003bb57fe5b01819055507011c592761c666fffffffffffffffffffff6007602b60808110620003e157fe5b018190555070110a688680a757ffffffffffffffffffff6007602c608081106200040757fe5b0181905550701056f1b5bedf77ffffffffffffffffffff6007602d608081106200042d57fe5b0181905550700faadceceeff8bffffffffffffffffffff6007602e608081106200045357fe5b0181905550700f05dc6b27edadffffffffffffffffffff6007602f608081106200047957fe5b0181905550700e67a5a25da4107fffffffffffffffffff60076030608081106200049f57fe5b0181905550700dcff115b14eedffffffffffffffffffff6007603160808110620004c557fe5b0181905550700d3e7a392431239fffffffffffffffffff6007603260808110620004eb57fe5b0181905550700cb2ff529eb71e4fffffffffffffffffff60076033608081106200051157fe5b0181905550700c2d415c3db974afffffffffffffffffff60076034608081106200053757fe5b0181905550700bad03e7d883f69bffffffffffffffffff60076035608081106200055d57fe5b0181905550700b320d03b2c343d5ffffffffffffffffff60076036608081106200058357fe5b0181905550700abc25204e02828dffffffffffffffffff6007603760808110620005a957fe5b0181905550700a4b16f74ee4bb207fffffffffffffffff6007603860808110620005cf57fe5b01819055507009deaf736ac1f569ffffffffffffffffff6007603960808110620005f557fe5b0181905550700976bd9952c7aa957fffffffffffffffff6007603a608081106200061b57fe5b01819055507009131271922eaa606fffffffffffffffff6007603b608081106200064157fe5b01819055507008b380f3558668c46fffffffffffffffff6007603c608081106200066757fe5b0181905550700857ddf0117efa215bffffffffffffffff6007603d608081106200068d57fe5b01819055507007ffffffffffffffffffffffffffffffff6007603e60808110620006b357fe5b01819055507007abbf6f6abb9d087fffffffffffffffff6007603f60808110620006d957fe5b018190555070075af62cbac95f7dfa7fffffffffffffff6007604060808110620006ff57fe5b018190555070070d7fb7452e187ac13fffffffffffffff60076041608081106200072557fe5b01819055507006c3390ecc8af379295fffffffffffffff60076042608081106200074b57fe5b018190555070067c00a3b07ffc01fd6fffffffffffffff60076043608081106200077157fe5b0181905550700637b647c39cbb9d3d27ffffffffffffff60076044608081106200079757fe5b01819055507005f63b1fc104dbd39587ffffffffffffff6007604560808110620007bd57fe5b01819055507005b771955b36e12f7235ffffffffffffff6007604660808110620007e357fe5b018190555070057b3d49dda84556d6f6ffffffffffffff60076047608081106200080957fe5b018190555070054183095b2c8ececf30ffffffffffffff60076048608081106200082f57fe5b018190555070050a28be635ca2b888f77fffffffffffff60076049608081106200085557fe5b01819055507004d5156639708c9db33c3fffffffffffff6007604a608081106200087b57fe5b01819055507004a23105873875bd52dfdfffffffffffff6007604b60808110620008a157fe5b0181905550700471649d87199aa990756fffffffffffff6007604c60808110620008c757fe5b01819055507004429a21a029d4c1457cfbffffffffffff6007604d60808110620008ed57fe5b0181905550700415bc6d6fb7dd71af2cb3ffffffffffff6007604e608081106200091357fe5b01819055507003eab73b3bbfe282243ce1ffffffffffff6007604f608081106200093957fe5b01819055507003c1771ac9fb6b4c18e229ffffffffffff60076050608081106200095f57fe5b0181905550700399e96897690418f785257fffffffffff60076051608081106200098557fe5b0181905550700373fc456c53bb779bf0ea9fffffffffff6007605260808110620009ab57fe5b018190555070034f9e8e490c48e67e6ab8bfffffffffff6007605360808110620009d157fe5b018190555070032cbfd4a7adc790560b3337ffffffffff6007605460808110620009f757fe5b018190555070030b50570f6e5d2acca94613ffffffffff600760556080811062000a1d57fe5b01819055507002eb40f9f620fda6b56c2861ffffffffff600760566080811062000a4357fe5b01819055507002cc8340ecb0d0f520a6af58ffffffffff600760576080811062000a6957fe5b01819055507002af09481380a0a35cf1ba02ffffffffff600760586080811062000a8f57fe5b0181905550700292c5bdd3b92ec810287b1b3fffffffff600760596080811062000ab557fe5b0181905550700277abdcdab07d5a77ac6d6b9fffffffff6007605a6080811062000adb57fe5b018190555070025daf6654b1eaa55fd64df5efffffffff6007605b6080811062000b0157fe5b0181905550700244c49c648baa98192dce88b7ffffffff6007605c6080811062000b2757fe5b018190555070022ce03cd5619a311b2471268bffffffff6007605d6080811062000b4d57fe5b0181905550700215f77c045fbe885654a44a0fffffffff6007605e6080811062000b7357fe5b01819055507001ffffffffffffffffffffffffffffffff6007605f6080811062000b9957fe5b01819055507001eaefdbdaaee7421fc4d3ede5ffffffff600760606080811062000bbf57fe5b01819055507001d6bd8b2eb257df7e8ca57b09bfffffff600760616080811062000be557fe5b01819055507001c35fedd14b861eb0443f7f133fffffff600760626080811062000c0b57fe5b01819055507001b0ce43b322bcde4a56e8ada5afffffff600760636080811062000c3157fe5b018190555070019f0028ec1fff007f5a195a39dfffffff600760646080811062000c5757fe5b018190555070018ded91f0e72ee74f49b15ba527ffffff600760656080811062000c7d57fe5b018190555070017d8ec7f04136f4e5615fd41a63ffffff600760666080811062000ca357fe5b018190555070016ddc6556cdb84bdc8d12d22e6fffffff600760676080811062000cc957fe5b018190555070015ecf52776a1155b5bd8395814f7fffff600760686080811062000cef57fe5b018190555070015060c256cb23b3b3cc3754cf40ffffff600760696080811062000d1557fe5b01819055507001428a2f98d728ae223ddab715be3fffff6007606a6080811062000d3b57fe5b018190555070013545598e5c23276ccf0ede68034fffff6007606b6080811062000d6157fe5b01819055507001288c4161ce1d6f54b7f61081194fffff6007606c6080811062000d8757fe5b018190555070011c592761c666aa641d5a01a40f17ffff6007606d6080811062000dad57fe5b0181905550700110a688680a7530515f3e6e6cfdcdffff6007606e6080811062000dd357fe5b01819055507001056f1b5bedf75c6bcb2ce8aed428ffff6007606f6080811062000df957fe5b01819055506ffaadceceeff8a0890f3875f008277fff600760706080811062000e1e57fe5b01819055506ff05dc6b27edad306388a600f6ba0bfff600760716080811062000e4357fe5b01819055506fe67a5a25da41063de1495d5b18cdbfff600760726080811062000e6857fe5b01819055506fdcff115b14eedde6fc3aa5353f2e4fff600760736080811062000e8d57fe5b01819055506fd3e7a3924312399f9aae2e0f868f8fff600760746080811062000eb257fe5b01819055506fcb2ff529eb71e41582cccd5a1ee26fff600760756080811062000ed757fe5b01819055506fc2d415c3db974ab32a51840c0b67edff600760766080811062000efc57fe5b01819055506fbad03e7d883f69ad5b0a186184e06bff600760776080811062000f2157fe5b01819055506fb320d03b2c343d4829abd6075f0cc5ff600760786080811062000f4657fe5b01819055506fabc25204e02828d73c6e80bcdb1a95bf600760796080811062000f6b57fe5b01819055506fa4b16f74ee4bb2040a1ec6c15fbbf2df6007607a6080811062000f9057fe5b01819055506f9deaf736ac1f569deb1b5ae3f36c130f6007607b6080811062000fb557fe5b01819055506f976bd9952c7aa957f5937d790ef650376007607c6080811062000fda57fe5b01819055506f9131271922eaa6064b73a22d0bd4f2bf6007607d6080811062000fff57fe5b01819055506f8b380f3558668c46c91c49a2f8e967b96007607e608081106200102457fe5b01819055506f857ddf0117efa215952912839f6473e66007607f608081106200104957fe5b018190555060008163ffffffff1611620010cb576040517f08c379a00000000000000000000000000000000000000000000000000000000081526004018080602001828103825260188152602001807f496e76616c6964206d617820746f6b656e20636f756e742e000000000000000081525060200191505060405180910390fd5b8160898190555080608a60006101000a81548163ffffffff021916908363ffffffff160217905550620011063360016200111660201b60201c565b505062001431565b600033905090565b600073ffffffffffffffffffffffffffffffffffffffff168273ffffffffffffffffffffffffffffffffffffffff161415620011ba576040517f08c379a000000000000000000000000000000000000000000000000000000000815260040180806020018281038252601f8152602001807f45524332303a206d696e7420746f20746865207a65726f20616464726573730081525060200191505060405180910390fd5b620011ce60008383620012f460201b60201c565b620011ea81600254620012f960201b6200215b1790919060201c565b60028190555062001248816000808573ffffffffffffffffffffffffffffffffffffffff1673ffffffffffffffffffffffffffffffffffffffff16815260200190815260200160002054620012f960201b6200215b1790919060201c565b6000808473ffffffffffffffffffffffffffffffffffffffff1673ffffffffffffffffffffffffffffffffffffffff168152602001908152602001600020819055508173ffffffffffffffffffffffffffffffffffffffff16600073ffffffffffffffffffffffffffffffffffffffff167fddf252ad1be2c89b69c2b068fc378daa952ba7f163c4a11628f55a4df523b3ef836040518082815260200191505060405180910390a35050565b505050565b60008082840190508381101562001378576040517f08c379a000000000000000000000000000000000000000000000000000000000815260040180806020018281038252601b8152602001807f536166654d6174683a206164646974696f6e206f766572666c6f77000000000081525060200191505060405180910390fd5b8091505092915050565b828054600181600116156101000203166002900490600052602060002090601f016020900481019282601f10620013c557805160ff1916838001178555620013f6565b82800160010185558215620013f6579182015b82811115620013f5578251825591602001919060010190620013d8565b5b50905062001405919062001409565b5090565b6200142e91905b808211156200142a57600081600090555060010162001410565b5090565b90565b613d6d80620014416000396000f3fe6080604052600436106101c25760003560e01c80637cefcc52116100f7578063a9059cbb11610095578063d93404b511610064578063d93404b514610a04578063dd62ed3e14610a6d578063f2fde38b14610af2578063f51e181a14610b43576101c2565b8063a9059cbb146108e0578063b1fa068214610953578063bc3c39cb1461097e578063c4e627c2146109cd576101c2565b806395d89b41116100d157806395d89b41146107715780639810590414610801578063a10954fe14610842578063a457c2d71461086d576101c2565b80637cefcc5214610694578063828f3a9c146106cb5780638da5cb5b1461071a576101c2565b8063313ce5671161016457806354fd4d501161013e57806354fd4d501461054757806370a08231146105d7578063715018a61461063c5780637a5984c414610653576101c2565b8063313ce56714610430578063395093511461046157806349f9b0f7146104d4576101c2565b80631249c58b116101a05780631249c58b146102f557806318160ddd146102ff57806323b872dd1461032a57806329a00e7c146103bd576101c2565b806306fdde03146101c7578063095ea7b3146102575780630c7d5cd8146102ca575b600080fd5b3480156101d357600080fd5b506101dc610b6e565b6040518080602001828103825283818151815260200191508051906020019080838360005b8381101561021c578082015181840152602081019050610201565b50505050905090810190601f1680156102495780820380516001836020036101000a031916815260200191505b509250505060405180910390f35b34801561026357600080fd5b506102b06004803603604081101561027a57600080fd5b81019080803573ffffffffffffffffffffffffffffffffffffffff16906020019092919080359060200190929190505050610c10565b604051808215151515815260200191505060405180910390f35b3480156102d657600080fd5b506102df610c2e565b6040518082815260200191505060405180910390f35b6102fd610c34565b005b34801561030b57600080fd5b50610314610cb6565b6040518082815260200191505060405180910390f35b34801561033657600080fd5b506103a36004803603606081101561034d57600080fd5b81019080803573ffffffffffffffffffffffffffffffffffffffff169060200190929190803573ffffffffffffffffffffffffffffffffffffffff16906020019092919080359060200190929190505050610cc0565b604051808215151515815260200191505060405180910390f35b3480156103c957600080fd5b5061041a600480360360808110156103e057600080fd5b810190808035906020019092919080359060200190929190803563ffffffff16906020019092919080359060200190929190505050610d99565b6040518082815260200191505060405180910390f35b34801561043c57600080fd5b50610445610e95565b604051808260ff1660ff16815260200191505060405180910390f35b34801561046d57600080fd5b506104ba6004803603604081101561048457600080fd5b81019080803573ffffffffffffffffffffffffffffffffffffffff16906020019092919080359060200190929190505050610eac565b604051808215151515815260200191505060405180910390f35b3480156104e057600080fd5b50610531600480360360808110156104f757600080fd5b810190808035906020019092919080359060200190929190803563ffffffff16906020019092919080359060200190929190505050610f5f565b6040518082815260200191505060405180910390f35b34801561055357600080fd5b5061055c61108f565b6040518080602001828103825283818151815260200191508051906020019080838360005b8381101561059c578082015181840152602081019050610581565b50505050905090810190601f1680156105c95780820380516001836020036101000a031916815260200191505b509250505060405180910390f35b3480156105e357600080fd5b50610626600480360360208110156105fa57600080fd5b81019080803573ffffffffffffffffffffffffffffffffffffffff16906020019092919050505061112d565b6040518082815260200191505060405180910390f35b34801561064857600080fd5b50610651611175565b005b34801561065f57600080fd5b506106926004803603602081101561067657600080fd5b81019080803563ffffffff169060200190929190505050611300565b005b3480156106a057600080fd5b506106a961130c565b604051808263ffffffff1663ffffffff16815260200191505060405180910390f35b3480156106d757600080fd5b50610704600480360360208110156106ee57600080fd5b8101908080359060200190929190505050611322565b6040518082815260200191505060405180910390f35b34801561072657600080fd5b5061072f61135c565b604051808273ffffffffffffffffffffffffffffffffffffffff1673ffffffffffffffffffffffffffffffffffffffff16815260200191505060405180910390f35b34801561077d57600080fd5b50610786611386565b6040518080602001828103825283818151815260200191508051906020019080838360005b838110156107c65780820151818401526020810190506107ab565b50505050905090810190601f1680156107f35780820380516001836020036101000a031916815260200191505b509250505060405180910390f35b34801561080d57600080fd5b506108406004803603602081101561082457600080fd5b81019080803563ffffffff169060200190929190505050611428565b005b34801561084e57600080fd5b50610857611480565b6040518082815260200191505060405180910390f35b34801561087957600080fd5b506108c66004803603604081101561089057600080fd5b81019080803573ffffffffffffffffffffffffffffffffffffffff16906020019092919080359060200190929190505050611486565b604051808215151515815260200191505060405180910390f35b3480156108ec57600080fd5b506109396004803603604081101561090357600080fd5b81019080803573ffffffffffffffffffffffffffffffffffffffff16906020019092919080359060200190929190505050611553565b604051808215151515815260200191505060405180910390f35b34801561095f57600080fd5b50610968611571565b6040518082815260200191505060405180910390f35b34801561098a57600080fd5b506109b7600480360360208110156109a157600080fd5b81019080803590602001909291905050506115a8565b6040518082815260200191505060405180910390f35b3480156109d957600080fd5b506109e26115e2565b604051808263ffffffff1663ffffffff16815260200191505060405180910390f35b348015610a1057600080fd5b50610a5760048036036060811015610a2757600080fd5b810190808035906020019092919080359060200190929190803563ffffffff1690602001909291905050506115f8565b6040518082815260200191505060405180910390f35b348015610a7957600080fd5b50610adc60048036036040811015610a9057600080fd5b81019080803573ffffffffffffffffffffffffffffffffffffffff169060200190929190803573ffffffffffffffffffffffffffffffffffffffff16906020019092919050505061169a565b6040518082815260200191505060405180910390f35b348015610afe57600080fd5b50610b4160048036036020811015610b1557600080fd5b81019080803573ffffffffffffffffffffffffffffffffffffffff169060200190929190505050611721565b005b348015610b4f57600080fd5b50610b58611931565b6040518082815260200191505060405180910390f35b606060038054600181600116156101000203166002900480601f016020809104026020016040519081016040528092919081815260200182805460018160011615610100020316600290048015610c065780601f10610bdb57610100808354040283529160200191610c06565b820191906000526020600020905b815481529060010190602001808311610be957829003601f168201915b5050505050905090565b6000610c24610c1d611937565b848461193f565b6001905092915050565b60895481565b60003411610caa576040517f08c379a000000000000000000000000000000000000000000000000000000000815260040180806020018281038252601e8152602001807f4d7573742073656e6420657468657220746f2062757920746f6b656e732e000081525060200191505060405180910390fd5b610cb334611b36565b50565b6000600254905090565b6000610ccd848484611d0a565b610d8e84610cd9611937565b610d8985604051806060016040528060288152602001613c8160289139600160008b73ffffffffffffffffffffffffffffffffffffffff1673ffffffffffffffffffffffffffffffffffffffff1681526020019081526020016000206000610d3f611937565b73ffffffffffffffffffffffffffffffffffffffff1673ffffffffffffffffffffffffffffffffffffffff16815260200190815260200160002054611fcb9092919063ffffffff16565b61193f565b600190509392505050565b60008085118015610daa5750600084115b8015610dbc575060008363ffffffff16115b8015610dd75750620f424063ffffffff168363ffffffff1611155b610de057600080fd5b6000821415610df25760009050610e8d565b620f424063ffffffff168363ffffffff161415610e3557610e2e84610e20848861208b90919063ffffffff16565b61211190919063ffffffff16565b9050610e8d565b6000806000610e4d878661215b90919063ffffffff16565b9050610e5e818888620f42406121e3565b809350819450505060008260ff16610e7f858b61208b90919063ffffffff16565b901c90508881039450505050505b949350505050565b6000600560009054906101000a900460ff16905090565b6000610f55610eb9611937565b84610f508560016000610eca611937565b73ffffffffffffffffffffffffffffffffffffffff1673ffffffffffffffffffffffffffffffffffffffff16815260200190815260200160002060008973ffffffffffffffffffffffffffffffffffffffff1673ffffffffffffffffffffffffffffffffffffffff1681526020019081526020016000205461215b90919063ffffffff16565b61193f565b6001905092915050565b60008085118015610f705750600084115b8015610f82575060008363ffffffff16115b8015610f9d5750620f424063ffffffff168363ffffffff1611155b8015610fa95750848211155b610fb257600080fd5b6000821415610fc45760009050611087565b84821415610fd457839050611087565b620f424063ffffffff168363ffffffff1614156110175761101085611002848761208b90919063ffffffff16565b61211190919063ffffffff16565b9050611087565b600080600084880390506110308882620f4240896121e3565b8093508194505050600061104d848961208b90919063ffffffff16565b905060008360ff1689901b905061107f8561107183856123b790919063ffffffff16565b61211190919063ffffffff16565b955050505050505b949350505050565b60068054600181600116156101000203166002900480601f0160208091040260200160405190810160405280929190818152602001828054600181600116156101000203166002900480156111255780601f106110fa57610100808354040283529160200191611125565b820191906000526020600020905b81548152906001019060200180831161110857829003601f168201915b505050505081565b60008060008373ffffffffffffffffffffffffffffffffffffffff1673ffffffffffffffffffffffffffffffffffffffff168152602001908152602001600020549050919050565b61117d611937565b73ffffffffffffffffffffffffffffffffffffffff16600560019054906101000a900473ffffffffffffffffffffffffffffffffffffffff1673ffffffffffffffffffffffffffffffffffffffff161461123f576040517f08c379a00000000000000000000000000000000000000000000000000000000081526004018080602001828103825260208152602001807f4f776e61626c653a2063616c6c6572206973206e6f7420746865206f776e657281525060200191505060405180910390fd5b600073ffffffffffffffffffffffffffffffffffffffff16600560019054906101000a900473ffffffffffffffffffffffffffffffffffffffff1673ffffffffffffffffffffffffffffffffffffffff167f8be0079c531659141344cd1fd0a4f28419497f9722a3daafe3b4186f6b6457e060405160405180910390a36000600560016101000a81548173ffffffffffffffffffffffffffffffffffffffff021916908373ffffffffffffffffffffffffffffffffffffffff160217905550565b61130981612401565b50565b608a60049054906101000a900463ffffffff1681565b6000611355608a60049054906101000a900463ffffffff1663ffffffff16611348610cb6565b0160885460895485610d99565b9050919050565b6000600560019054906101000a900473ffffffffffffffffffffffffffffffffffffffff16905090565b606060048054600181600116156101000203166002900480601f01602080910402602001604051908101604052809291908181526020018280546001816001161561010002031660029004801561141e5780601f106113f35761010080835404028352916020019161141e565b820191906000526020600020905b81548152906001019060200180831161140157829003601f168201915b5050505050905090565b600061143382612549565b90503373ffffffffffffffffffffffffffffffffffffffff166108fc829081150290604051600060405180830381858888f1935050505015801561147b573d6000803e3d6000fd5b505050565b60885481565b6000611549611493611937565b8461154485604051806060016040528060258152602001613d1360259139600160006114bd611937565b73ffffffffffffffffffffffffffffffffffffffff1673ffffffffffffffffffffffffffffffffffffffff16815260200190815260200160002060008a73ffffffffffffffffffffffffffffffffffffffff1673ffffffffffffffffffffffffffffffffffffffff16815260200190815260200160002054611fcb9092919063ffffffff16565b61193f565b6001905092915050565b6000611567611560611937565b8484611d0a565b6001905092915050565b60006115a3608a60049054906101000a900463ffffffff1663ffffffff16611597610cb6565b016088546089546115f8565b905090565b60006115db608a60049054906101000a900463ffffffff1663ffffffff166115ce610cb6565b0160885460895485610f5f565b9050919050565b608a60009054906101000a900463ffffffff1681565b600080841180156116095750600083115b801561161b575060008263ffffffff16115b80156116365750620f424063ffffffff168263ffffffff1611155b61163f57600080fd5b600061165d620f424063ffffffff168561208b90919063ffffffff16565b9050600061167a8463ffffffff168761208b90919063ffffffff16565b905061168f818361211190919063ffffffff16565b925050509392505050565b6000600160008473ffffffffffffffffffffffffffffffffffffffff1673ffffffffffffffffffffffffffffffffffffffff16815260200190815260200160002060008373ffffffffffffffffffffffffffffffffffffffff1673ffffffffffffffffffffffffffffffffffffffff16815260200190815260200160002054905092915050565b611729611937565b73ffffffffffffffffffffffffffffffffffffffff16600560019054906101000a900473ffffffffffffffffffffffffffffffffffffffff1673ffffffffffffffffffffffffffffffffffffffff16146117eb576040517f08c379a00000000000000000000000000000000000000000000000000000000081526004018080602001828103825260208152602001807f4f776e61626c653a2063616c6c6572206973206e6f7420746865206f776e657281525060200191505060405180910390fd5b600073ffffffffffffffffffffffffffffffffffffffff168173ffffffffffffffffffffffffffffffffffffffff161415611871576040517f08c379a0000000000000000000000000000000000000000000000000000000008152600401808060200182810382526026815260200180613bf26026913960400191505060405180910390fd5b8073ffffffffffffffffffffffffffffffffffffffff16600560019054906101000a900473ffffffffffffffffffffffffffffffffffffffff1673ffffffffffffffffffffffffffffffffffffffff167f8be0079c531659141344cd1fd0a4f28419497f9722a3daafe3b4186f6b6457e060405160405180910390a380600560016101000a81548173ffffffffffffffffffffffffffffffffffffffff021916908373ffffffffffffffffffffffffffffffffffffffff16021790555050565b60875481565b600033905090565b600073ffffffffffffffffffffffffffffffffffffffff168373ffffffffffffffffffffffffffffffffffffffff1614156119c5576040517f08c379a0000000000000000000000000000000000000000000000000000000008152600401808060200182810382526024815260200180613cef6024913960400191505060405180910390fd5b600073ffffffffffffffffffffffffffffffffffffffff168273ffffffffffffffffffffffffffffffffffffffff161415611a4b576040517f08c379a0000000000000000000000000000000000000000000000000000000008152600401808060200182810382526022815260200180613c186022913960400191505060405180910390fd5b80600160008573ffffffffffffffffffffffffffffffffffffffff1673ffffffffffffffffffffffffffffffffffffffff16815260200190815260200160002060008473ffffffffffffffffffffffffffffffffffffffff1673ffffffffffffffffffffffffffffffffffffffff168152602001908152602001600020819055508173ffffffffffffffffffffffffffffffffffffffff168373ffffffffffffffffffffffffffffffffffffffff167f8c5be1e5ebec7d5bd14f71427d1e84f3dd0314c0f7b2291e5b200ac8c7c3b925836040518082815260200191505060405180910390a3505050565b6000608a60009054906101000a900463ffffffff1663ffffffff16608a60049054906101000a900463ffffffff1663ffffffff16611b72610cb6565b0110611be6576040517f08c379a000000000000000000000000000000000000000000000000000000000815260040180806020018281038252601e8152602001807f536f7272792c207468697320746f6b656e20697320736f6c64206f75742e000081525060200191505060405180910390fd5b60008211611c5c576040517f08c379a00000000000000000000000000000000000000000000000000000000081526004018080602001828103825260198152602001807f4465706f736974206d757374206265206e6f6e2d7a65726f2e0000000000000081525060200191505060405180910390fd5b6000611c6783611322565b9050611c73338261264f565b611c888360885461215b90919063ffffffff16565b6088819055507f25b428dfde728ccfaddad7e29e4ac23c24ed7fd1a6e3e3f91894a9a073f5dfff338285604051808473ffffffffffffffffffffffffffffffffffffffff1673ffffffffffffffffffffffffffffffffffffffff168152602001838152602001828152602001935050505060405180910390a180915050919050565b600073ffffffffffffffffffffffffffffffffffffffff168373ffffffffffffffffffffffffffffffffffffffff161415611d90576040517f08c379a0000000000000000000000000000000000000000000000000000000008152600401808060200182810382526025815260200180613cca6025913960400191505060405180910390fd5b600073ffffffffffffffffffffffffffffffffffffffff168273ffffffffffffffffffffffffffffffffffffffff161415611e16576040517f08c379a0000000000000000000000000000000000000000000000000000000008152600401808060200182810382526023815260200180613bad6023913960400191505060405180910390fd5b611e21838383612816565b611e8c81604051806060016040528060268152602001613c3a602691396000808773ffffffffffffffffffffffffffffffffffffffff1673ffffffffffffffffffffffffffffffffffffffff16815260200190815260200160002054611fcb9092919063ffffffff16565b6000808573ffffffffffffffffffffffffffffffffffffffff1673ffffffffffffffffffffffffffffffffffffffff16815260200190815260200160002081905550611f1f816000808573ffffffffffffffffffffffffffffffffffffffff1673ffffffffffffffffffffffffffffffffffffffff1681526020019081526020016000205461215b90919063ffffffff16565b6000808473ffffffffffffffffffffffffffffffffffffffff1673ffffffffffffffffffffffffffffffffffffffff168152602001908152602001600020819055508173ffffffffffffffffffffffffffffffffffffffff168373ffffffffffffffffffffffffffffffffffffffff167fddf252ad1be2c89b69c2b068fc378daa952ba7f163c4a11628f55a4df523b3ef836040518082815260200191505060405180910390a3505050565b6000838311158290612078576040517f08c379a00000000000000000000000000000000000000000000000000000000081526004018080602001828103825283818151815260200191508051906020019080838360005b8381101561203d578082015181840152602081019050612022565b50505050905090810190601f16801561206a5780820380516001836020036101000a031916815260200191505b509250505060405180910390fd5b5060008385039050809150509392505050565b60008083141561209e576000905061210b565b60008284029050828482816120af57fe5b0414612106576040517f08c379a0000000000000000000000000000000000000000000000000000000008152600401808060200182810382526021815260200180613c606021913960400191505060405180910390fd5b809150505b92915050565b600061215383836040518060400160405280601a81526020017f536166654d6174683a206469766973696f6e206279207a65726f00000000000081525061281b565b905092915050565b6000808284019050838110156121d9576040517f08c379a000000000000000000000000000000000000000000000000000000000815260040180806020018281038252601b8152602001807f536166654d6174683a206164646974696f6e206f766572666c6f77000000000081525060200191505060405180910390fd5b8091505092915050565b600080700200000000000000000000000000000000861061226c576040517f08c379a00000000000000000000000000000000000000000000000000000000081526004018080602001828103825260188152602001807f626173654e2065786365656473206d61782076616c75652e000000000000000081525060200191505060405180910390fd5b848610156122e2576040517f08c379a000000000000000000000000000000000000000000000000000000000815260040180806020018281038252601c8152602001807f4261736573203c203120617265206e6f7420737570706f727465642e0000000081525060200191505060405180910390fd5b600080866f8000000000000000000000000000000089028161230057fe5b04905070015bf0a8b1457695355fb8ac404e7a79e381101561232c57612325816128e1565b9150612338565b61233581612e71565b91505b60008563ffffffff168763ffffffff1684028161235157fe5b0490507008000000000000000000000000000000008110156123845761237681612f99565b607f945094505050506123ae565b600061238f82613513565b90506123a481607f0360ff1683901c826135c8565b8195509550505050505b94509492505050565b60006123f983836040518060400160405280601e81526020017f536166654d6174683a207375627472616374696f6e206f766572666c6f770000815250611fcb565b905092915050565b60008163ffffffff161161247d576040517f08c379a00000000000000000000000000000000000000000000000000000000081526004018080602001828103825260188152602001807f416d6f756e74206d757374206265206e6f6e2d7a65726f2e000000000000000081525060200191505060405180910390fd5b8063ffffffff1661248d3361112d565b1015612501576040517f08c379a000000000000000000000000000000000000000000000000000000000815260040180806020018281038252601c8152602001807f496e73756666696369656e7420746f6b656e7320746f206275726e2e0000000081525060200191505060405180910390fd5b612511338263ffffffff16613966565b80608a60049054906101000a900463ffffffff1601608a60046101000a81548163ffffffff021916908363ffffffff16021790555050565b6000808263ffffffff16116125c6576040517f08c379a00000000000000000000000000000000000000000000000000000000081526004018080602001828103825260188152602001807f416d6f756e74206d757374206265206e6f6e2d7a65726f2e000000000000000081525060200191505060405180910390fd5b8163ffffffff166125d63361112d565b101561264a576040517f08c379a000000000000000000000000000000000000000000000000000000000815260040180806020018281038252601c8152602001807f496e73756666696369656e7420746f6b656e7320746f2073656c6c2e0000000081525060200191505060405180910390fd5b919050565b600073ffffffffffffffffffffffffffffffffffffffff168273ffffffffffffffffffffffffffffffffffffffff1614156126f2576040517f08c379a000000000000000000000000000000000000000000000000000000000815260040180806020018281038252601f8152602001807f45524332303a206d696e7420746f20746865207a65726f20616464726573730081525060200191505060405180910390fd5b6126fe60008383612816565b6127138160025461215b90919063ffffffff16565b60028190555061276a816000808573ffffffffffffffffffffffffffffffffffffffff1673ffffffffffffffffffffffffffffffffffffffff1681526020019081526020016000205461215b90919063ffffffff16565b6000808473ffffffffffffffffffffffffffffffffffffffff1673ffffffffffffffffffffffffffffffffffffffff168152602001908152602001600020819055508173ffffffffffffffffffffffffffffffffffffffff16600073ffffffffffffffffffffffffffffffffffffffff167fddf252ad1be2c89b69c2b068fc378daa952ba7f163c4a11628f55a4df523b3ef836040518082815260200191505060405180910390a35050565b505050565b600080831182906128c7576040517f08c379a00000000000000000000000000000000000000000000000000000000081526004018080602001828103825283818151815260200191508051906020019080838360005b8381101561288c578082015181840152602081019050612871565b50505050905090810190601f1680156128b95780820380516001836020036101000a031916815260200191505b509250505060405180910390fd5b5060008385816128d357fe5b049050809150509392505050565b6000806000905060008060006fd3094c70f034de4b96ff7d5b6f99fcd88610612948576f40000000000000000000000000000000840193506fd3094c70f034de4b96ff7d5b6f99fcd86f8000000000000000000000000000000087028161294457fe5b0495505b6fa45af1e1f40c333b3de1db4dd55f29a786106129a3576f20000000000000000000000000000000840193506fa45af1e1f40c333b3de1db4dd55f29a76f8000000000000000000000000000000087028161299f57fe5b0495505b6f910b022db7ae67ce76b441c27035c6a186106129fe576f10000000000000000000000000000000840193506f910b022db7ae67ce76b441c27035c6a16f800000000000000000000000000000008702816129fa57fe5b0495505b6f88415abbe9a76bead8d00cf112e4d4a88610612a59576f08000000000000000000000000000000840193506f88415abbe9a76bead8d00cf112e4d4a86f80000000000000000000000000000000870281612a5557fe5b0495505b6f84102b00893f64c705e841d5d4064bd38610612ab4576f04000000000000000000000000000000840193506f84102b00893f64c705e841d5d4064bd36f80000000000000000000000000000000870281612ab057fe5b0495505b6f8204055aaef1c8bd5c3259f4822735a28610612b0f576f02000000000000000000000000000000840193506f8204055aaef1c8bd5c3259f4822735a26f80000000000000000000000000000000870281612b0b57fe5b0495505b6f810100ab00222d861931c15e39b44e998610612b6a576f01000000000000000000000000000000840193506f810100ab00222d861931c15e39b44e996f80000000000000000000000000000000870281612b6657fe5b0495505b6f808040155aabbbe9451521693554f7338610612bc4576e800000000000000000000000000000840193506f808040155aabbbe9451521693554f7336f80000000000000000000000000000000870281612bc057fe5b0495505b6f80000000000000000000000000000000860392508291506f8000000000000000000000000000000083840281612bf757fe5b0490507001000000000000000000000000000000008370010000000000000000000000000000000003830281612c2957fe5b04840193506f8000000000000000000000000000000081830281612c4957fe5b049150700200000000000000000000000000000000836faaaaaaaaaaaaaaaaaaaaaaaaaaaaaaaa03830281612c7a57fe5b04840193506f8000000000000000000000000000000081830281612c9a57fe5b049150700300000000000000000000000000000000836f9999999999999999999999999999999903830281612ccb57fe5b04840193506f8000000000000000000000000000000081830281612ceb57fe5b049150700400000000000000000000000000000000836f9249249249249249249249249249249203830281612d1c57fe5b04840193506f8000000000000000000000000000000081830281612d3c57fe5b049150700500000000000000000000000000000000836f8e38e38e38e38e38e38e38e38e38e38e03830281612d6d57fe5b04840193506f8000000000000000000000000000000081830281612d8d57fe5b049150700600000000000000000000000000000000836f8ba2e8ba2e8ba2e8ba2e8ba2e8ba2e8b03830281612dbe57fe5b04840193506f8000000000000000000000000000000081830281612dde57fe5b049150700700000000000000000000000000000000836f89d89d89d89d89d89d89d89d89d89d8903830281612e0f57fe5b04840193506f8000000000000000000000000000000081830281612e2f57fe5b049150700800000000000000000000000000000000836f8888888888888888888888888888888803830281612e6057fe5b048401935083945050505050919050565b6000806000905060008390507001000000000000000000000000000000008110612ede576000612eb96f800000000000000000000000000000008381612eb357fe5b04613b2a565b90508060ff1682901c91506f800000000000000000000000000000008160ff16029250505b6f80000000000000000000000000000000811115612f64576000607f90505b60008160ff161115612f62576f8000000000000000000000000000000082830281612f2457fe5b0491507001000000000000000000000000000000008210612f5657600182901c91506001810360ff166001901b830192505b80600190039050612efd565b505b6f05b9de1d10bf4103d647b0955897ba806f03f80fe03f80fe03f80fe03f80fe03f8830281612f8f57fe5b0492505050919050565b600080600090506000806f100000000000000000000000000000008581612fbc57fe5b0691508190506f8000000000000000000000000000000082820281612fdd57fe5b0490506710e1b3be415a00008102830192506f800000000000000000000000000000008282028161300a57fe5b0490506705a0913f6b1e00008102830192506f800000000000000000000000000000008282028161303757fe5b049050670168244fdac780008102830192506f800000000000000000000000000000008282028161306457fe5b049050664807432bc180008102830192506f800000000000000000000000000000008282028161309057fe5b049050660c0135dca040008102830192506f80000000000000000000000000000000828202816130bc57fe5b0490506601b707b1cdc0008102830192506f80000000000000000000000000000000828202816130e857fe5b0490506536e0f639b8008102830192506f800000000000000000000000000000008282028161311357fe5b049050650618fee9f8008102830192506f800000000000000000000000000000008282028161313e57fe5b049050649c197dcc008102830192506f800000000000000000000000000000008282028161316857fe5b049050640e30dce4008102830192506f800000000000000000000000000000008282028161319257fe5b04905064012ebd13008102830192506f80000000000000000000000000000000828202816131bc57fe5b0490506317499f008102830192506f80000000000000000000000000000000828202816131e557fe5b0490506301a9d4808102830192506f800000000000000000000000000000008282028161320e57fe5b049050621c63808102830192506f800000000000000000000000000000008282028161323657fe5b0490506201c6388102830192506f800000000000000000000000000000008282028161325e57fe5b049050611ab88102830192506f800000000000000000000000000000008282028161328557fe5b04905061017c8102830192506f80000000000000000000000000000000828202816132ac57fe5b04905060148102830192506f80000000000000000000000000000000828202816132d257fe5b04905060018102830192506f80000000000000000000000000000000826721c3677c82b40000858161330057fe5b040101925060006f100000000000000000000000000000008616146133505770018ebef9eac820ae8682b9793ac6d1e7767001c3d6a24ed82218787d624d3e5eba95f984028161334c57fe5b0492505b60006f2000000000000000000000000000000086161461339b577001368b2fc6f9609fe7aceb46aa619baed470018ebef9eac820ae8682b9793ac6d1e77884028161339757fe5b0492505b60006f400000000000000000000000000000008616146133e5576fbc5ab1b16779be3575bd8f0520a9f21f7001368b2fc6f9609fe7aceb46aa619baed58402816133e157fe5b0492505b60006f8000000000000000000000000000000086161461342e576f454aaa8efe072e7f6ddbab84b40a55c96fbc5ab1b16779be3575bd8f0520a9f21e84028161342a57fe5b0492505b6000700100000000000000000000000000000000861614613478576f0960aadc109e7a3bf4578099615711ea6f454aaa8efe072e7f6ddbab84b40a55c584028161347457fe5b0492505b60007002000000000000000000000000000000008616146134c1576e2bf84208204f5977f9a8cf01fdce3d6f0960aadc109e7a3bf4578099615711d78402816134bd57fe5b0492505b6000700400000000000000000000000000000000861614613508576d03c6ab775dd0b95b4cbee7e65d116e2bf84208204f5977f9a8cf01fdc30784028161350457fe5b0492505b829350505050919050565b600080602090506000607f90505b8060ff166001830160ff161015613570576000600282840160ff168161354357fe5b0490508460078260ff166080811061355757fe5b0154106135665780925061356a565b8091505b50613521565b8360078260ff166080811061358157fe5b0154106135925780925050506135c3565b8360078360ff16608081106135a357fe5b0154106135b45781925050506135c3565b60006135bc57fe5b6000925050505b919050565b60008083905060008090508360ff16858302901c91506f03442c4e6074a82f1797f72ac00000008202810190508360ff16858302901c91506f0116b96f757c380fb287fd0e400000008202810190508360ff16858302901c91506e45ae5bdd5f0e03eca1ff43900000008202810190508360ff16858302901c91506e0defabf91302cd95b9ffda500000008202810190508360ff16858302901c91506e02529ca9832b22439efff9b80000008202810190508360ff16858302901c91506d54f1cf12bd04e516b6da880000008202810190508360ff16858302901c91506d0a9e39e257a09ca2d6db510000008202810190508360ff16858302901c91506d012e066e7b839fa050c3090000008202810190508360ff16858302901c91506c1e33d7d926c329a1ad1a8000008202810190508360ff16858302901c91506c02bee513bdb4a6b19b5f8000008202810190508360ff16858302901c91506b3a9316fa79b88eccf2a000008202810190508360ff16858302901c91506b048177ebe1fa8123752000008202810190508360ff16858302901c91506a5263fe90242dcbacf000008202810190508360ff16858302901c91506a057e22099c030d941000008202810190508360ff16858302901c91506957e22099c030d94100008202810190508360ff16858302901c915069052b6b545699763100008202810190508360ff16858302901c9150684985f67696bf7480008202810190508360ff16858302901c91506803dea12ea99e4980008202810190508360ff16858302901c91506731880f2214b6e0008202810190508360ff16858302901c915067025bcff56eb360008202810190508360ff16858302901c9150661b722e10ab10008202810190508360ff16858302901c91506601317c700770008202810190508360ff16858302901c9150650cba84aafa008202810190508360ff16858302901c91506482573a0a008202810190508360ff16858302901c91506405035ad9008202810190508360ff16858302901c9150632f881b008202810190508360ff16858302901c91506301b293408202810190508360ff16858302901c9150620efc408202810190508360ff16858302901c9150617fe08202810190508360ff16858302901c91506104208202810190508360ff16858302901c915060218202810190508360ff16858302901c915060018202810190508360ff166001901b856f0688589cc0e9505e2f2fee5580000000838161395957fe5b0401019250505092915050565b600073ffffffffffffffffffffffffffffffffffffffff168273ffffffffffffffffffffffffffffffffffffffff1614156139ec576040517f08c379a0000000000000000000000000000000000000000000000000000000008152600401808060200182810382526021815260200180613ca96021913960400191505060405180910390fd5b6139f882600083612816565b613a6381604051806060016040528060228152602001613bd0602291396000808673ffffffffffffffffffffffffffffffffffffffff1673ffffffffffffffffffffffffffffffffffffffff16815260200190815260200160002054611fcb9092919063ffffffff16565b6000808473ffffffffffffffffffffffffffffffffffffffff1673ffffffffffffffffffffffffffffffffffffffff16815260200190815260200160002081905550613aba816002546123b790919063ffffffff16565b600281905550600073ffffffffffffffffffffffffffffffffffffffff168273ffffffffffffffffffffffffffffffffffffffff167fddf252ad1be2c89b69c2b068fc378daa952ba7f163c4a11628f55a4df523b3ef836040518082815260200191505060405180910390a35050565b600080600090506000839050610100811015613b61575b6001811115613b5c57600181901c9050600182019150613b41565b613ba2565b6000608090505b60008160ff161115613ba0578060ff166001901b8210613b91578060ff1682901c915080831792505b60018160ff16901c9050613b68565b505b819250505091905056fe45524332303a207472616e7366657220746f20746865207a65726f206164647265737345524332303a206275726e20616d6f756e7420657863656564732062616c616e63654f776e61626c653a206e6577206f776e657220697320746865207a65726f206164647265737345524332303a20617070726f766520746f20746865207a65726f206164647265737345524332303a207472616e7366657220616d6f756e7420657863656564732062616c616e6365536166654d6174683a206d756c7469706c69636174696f6e206f766572666c6f7745524332303a207472616e7366657220616d6f756e74206578636565647320616c6c6f77616e636545524332303a206275726e2066726f6d20746865207a65726f206164647265737345524332303a207472616e736665722066726f6d20746865207a65726f206164647265737345524332303a20617070726f76652066726f6d20746865207a65726f206164647265737345524332303a2064656372656173656420616c6c6f77616e63652062656c6f77207a65726fa26469706673582212202a4fa86882a0366ec8ca03ce6098f112322b613e772113309b587f00375a3cd964736f6c63430006060033",
  "immutableReferences": {},
  "source": "pragma solidity ^0.6.6;\n\nimport \"@openzeppelin/contracts/token/ERC20/ERC20.sol\";\nimport \"@openzeppelin/contracts/access/Ownable.sol\";\nimport \"./BancorBondingCurve.sol\";\n\ncontract LumiToken is ERC20, Ownable, BancorBondingCurve {\n\tusing SafeMath for uint256;\n\n\tevent Minted(address sender, uint amount, uint deposit);\t\t// event to fire when a new token is minted\n  event Traded(address sender, uint amount, uint refund);\t\t\t// event to fire when a token has been sold back\n  event Burned(address sender, uint amount);\t\t\t\t\t\t\t\t\t// event to fire when a token is redeemed in the real world\n\n\tuint256 public scale = 10**18;\n  uint256 public reserveBalance = 10*scale;\t\t// amount in ether or dai\n  uint256 public reserveRatio;\n\n  uint32 public maxTokenCount;\n  uint32 public burnedCount = 0;\n\n  // mapping (address => uint256) ownerTokenCount;\n\n\t/**\n   * @dev Constructor\n   *\n   * @param _reserveRatio              the reserved ratio in ppm\n   * @param _maxTokenCount\t\t\t\t\t\tthe amount of token that will exist for this type.\n  */\n  constructor(uint256 _reserveRatio, uint32 _maxTokenCount) ERC20(\"LumiToken\", \"\") public {\t\t\n  \trequire(_maxTokenCount > 0, \"Invalid max token count.\");\n    reserveRatio = _reserveRatio;\t\t// initialize the reserve ratio for this token.\n    maxTokenCount = _maxTokenCount;\n    _mint(msg.sender, 1);\n  }\n\n  // Functions we provide for our token holders.\n  function mint() public payable {\n    require(msg.value > 0, \"Must send ether to buy tokens.\");\n    _discreteMint(msg.value);\n  }\n\n \tfunction sale(uint32 _amount) public {\n    uint256 returnAmount = _discreteSale(_amount);\n    msg.sender.transfer(returnAmount);\n  }\n\n  function burn(uint32 _amount) public {\n  \t_discreteBurn(_amount);\n  }\n\n  // function () public payable { mint(); }\n\n  // View Functions for outside.\n  function calculateBuyReturn(uint256 _amount)\n    public view returns (uint256 mintAmount)\n  {\n    return calculatePurchaseReturn(totalSupply() + burnedCount, reserveBalance, uint32(reserveRatio), _amount);\n  }\n\n  function calculateSellReturn(uint256 _amount)\n    public view returns (uint256 burnAmount)\n  {\n    return calculateSaleReturn(totalSupply() + burnedCount, reserveBalance, uint32(reserveRatio), _amount);\n  }\n\n  function calculateTokenPrice() \n  \tpublic view returns\t(uint256 price)\n  {\n  \treturn calculateUnitPrice(totalSupply() + burnedCount, reserveBalance, uint32(reserveRatio));\n  }\n\n  // specific implementations of transaction logics.\n  function _discreteMint(uint256 _deposit)\n    internal returns (uint256)\n  {\n  \trequire(totalSupply() + burnedCount < maxTokenCount, \"Sorry, this token is sold out.\");\n    require(_deposit > 0, \"Deposit must be non-zero.\");\n\n    uint256 amount = calculateBuyReturn(_deposit);\t    // have to make it discrete here. Replace amount with uint32\n\n    _mint(msg.sender, amount);\t\t// have to specifically mint whole numbers\n    reserveBalance = reserveBalance.add(_deposit);\n    emit Minted(msg.sender, amount, _deposit);\n    return amount;\n  }\n\n  // have to add a function about redeeming token\n  function _discreteSale(uint32 _amount)\n    internal returns (uint256)\n  {\n  \trequire(_amount > 0, \"Amount must be non-zero.\");\n    require(balanceOf(msg.sender) >= _amount, \"Insufficient tokens to sell.\");\n\n  \t// uint256 reimburseAmount = calculateSellReturn(_amount);\n \t\t// reserveBalance = reserveBalance.sub(reimburseAmount);\n\n  }\n\n  // have to change return types, since burning a product token have a different set of logics.\n  function _discreteBurn(uint32 _amount)\n    internal \n  {\n    require(_amount > 0, \"Amount must be non-zero.\");\n    require(balanceOf(msg.sender) >= _amount, \"Insufficient tokens to burn.\");\n\n    // have to change burn function here\n    _burn(msg.sender, _amount);\n    // emit Burned(msg.sender, _amount, reimburseAmount);\n    burnedCount = burnedCount + _amount;\t\t\t// Future: use safe math here.\n    // return reimburseAmount;\n  }\n}\n",
  "sourcePath": "/Users/sd/Documents/GitHub/virtualmarket/contracts/LumiToken.sol",
  "compiler": {
    "name": "solc",
    "version": "0.6.6+commit.6c089d02.Emscripten.clang"
  },
  "schemaVersion": "3.3.4",
  "updatedAt": "2021-03-31T06:18:35.872Z",
  "devdoc": {
    "methods": {
      "allowance(address,address)": {
        "details": "See {IERC20-allowance}."
      },
      "approve(address,uint256)": {
        "details": "See {IERC20-approve}.     * Requirements:     * - `spender` cannot be the zero address."
      },
      "balanceOf(address)": {
        "details": "See {IERC20-balanceOf}."
      },
      "calculatePurchaseReturn(uint256,uint256,uint32,uint256)": {
        "details": "given a continuous token supply, reserve token balance, reserve ratio, and a deposit amount (in the reserve token), calculates the return for a given conversion (in the continuous token)   * Formula: Return = _supply * ((1 + _depositAmount / _reserveBalance) ^ (_reserveRatio / MAX_RESERVE_RATIO) - 1)",
        "params": {
          "_depositAmount": "deposit amount, in reserve token",
          "_reserveBalance": "total reserve token balance",
          "_reserveRatio": "reserve ratio, represented in ppm, 1-1000000",
          "_supply": "continuous token total supply"
        },
        "returns": {
          "_0": "purchase return amount"
        }
      },
      "calculateSaleReturn(uint256,uint256,uint32,uint256)": {
        "details": "given a continuous token supply, reserve token balance, reserve ratio and a sell amount (in the continuous token), calculates the return for a given conversion (in the reserve token)   * Formula: Return = _reserveBalance * (1 - (1 - _sellAmount / _supply) ^ (1 / (_reserveRatio / MAX_RESERVE_RATIO)))",
        "params": {
          "_reserveBalance": "total reserve token balance",
          "_reserveRatio": "constant reserve ratio, represented in ppm, 1-1000000",
          "_sellAmount": "sell amount, in the continuous token itself",
          "_supply": "continuous token total supply"
        },
        "returns": {
          "_0": "sale return amount"
        }
      },
      "calculateUnitPrice(uint256,uint256,uint32)": {
        "details": "Try to compute the current price for a given token   * Formula: Return = balance / (supply * reserve ratio)",
        "params": {
          "_reserveBalance": "total reserve token balance",
          "_reserveRatio": "reserve ratio, represented in ppm, 1-1000000",
          "_supply": "continuous token total supply"
        },
        "returns": {
          "_0": "unit price per token (as of function call)"
        }
      },
      "constructor": {
        "details": "Constructor",
        "params": {
          "_maxTokenCount": "the amount of token that will exist for this type.",
          "_reserveRatio": "the reserved ratio in ppm"
        }
      },
      "decimals()": {
        "details": "Returns the number of decimals used to get its user representation. For example, if `decimals` equals `2`, a balance of `505` tokens should be displayed to a user as `5,05` (`505 / 10 ** 2`).     * Tokens usually opt for a value of 18, imitating the relationship between Ether and Wei. This is the value {ERC20} uses, unless {_setupDecimals} is called.     * NOTE: This information is only used for _display_ purposes: it in no way affects any of the arithmetic of the contract, including {IERC20-balanceOf} and {IERC20-transfer}."
      },
      "decreaseAllowance(address,uint256)": {
        "details": "Atomically decreases the allowance granted to `spender` by the caller.     * This is an alternative to {approve} that can be used as a mitigation for problems described in {IERC20-approve}.     * Emits an {Approval} event indicating the updated allowance.     * Requirements:     * - `spender` cannot be the zero address. - `spender` must have allowance for the caller of at least `subtractedValue`."
      },
      "increaseAllowance(address,uint256)": {
        "details": "Atomically increases the allowance granted to `spender` by the caller.     * This is an alternative to {approve} that can be used as a mitigation for problems described in {IERC20-approve}.     * Emits an {Approval} event indicating the updated allowance.     * Requirements:     * - `spender` cannot be the zero address."
      },
      "name()": {
        "details": "Returns the name of the token."
      },
      "owner()": {
        "details": "Returns the address of the current owner."
      },
      "renounceOwnership()": {
        "details": "Leaves the contract without owner. It will not be possible to call `onlyOwner` functions anymore. Can only be called by the current owner.     * NOTE: Renouncing ownership will leave the contract without an owner, thereby removing any functionality that is only available to the owner."
      },
      "symbol()": {
        "details": "Returns the symbol of the token, usually a shorter version of the name."
      },
      "totalSupply()": {
        "details": "See {IERC20-totalSupply}."
      },
      "transfer(address,uint256)": {
        "details": "See {IERC20-transfer}.     * Requirements:     * - `recipient` cannot be the zero address. - the caller must have a balance of at least `amount`."
      },
      "transferFrom(address,address,uint256)": {
        "details": "See {IERC20-transferFrom}.     * Emits an {Approval} event indicating the updated allowance. This is not required by the EIP. See the note at the beginning of {ERC20};     * Requirements: - `sender` and `recipient` cannot be the zero address. - `sender` must have a balance of at least `amount`. - the caller must have allowance for ``sender``'s tokens of at least `amount`."
      },
      "transferOwnership(address)": {
        "details": "Transfers ownership of the contract to a new account (`newOwner`). Can only be called by the current owner."
      }
    }
  },
  "userdoc": {
    "methods": {}
  }
}