{
  "contractName": "ProductToken",
  "abi": [
    {
      "inputs": [
        {
          "internalType": "uint32",
          "name": "_reserveRatio",
          "type": "uint32"
        },
        {
          "internalType": "uint32",
          "name": "_maxTokenCount",
          "type": "uint32"
        }
      ],
      "stateMutability": "nonpayable",
      "type": "constructor"
    },
    {
      "anonymous": false,
      "inputs": [
        {
          "indexed": true,
          "internalType": "address",
          "name": "owner",
          "type": "address"
        },
        {
          "indexed": true,
          "internalType": "address",
          "name": "spender",
          "type": "address"
        },
        {
          "indexed": false,
          "internalType": "uint256",
          "name": "value",
          "type": "uint256"
        }
      ],
      "name": "Approval",
      "type": "event"
    },
    {
      "anonymous": false,
      "inputs": [
        {
          "indexed": true,
          "internalType": "address",
          "name": "sender",
          "type": "address"
        },
        {
          "indexed": false,
          "internalType": "uint32",
          "name": "amount",
          "type": "uint32"
        },
        {
          "indexed": false,
          "internalType": "uint256",
          "name": "deposit",
          "type": "uint256"
        }
      ],
      "name": "Buy",
      "type": "event"
    },
    {
      "anonymous": false,
      "inputs": [
        {
          "indexed": false,
          "internalType": "string",
          "name": "msg",
          "type": "string"
        },
        {
          "indexed": false,
          "internalType": "uint256",
          "name": "value",
          "type": "uint256"
        }
      ],
      "name": "Log",
      "type": "event"
    },
    {
      "anonymous": false,
      "inputs": [
        {
          "indexed": true,
          "internalType": "address",
          "name": "previousOwner",
          "type": "address"
        },
        {
          "indexed": true,
          "internalType": "address",
          "name": "newOwner",
          "type": "address"
        }
      ],
      "name": "OwnershipTransferred",
      "type": "event"
    },
    {
      "anonymous": false,
      "inputs": [
        {
          "indexed": true,
          "internalType": "address",
          "name": "sender",
          "type": "address"
        },
        {
          "indexed": false,
          "internalType": "uint32",
          "name": "amount",
          "type": "uint32"
        },
        {
          "indexed": false,
          "internalType": "uint256",
          "name": "refund",
          "type": "uint256"
        }
      ],
      "name": "Sell",
      "type": "event"
    },
    {
      "anonymous": false,
      "inputs": [
        {
          "indexed": true,
          "internalType": "address",
          "name": "sender",
          "type": "address"
        },
        {
          "indexed": false,
          "internalType": "uint32",
          "name": "amount",
          "type": "uint32"
        }
      ],
      "name": "Tradein",
      "type": "event"
    },
    {
      "anonymous": false,
      "inputs": [
        {
          "indexed": true,
          "internalType": "address",
          "name": "from",
          "type": "address"
        },
        {
          "indexed": true,
          "internalType": "address",
          "name": "to",
          "type": "address"
        },
        {
          "indexed": false,
          "internalType": "uint256",
          "name": "value",
          "type": "uint256"
        }
      ],
      "name": "Transfer",
      "type": "event"
    },
    {
      "stateMutability": "payable",
      "type": "fallback"
    },
    {
      "inputs": [
        {
          "internalType": "address",
          "name": "owner",
          "type": "address"
        },
        {
          "internalType": "address",
          "name": "spender",
          "type": "address"
        }
      ],
      "name": "allowance",
      "outputs": [
        {
          "internalType": "uint256",
          "name": "",
          "type": "uint256"
        }
      ],
      "stateMutability": "view",
      "type": "function"
    },
    {
      "inputs": [
        {
          "internalType": "address",
          "name": "spender",
          "type": "address"
        },
        {
          "internalType": "uint256",
          "name": "amount",
          "type": "uint256"
        }
      ],
      "name": "approve",
      "outputs": [
        {
          "internalType": "bool",
          "name": "",
          "type": "bool"
        }
      ],
      "stateMutability": "nonpayable",
      "type": "function"
    },
    {
      "inputs": [
        {
          "internalType": "address",
          "name": "account",
          "type": "address"
        }
      ],
      "name": "balanceOf",
      "outputs": [
        {
          "internalType": "uint256",
          "name": "",
          "type": "uint256"
        }
      ],
      "stateMutability": "view",
      "type": "function"
    },
    {
      "inputs": [
        {
          "internalType": "uint256",
          "name": "_supply",
          "type": "uint256"
        },
        {
          "internalType": "uint256",
          "name": "_reserveBalance",
          "type": "uint256"
        },
        {
          "internalType": "uint32",
          "name": "_reserveRatio",
          "type": "uint32"
        },
        {
          "internalType": "uint32",
          "name": "_amount",
          "type": "uint32"
        }
      ],
      "name": "calculatePriceForNTokens",
      "outputs": [
        {
          "internalType": "uint256",
          "name": "",
          "type": "uint256"
        }
      ],
      "stateMutability": "nonpayable",
      "type": "function"
    },
    {
      "inputs": [
        {
          "internalType": "uint256",
          "name": "_supply",
          "type": "uint256"
        },
        {
          "internalType": "uint256",
          "name": "_reserveBalance",
          "type": "uint256"
        },
        {
          "internalType": "uint32",
          "name": "_reserveRatio",
          "type": "uint32"
        },
        {
          "internalType": "uint256",
          "name": "_depositAmount",
          "type": "uint256"
        }
      ],
      "name": "calculatePurchaseReturn",
      "outputs": [
        {
          "internalType": "uint32",
          "name": "",
          "type": "uint32"
        }
      ],
      "stateMutability": "nonpayable",
      "type": "function"
    },
    {
      "inputs": [
        {
          "internalType": "uint256",
          "name": "_supply",
          "type": "uint256"
        },
        {
          "internalType": "uint256",
          "name": "_reserveBalance",
          "type": "uint256"
        },
        {
          "internalType": "uint32",
          "name": "_reserveRatio",
          "type": "uint32"
        },
        {
          "internalType": "uint256",
          "name": "_sellAmount",
          "type": "uint256"
        }
      ],
      "name": "calculateSaleReturn",
      "outputs": [
        {
          "internalType": "uint256",
          "name": "",
          "type": "uint256"
        }
      ],
      "stateMutability": "nonpayable",
      "type": "function"
    },
    {
      "inputs": [],
      "name": "decimals",
      "outputs": [
        {
          "internalType": "uint8",
          "name": "",
          "type": "uint8"
        }
      ],
      "stateMutability": "view",
      "type": "function"
    },
    {
      "inputs": [
        {
          "internalType": "address",
          "name": "spender",
          "type": "address"
        },
        {
          "internalType": "uint256",
          "name": "subtractedValue",
          "type": "uint256"
        }
      ],
      "name": "decreaseAllowance",
      "outputs": [
        {
          "internalType": "bool",
          "name": "",
          "type": "bool"
        }
      ],
      "stateMutability": "nonpayable",
      "type": "function"
    },
    {
      "inputs": [
        {
          "internalType": "address",
          "name": "spender",
          "type": "address"
        },
        {
          "internalType": "uint256",
          "name": "addedValue",
          "type": "uint256"
        }
      ],
      "name": "increaseAllowance",
      "outputs": [
        {
          "internalType": "bool",
          "name": "",
          "type": "bool"
        }
      ],
      "stateMutability": "nonpayable",
      "type": "function"
    },
    {
      "inputs": [],
      "name": "maxTokenCount",
      "outputs": [
        {
          "internalType": "uint32",
          "name": "",
          "type": "uint32"
        }
      ],
      "stateMutability": "view",
      "type": "function"
    },
    {
      "inputs": [],
      "name": "name",
      "outputs": [
        {
          "internalType": "string",
          "name": "",
          "type": "string"
        }
      ],
      "stateMutability": "view",
      "type": "function"
    },
    {
      "inputs": [],
      "name": "owner",
      "outputs": [
        {
          "internalType": "address",
          "name": "",
          "type": "address"
        }
      ],
      "stateMutability": "view",
      "type": "function"
    },
    {
      "inputs": [],
      "name": "renounceOwnership",
      "outputs": [],
      "stateMutability": "nonpayable",
      "type": "function"
    },
    {
      "inputs": [],
      "name": "reserveBalance",
      "outputs": [
        {
          "internalType": "uint256",
          "name": "",
          "type": "uint256"
        }
      ],
      "stateMutability": "view",
      "type": "function"
    },
    {
      "inputs": [],
      "name": "reserveRatio",
      "outputs": [
        {
          "internalType": "uint256",
          "name": "",
          "type": "uint256"
        }
      ],
      "stateMutability": "view",
      "type": "function"
    },
    {
      "inputs": [],
      "name": "symbol",
      "outputs": [
        {
          "internalType": "string",
          "name": "",
          "type": "string"
        }
      ],
      "stateMutability": "view",
      "type": "function"
    },
    {
      "inputs": [],
      "name": "totalSupply",
      "outputs": [
        {
          "internalType": "uint256",
          "name": "",
          "type": "uint256"
        }
      ],
      "stateMutability": "view",
      "type": "function"
    },
    {
      "inputs": [],
      "name": "tradeinCount",
      "outputs": [
        {
          "internalType": "uint32",
          "name": "",
          "type": "uint32"
        }
      ],
      "stateMutability": "view",
      "type": "function"
    },
    {
      "inputs": [
        {
          "internalType": "address",
          "name": "recipient",
          "type": "address"
        },
        {
          "internalType": "uint256",
          "name": "amount",
          "type": "uint256"
        }
      ],
      "name": "transfer",
      "outputs": [
        {
          "internalType": "bool",
          "name": "",
          "type": "bool"
        }
      ],
      "stateMutability": "nonpayable",
      "type": "function"
    },
    {
      "inputs": [
        {
          "internalType": "address",
          "name": "sender",
          "type": "address"
        },
        {
          "internalType": "address",
          "name": "recipient",
          "type": "address"
        },
        {
          "internalType": "uint256",
          "name": "amount",
          "type": "uint256"
        }
      ],
      "name": "transferFrom",
      "outputs": [
        {
          "internalType": "bool",
          "name": "",
          "type": "bool"
        }
      ],
      "stateMutability": "nonpayable",
      "type": "function"
    },
    {
      "inputs": [
        {
          "internalType": "address",
          "name": "newOwner",
          "type": "address"
        }
      ],
      "name": "transferOwnership",
      "outputs": [],
      "stateMutability": "nonpayable",
      "type": "function"
    },
    {
      "inputs": [],
      "name": "version",
      "outputs": [
        {
          "internalType": "string",
          "name": "",
          "type": "string"
        }
      ],
      "stateMutability": "view",
      "type": "function"
    },
    {
      "inputs": [],
      "name": "buy",
      "outputs": [],
      "stateMutability": "payable",
      "type": "function"
    },
    {
      "inputs": [
        {
          "internalType": "uint32",
          "name": "_amount",
          "type": "uint32"
        }
      ],
      "name": "sell",
      "outputs": [],
      "stateMutability": "nonpayable",
      "type": "function"
    },
    {
      "inputs": [
        {
          "internalType": "uint32",
          "name": "_amount",
          "type": "uint32"
        }
      ],
      "name": "tradein",
      "outputs": [],
      "stateMutability": "nonpayable",
      "type": "function"
    },
    {
      "inputs": [],
      "name": "getCurrentPrice",
      "outputs": [
        {
          "internalType": "uint256",
          "name": "price",
          "type": "uint256"
        }
      ],
      "stateMutability": "nonpayable",
      "type": "function"
    },
    {
      "inputs": [
        {
          "internalType": "uint32",
          "name": "_amountProduct",
          "type": "uint32"
        }
      ],
      "name": "getPriceForN",
      "outputs": [
        {
          "internalType": "uint256",
          "name": "price",
          "type": "uint256"
        }
      ],
      "stateMutability": "nonpayable",
      "type": "function"
    },
    {
      "inputs": [
        {
          "internalType": "uint256",
          "name": "_amountReserve",
          "type": "uint256"
        }
      ],
      "name": "calculateBuyReturn",
      "outputs": [
        {
          "internalType": "uint32",
          "name": "mintAmount",
          "type": "uint32"
        }
      ],
      "stateMutability": "nonpayable",
      "type": "function"
    },
    {
      "inputs": [
        {
          "internalType": "uint32",
          "name": "_amountProduct",
          "type": "uint32"
        }
      ],
      "name": "calculateSellReturn",
      "outputs": [
        {
          "internalType": "uint256",
          "name": "soldAmount",
          "type": "uint256"
        }
      ],
      "stateMutability": "nonpayable",
      "type": "function"
    },
    {
      "inputs": [],
      "name": "getTradeinCount",
      "outputs": [
        {
          "internalType": "uint32",
          "name": "_amountTraded",
          "type": "uint32"
        }
      ],
      "stateMutability": "nonpayable",
      "type": "function"
    }
  ],
  "bytecode": "0x60806040526040518060400160405280600381526020017f302e33000000000000000000000000000000000000000000000000000000000081525060069080519060200190620000519291906200137f565b50670494654067e100006087556000608960046101000a81548163ffffffff021916908363ffffffff1602179055503480156200008d57600080fd5b50604051620049293803806200492983398181016040526040811015620000b357600080fd5b8101908080519060200190929190805190602001909291905050506040518060400160405280600c81526020017f50726f64756374546f6b656e00000000000000000000000000000000000000008152506040518060200160405280600081525081600390805190602001906200012c9291906200137f565b508060049080519060200190620001459291906200137f565b506012600560006101000a81548160ff021916908360ff16021790555050506000620001766200110b60201b60201c565b905080600560016101000a81548173ffffffffffffffffffffffffffffffffffffffff021916908373ffffffffffffffffffffffffffffffffffffffff1602179055508073ffffffffffffffffffffffffffffffffffffffff16600073ffffffffffffffffffffffffffffffffffffffff167f8be0079c531659141344cd1fd0a4f28419497f9722a3daafe3b4186f6b6457e060405160405180910390a350701c35fedd14ffffffffffffffffffffffff60076020608081106200023657fe5b0181905550701b0ce43b323fffffffffffffffffffffff60076021608081106200025c57fe5b01819055507019f0028ec1ffffffffffffffffffffffff60076022608081106200028257fe5b01819055507018ded91f0e7fffffffffffffffffffffff6007602360808110620002a857fe5b01819055507017d8ec7f0417ffffffffffffffffffffff6007602460808110620002ce57fe5b01819055507016ddc6556cdbffffffffffffffffffffff6007602560808110620002f457fe5b01819055507015ecf52776a1ffffffffffffffffffffff60076026608081106200031a57fe5b01819055507015060c256cb2ffffffffffffffffffffff60076027608081106200034057fe5b0181905550701428a2f98d72ffffffffffffffffffffff60076028608081106200036657fe5b01819055507013545598e5c23fffffffffffffffffffff60076029608081106200038c57fe5b0181905550701288c4161ce1dfffffffffffffffffffff6007602a60808110620003b257fe5b01819055507011c592761c666fffffffffffffffffffff6007602b60808110620003d857fe5b018190555070110a688680a757ffffffffffffffffffff6007602c60808110620003fe57fe5b0181905550701056f1b5bedf77ffffffffffffffffffff6007602d608081106200042457fe5b0181905550700faadceceeff8bffffffffffffffffffff6007602e608081106200044a57fe5b0181905550700f05dc6b27edadffffffffffffffffffff6007602f608081106200047057fe5b0181905550700e67a5a25da4107fffffffffffffffffff60076030608081106200049657fe5b0181905550700dcff115b14eedffffffffffffffffffff6007603160808110620004bc57fe5b0181905550700d3e7a392431239fffffffffffffffffff6007603260808110620004e257fe5b0181905550700cb2ff529eb71e4fffffffffffffffffff60076033608081106200050857fe5b0181905550700c2d415c3db974afffffffffffffffffff60076034608081106200052e57fe5b0181905550700bad03e7d883f69bffffffffffffffffff60076035608081106200055457fe5b0181905550700b320d03b2c343d5ffffffffffffffffff60076036608081106200057a57fe5b0181905550700abc25204e02828dffffffffffffffffff6007603760808110620005a057fe5b0181905550700a4b16f74ee4bb207fffffffffffffffff6007603860808110620005c657fe5b01819055507009deaf736ac1f569ffffffffffffffffff6007603960808110620005ec57fe5b0181905550700976bd9952c7aa957fffffffffffffffff6007603a608081106200061257fe5b01819055507009131271922eaa606fffffffffffffffff6007603b608081106200063857fe5b01819055507008b380f3558668c46fffffffffffffffff6007603c608081106200065e57fe5b0181905550700857ddf0117efa215bffffffffffffffff6007603d608081106200068457fe5b01819055507007ffffffffffffffffffffffffffffffff6007603e60808110620006aa57fe5b01819055507007abbf6f6abb9d087fffffffffffffffff6007603f60808110620006d057fe5b018190555070075af62cbac95f7dfa7fffffffffffffff6007604060808110620006f657fe5b018190555070070d7fb7452e187ac13fffffffffffffff60076041608081106200071c57fe5b01819055507006c3390ecc8af379295fffffffffffffff60076042608081106200074257fe5b018190555070067c00a3b07ffc01fd6fffffffffffffff60076043608081106200076857fe5b0181905550700637b647c39cbb9d3d27ffffffffffffff60076044608081106200078e57fe5b01819055507005f63b1fc104dbd39587ffffffffffffff6007604560808110620007b457fe5b01819055507005b771955b36e12f7235ffffffffffffff6007604660808110620007da57fe5b018190555070057b3d49dda84556d6f6ffffffffffffff60076047608081106200080057fe5b018190555070054183095b2c8ececf30ffffffffffffff60076048608081106200082657fe5b018190555070050a28be635ca2b888f77fffffffffffff60076049608081106200084c57fe5b01819055507004d5156639708c9db33c3fffffffffffff6007604a608081106200087257fe5b01819055507004a23105873875bd52dfdfffffffffffff6007604b608081106200089857fe5b0181905550700471649d87199aa990756fffffffffffff6007604c60808110620008be57fe5b01819055507004429a21a029d4c1457cfbffffffffffff6007604d60808110620008e457fe5b0181905550700415bc6d6fb7dd71af2cb3ffffffffffff6007604e608081106200090a57fe5b01819055507003eab73b3bbfe282243ce1ffffffffffff6007604f608081106200093057fe5b01819055507003c1771ac9fb6b4c18e229ffffffffffff60076050608081106200095657fe5b0181905550700399e96897690418f785257fffffffffff60076051608081106200097c57fe5b0181905550700373fc456c53bb779bf0ea9fffffffffff6007605260808110620009a257fe5b018190555070034f9e8e490c48e67e6ab8bfffffffffff6007605360808110620009c857fe5b018190555070032cbfd4a7adc790560b3337ffffffffff6007605460808110620009ee57fe5b018190555070030b50570f6e5d2acca94613ffffffffff600760556080811062000a1457fe5b01819055507002eb40f9f620fda6b56c2861ffffffffff600760566080811062000a3a57fe5b01819055507002cc8340ecb0d0f520a6af58ffffffffff600760576080811062000a6057fe5b01819055507002af09481380a0a35cf1ba02ffffffffff600760586080811062000a8657fe5b0181905550700292c5bdd3b92ec810287b1b3fffffffff600760596080811062000aac57fe5b0181905550700277abdcdab07d5a77ac6d6b9fffffffff6007605a6080811062000ad257fe5b018190555070025daf6654b1eaa55fd64df5efffffffff6007605b6080811062000af857fe5b0181905550700244c49c648baa98192dce88b7ffffffff6007605c6080811062000b1e57fe5b018190555070022ce03cd5619a311b2471268bffffffff6007605d6080811062000b4457fe5b0181905550700215f77c045fbe885654a44a0fffffffff6007605e6080811062000b6a57fe5b01819055507001ffffffffffffffffffffffffffffffff6007605f6080811062000b9057fe5b01819055507001eaefdbdaaee7421fc4d3ede5ffffffff600760606080811062000bb657fe5b01819055507001d6bd8b2eb257df7e8ca57b09bfffffff600760616080811062000bdc57fe5b01819055507001c35fedd14b861eb0443f7f133fffffff600760626080811062000c0257fe5b01819055507001b0ce43b322bcde4a56e8ada5afffffff600760636080811062000c2857fe5b018190555070019f0028ec1fff007f5a195a39dfffffff600760646080811062000c4e57fe5b018190555070018ded91f0e72ee74f49b15ba527ffffff600760656080811062000c7457fe5b018190555070017d8ec7f04136f4e5615fd41a63ffffff600760666080811062000c9a57fe5b018190555070016ddc6556cdb84bdc8d12d22e6fffffff600760676080811062000cc057fe5b018190555070015ecf52776a1155b5bd8395814f7fffff600760686080811062000ce657fe5b018190555070015060c256cb23b3b3cc3754cf40ffffff600760696080811062000d0c57fe5b01819055507001428a2f98d728ae223ddab715be3fffff6007606a6080811062000d3257fe5b018190555070013545598e5c23276ccf0ede68034fffff6007606b6080811062000d5857fe5b01819055507001288c4161ce1d6f54b7f61081194fffff6007606c6080811062000d7e57fe5b018190555070011c592761c666aa641d5a01a40f17ffff6007606d6080811062000da457fe5b0181905550700110a688680a7530515f3e6e6cfdcdffff6007606e6080811062000dca57fe5b01819055507001056f1b5bedf75c6bcb2ce8aed428ffff6007606f6080811062000df057fe5b01819055506ffaadceceeff8a0890f3875f008277fff600760706080811062000e1557fe5b01819055506ff05dc6b27edad306388a600f6ba0bfff600760716080811062000e3a57fe5b01819055506fe67a5a25da41063de1495d5b18cdbfff600760726080811062000e5f57fe5b01819055506fdcff115b14eedde6fc3aa5353f2e4fff600760736080811062000e8457fe5b01819055506fd3e7a3924312399f9aae2e0f868f8fff600760746080811062000ea957fe5b01819055506fcb2ff529eb71e41582cccd5a1ee26fff600760756080811062000ece57fe5b01819055506fc2d415c3db974ab32a51840c0b67edff600760766080811062000ef357fe5b01819055506fbad03e7d883f69ad5b0a186184e06bff600760776080811062000f1857fe5b01819055506fb320d03b2c343d4829abd6075f0cc5ff600760786080811062000f3d57fe5b01819055506fabc25204e02828d73c6e80bcdb1a95bf600760796080811062000f6257fe5b01819055506fa4b16f74ee4bb2040a1ec6c15fbbf2df6007607a6080811062000f8757fe5b01819055506f9deaf736ac1f569deb1b5ae3f36c130f6007607b6080811062000fac57fe5b01819055506f976bd9952c7aa957f5937d790ef650376007607c6080811062000fd157fe5b01819055506f9131271922eaa6064b73a22d0bd4f2bf6007607d6080811062000ff657fe5b01819055506f8b380f3558668c46c91c49a2f8e967b96007607e608081106200101b57fe5b01819055506f857ddf0117efa215952912839f6473e66007607f608081106200104057fe5b018190555060008163ffffffff1611620010c2576040517f08c379a00000000000000000000000000000000000000000000000000000000081526004018080602001828103825260188152602001807f496e76616c6964206d617820746f6b656e20636f756e742e000000000000000081525060200191505060405180910390fd5b8163ffffffff1660888190555080608960006101000a81548163ffffffff021916908363ffffffff160217905550620011033360016200111360201b60201c565b50506200142e565b600033905090565b600073ffffffffffffffffffffffffffffffffffffffff168273ffffffffffffffffffffffffffffffffffffffff161415620011b7576040517f08c379a000000000000000000000000000000000000000000000000000000000815260040180806020018281038252601f8152602001807f45524332303a206d696e7420746f20746865207a65726f20616464726573730081525060200191505060405180910390fd5b620011cb60008383620012f160201b60201c565b620011e781600254620012f660201b620024421790919060201c565b60028190555062001245816000808573ffffffffffffffffffffffffffffffffffffffff1673ffffffffffffffffffffffffffffffffffffffff16815260200190815260200160002054620012f660201b620024421790919060201c565b6000808473ffffffffffffffffffffffffffffffffffffffff1673ffffffffffffffffffffffffffffffffffffffff168152602001908152602001600020819055508173ffffffffffffffffffffffffffffffffffffffff16600073ffffffffffffffffffffffffffffffffffffffff167fddf252ad1be2c89b69c2b068fc378daa952ba7f163c4a11628f55a4df523b3ef836040518082815260200191505060405180910390a35050565b505050565b60008082840190508381101562001375576040517f08c379a000000000000000000000000000000000000000000000000000000000815260040180806020018281038252601b8152602001807f536166654d6174683a206164646974696f6e206f766572666c6f77000000000081525060200191505060405180910390fd5b8091505092915050565b828054600181600116156101000203166002900490600052602060002090601f016020900481019282601f10620013c257805160ff1916838001178555620013f3565b82800160010185558215620013f3579182015b82811115620013f2578251825591602001919060010190620013d5565b5b50905062001402919062001406565b5090565b6200142b91905b80821115620014275760008160009055506001016200140d565b5090565b90565b6134eb806200143e6000396000f3fe6080604052600436106101d15760003560e01c8063828f3a9c116100f7578063a9059cbb11610095578063df0771fa11610064578063df0771fa14610b0a578063eb91d37e14610b41578063f2fde38b14610b6c578063f97511d314610bbd576101d2565b8063a9059cbb146109a4578063ba7a93b614610a17578063c4e627c214610a4e578063dd62ed3e14610a85576101d2565b806395d89b41116100d157806395d89b411461086c578063a10954fe146108fc578063a457c2d714610927578063a6f2ae3a1461099a576101d2565b8063828f3a9c146107415780638c1f320e1461079c5780638da5cb5b14610815576101d2565b8063313ce5671161016f57806354fd4d501161013e57806354fd4d50146105f457806363c51fbb1461068457806370a08231146106c5578063715018a61461072a576101d2565b8063313ce5671461049c57806339509351146104cd57806349f9b0f7146105405780634ffd23a7146105b3576101d2565b806318160ddd116101ab57806318160ddd1461030a578063224e4f481461033557806323b872dd1461038a57806329a00e7c1461041d576101d2565b806306fdde03146101dc578063095ea7b31461026c5780630c7d5cd8146102df576101d2565b5b6101da610c12565b005b3480156101e857600080fd5b506101f1610cf0565b6040518080602001828103825283818151815260200191508051906020019080838360005b83811015610231578082015181840152602081019050610216565b50505050905090810190601f16801561025e5780820380516001836020036101000a031916815260200191505b509250505060405180910390f35b34801561027857600080fd5b506102c56004803603604081101561028f57600080fd5b81019080803573ffffffffffffffffffffffffffffffffffffffff16906020019092919080359060200190929190505050610d92565b604051808215151515815260200191505060405180910390f35b3480156102eb57600080fd5b506102f4610db0565b6040518082815260200191505060405180910390f35b34801561031657600080fd5b5061031f610db6565b6040518082815260200191505060405180910390f35b34801561034157600080fd5b506103746004803603602081101561035857600080fd5b81019080803563ffffffff169060200190929190505050610dc0565b6040518082815260200191505060405180910390f35b34801561039657600080fd5b50610403600480360360608110156103ad57600080fd5b81019080803573ffffffffffffffffffffffffffffffffffffffff169060200190929190803573ffffffffffffffffffffffffffffffffffffffff16906020019092919080359060200190929190505050610e00565b604051808215151515815260200191505060405180910390f35b34801561042957600080fd5b5061047a6004803603608081101561044057600080fd5b810190808035906020019092919080359060200190929190803563ffffffff16906020019092919080359060200190929190505050610ed9565b604051808263ffffffff1663ffffffff16815260200191505060405180910390f35b3480156104a857600080fd5b506104b1611045565b604051808260ff1660ff16815260200191505060405180910390f35b3480156104d957600080fd5b50610526600480360360408110156104f057600080fd5b81019080803573ffffffffffffffffffffffffffffffffffffffff1690602001909291908035906020019092919050505061105c565b604051808215151515815260200191505060405180910390f35b34801561054c57600080fd5b5061059d6004803603608081101561056357600080fd5b810190808035906020019092919080359060200190929190803563ffffffff1690602001909291908035906020019092919050505061110f565b6040518082815260200191505060405180910390f35b3480156105bf57600080fd5b506105f2600480360360208110156105d657600080fd5b81019080803563ffffffff16906020019092919050505061123f565b005b34801561060057600080fd5b50610609611297565b6040518080602001828103825283818151815260200191508051906020019080838360005b8381101561064957808201518184015260208101905061062e565b50505050905090810190601f1680156106765780820380516001836020036101000a031916815260200191505b509250505060405180910390f35b34801561069057600080fd5b506106c3600480360360208110156106a757600080fd5b81019080803563ffffffff169060200190929190505050611335565b005b3480156106d157600080fd5b50610714600480360360208110156106e857600080fd5b81019080803573ffffffffffffffffffffffffffffffffffffffff169060200190929190505050611341565b6040518082815260200191505060405180910390f35b34801561073657600080fd5b5061073f611389565b005b34801561074d57600080fd5b5061077a6004803603602081101561076457600080fd5b8101908080359060200190929190505050611514565b604051808263ffffffff1663ffffffff16815260200191505060405180910390f35b3480156107a857600080fd5b506107ff600480360360808110156107bf57600080fd5b810190808035906020019092919080359060200190929190803563ffffffff169060200190929190803563ffffffff16906020019092919050505061154e565b6040518082815260200191505060405180910390f35b34801561082157600080fd5b5061082a611656565b604051808273ffffffffffffffffffffffffffffffffffffffff1673ffffffffffffffffffffffffffffffffffffffff16815260200191505060405180910390f35b34801561087857600080fd5b50610881611680565b6040518080602001828103825283818151815260200191508051906020019080838360005b838110156108c15780820151818401526020810190506108a6565b50505050905090810190601f1680156108ee5780820380516001836020036101000a031916815260200191505b509250505060405180910390f35b34801561090857600080fd5b50610911611722565b6040518082815260200191505060405180910390f35b34801561093357600080fd5b506109806004803603604081101561094a57600080fd5b81019080803573ffffffffffffffffffffffffffffffffffffffff16906020019092919080359060200190929190505050611728565b604051808215151515815260200191505060405180910390f35b6109a2610c12565b005b3480156109b057600080fd5b506109fd600480360360408110156109c757600080fd5b81019080803573ffffffffffffffffffffffffffffffffffffffff169060200190929190803590602001909291905050506117f5565b604051808215151515815260200191505060405180910390f35b348015610a2357600080fd5b50610a2c611813565b604051808263ffffffff1663ffffffff16815260200191505060405180910390f35b348015610a5a57600080fd5b50610a63611829565b604051808263ffffffff1663ffffffff16815260200191505060405180910390f35b348015610a9157600080fd5b50610af460048036036040811015610aa857600080fd5b81019080803573ffffffffffffffffffffffffffffffffffffffff169060200190929190803573ffffffffffffffffffffffffffffffffffffffff16906020019092919050505061183f565b6040518082815260200191505060405180910390f35b348015610b1657600080fd5b50610b1f6118c6565b604051808263ffffffff1663ffffffff16815260200191505060405180910390f35b348015610b4d57600080fd5b50610b566118e0565b6040518082815260200191505060405180910390f35b348015610b7857600080fd5b50610bbb60048036036020811015610b8f57600080fd5b81019080803573ffffffffffffffffffffffffffffffffffffffff169060200190929190505050611919565b005b348015610bc957600080fd5b50610bfc60048036036020811015610be057600080fd5b81019080803563ffffffff169060200190929190505050611b29565b6040518082815260200191505060405180910390f35b60003411610c88576040517f08c379a000000000000000000000000000000000000000000000000000000000815260040180806020018281038252601e8152602001807f4d7573742073656e6420657468657220746f2062757920746f6b656e732e000081525060200191505060405180910390fd5b600080610c9434611b63565b8163ffffffff16915080925081935050503373ffffffffffffffffffffffffffffffffffffffff166108fc829081150290604051600060405180830381858888f19350505050158015610ceb573d6000803e3d6000fd5b505050565b606060038054600181600116156101000203166002900480601f016020809104026020016040519081016040528092919081815260200182805460018160011615610100020316600290048015610d885780601f10610d5d57610100808354040283529160200191610d88565b820191906000526020600020905b815481529060010190602001808311610d6b57829003601f168201915b5050505050905090565b6000610da6610d9f611df2565b8484611dfa565b6001905092915050565b60885481565b6000600254905090565b6000610df9608960049054906101000a900463ffffffff1663ffffffff16610de6610db6565b016087546088548563ffffffff1661110f565b9050919050565b6000610e0d848484611ff1565b610ece84610e19611df2565b610ec9856040518060600160405280602881526020016133ff60289139600160008b73ffffffffffffffffffffffffffffffffffffffff1673ffffffffffffffffffffffffffffffffffffffff1681526020019081526020016000206000610e7f611df2565b73ffffffffffffffffffffffffffffffffffffffff1673ffffffffffffffffffffffffffffffffffffffff168152602001908152602001600020546122b29092919063ffffffff16565b611dfa565b600190509392505050565b60008085118015610eea5750600084115b8015610efc575060008363ffffffff16115b8015610f175750620f424063ffffffff168363ffffffff1611155b610f2057600080fd5b6000821415610f32576000905061103d565b620f424063ffffffff168363ffffffff161415610f7557610f6e84610f60848861237290919063ffffffff16565b6123f890919063ffffffff16565b905061103d565b6000806000610f8d878661244290919063ffffffff16565b9050610f9e818888620f42406124ca565b80935081945050507fdd970dd9b5bfe707922155b058a407655cb18288b807e2216442bca8ad83d6b5836040518080602001838152602001828103825260188152602001807f526573756c74206f6620706f7765722066756e6374696f6e00000000000000008152506020019250505060405180910390a160008260ff1661102f858b61237290919063ffffffff16565b901c90508881039450505050505b949350505050565b6000600560009054906101000a900460ff16905090565b6000611105611069611df2565b84611100856001600061107a611df2565b73ffffffffffffffffffffffffffffffffffffffff1673ffffffffffffffffffffffffffffffffffffffff16815260200190815260200160002060008973ffffffffffffffffffffffffffffffffffffffff1673ffffffffffffffffffffffffffffffffffffffff1681526020019081526020016000205461244290919063ffffffff16565b611dfa565b6001905092915050565b600080851180156111205750600084115b8015611132575060008363ffffffff16115b801561114d5750620f424063ffffffff168363ffffffff1611155b80156111595750848211155b61116257600080fd5b60008214156111745760009050611237565b8482141561118457839050611237565b620f424063ffffffff168363ffffffff1614156111c7576111c0856111b2848761237290919063ffffffff16565b6123f890919063ffffffff16565b9050611237565b600080600084880390506111e08882620f4240896124ca565b809350819450505060006111fd848961237290919063ffffffff16565b905060008360ff1689901b905061122f85611221838561252290919063ffffffff16565b6123f890919063ffffffff16565b955050505050505b949350505050565b600061124a8261256c565b90503373ffffffffffffffffffffffffffffffffffffffff166108fc829081150290604051600060405180830381858888f19350505050158015611292573d6000803e3d6000fd5b505050565b60068054600181600116156101000203166002900480601f01602080910402602001604051908101604052809291908181526020018280546001816001161561010002031660029004801561132d5780601f106113025761010080835404028352916020019161132d565b820191906000526020600020905b81548152906001019060200180831161131057829003601f168201915b505050505081565b61133e81612710565b50565b60008060008373ffffffffffffffffffffffffffffffffffffffff1673ffffffffffffffffffffffffffffffffffffffff168152602001908152602001600020549050919050565b611391611df2565b73ffffffffffffffffffffffffffffffffffffffff16600560019054906101000a900473ffffffffffffffffffffffffffffffffffffffff1673ffffffffffffffffffffffffffffffffffffffff1614611453576040517f08c379a00000000000000000000000000000000000000000000000000000000081526004018080602001828103825260208152602001807f4f776e61626c653a2063616c6c6572206973206e6f7420746865206f776e657281525060200191505060405180910390fd5b600073ffffffffffffffffffffffffffffffffffffffff16600560019054906101000a900473ffffffffffffffffffffffffffffffffffffffff1673ffffffffffffffffffffffffffffffffffffffff167f8be0079c531659141344cd1fd0a4f28419497f9722a3daafe3b4186f6b6457e060405160405180910390a36000600560016101000a81548173ffffffffffffffffffffffffffffffffffffffff021916908373ffffffffffffffffffffffffffffffffffffffff160217905550565b6000611547608960049054906101000a900463ffffffff1663ffffffff1661153a610db6565b0160875460885485610ed9565b9050919050565b6000808511801561155f5750600084115b8015611571575060008363ffffffff16115b801561158c5750620f424063ffffffff168363ffffffff1611155b61159557600080fd5b60008263ffffffff1614156115ad576000905061164e565b620f424063ffffffff168363ffffffff1614156115f6576115ef856115e1868563ffffffff1661237290919063ffffffff16565b6123f890919063ffffffff16565b905061164e565b600080611620611615888663ffffffff1661244290919063ffffffff16565b88620f4240886124ca565b809250819350505060008160ff16611641848961237290919063ffffffff16565b901c905086810393505050505b949350505050565b6000600560019054906101000a900473ffffffffffffffffffffffffffffffffffffffff16905090565b606060048054600181600116156101000203166002900480601f0160208091040260200160405190810160405280929190818152602001828054600181600116156101000203166002900480156117185780601f106116ed57610100808354040283529160200191611718565b820191906000526020600020905b8154815290600101906020018083116116fb57829003601f168201915b5050505050905090565b60875481565b60006117eb611735611df2565b846117e685604051806060016040528060258152602001613491602591396001600061175f611df2565b73ffffffffffffffffffffffffffffffffffffffff1673ffffffffffffffffffffffffffffffffffffffff16815260200190815260200160002060008a73ffffffffffffffffffffffffffffffffffffffff1673ffffffffffffffffffffffffffffffffffffffff168152602001908152602001600020546122b29092919063ffffffff16565b611dfa565b6001905092915050565b6000611809611802611df2565b8484611ff1565b6001905092915050565b608960049054906101000a900463ffffffff1681565b608960009054906101000a900463ffffffff1681565b6000600160008473ffffffffffffffffffffffffffffffffffffffff1673ffffffffffffffffffffffffffffffffffffffff16815260200190815260200160002060008373ffffffffffffffffffffffffffffffffffffffff1673ffffffffffffffffffffffffffffffffffffffff16815260200190815260200160002054905092915050565b6000608960049054906101000a900463ffffffff16905090565b6000611914608960049054906101000a900463ffffffff1663ffffffff16611906610db6565b01608754608854600161154e565b905090565b611921611df2565b73ffffffffffffffffffffffffffffffffffffffff16600560019054906101000a900473ffffffffffffffffffffffffffffffffffffffff1673ffffffffffffffffffffffffffffffffffffffff16146119e3576040517f08c379a00000000000000000000000000000000000000000000000000000000081526004018080602001828103825260208152602001807f4f776e61626c653a2063616c6c6572206973206e6f7420746865206f776e657281525060200191505060405180910390fd5b600073ffffffffffffffffffffffffffffffffffffffff168173ffffffffffffffffffffffffffffffffffffffff161415611a69576040517f08c379a00000000000000000000000000000000000000000000000000000000081526004018080602001828103825260268152602001806133706026913960400191505060405180910390fd5b8073ffffffffffffffffffffffffffffffffffffffff16600560019054906101000a900473ffffffffffffffffffffffffffffffffffffffff1673ffffffffffffffffffffffffffffffffffffffff167f8be0079c531659141344cd1fd0a4f28419497f9722a3daafe3b4186f6b6457e060405160405180910390a380600560016101000a81548173ffffffffffffffffffffffffffffffffffffffff021916908373ffffffffffffffffffffffffffffffffffffffff16021790555050565b6000611b5c608960049054906101000a900463ffffffff1663ffffffff16611b4f610db6565b016087546088548561154e565b9050919050565b600080608960009054906101000a900463ffffffff1663ffffffff16608960049054906101000a900463ffffffff1663ffffffff16611ba0610db6565b0110611c14576040517f08c379a000000000000000000000000000000000000000000000000000000000815260040180806020018281038252601e8152602001807f536f7272792c207468697320746f6b656e20697320736f6c64206f75742e000081525060200191505060405180910390fd5b60008311611c8a576040517f08c379a00000000000000000000000000000000000000000000000000000000081526004018080602001828103825260198152602001807f4465706f736974206d757374206265206e6f6e2d7a65726f2e0000000000000081525060200191505060405180910390fd5b6000611c9584611514565b9050611cc9608960049054906101000a900463ffffffff1663ffffffff16611cbb610db6565b61252290919063ffffffff16565b608960009054906101000a900463ffffffff160363ffffffff168163ffffffff161115611d3957611d22608960049054906101000a900463ffffffff1663ffffffff16611d14610db6565b61252290919063ffffffff16565b608960009054906101000a900463ffffffff160390505b6000611d4482611b29565b9050611d56338363ffffffff166128b2565b611d6b8160875461244290919063ffffffff16565b6087819055503373ffffffffffffffffffffffffffffffffffffffff167f5b55159a377d86da80a65140d62d994ddbb2cbd4bb2d1b59cb0827fecbe47cab8383604051808363ffffffff1663ffffffff1681526020018281526020019250505060405180910390a281611de7828761252290919063ffffffff16565b935093505050915091565b600033905090565b600073ffffffffffffffffffffffffffffffffffffffff168373ffffffffffffffffffffffffffffffffffffffff161415611e80576040517f08c379a000000000000000000000000000000000000000000000000000000000815260040180806020018281038252602481526020018061346d6024913960400191505060405180910390fd5b600073ffffffffffffffffffffffffffffffffffffffff168273ffffffffffffffffffffffffffffffffffffffff161415611f06576040517f08c379a00000000000000000000000000000000000000000000000000000000081526004018080602001828103825260228152602001806133966022913960400191505060405180910390fd5b80600160008573ffffffffffffffffffffffffffffffffffffffff1673ffffffffffffffffffffffffffffffffffffffff16815260200190815260200160002060008473ffffffffffffffffffffffffffffffffffffffff1673ffffffffffffffffffffffffffffffffffffffff168152602001908152602001600020819055508173ffffffffffffffffffffffffffffffffffffffff168373ffffffffffffffffffffffffffffffffffffffff167f8c5be1e5ebec7d5bd14f71427d1e84f3dd0314c0f7b2291e5b200ac8c7c3b925836040518082815260200191505060405180910390a3505050565b600073ffffffffffffffffffffffffffffffffffffffff168373ffffffffffffffffffffffffffffffffffffffff161415612077576040517f08c379a00000000000000000000000000000000000000000000000000000000081526004018080602001828103825260258152602001806134486025913960400191505060405180910390fd5b600073ffffffffffffffffffffffffffffffffffffffff168273ffffffffffffffffffffffffffffffffffffffff1614156120fd576040517f08c379a000000000000000000000000000000000000000000000000000000000815260040180806020018281038252602381526020018061332b6023913960400191505060405180910390fd5b612108838383612a79565b612173816040518060600160405280602681526020016133b8602691396000808773ffffffffffffffffffffffffffffffffffffffff1673ffffffffffffffffffffffffffffffffffffffff168152602001908152602001600020546122b29092919063ffffffff16565b6000808573ffffffffffffffffffffffffffffffffffffffff1673ffffffffffffffffffffffffffffffffffffffff16815260200190815260200160002081905550612206816000808573ffffffffffffffffffffffffffffffffffffffff1673ffffffffffffffffffffffffffffffffffffffff1681526020019081526020016000205461244290919063ffffffff16565b6000808473ffffffffffffffffffffffffffffffffffffffff1673ffffffffffffffffffffffffffffffffffffffff168152602001908152602001600020819055508173ffffffffffffffffffffffffffffffffffffffff168373ffffffffffffffffffffffffffffffffffffffff167fddf252ad1be2c89b69c2b068fc378daa952ba7f163c4a11628f55a4df523b3ef836040518082815260200191505060405180910390a3505050565b600083831115829061235f576040517f08c379a00000000000000000000000000000000000000000000000000000000081526004018080602001828103825283818151815260200191508051906020019080838360005b83811015612324578082015181840152602081019050612309565b50505050905090810190601f1680156123515780820380516001836020036101000a031916815260200191505b509250505060405180910390fd5b5060008385039050809150509392505050565b60008083141561238557600090506123f2565b600082840290508284828161239657fe5b04146123ed576040517f08c379a00000000000000000000000000000000000000000000000000000000081526004018080602001828103825260218152602001806133de6021913960400191505060405180910390fd5b809150505b92915050565b600061243a83836040518060400160405280601a81526020017f536166654d6174683a206469766973696f6e206279207a65726f000000000000815250612a7e565b905092915050565b6000808284019050838110156124c0576040517f08c379a000000000000000000000000000000000000000000000000000000000815260040180806020018281038252601b8152602001807f536166654d6174683a206164646974696f6e206f766572666c6f77000000000081525060200191505060405180910390fd5b8091505092915050565b60008060008363ffffffff168563ffffffff166124e78989612b44565b02816124ef57fe5b04905060006124fd82612c91565b905061251281607f0360ff1683901c82612d46565b8193509350505094509492505050565b600061256483836040518060400160405280601e81526020017f536166654d6174683a207375627472616374696f6e206f766572666c6f7700008152506122b2565b905092915050565b6000808263ffffffff16116125e9576040517f08c379a00000000000000000000000000000000000000000000000000000000081526004018080602001828103825260188152602001807f416d6f756e74206d757374206265206e6f6e2d7a65726f2e000000000000000081525060200191505060405180910390fd5b8163ffffffff166125f933611341565b101561266d576040517f08c379a000000000000000000000000000000000000000000000000000000000815260040180806020018281038252601c8152602001807f496e73756666696369656e7420746f6b656e7320746f2073656c6c2e0000000081525060200191505060405180910390fd5b600061267883610dc0565b905061268f8160875461252290919063ffffffff16565b6087819055506126a5338463ffffffff166130e4565b3373ffffffffffffffffffffffffffffffffffffffff167f84c8d08e5480cf09cbf77bc575dc4e63845522693c34094f04129a4dedb7abd78483604051808363ffffffff1663ffffffff1681526020018281526020019250505060405180910390a280915050919050565b60008163ffffffff161161278c576040517f08c379a00000000000000000000000000000000000000000000000000000000081526004018080602001828103825260188152602001807f416d6f756e74206d757374206265206e6f6e2d7a65726f2e000000000000000081525060200191505060405180910390fd5b8063ffffffff1661279c33611341565b1015612810576040517f08c379a000000000000000000000000000000000000000000000000000000000815260040180806020018281038252601c8152602001807f496e73756666696369656e7420746f6b656e7320746f206275726e2e0000000081525060200191505060405180910390fd5b612820338263ffffffff166130e4565b80608960049054906101000a900463ffffffff1601608960046101000a81548163ffffffff021916908363ffffffff1602179055503373ffffffffffffffffffffffffffffffffffffffff167fe600c25f82e9bac8f9f1663725540d6cd442845726820fd5bee41b66c4bf59be82604051808263ffffffff1663ffffffff16815260200191505060405180910390a250565b600073ffffffffffffffffffffffffffffffffffffffff168273ffffffffffffffffffffffffffffffffffffffff161415612955576040517f08c379a000000000000000000000000000000000000000000000000000000000815260040180806020018281038252601f8152602001807f45524332303a206d696e7420746f20746865207a65726f20616464726573730081525060200191505060405180910390fd5b61296160008383612a79565b6129768160025461244290919063ffffffff16565b6002819055506129cd816000808573ffffffffffffffffffffffffffffffffffffffff1673ffffffffffffffffffffffffffffffffffffffff1681526020019081526020016000205461244290919063ffffffff16565b6000808473ffffffffffffffffffffffffffffffffffffffff1673ffffffffffffffffffffffffffffffffffffffff168152602001908152602001600020819055508173ffffffffffffffffffffffffffffffffffffffff16600073ffffffffffffffffffffffffffffffffffffffff167fddf252ad1be2c89b69c2b068fc378daa952ba7f163c4a11628f55a4df523b3ef836040518082815260200191505060405180910390a35050565b505050565b60008083118290612b2a576040517f08c379a00000000000000000000000000000000000000000000000000000000081526004018080602001828103825283818151815260200191508051906020019080838360005b83811015612aef578082015181840152602081019050612ad4565b50505050905090810190601f168015612b1c5780820380516001836020036101000a031916815260200191505b509250505060405180910390fd5b506000838581612b3657fe5b049050809150509392505050565b60007001ffffffffffffffffffffffffffffffff831115612b6157fe5b60008090506000836f80000000000000000000000000000000860281612b8357fe5b0490507001000000000000000000000000000000008110612be7576000612bc26f800000000000000000000000000000008381612bbc57fe5b046132a8565b90508060ff1682901c91506f800000000000000000000000000000008160ff16029250505b6f80000000000000000000000000000000811115612c6d576000607f90505b60008160ff161115612c6b576f8000000000000000000000000000000082830281612c2d57fe5b0491507001000000000000000000000000000000008210612c5f57600182901c91506001810360ff166001901b830192505b80600190039050612c06565b505b607a60ff166f02c5c85fdf473de6af278ece600fcbda8302901c9250505092915050565b600080602090506000607f90505b8060ff166001830160ff161015612cee576000600282840160ff1681612cc157fe5b0490508460078260ff1660808110612cd557fe5b015410612ce457809250612ce8565b8091505b50612c9f565b8360078260ff1660808110612cff57fe5b015410612d10578092505050612d41565b8360078360ff1660808110612d2157fe5b015410612d32578192505050612d41565b6000612d3a57fe5b6000925050505b919050565b60008083905060008090508360ff16858302901c91506f03442c4e6074a82f1797f72ac00000008202810190508360ff16858302901c91506f0116b96f757c380fb287fd0e400000008202810190508360ff16858302901c91506e45ae5bdd5f0e03eca1ff43900000008202810190508360ff16858302901c91506e0defabf91302cd95b9ffda500000008202810190508360ff16858302901c91506e02529ca9832b22439efff9b80000008202810190508360ff16858302901c91506d54f1cf12bd04e516b6da880000008202810190508360ff16858302901c91506d0a9e39e257a09ca2d6db510000008202810190508360ff16858302901c91506d012e066e7b839fa050c3090000008202810190508360ff16858302901c91506c1e33d7d926c329a1ad1a8000008202810190508360ff16858302901c91506c02bee513bdb4a6b19b5f8000008202810190508360ff16858302901c91506b3a9316fa79b88eccf2a000008202810190508360ff16858302901c91506b048177ebe1fa8123752000008202810190508360ff16858302901c91506a5263fe90242dcbacf000008202810190508360ff16858302901c91506a057e22099c030d941000008202810190508360ff16858302901c91506957e22099c030d94100008202810190508360ff16858302901c915069052b6b545699763100008202810190508360ff16858302901c9150684985f67696bf7480008202810190508360ff16858302901c91506803dea12ea99e4980008202810190508360ff16858302901c91506731880f2214b6e0008202810190508360ff16858302901c915067025bcff56eb360008202810190508360ff16858302901c9150661b722e10ab10008202810190508360ff16858302901c91506601317c700770008202810190508360ff16858302901c9150650cba84aafa008202810190508360ff16858302901c91506482573a0a008202810190508360ff16858302901c91506405035ad9008202810190508360ff16858302901c9150632f881b008202810190508360ff16858302901c91506301b293408202810190508360ff16858302901c9150620efc408202810190508360ff16858302901c9150617fe08202810190508360ff16858302901c91506104208202810190508360ff16858302901c915060218202810190508360ff16858302901c915060018202810190508360ff166001901b856f0688589cc0e9505e2f2fee558000000083816130d757fe5b0401019250505092915050565b600073ffffffffffffffffffffffffffffffffffffffff168273ffffffffffffffffffffffffffffffffffffffff16141561316a576040517f08c379a00000000000000000000000000000000000000000000000000000000081526004018080602001828103825260218152602001806134276021913960400191505060405180910390fd5b61317682600083612a79565b6131e18160405180606001604052806022815260200161334e602291396000808673ffffffffffffffffffffffffffffffffffffffff1673ffffffffffffffffffffffffffffffffffffffff168152602001908152602001600020546122b29092919063ffffffff16565b6000808473ffffffffffffffffffffffffffffffffffffffff1673ffffffffffffffffffffffffffffffffffffffff168152602001908152602001600020819055506132388160025461252290919063ffffffff16565b600281905550600073ffffffffffffffffffffffffffffffffffffffff168273ffffffffffffffffffffffffffffffffffffffff167fddf252ad1be2c89b69c2b068fc378daa952ba7f163c4a11628f55a4df523b3ef836040518082815260200191505060405180910390a35050565b6000806000905060008390506101008110156132df575b60018111156132da57600181901c90506001820191506132bf565b613320565b6000608090505b60008160ff16111561331e578060ff166001901b821061330f578060ff1682901c915080831792505b60018160ff16901c90506132e6565b505b819250505091905056fe45524332303a207472616e7366657220746f20746865207a65726f206164647265737345524332303a206275726e20616d6f756e7420657863656564732062616c616e63654f776e61626c653a206e6577206f776e657220697320746865207a65726f206164647265737345524332303a20617070726f766520746f20746865207a65726f206164647265737345524332303a207472616e7366657220616d6f756e7420657863656564732062616c616e6365536166654d6174683a206d756c7469706c69636174696f6e206f766572666c6f7745524332303a207472616e7366657220616d6f756e74206578636565647320616c6c6f77616e636545524332303a206275726e2066726f6d20746865207a65726f206164647265737345524332303a207472616e736665722066726f6d20746865207a65726f206164647265737345524332303a20617070726f76652066726f6d20746865207a65726f206164647265737345524332303a2064656372656173656420616c6c6f77616e63652062656c6f77207a65726fa264697066735822122049e31f2e5e8350091c4aa8c53de12d7b1dfb279be0ddaa247d2ddc85130aa0a764736f6c63430006060033",
  "immutableReferences": {},
  "source": "pragma solidity ^0.6.6;\n\nimport \"@openzeppelin/contracts/token/ERC20/ERC20.sol\";\nimport \"@openzeppelin/contracts/access/Ownable.sol\";\nimport \"./BancorBondingCurve.sol\";\n\ncontract ProductToken is ERC20, Ownable, BancorBondingCurve {\n\tusing SafeMath for uint256;\n\n\tevent Buy(address indexed sender, uint32 amount, uint deposit);\t\t// event to fire when a new token is minted\n  event Sell(address indexed sender, uint32 amount, uint refund);\t\t\t// event to fire when a token has been sold back\n  event Tradein(address indexed sender, uint32 amount);\t\t\t\t\t\t\t\t\t// event to fire when a token is redeemed in the real world\n\n  uint256 public reserveBalance = 330000000000000000;\t\t// amount in ether, about 1/3 of a ether. This is initialized for testing, according to\n                                                        // a pricing function of y = x ^ 2, at a token supply (x) of 1\n  // uint32 public exponent;\n  uint256 public reserveRatio;\n\n  uint32 public maxTokenCount;\n  uint32 public tradeinCount = 0;\n\n\t/**\n   * @dev Constructor\n   *\n   * @param _reserveRatio             the reserve ratio in the curve function\n   * @param _maxTokenCount\t\t\t\t\t\tthe amount of token that will exist for this type.\n  */\n  constructor(uint32 _reserveRatio, uint32 _maxTokenCount) ERC20(\"ProductToken\", \"\") public {\t\t\n  \trequire(_maxTokenCount > 0, \"Invalid max token count.\");\n  \t// exponent = _exponent;\n    reserveRatio = _reserveRatio;\t\t// initialize the reserve ratio for this token in ppm. \n                                                                      // This is hardcoded right now because we are testing with 33%\n    maxTokenCount = _maxTokenCount;\n    _mint(msg.sender, 1);  \n  }\n\n  /**\n   * @dev When user wants to buy tokens from the pool\n   *\n  */\n  function buy() public payable {\n    require(msg.value > 0, \"Must send ether to buy tokens.\");\n    uint256 amount;\n    uint256 change;\n    (amount, change) = _buyForAmount(msg.value);\n    // return change back to the sender.\n    msg.sender.transfer(change);\n  }\n\n\t/**\n   * @dev When user wants to sell their tokens back to the pool\n   *\n  */\n \tfunction sell(uint32 _amount) public {\n    uint256 returnAmount = _sellForAmount(_amount);\n    msg.sender.transfer(returnAmount);\n  }\n\n\t/**\n   * @dev When user wants to trade in their token for retail product\n   * the logistics for transfering product should be handled elsewhere\n   *\n  */\n  function tradein(uint32 _amount) public {\n  \t_tradeinForAmount(_amount);\n  }\n\n  fallback () external payable { buy(); }\n\n  // View Functions for outside.\n  function getCurrentPrice() \n  \tpublic returns\t(uint256 price)\n  {\n  \treturn calculatePriceForNTokens(totalSupply() + tradeinCount, reserveBalance, uint32(reserveRatio), 1);\n  }\n\n  function getPriceForN(uint32 _amountProduct) \n  \tpublic returns\t(uint256 price)\n  {\n  \treturn calculatePriceForNTokens(totalSupply() + tradeinCount, reserveBalance, uint32(reserveRatio), _amountProduct);\n  }\n\n  function calculateBuyReturn(uint256 _amountReserve)\n    public returns (uint32 mintAmount)\n  {\n    return calculatePurchaseReturn(totalSupply() + tradeinCount, reserveBalance, uint32(reserveRatio), _amountReserve);\n  }\n\n  function calculateSellReturn(uint32 _amountProduct)\n    public returns (uint256 soldAmount)\n  {\n    return calculateSaleReturn(totalSupply() + tradeinCount, reserveBalance, uint32(reserveRatio), _amountProduct);\n  }\n\n  function getTradeinCount()\n    public returns (uint32 _amountTraded)\n  {\n    return tradeinCount;\n  }\n\n  // specific implementations of transaction logics.\n   /**\n   * @dev calculates the return for a given conversion (in product token) \n   * This function will try to compute the amount of tokens one can buy first, \n   * then it will initiate a transfer and for any extras, return as change.\n   * if any tokens purchases are confirmed, it will update ownerTokenCount mappin. \n   *\n   * @param _deposit              reserve total deposited\n   *\n   * @return token                amount bought in product token\n  */\n  function _buyForAmount(uint256 _deposit)\n    internal returns (uint32, uint256)\n  {\n  \trequire(totalSupply() + tradeinCount < maxTokenCount, \"Sorry, this token is sold out.\");\n    require(_deposit > 0, \"Deposit must be non-zero.\");\n\n    uint32 amount = calculateBuyReturn(_deposit);\t    // have to make it discrete here. Replace amount with uint32\n    // If the amount in _deposit is more than enough to buy out the rest of the token in the pool\n    if (amount > maxTokenCount - uint32(totalSupply().sub(tradeinCount))) {   // this logic can be refactored.\n      amount = maxTokenCount - uint32(totalSupply().sub(tradeinCount));\n    }\n    uint256 actualDeposit = getPriceForN(amount);\n    _mint(msg.sender, amount);\n    reserveBalance = reserveBalance.add(actualDeposit);\n    emit Buy(msg.sender, amount, actualDeposit);\t\t// probably needs to be redesigned for ease of read and understanding.\n    return (amount, _deposit.sub(actualDeposit));    // return amount of token bought and change\n  }\n\n   /**\n   * @dev calculates the return for a given conversion (in the reserve token) \n   * This function will try to compute the amount of liquidity one gets by selling one token, \n   * then it will initiate a transfer.\n   * said token then will be burned to reduce total supply, but won't be added to the tradeinCount variable \n   *\n   * @param _amount              product token wishes to be sold\n   *\n   * @return token               amount sold in reserved token\n  */\n  function _sellForAmount(uint32 _amount)\n    internal returns (uint256)\n  {\n  \trequire(_amount > 0, \"Amount must be non-zero.\");\n    require(balanceOf(msg.sender) >= _amount, \"Insufficient tokens to sell.\");\n    // calculate amount of liquidity to reimburse\n  \tuint256 reimburseAmount = calculateSellReturn(_amount);\n \t\treserveBalance = reserveBalance.sub(reimburseAmount);\n    _burn(msg.sender, _amount);\n    emit Sell(msg.sender, _amount, reimburseAmount);\n    return reimburseAmount;\n  }\n\n\n   /**\n   * @dev initiate token logics after a token is traded in. \n   * This function only handles logics corresponding to \n   *\n   * @param _amount              product token wishes to be traded-in\n  */\n  function _tradeinForAmount(uint32 _amount)\n    internal \n  {\n    require(_amount > 0, \"Amount must be non-zero.\");\n    require(balanceOf(msg.sender) >= _amount, \"Insufficient tokens to burn.\");\n\n    _burn(msg.sender, _amount);\n    tradeinCount = tradeinCount + _amount;\t\t\t// Future: use safe math here.\n    emit Tradein(msg.sender, _amount);\n  }\n}\n",
  "sourcePath": "/Users/sd/Documents/GitHub/virtualmarket/contracts/ProductToken.sol",
  "compiler": {
    "name": "solc",
    "version": "0.6.6+commit.6c089d02.Emscripten.clang"
  },
  "schemaVersion": "3.3.4",
  "updatedAt": "2021-04-07T03:35:01.142Z",
  "devdoc": {
    "methods": {
      "allowance(address,address)": {
        "details": "See {IERC20-allowance}."
      },
      "approve(address,uint256)": {
        "details": "See {IERC20-approve}.     * Requirements:     * - `spender` cannot be the zero address."
      },
      "balanceOf(address)": {
        "details": "See {IERC20-balanceOf}."
      },
      "buy()": {
        "details": "When user wants to buy tokens from the pool  "
      },
      "calculatePriceForNTokens(uint256,uint256,uint32,uint32)": {
        "details": "Try to compute the price to purchage n token   * Formula: Return = _reserveBalance * ((_amount / _supply + 1) ^ (1 / _reserveRatio) -1)",
        "params": {
          "_amount": "number to tokens one wishes to purchase",
          "_reserveBalance": "total reserve token balance",
          "_reserveRatio": "the reserve ratio in the bancor curve.",
          "_supply": "continuous token total supply"
        },
        "returns": {
          "_0": "price for N tokens "
        }
      },
      "calculatePurchaseReturn(uint256,uint256,uint32,uint256)": {
        "details": "given a continuous token supply, reserve token balance, reserve ratio, and a deposit amount (in the reserve token), calculates the return for a given conversion (in the continuous token)   * Formula: Return = _supply * ((1 + _depositAmount / _reserveBalance) ^ (_reserveRatio / MAX_RESERVE_RATIO) - 1)",
        "params": {
          "_depositAmount": "deposit amount, in reserve token",
          "_reserveBalance": "total reserve token balance",
          "_reserveRatio": "reserve ratio, represented in ppm, 1-1000000",
          "_supply": "continuous token total supply"
        },
        "returns": {
          "_0": "purchase return amount"
        }
      },
      "calculateSaleReturn(uint256,uint256,uint32,uint256)": {
        "details": "given a continuous token supply, reserve token balance, reserve ratio and a sell amount (in the continuous token), calculates the return for a given conversion (in the reserve token)   * Formula: Return = _reserveBalance * (1 - (1 - _sellAmount / _supply) ^ (1 / (_reserveRatio / MAX_RESERVE_RATIO)))",
        "params": {
          "_reserveBalance": "total reserve token balance",
          "_reserveRatio": "constant reserve ratio, represented in ppm, 1-1000000",
          "_sellAmount": "sell amount, in the continuous token itself",
          "_supply": "continuous token total supply"
        },
        "returns": {
          "_0": "sale return amount"
        }
      },
      "constructor": {
        "details": "Constructor",
        "params": {
          "_maxTokenCount": "the amount of token that will exist for this type.",
          "_reserveRatio": "the reserve ratio in the curve function"
        }
      },
      "decimals()": {
        "details": "Returns the number of decimals used to get its user representation. For example, if `decimals` equals `2`, a balance of `505` tokens should be displayed to a user as `5,05` (`505 / 10 ** 2`).     * Tokens usually opt for a value of 18, imitating the relationship between Ether and Wei. This is the value {ERC20} uses, unless {_setupDecimals} is called.     * NOTE: This information is only used for _display_ purposes: it in no way affects any of the arithmetic of the contract, including {IERC20-balanceOf} and {IERC20-transfer}."
      },
      "decreaseAllowance(address,uint256)": {
        "details": "Atomically decreases the allowance granted to `spender` by the caller.     * This is an alternative to {approve} that can be used as a mitigation for problems described in {IERC20-approve}.     * Emits an {Approval} event indicating the updated allowance.     * Requirements:     * - `spender` cannot be the zero address. - `spender` must have allowance for the caller of at least `subtractedValue`."
      },
      "increaseAllowance(address,uint256)": {
        "details": "Atomically increases the allowance granted to `spender` by the caller.     * This is an alternative to {approve} that can be used as a mitigation for problems described in {IERC20-approve}.     * Emits an {Approval} event indicating the updated allowance.     * Requirements:     * - `spender` cannot be the zero address."
      },
      "name()": {
        "details": "Returns the name of the token."
      },
      "owner()": {
        "details": "Returns the address of the current owner."
      },
      "renounceOwnership()": {
        "details": "Leaves the contract without owner. It will not be possible to call `onlyOwner` functions anymore. Can only be called by the current owner.     * NOTE: Renouncing ownership will leave the contract without an owner, thereby removing any functionality that is only available to the owner."
      },
      "sell(uint32)": {
        "details": "When user wants to sell their tokens back to the pool  "
      },
      "symbol()": {
        "details": "Returns the symbol of the token, usually a shorter version of the name."
      },
      "totalSupply()": {
        "details": "See {IERC20-totalSupply}."
      },
      "tradein(uint32)": {
        "details": "When user wants to trade in their token for retail product the logistics for transfering product should be handled elsewhere  "
      },
      "transfer(address,uint256)": {
        "details": "See {IERC20-transfer}.     * Requirements:     * - `recipient` cannot be the zero address. - the caller must have a balance of at least `amount`."
      },
      "transferFrom(address,address,uint256)": {
        "details": "See {IERC20-transferFrom}.     * Emits an {Approval} event indicating the updated allowance. This is not required by the EIP. See the note at the beginning of {ERC20};     * Requirements: - `sender` and `recipient` cannot be the zero address. - `sender` must have a balance of at least `amount`. - the caller must have allowance for ``sender``'s tokens of at least `amount`."
      },
      "transferOwnership(address)": {
        "details": "Transfers ownership of the contract to a new account (`newOwner`). Can only be called by the current owner."
      }
    }
  },
  "userdoc": {
    "methods": {}
  }
}