{
  "contractName": "ProductToken",
  "abi": [
    {
      "inputs": [
        {
          "internalType": "uint32",
          "name": "_exponent",
          "type": "uint32"
        },
        {
          "internalType": "uint32",
          "name": "_maxTokenCount",
          "type": "uint32"
        }
      ],
      "stateMutability": "nonpayable",
      "type": "constructor"
    },
    {
      "anonymous": false,
      "inputs": [
        {
          "indexed": true,
          "internalType": "address",
          "name": "owner",
          "type": "address"
        },
        {
          "indexed": true,
          "internalType": "address",
          "name": "spender",
          "type": "address"
        },
        {
          "indexed": false,
          "internalType": "uint256",
          "name": "value",
          "type": "uint256"
        }
      ],
      "name": "Approval",
      "type": "event"
    },
    {
      "anonymous": false,
      "inputs": [
        {
          "indexed": false,
          "internalType": "address",
          "name": "sender",
          "type": "address"
        },
        {
          "indexed": false,
          "internalType": "uint32",
          "name": "amount",
          "type": "uint32"
        }
      ],
      "name": "Burned",
      "type": "event"
    },
    {
      "anonymous": false,
      "inputs": [
        {
          "indexed": false,
          "internalType": "address",
          "name": "sender",
          "type": "address"
        },
        {
          "indexed": false,
          "internalType": "uint32",
          "name": "amount",
          "type": "uint32"
        },
        {
          "indexed": false,
          "internalType": "uint256",
          "name": "deposit",
          "type": "uint256"
        }
      ],
      "name": "Minted",
      "type": "event"
    },
    {
      "anonymous": false,
      "inputs": [
        {
          "indexed": true,
          "internalType": "address",
          "name": "previousOwner",
          "type": "address"
        },
        {
          "indexed": true,
          "internalType": "address",
          "name": "newOwner",
          "type": "address"
        }
      ],
      "name": "OwnershipTransferred",
      "type": "event"
    },
    {
      "anonymous": false,
      "inputs": [
        {
          "indexed": false,
          "internalType": "uint256",
          "name": "supply",
          "type": "uint256"
        },
        {
          "indexed": false,
          "internalType": "uint256",
          "name": "reserve",
          "type": "uint256"
        },
        {
          "indexed": false,
          "internalType": "uint32",
          "name": "ratio",
          "type": "uint32"
        },
        {
          "indexed": false,
          "internalType": "uint256",
          "name": "amount",
          "type": "uint256"
        }
      ],
      "name": "Returned",
      "type": "event"
    },
    {
      "anonymous": false,
      "inputs": [
        {
          "indexed": false,
          "internalType": "address",
          "name": "sender",
          "type": "address"
        },
        {
          "indexed": false,
          "internalType": "uint32",
          "name": "amount",
          "type": "uint32"
        },
        {
          "indexed": false,
          "internalType": "uint256",
          "name": "refund",
          "type": "uint256"
        }
      ],
      "name": "Traded",
      "type": "event"
    },
    {
      "anonymous": false,
      "inputs": [
        {
          "indexed": true,
          "internalType": "address",
          "name": "from",
          "type": "address"
        },
        {
          "indexed": true,
          "internalType": "address",
          "name": "to",
          "type": "address"
        },
        {
          "indexed": false,
          "internalType": "uint256",
          "name": "value",
          "type": "uint256"
        }
      ],
      "name": "Transfer",
      "type": "event"
    },
    {
      "inputs": [
        {
          "internalType": "address",
          "name": "owner",
          "type": "address"
        },
        {
          "internalType": "address",
          "name": "spender",
          "type": "address"
        }
      ],
      "name": "allowance",
      "outputs": [
        {
          "internalType": "uint256",
          "name": "",
          "type": "uint256"
        }
      ],
      "stateMutability": "view",
      "type": "function"
    },
    {
      "inputs": [
        {
          "internalType": "address",
          "name": "spender",
          "type": "address"
        },
        {
          "internalType": "uint256",
          "name": "amount",
          "type": "uint256"
        }
      ],
      "name": "approve",
      "outputs": [
        {
          "internalType": "bool",
          "name": "",
          "type": "bool"
        }
      ],
      "stateMutability": "nonpayable",
      "type": "function"
    },
    {
      "inputs": [
        {
          "internalType": "address",
          "name": "account",
          "type": "address"
        }
      ],
      "name": "balanceOf",
      "outputs": [
        {
          "internalType": "uint256",
          "name": "",
          "type": "uint256"
        }
      ],
      "stateMutability": "view",
      "type": "function"
    },
    {
      "inputs": [],
      "name": "burnedCount",
      "outputs": [
        {
          "internalType": "uint32",
          "name": "",
          "type": "uint32"
        }
      ],
      "stateMutability": "view",
      "type": "function"
    },
    {
      "inputs": [
        {
          "internalType": "uint256",
          "name": "_supply",
          "type": "uint256"
        },
        {
          "internalType": "uint256",
          "name": "_reserveBalance",
          "type": "uint256"
        },
        {
          "internalType": "uint32",
          "name": "_exponent",
          "type": "uint32"
        },
        {
          "internalType": "uint32",
          "name": "_amount",
          "type": "uint32"
        }
      ],
      "name": "calculatePriceForNTokens",
      "outputs": [
        {
          "internalType": "uint256",
          "name": "",
          "type": "uint256"
        }
      ],
      "stateMutability": "nonpayable",
      "type": "function"
    },
    {
      "inputs": [
        {
          "internalType": "uint256",
          "name": "_supply",
          "type": "uint256"
        },
        {
          "internalType": "uint256",
          "name": "_reserveBalance",
          "type": "uint256"
        },
        {
          "internalType": "uint32",
          "name": "_reserveRatio",
          "type": "uint32"
        },
        {
          "internalType": "uint256",
          "name": "_depositAmount",
          "type": "uint256"
        }
      ],
      "name": "calculatePurchaseReturn",
      "outputs": [
        {
          "internalType": "uint256",
          "name": "",
          "type": "uint256"
        }
      ],
      "stateMutability": "nonpayable",
      "type": "function"
    },
    {
      "inputs": [
        {
          "internalType": "uint256",
          "name": "_supply",
          "type": "uint256"
        },
        {
          "internalType": "uint256",
          "name": "_reserveBalance",
          "type": "uint256"
        },
        {
          "internalType": "uint32",
          "name": "_reserveRatio",
          "type": "uint32"
        },
        {
          "internalType": "uint256",
          "name": "_sellAmount",
          "type": "uint256"
        }
      ],
      "name": "calculateSaleReturn",
      "outputs": [
        {
          "internalType": "uint256",
          "name": "",
          "type": "uint256"
        }
      ],
      "stateMutability": "view",
      "type": "function"
    },
    {
      "inputs": [
        {
          "internalType": "uint256",
          "name": "_supply",
          "type": "uint256"
        },
        {
          "internalType": "uint256",
          "name": "_reserveBalance",
          "type": "uint256"
        },
        {
          "internalType": "uint32",
          "name": "_reserveRatio",
          "type": "uint32"
        }
      ],
      "name": "calculateUnitPrice",
      "outputs": [
        {
          "internalType": "uint256",
          "name": "",
          "type": "uint256"
        }
      ],
      "stateMutability": "nonpayable",
      "type": "function"
    },
    {
      "inputs": [],
      "name": "decimals",
      "outputs": [
        {
          "internalType": "uint8",
          "name": "",
          "type": "uint8"
        }
      ],
      "stateMutability": "view",
      "type": "function"
    },
    {
      "inputs": [
        {
          "internalType": "address",
          "name": "spender",
          "type": "address"
        },
        {
          "internalType": "uint256",
          "name": "subtractedValue",
          "type": "uint256"
        }
      ],
      "name": "decreaseAllowance",
      "outputs": [
        {
          "internalType": "bool",
          "name": "",
          "type": "bool"
        }
      ],
      "stateMutability": "nonpayable",
      "type": "function"
    },
    {
      "inputs": [],
      "name": "exponent",
      "outputs": [
        {
          "internalType": "uint32",
          "name": "",
          "type": "uint32"
        }
      ],
      "stateMutability": "view",
      "type": "function"
    },
    {
      "inputs": [
        {
          "internalType": "address",
          "name": "spender",
          "type": "address"
        },
        {
          "internalType": "uint256",
          "name": "addedValue",
          "type": "uint256"
        }
      ],
      "name": "increaseAllowance",
      "outputs": [
        {
          "internalType": "bool",
          "name": "",
          "type": "bool"
        }
      ],
      "stateMutability": "nonpayable",
      "type": "function"
    },
    {
      "inputs": [],
      "name": "maxTokenCount",
      "outputs": [
        {
          "internalType": "uint32",
          "name": "",
          "type": "uint32"
        }
      ],
      "stateMutability": "view",
      "type": "function"
    },
    {
      "inputs": [],
      "name": "name",
      "outputs": [
        {
          "internalType": "string",
          "name": "",
          "type": "string"
        }
      ],
      "stateMutability": "view",
      "type": "function"
    },
    {
      "inputs": [],
      "name": "owner",
      "outputs": [
        {
          "internalType": "address",
          "name": "",
          "type": "address"
        }
      ],
      "stateMutability": "view",
      "type": "function"
    },
    {
      "inputs": [],
      "name": "renounceOwnership",
      "outputs": [],
      "stateMutability": "nonpayable",
      "type": "function"
    },
    {
      "inputs": [],
      "name": "reserveBalance",
      "outputs": [
        {
          "internalType": "uint256",
          "name": "",
          "type": "uint256"
        }
      ],
      "stateMutability": "view",
      "type": "function"
    },
    {
      "inputs": [],
      "name": "reserveRatio",
      "outputs": [
        {
          "internalType": "uint256",
          "name": "",
          "type": "uint256"
        }
      ],
      "stateMutability": "view",
      "type": "function"
    },
    {
      "inputs": [],
      "name": "symbol",
      "outputs": [
        {
          "internalType": "string",
          "name": "",
          "type": "string"
        }
      ],
      "stateMutability": "view",
      "type": "function"
    },
    {
      "inputs": [],
      "name": "totalSupply",
      "outputs": [
        {
          "internalType": "uint256",
          "name": "",
          "type": "uint256"
        }
      ],
      "stateMutability": "view",
      "type": "function"
    },
    {
      "inputs": [
        {
          "internalType": "address",
          "name": "recipient",
          "type": "address"
        },
        {
          "internalType": "uint256",
          "name": "amount",
          "type": "uint256"
        }
      ],
      "name": "transfer",
      "outputs": [
        {
          "internalType": "bool",
          "name": "",
          "type": "bool"
        }
      ],
      "stateMutability": "nonpayable",
      "type": "function"
    },
    {
      "inputs": [
        {
          "internalType": "address",
          "name": "sender",
          "type": "address"
        },
        {
          "internalType": "address",
          "name": "recipient",
          "type": "address"
        },
        {
          "internalType": "uint256",
          "name": "amount",
          "type": "uint256"
        }
      ],
      "name": "transferFrom",
      "outputs": [
        {
          "internalType": "bool",
          "name": "",
          "type": "bool"
        }
      ],
      "stateMutability": "nonpayable",
      "type": "function"
    },
    {
      "inputs": [
        {
          "internalType": "address",
          "name": "newOwner",
          "type": "address"
        }
      ],
      "name": "transferOwnership",
      "outputs": [],
      "stateMutability": "nonpayable",
      "type": "function"
    },
    {
      "inputs": [],
      "name": "version",
      "outputs": [
        {
          "internalType": "string",
          "name": "",
          "type": "string"
        }
      ],
      "stateMutability": "view",
      "type": "function"
    },
    {
      "inputs": [],
      "name": "buy",
      "outputs": [],
      "stateMutability": "payable",
      "type": "function"
    },
    {
      "inputs": [
        {
          "internalType": "uint32",
          "name": "_amount",
          "type": "uint32"
        }
      ],
      "name": "sell",
      "outputs": [],
      "stateMutability": "nonpayable",
      "type": "function"
    },
    {
      "inputs": [
        {
          "internalType": "uint32",
          "name": "_amount",
          "type": "uint32"
        }
      ],
      "name": "tradein",
      "outputs": [],
      "stateMutability": "nonpayable",
      "type": "function"
    },
    {
      "inputs": [],
      "name": "getCurrentPrice",
      "outputs": [
        {
          "internalType": "uint256",
          "name": "price",
          "type": "uint256"
        }
      ],
      "stateMutability": "nonpayable",
      "type": "function"
    },
    {
      "inputs": [
        {
          "internalType": "uint32",
          "name": "_amount",
          "type": "uint32"
        }
      ],
      "name": "getPriceForN",
      "outputs": [
        {
          "internalType": "uint256",
          "name": "price",
          "type": "uint256"
        }
      ],
      "stateMutability": "nonpayable",
      "type": "function"
    },
    {
      "inputs": [
        {
          "internalType": "uint256",
          "name": "_amount",
          "type": "uint256"
        }
      ],
      "name": "calculateBuyReturn",
      "outputs": [
        {
          "internalType": "uint256",
          "name": "mintAmount",
          "type": "uint256"
        }
      ],
      "stateMutability": "nonpayable",
      "type": "function"
    },
    {
      "inputs": [
        {
          "internalType": "uint256",
          "name": "_amount",
          "type": "uint256"
        }
      ],
      "name": "calculateSellReturn",
      "outputs": [
        {
          "internalType": "uint256",
          "name": "burnAmount",
          "type": "uint256"
        }
      ],
      "stateMutability": "view",
      "type": "function"
    }
  ],
  "bytecode": "0x60806040526040518060400160405280600381526020017f302e33000000000000000000000000000000000000000000000000000000000081525060069080519060200190620000519291906200139d565b50670494654067e100006087556000608a60046101000a81548163ffffffff021916908363ffffffff1602179055503480156200008d57600080fd5b506040516200549b3803806200549b83398181016040526040811015620000b357600080fd5b8101908080519060200190929190805190602001909291905050506040518060400160405280600c81526020017f50726f64756374546f6b656e00000000000000000000000000000000000000008152506040518060200160405280600081525081600390805190602001906200012c9291906200139d565b508060049080519060200190620001459291906200139d565b506012600560006101000a81548160ff021916908360ff16021790555050506000620001766200112960201b60201c565b905080600560016101000a81548173ffffffffffffffffffffffffffffffffffffffff021916908373ffffffffffffffffffffffffffffffffffffffff1602179055508073ffffffffffffffffffffffffffffffffffffffff16600073ffffffffffffffffffffffffffffffffffffffff167f8be0079c531659141344cd1fd0a4f28419497f9722a3daafe3b4186f6b6457e060405160405180910390a350701c35fedd14ffffffffffffffffffffffff60076020608081106200023657fe5b0181905550701b0ce43b323fffffffffffffffffffffff60076021608081106200025c57fe5b01819055507019f0028ec1ffffffffffffffffffffffff60076022608081106200028257fe5b01819055507018ded91f0e7fffffffffffffffffffffff6007602360808110620002a857fe5b01819055507017d8ec7f0417ffffffffffffffffffffff6007602460808110620002ce57fe5b01819055507016ddc6556cdbffffffffffffffffffffff6007602560808110620002f457fe5b01819055507015ecf52776a1ffffffffffffffffffffff60076026608081106200031a57fe5b01819055507015060c256cb2ffffffffffffffffffffff60076027608081106200034057fe5b0181905550701428a2f98d72ffffffffffffffffffffff60076028608081106200036657fe5b01819055507013545598e5c23fffffffffffffffffffff60076029608081106200038c57fe5b0181905550701288c4161ce1dfffffffffffffffffffff6007602a60808110620003b257fe5b01819055507011c592761c666fffffffffffffffffffff6007602b60808110620003d857fe5b018190555070110a688680a757ffffffffffffffffffff6007602c60808110620003fe57fe5b0181905550701056f1b5bedf77ffffffffffffffffffff6007602d608081106200042457fe5b0181905550700faadceceeff8bffffffffffffffffffff6007602e608081106200044a57fe5b0181905550700f05dc6b27edadffffffffffffffffffff6007602f608081106200047057fe5b0181905550700e67a5a25da4107fffffffffffffffffff60076030608081106200049657fe5b0181905550700dcff115b14eedffffffffffffffffffff6007603160808110620004bc57fe5b0181905550700d3e7a392431239fffffffffffffffffff6007603260808110620004e257fe5b0181905550700cb2ff529eb71e4fffffffffffffffffff60076033608081106200050857fe5b0181905550700c2d415c3db974afffffffffffffffffff60076034608081106200052e57fe5b0181905550700bad03e7d883f69bffffffffffffffffff60076035608081106200055457fe5b0181905550700b320d03b2c343d5ffffffffffffffffff60076036608081106200057a57fe5b0181905550700abc25204e02828dffffffffffffffffff6007603760808110620005a057fe5b0181905550700a4b16f74ee4bb207fffffffffffffffff6007603860808110620005c657fe5b01819055507009deaf736ac1f569ffffffffffffffffff6007603960808110620005ec57fe5b0181905550700976bd9952c7aa957fffffffffffffffff6007603a608081106200061257fe5b01819055507009131271922eaa606fffffffffffffffff6007603b608081106200063857fe5b01819055507008b380f3558668c46fffffffffffffffff6007603c608081106200065e57fe5b0181905550700857ddf0117efa215bffffffffffffffff6007603d608081106200068457fe5b01819055507007ffffffffffffffffffffffffffffffff6007603e60808110620006aa57fe5b01819055507007abbf6f6abb9d087fffffffffffffffff6007603f60808110620006d057fe5b018190555070075af62cbac95f7dfa7fffffffffffffff6007604060808110620006f657fe5b018190555070070d7fb7452e187ac13fffffffffffffff60076041608081106200071c57fe5b01819055507006c3390ecc8af379295fffffffffffffff60076042608081106200074257fe5b018190555070067c00a3b07ffc01fd6fffffffffffffff60076043608081106200076857fe5b0181905550700637b647c39cbb9d3d27ffffffffffffff60076044608081106200078e57fe5b01819055507005f63b1fc104dbd39587ffffffffffffff6007604560808110620007b457fe5b01819055507005b771955b36e12f7235ffffffffffffff6007604660808110620007da57fe5b018190555070057b3d49dda84556d6f6ffffffffffffff60076047608081106200080057fe5b018190555070054183095b2c8ececf30ffffffffffffff60076048608081106200082657fe5b018190555070050a28be635ca2b888f77fffffffffffff60076049608081106200084c57fe5b01819055507004d5156639708c9db33c3fffffffffffff6007604a608081106200087257fe5b01819055507004a23105873875bd52dfdfffffffffffff6007604b608081106200089857fe5b0181905550700471649d87199aa990756fffffffffffff6007604c60808110620008be57fe5b01819055507004429a21a029d4c1457cfbffffffffffff6007604d60808110620008e457fe5b0181905550700415bc6d6fb7dd71af2cb3ffffffffffff6007604e608081106200090a57fe5b01819055507003eab73b3bbfe282243ce1ffffffffffff6007604f608081106200093057fe5b01819055507003c1771ac9fb6b4c18e229ffffffffffff60076050608081106200095657fe5b0181905550700399e96897690418f785257fffffffffff60076051608081106200097c57fe5b0181905550700373fc456c53bb779bf0ea9fffffffffff6007605260808110620009a257fe5b018190555070034f9e8e490c48e67e6ab8bfffffffffff6007605360808110620009c857fe5b018190555070032cbfd4a7adc790560b3337ffffffffff6007605460808110620009ee57fe5b018190555070030b50570f6e5d2acca94613ffffffffff600760556080811062000a1457fe5b01819055507002eb40f9f620fda6b56c2861ffffffffff600760566080811062000a3a57fe5b01819055507002cc8340ecb0d0f520a6af58ffffffffff600760576080811062000a6057fe5b01819055507002af09481380a0a35cf1ba02ffffffffff600760586080811062000a8657fe5b0181905550700292c5bdd3b92ec810287b1b3fffffffff600760596080811062000aac57fe5b0181905550700277abdcdab07d5a77ac6d6b9fffffffff6007605a6080811062000ad257fe5b018190555070025daf6654b1eaa55fd64df5efffffffff6007605b6080811062000af857fe5b0181905550700244c49c648baa98192dce88b7ffffffff6007605c6080811062000b1e57fe5b018190555070022ce03cd5619a311b2471268bffffffff6007605d6080811062000b4457fe5b0181905550700215f77c045fbe885654a44a0fffffffff6007605e6080811062000b6a57fe5b01819055507001ffffffffffffffffffffffffffffffff6007605f6080811062000b9057fe5b01819055507001eaefdbdaaee7421fc4d3ede5ffffffff600760606080811062000bb657fe5b01819055507001d6bd8b2eb257df7e8ca57b09bfffffff600760616080811062000bdc57fe5b01819055507001c35fedd14b861eb0443f7f133fffffff600760626080811062000c0257fe5b01819055507001b0ce43b322bcde4a56e8ada5afffffff600760636080811062000c2857fe5b018190555070019f0028ec1fff007f5a195a39dfffffff600760646080811062000c4e57fe5b018190555070018ded91f0e72ee74f49b15ba527ffffff600760656080811062000c7457fe5b018190555070017d8ec7f04136f4e5615fd41a63ffffff600760666080811062000c9a57fe5b018190555070016ddc6556cdb84bdc8d12d22e6fffffff600760676080811062000cc057fe5b018190555070015ecf52776a1155b5bd8395814f7fffff600760686080811062000ce657fe5b018190555070015060c256cb23b3b3cc3754cf40ffffff600760696080811062000d0c57fe5b01819055507001428a2f98d728ae223ddab715be3fffff6007606a6080811062000d3257fe5b018190555070013545598e5c23276ccf0ede68034fffff6007606b6080811062000d5857fe5b01819055507001288c4161ce1d6f54b7f61081194fffff6007606c6080811062000d7e57fe5b018190555070011c592761c666aa641d5a01a40f17ffff6007606d6080811062000da457fe5b0181905550700110a688680a7530515f3e6e6cfdcdffff6007606e6080811062000dca57fe5b01819055507001056f1b5bedf75c6bcb2ce8aed428ffff6007606f6080811062000df057fe5b01819055506ffaadceceeff8a0890f3875f008277fff600760706080811062000e1557fe5b01819055506ff05dc6b27edad306388a600f6ba0bfff600760716080811062000e3a57fe5b01819055506fe67a5a25da41063de1495d5b18cdbfff600760726080811062000e5f57fe5b01819055506fdcff115b14eedde6fc3aa5353f2e4fff600760736080811062000e8457fe5b01819055506fd3e7a3924312399f9aae2e0f868f8fff600760746080811062000ea957fe5b01819055506fcb2ff529eb71e41582cccd5a1ee26fff600760756080811062000ece57fe5b01819055506fc2d415c3db974ab32a51840c0b67edff600760766080811062000ef357fe5b01819055506fbad03e7d883f69ad5b0a186184e06bff600760776080811062000f1857fe5b01819055506fb320d03b2c343d4829abd6075f0cc5ff600760786080811062000f3d57fe5b01819055506fabc25204e02828d73c6e80bcdb1a95bf600760796080811062000f6257fe5b01819055506fa4b16f74ee4bb2040a1ec6c15fbbf2df6007607a6080811062000f8757fe5b01819055506f9deaf736ac1f569deb1b5ae3f36c130f6007607b6080811062000fac57fe5b01819055506f976bd9952c7aa957f5937d790ef650376007607c6080811062000fd157fe5b01819055506f9131271922eaa6064b73a22d0bd4f2bf6007607d6080811062000ff657fe5b01819055506f8b380f3558668c46c91c49a2f8e967b96007607e608081106200101b57fe5b01819055506f857ddf0117efa215952912839f6473e66007607f608081106200104057fe5b018190555060008163ffffffff1611620010c2576040517f08c379a00000000000000000000000000000000000000000000000000000000081526004018080602001828103825260188152602001807f496e76616c6964206d617820746f6b656e20636f756e742e000000000000000081525060200191505060405180910390fd5b81608860006101000a81548163ffffffff021916908363ffffffff1602179055506205091060898190555080608a60006101000a81548163ffffffff021916908363ffffffff160217905550620011213360016200113160201b60201c565b50506200144c565b600033905090565b600073ffffffffffffffffffffffffffffffffffffffff168273ffffffffffffffffffffffffffffffffffffffff161415620011d5576040517f08c379a000000000000000000000000000000000000000000000000000000000815260040180806020018281038252601f8152602001807f45524332303a206d696e7420746f20746865207a65726f20616464726573730081525060200191505060405180910390fd5b620011e9600083836200130f60201b60201c565b62001205816002546200131460201b620022cc1790919060201c565b60028190555062001263816000808573ffffffffffffffffffffffffffffffffffffffff1673ffffffffffffffffffffffffffffffffffffffff168152602001908152602001600020546200131460201b620022cc1790919060201c565b6000808473ffffffffffffffffffffffffffffffffffffffff1673ffffffffffffffffffffffffffffffffffffffff168152602001908152602001600020819055508173ffffffffffffffffffffffffffffffffffffffff16600073ffffffffffffffffffffffffffffffffffffffff167fddf252ad1be2c89b69c2b068fc378daa952ba7f163c4a11628f55a4df523b3ef836040518082815260200191505060405180910390a35050565b505050565b60008082840190508381101562001393576040517f08c379a000000000000000000000000000000000000000000000000000000000815260040180806020018281038252601b8152602001807f536166654d6174683a206164646974696f6e206f766572666c6f77000000000081525060200191505060405180910390fd5b8091505092915050565b828054600181600116156101000203166002900490600052602060002090601f016020900481019282601f10620013e057805160ff191683800117855562001411565b8280016001018555821562001411579182015b8281111562001410578251825591602001919060010190620013f3565b5b50905062001420919062001424565b5090565b6200144991905b80821115620014455760008160009055506001016200142b565b5090565b90565b61403f806200145c6000396000f3fe6080604052600436106101d85760003560e01c80637cefcc5211610102578063a9059cbb11610095578063dd62ed3e11610064578063dd62ed3e14610b08578063eb91d37e14610b8d578063f2fde38b14610bb8578063f97511d314610c09576101d8565b8063a9059cbb146109a6578063bc3c39cb14610a19578063c4e627c214610a68578063d93404b514610a9f576101d8565b806395d89b41116100d157806395d89b411461086e578063a10954fe146108fe578063a457c2d714610929578063a6f2ae3a1461099c576101d8565b80637cefcc5214610718578063828f3a9c1461074f5780638c1f320e1461079e5780638da5cb5b14610817576101d8565b8063395093511161017a57806354fd4d501161014957806354fd4d50146105cb57806363c51fbb1461065b57806370a082311461069c578063715018a614610701576101d8565b8063395093511461046d57806349f9b0f7146104e05780634ffd23a71461055357806352f6ee5814610594576101d8565b806318160ddd116101b657806318160ddd1461030b57806323b872dd1461033657806329a00e7c146103c9578063313ce5671461043c576101d8565b806306fdde03146101dd578063095ea7b31461026d5780630c7d5cd8146102e0575b600080fd5b3480156101e957600080fd5b506101f2610c5e565b6040518080602001828103825283818151815260200191508051906020019080838360005b83811015610232578082015181840152602081019050610217565b50505050905090810190601f16801561025f5780820380516001836020036101000a031916815260200191505b509250505060405180910390f35b34801561027957600080fd5b506102c66004803603604081101561029057600080fd5b81019080803573ffffffffffffffffffffffffffffffffffffffff16906020019092919080359060200190929190505050610d00565b604051808215151515815260200191505060405180910390f35b3480156102ec57600080fd5b506102f5610d1e565b6040518082815260200191505060405180910390f35b34801561031757600080fd5b50610320610d24565b6040518082815260200191505060405180910390f35b34801561034257600080fd5b506103af6004803603606081101561035957600080fd5b81019080803573ffffffffffffffffffffffffffffffffffffffff169060200190929190803573ffffffffffffffffffffffffffffffffffffffff16906020019092919080359060200190929190505050610d2e565b604051808215151515815260200191505060405180910390f35b3480156103d557600080fd5b50610426600480360360808110156103ec57600080fd5b810190808035906020019092919080359060200190929190803563ffffffff16906020019092919080359060200190929190505050610e07565b6040518082815260200191505060405180910390f35b34801561044857600080fd5b50610451610f61565b604051808260ff1660ff16815260200191505060405180910390f35b34801561047957600080fd5b506104c66004803603604081101561049057600080fd5b81019080803573ffffffffffffffffffffffffffffffffffffffff16906020019092919080359060200190929190505050610f78565b604051808215151515815260200191505060405180910390f35b3480156104ec57600080fd5b5061053d6004803603608081101561050357600080fd5b810190808035906020019092919080359060200190929190803563ffffffff1690602001909291908035906020019092919050505061102b565b6040518082815260200191505060405180910390f35b34801561055f57600080fd5b506105926004803603602081101561057657600080fd5b81019080803563ffffffff16906020019092919050505061115b565b005b3480156105a057600080fd5b506105a96111b3565b604051808263ffffffff1663ffffffff16815260200191505060405180910390f35b3480156105d757600080fd5b506105e06111c9565b6040518080602001828103825283818151815260200191508051906020019080838360005b83811015610620578082015181840152602081019050610605565b50505050905090810190601f16801561064d5780820380516001836020036101000a031916815260200191505b509250505060405180910390f35b34801561066757600080fd5b5061069a6004803603602081101561067e57600080fd5b81019080803563ffffffff169060200190929190505050611267565b005b3480156106a857600080fd5b506106eb600480360360208110156106bf57600080fd5b81019080803573ffffffffffffffffffffffffffffffffffffffff169060200190929190505050611273565b6040518082815260200191505060405180910390f35b34801561070d57600080fd5b506107166112bb565b005b34801561072457600080fd5b5061072d611446565b604051808263ffffffff1663ffffffff16815260200191505060405180910390f35b34801561075b57600080fd5b506107886004803603602081101561077257600080fd5b810190808035906020019092919050505061145c565b6040518082815260200191505060405180910390f35b3480156107aa57600080fd5b50610801600480360360808110156107c157600080fd5b810190808035906020019092919080359060200190929190803563ffffffff169060200190929190803563ffffffff169060200190929190505050611496565b6040518082815260200191505060405180910390f35b34801561082357600080fd5b5061082c6115d7565b604051808273ffffffffffffffffffffffffffffffffffffffff1673ffffffffffffffffffffffffffffffffffffffff16815260200191505060405180910390f35b34801561087a57600080fd5b50610883611601565b6040518080602001828103825283818151815260200191508051906020019080838360005b838110156108c35780820151818401526020810190506108a8565b50505050905090810190601f1680156108f05780820380516001836020036101000a031916815260200191505b509250505060405180910390f35b34801561090a57600080fd5b506109136116a3565b6040518082815260200191505060405180910390f35b34801561093557600080fd5b506109826004803603604081101561094c57600080fd5b81019080803573ffffffffffffffffffffffffffffffffffffffff169060200190929190803590602001909291905050506116a9565b604051808215151515815260200191505060405180910390f35b6109a4611776565b005b3480156109b257600080fd5b506109ff600480360360408110156109c957600080fd5b81019080803573ffffffffffffffffffffffffffffffffffffffff169060200190929190803590602001909291905050506117f8565b604051808215151515815260200191505060405180910390f35b348015610a2557600080fd5b50610a5260048036036020811015610a3c57600080fd5b8101908080359060200190929190505050611816565b6040518082815260200191505060405180910390f35b348015610a7457600080fd5b50610a7d611850565b604051808263ffffffff1663ffffffff16815260200191505060405180910390f35b348015610aab57600080fd5b50610af260048036036060811015610ac257600080fd5b810190808035906020019092919080359060200190929190803563ffffffff169060200190929190505050611866565b6040518082815260200191505060405180910390f35b348015610b1457600080fd5b50610b7760048036036040811015610b2b57600080fd5b81019080803573ffffffffffffffffffffffffffffffffffffffff169060200190929190803573ffffffffffffffffffffffffffffffffffffffff169060200190929190505050611964565b6040518082815260200191505060405180910390f35b348015610b9957600080fd5b50610ba26119eb565b6040518082815260200191505060405180910390f35b348015610bc457600080fd5b50610c0760048036036020811015610bdb57600080fd5b81019080803573ffffffffffffffffffffffffffffffffffffffff169060200190929190505050611a22565b005b348015610c1557600080fd5b50610c4860048036036020811015610c2c57600080fd5b81019080803563ffffffff169060200190929190505050611c32565b6040518082815260200191505060405180910390f35b606060038054600181600116156101000203166002900480601f016020809104026020016040519081016040528092919081815260200182805460018160011615610100020316600290048015610cf65780601f10610ccb57610100808354040283529160200191610cf6565b820191906000526020600020905b815481529060010190602001808311610cd957829003601f168201915b5050505050905090565b6000610d14610d0d611c7c565b8484611c84565b6001905092915050565b60895481565b6000600254905090565b6000610d3b848484611e7b565b610dfc84610d47611c7c565b610df785604051806060016040528060288152602001613f5360289139600160008b73ffffffffffffffffffffffffffffffffffffffff1673ffffffffffffffffffffffffffffffffffffffff1681526020019081526020016000206000610dad611c7c565b73ffffffffffffffffffffffffffffffffffffffff1673ffffffffffffffffffffffffffffffffffffffff1681526020019081526020016000205461213c9092919063ffffffff16565b611c84565b600190509392505050565b60008085118015610e185750600084115b8015610e2a575060008363ffffffff16115b8015610e455750620f424063ffffffff168363ffffffff1611155b610e4e57600080fd5b6000821415610e605760009050610f59565b620f424063ffffffff168363ffffffff161415610ea357610e9c84610e8e84886121fc90919063ffffffff16565b61228290919063ffffffff16565b9050610f59565b6000806000610ebb87866122cc90919063ffffffff16565b9050610ecc818888620f4240612354565b80935081945050506000610eef8360ff1685901c8a6121fc90919063ffffffff16565b90507fa333e165d7e9f567aac9321f73ab8b288a12a80333e36632432d2378e280649b89878560ff1684604051808581526020018481526020018363ffffffff1663ffffffff16815260200182815260200194505050505060405180910390a18881039450505050505b949350505050565b6000600560009054906101000a900460ff16905090565b6000611021610f85611c7c565b8461101c8560016000610f96611c7c565b73ffffffffffffffffffffffffffffffffffffffff1673ffffffffffffffffffffffffffffffffffffffff16815260200190815260200160002060008973ffffffffffffffffffffffffffffffffffffffff1673ffffffffffffffffffffffffffffffffffffffff168152602001908152602001600020546122cc90919063ffffffff16565b611c84565b6001905092915050565b6000808511801561103c5750600084115b801561104e575060008363ffffffff16115b80156110695750620f424063ffffffff168363ffffffff1611155b80156110755750848211155b61107e57600080fd5b60008214156110905760009050611153565b848214156110a057839050611153565b620f424063ffffffff168363ffffffff1614156110e3576110dc856110ce84876121fc90919063ffffffff16565b61228290919063ffffffff16565b9050611153565b600080600084880390506110fc8882620f424089612354565b8093508194505050600061111984896121fc90919063ffffffff16565b905060008360ff1689901b905061114b8561113d838561252890919063ffffffff16565b61228290919063ffffffff16565b955050505050505b949350505050565b600061116682612572565b90503373ffffffffffffffffffffffffffffffffffffffff166108fc829081150290604051600060405180830381858888f193505050501580156111ae573d6000803e3d6000fd5b505050565b608860009054906101000a900463ffffffff1681565b60068054600181600116156101000203166002900480601f01602080910402602001604051908101604052809291908181526020018280546001816001161561010002031660029004801561125f5780601f106112345761010080835404028352916020019161125f565b820191906000526020600020905b81548152906001019060200180831161124257829003601f168201915b505050505081565b61127081612678565b50565b60008060008373ffffffffffffffffffffffffffffffffffffffff1673ffffffffffffffffffffffffffffffffffffffff168152602001908152602001600020549050919050565b6112c3611c7c565b73ffffffffffffffffffffffffffffffffffffffff16600560019054906101000a900473ffffffffffffffffffffffffffffffffffffffff1673ffffffffffffffffffffffffffffffffffffffff1614611385576040517f08c379a00000000000000000000000000000000000000000000000000000000081526004018080602001828103825260208152602001807f4f776e61626c653a2063616c6c6572206973206e6f7420746865206f776e657281525060200191505060405180910390fd5b600073ffffffffffffffffffffffffffffffffffffffff16600560019054906101000a900473ffffffffffffffffffffffffffffffffffffffff1673ffffffffffffffffffffffffffffffffffffffff167f8be0079c531659141344cd1fd0a4f28419497f9722a3daafe3b4186f6b6457e060405160405180910390a36000600560016101000a81548173ffffffffffffffffffffffffffffffffffffffff021916908373ffffffffffffffffffffffffffffffffffffffff160217905550565b608a60049054906101000a900463ffffffff1681565b600061148f608a60049054906101000a900463ffffffff1663ffffffff16611482610d24565b0160875460895485610e07565b9050919050565b600080851180156114a75750600084115b80156114b9575060008363ffffffff16115b6114c257600080fd5b60008263ffffffff1614156114da57600090506115cf565b60018363ffffffff16141561151b5761151485611506868563ffffffff166121fc90919063ffffffff16565b61228290919063ffffffff16565b90506115cf565b600080611536878563ffffffff160188600188016001612354565b80925081935050507fa333e165d7e9f567aac9321f73ab8b288a12a80333e36632432d2378e280649b87878761157b8560ff1687901c8b6121fc90919063ffffffff16565b604051808581526020018481526020018363ffffffff1663ffffffff16815260200182815260200194505050505060405180910390a16115ca8160ff1683901c876121fc90919063ffffffff16565b925050505b949350505050565b6000600560019054906101000a900473ffffffffffffffffffffffffffffffffffffffff16905090565b606060048054600181600116156101000203166002900480601f0160208091040260200160405190810160405280929190818152602001828054600181600116156101000203166002900480156116995780601f1061166e57610100808354040283529160200191611699565b820191906000526020600020905b81548152906001019060200180831161167c57829003601f168201915b5050505050905090565b60875481565b600061176c6116b6611c7c565b8461176785604051806060016040528060258152602001613fe560259139600160006116e0611c7c565b73ffffffffffffffffffffffffffffffffffffffff1673ffffffffffffffffffffffffffffffffffffffff16815260200190815260200160002060008a73ffffffffffffffffffffffffffffffffffffffff1673ffffffffffffffffffffffffffffffffffffffff1681526020019081526020016000205461213c9092919063ffffffff16565b611c84565b6001905092915050565b600034116117ec576040517f08c379a000000000000000000000000000000000000000000000000000000000815260040180806020018281038252601e8152602001807f4d7573742073656e6420657468657220746f2062757920746f6b656e732e000081525060200191505060405180910390fd5b6117f5346127c0565b50565b600061180c611805611c7c565b8484611e7b565b6001905092915050565b6000611849608a60049054906101000a900463ffffffff1663ffffffff1661183c610d24565b016087546089548561102b565b9050919050565b608a60009054906101000a900463ffffffff1681565b600080841180156118775750600083115b8015611889575060008263ffffffff16115b80156118a45750620f424063ffffffff168263ffffffff1611155b6118ad57600080fd5b60006118cb620f424063ffffffff16856121fc90919063ffffffff16565b905060006118e88463ffffffff16876121fc90919063ffffffff16565b90507fa333e165d7e9f567aac9321f73ab8b288a12a80333e36632432d2378e280649b868686611921858761228290919063ffffffff16565b604051808581526020018481526020018363ffffffff1663ffffffff16815260200182815260200194505050505060405180910390a16001925050509392505050565b6000600160008473ffffffffffffffffffffffffffffffffffffffff1673ffffffffffffffffffffffffffffffffffffffff16815260200190815260200160002060008373ffffffffffffffffffffffffffffffffffffffff1673ffffffffffffffffffffffffffffffffffffffff16815260200190815260200160002054905092915050565b6000611a1d608a60049054906101000a900463ffffffff1663ffffffff16611a11610d24565b01608754608954611866565b905090565b611a2a611c7c565b73ffffffffffffffffffffffffffffffffffffffff16600560019054906101000a900473ffffffffffffffffffffffffffffffffffffffff1673ffffffffffffffffffffffffffffffffffffffff1614611aec576040517f08c379a00000000000000000000000000000000000000000000000000000000081526004018080602001828103825260208152602001807f4f776e61626c653a2063616c6c6572206973206e6f7420746865206f776e657281525060200191505060405180910390fd5b600073ffffffffffffffffffffffffffffffffffffffff168173ffffffffffffffffffffffffffffffffffffffff161415611b72576040517f08c379a0000000000000000000000000000000000000000000000000000000008152600401808060200182810382526026815260200180613ec46026913960400191505060405180910390fd5b8073ffffffffffffffffffffffffffffffffffffffff16600560019054906101000a900473ffffffffffffffffffffffffffffffffffffffff1673ffffffffffffffffffffffffffffffffffffffff167f8be0079c531659141344cd1fd0a4f28419497f9722a3daafe3b4186f6b6457e060405160405180910390a380600560016101000a81548173ffffffffffffffffffffffffffffffffffffffff021916908373ffffffffffffffffffffffffffffffffffffffff16021790555050565b6000611c75608a60049054906101000a900463ffffffff1663ffffffff16611c58610d24565b01608754608860009054906101000a900463ffffffff1685611496565b9050919050565b600033905090565b600073ffffffffffffffffffffffffffffffffffffffff168373ffffffffffffffffffffffffffffffffffffffff161415611d0a576040517f08c379a0000000000000000000000000000000000000000000000000000000008152600401808060200182810382526024815260200180613fc16024913960400191505060405180910390fd5b600073ffffffffffffffffffffffffffffffffffffffff168273ffffffffffffffffffffffffffffffffffffffff161415611d90576040517f08c379a0000000000000000000000000000000000000000000000000000000008152600401808060200182810382526022815260200180613eea6022913960400191505060405180910390fd5b80600160008573ffffffffffffffffffffffffffffffffffffffff1673ffffffffffffffffffffffffffffffffffffffff16815260200190815260200160002060008473ffffffffffffffffffffffffffffffffffffffff1673ffffffffffffffffffffffffffffffffffffffff168152602001908152602001600020819055508173ffffffffffffffffffffffffffffffffffffffff168373ffffffffffffffffffffffffffffffffffffffff167f8c5be1e5ebec7d5bd14f71427d1e84f3dd0314c0f7b2291e5b200ac8c7c3b925836040518082815260200191505060405180910390a3505050565b600073ffffffffffffffffffffffffffffffffffffffff168373ffffffffffffffffffffffffffffffffffffffff161415611f01576040517f08c379a0000000000000000000000000000000000000000000000000000000008152600401808060200182810382526025815260200180613f9c6025913960400191505060405180910390fd5b600073ffffffffffffffffffffffffffffffffffffffff168273ffffffffffffffffffffffffffffffffffffffff161415611f87576040517f08c379a0000000000000000000000000000000000000000000000000000000008152600401808060200182810382526023815260200180613e7f6023913960400191505060405180910390fd5b611f92838383612921565b611ffd81604051806060016040528060268152602001613f0c602691396000808773ffffffffffffffffffffffffffffffffffffffff1673ffffffffffffffffffffffffffffffffffffffff1681526020019081526020016000205461213c9092919063ffffffff16565b6000808573ffffffffffffffffffffffffffffffffffffffff1673ffffffffffffffffffffffffffffffffffffffff16815260200190815260200160002081905550612090816000808573ffffffffffffffffffffffffffffffffffffffff1673ffffffffffffffffffffffffffffffffffffffff168152602001908152602001600020546122cc90919063ffffffff16565b6000808473ffffffffffffffffffffffffffffffffffffffff1673ffffffffffffffffffffffffffffffffffffffff168152602001908152602001600020819055508173ffffffffffffffffffffffffffffffffffffffff168373ffffffffffffffffffffffffffffffffffffffff167fddf252ad1be2c89b69c2b068fc378daa952ba7f163c4a11628f55a4df523b3ef836040518082815260200191505060405180910390a3505050565b60008383111582906121e9576040517f08c379a00000000000000000000000000000000000000000000000000000000081526004018080602001828103825283818151815260200191508051906020019080838360005b838110156121ae578082015181840152602081019050612193565b50505050905090810190601f1680156121db5780820380516001836020036101000a031916815260200191505b509250505060405180910390fd5b5060008385039050809150509392505050565b60008083141561220f576000905061227c565b600082840290508284828161222057fe5b0414612277576040517f08c379a0000000000000000000000000000000000000000000000000000000008152600401808060200182810382526021815260200180613f326021913960400191505060405180910390fd5b809150505b92915050565b60006122c483836040518060400160405280601a81526020017f536166654d6174683a206469766973696f6e206279207a65726f000000000000815250612926565b905092915050565b60008082840190508381101561234a576040517f08c379a000000000000000000000000000000000000000000000000000000000815260040180806020018281038252601b8152602001807f536166654d6174683a206164646974696f6e206f766572666c6f77000000000081525060200191505060405180910390fd5b8091505092915050565b60008070020000000000000000000000000000000086106123dd576040517f08c379a00000000000000000000000000000000000000000000000000000000081526004018080602001828103825260188152602001807f626173654e2065786365656473206d61782076616c75652e000000000000000081525060200191505060405180910390fd5b84861015612453576040517f08c379a000000000000000000000000000000000000000000000000000000000815260040180806020018281038252601c8152602001807f4261736573203c203120617265206e6f7420737570706f727465642e0000000081525060200191505060405180910390fd5b600080866f8000000000000000000000000000000089028161247157fe5b04905070015bf0a8b1457695355fb8ac404e7a79e381101561249d57612496816129ec565b91506124a9565b6124a681612f7c565b91505b60008563ffffffff168763ffffffff168402816124c257fe5b0490507008000000000000000000000000000000008110156124f5576124e7816130a4565b607f9450945050505061251f565b60006125008261361e565b905061251581607f0360ff1683901c826136d3565b8195509550505050505b94509492505050565b600061256a83836040518060400160405280601e81526020017f536166654d6174683a207375627472616374696f6e206f766572666c6f77000081525061213c565b905092915050565b6000808263ffffffff16116125ef576040517f08c379a00000000000000000000000000000000000000000000000000000000081526004018080602001828103825260188152602001807f416d6f756e74206d757374206265206e6f6e2d7a65726f2e000000000000000081525060200191505060405180910390fd5b8163ffffffff166125ff33611273565b1015612673576040517f08c379a000000000000000000000000000000000000000000000000000000000815260040180806020018281038252601c8152602001807f496e73756666696369656e7420746f6b656e7320746f2073656c6c2e0000000081525060200191505060405180910390fd5b919050565b60008163ffffffff16116126f4576040517f08c379a00000000000000000000000000000000000000000000000000000000081526004018080602001828103825260188152602001807f416d6f756e74206d757374206265206e6f6e2d7a65726f2e000000000000000081525060200191505060405180910390fd5b8063ffffffff1661270433611273565b1015612778576040517f08c379a000000000000000000000000000000000000000000000000000000000815260040180806020018281038252601c8152602001807f496e73756666696369656e7420746f6b656e7320746f206275726e2e0000000081525060200191505060405180910390fd5b612788338263ffffffff16613a71565b80608a60049054906101000a900463ffffffff1601608a60046101000a81548163ffffffff021916908363ffffffff16021790555050565b6000608a60009054906101000a900463ffffffff1663ffffffff16608a60049054906101000a900463ffffffff1663ffffffff166127fc610d24565b0110612870576040517f08c379a000000000000000000000000000000000000000000000000000000000815260040180806020018281038252601e8152602001807f536f7272792c207468697320746f6b656e20697320736f6c64206f75742e000081525060200191505060405180910390fd5b600082116128e6576040517f08c379a00000000000000000000000000000000000000000000000000000000081526004018080602001828103825260198152602001807f4465706f736974206d757374206265206e6f6e2d7a65726f2e0000000000000081525060200191505060405180910390fd5b60006128f18361145c565b90506128fd3382613c35565b612912836087546122cc90919063ffffffff16565b60878190555080915050919050565b505050565b600080831182906129d2576040517f08c379a00000000000000000000000000000000000000000000000000000000081526004018080602001828103825283818151815260200191508051906020019080838360005b8381101561299757808201518184015260208101905061297c565b50505050905090810190601f1680156129c45780820380516001836020036101000a031916815260200191505b509250505060405180910390fd5b5060008385816129de57fe5b049050809150509392505050565b6000806000905060008060006fd3094c70f034de4b96ff7d5b6f99fcd88610612a53576f40000000000000000000000000000000840193506fd3094c70f034de4b96ff7d5b6f99fcd86f80000000000000000000000000000000870281612a4f57fe5b0495505b6fa45af1e1f40c333b3de1db4dd55f29a78610612aae576f20000000000000000000000000000000840193506fa45af1e1f40c333b3de1db4dd55f29a76f80000000000000000000000000000000870281612aaa57fe5b0495505b6f910b022db7ae67ce76b441c27035c6a18610612b09576f10000000000000000000000000000000840193506f910b022db7ae67ce76b441c27035c6a16f80000000000000000000000000000000870281612b0557fe5b0495505b6f88415abbe9a76bead8d00cf112e4d4a88610612b64576f08000000000000000000000000000000840193506f88415abbe9a76bead8d00cf112e4d4a86f80000000000000000000000000000000870281612b6057fe5b0495505b6f84102b00893f64c705e841d5d4064bd38610612bbf576f04000000000000000000000000000000840193506f84102b00893f64c705e841d5d4064bd36f80000000000000000000000000000000870281612bbb57fe5b0495505b6f8204055aaef1c8bd5c3259f4822735a28610612c1a576f02000000000000000000000000000000840193506f8204055aaef1c8bd5c3259f4822735a26f80000000000000000000000000000000870281612c1657fe5b0495505b6f810100ab00222d861931c15e39b44e998610612c75576f01000000000000000000000000000000840193506f810100ab00222d861931c15e39b44e996f80000000000000000000000000000000870281612c7157fe5b0495505b6f808040155aabbbe9451521693554f7338610612ccf576e800000000000000000000000000000840193506f808040155aabbbe9451521693554f7336f80000000000000000000000000000000870281612ccb57fe5b0495505b6f80000000000000000000000000000000860392508291506f8000000000000000000000000000000083840281612d0257fe5b0490507001000000000000000000000000000000008370010000000000000000000000000000000003830281612d3457fe5b04840193506f8000000000000000000000000000000081830281612d5457fe5b049150700200000000000000000000000000000000836faaaaaaaaaaaaaaaaaaaaaaaaaaaaaaaa03830281612d8557fe5b04840193506f8000000000000000000000000000000081830281612da557fe5b049150700300000000000000000000000000000000836f9999999999999999999999999999999903830281612dd657fe5b04840193506f8000000000000000000000000000000081830281612df657fe5b049150700400000000000000000000000000000000836f9249249249249249249249249249249203830281612e2757fe5b04840193506f8000000000000000000000000000000081830281612e4757fe5b049150700500000000000000000000000000000000836f8e38e38e38e38e38e38e38e38e38e38e03830281612e7857fe5b04840193506f8000000000000000000000000000000081830281612e9857fe5b049150700600000000000000000000000000000000836f8ba2e8ba2e8ba2e8ba2e8ba2e8ba2e8b03830281612ec957fe5b04840193506f8000000000000000000000000000000081830281612ee957fe5b049150700700000000000000000000000000000000836f89d89d89d89d89d89d89d89d89d89d8903830281612f1a57fe5b04840193506f8000000000000000000000000000000081830281612f3a57fe5b049150700800000000000000000000000000000000836f8888888888888888888888888888888803830281612f6b57fe5b048401935083945050505050919050565b6000806000905060008390507001000000000000000000000000000000008110612fe9576000612fc46f800000000000000000000000000000008381612fbe57fe5b04613dfc565b90508060ff1682901c91506f800000000000000000000000000000008160ff16029250505b6f8000000000000000000000000000000081111561306f576000607f90505b60008160ff16111561306d576f800000000000000000000000000000008283028161302f57fe5b049150700100000000000000000000000000000000821061306157600182901c91506001810360ff166001901b830192505b80600190039050613008565b505b6f05b9de1d10bf4103d647b0955897ba806f03f80fe03f80fe03f80fe03f80fe03f883028161309a57fe5b0492505050919050565b600080600090506000806f1000000000000000000000000000000085816130c757fe5b0691508190506f80000000000000000000000000000000828202816130e857fe5b0490506710e1b3be415a00008102830192506f800000000000000000000000000000008282028161311557fe5b0490506705a0913f6b1e00008102830192506f800000000000000000000000000000008282028161314257fe5b049050670168244fdac780008102830192506f800000000000000000000000000000008282028161316f57fe5b049050664807432bc180008102830192506f800000000000000000000000000000008282028161319b57fe5b049050660c0135dca040008102830192506f80000000000000000000000000000000828202816131c757fe5b0490506601b707b1cdc0008102830192506f80000000000000000000000000000000828202816131f357fe5b0490506536e0f639b8008102830192506f800000000000000000000000000000008282028161321e57fe5b049050650618fee9f8008102830192506f800000000000000000000000000000008282028161324957fe5b049050649c197dcc008102830192506f800000000000000000000000000000008282028161327357fe5b049050640e30dce4008102830192506f800000000000000000000000000000008282028161329d57fe5b04905064012ebd13008102830192506f80000000000000000000000000000000828202816132c757fe5b0490506317499f008102830192506f80000000000000000000000000000000828202816132f057fe5b0490506301a9d4808102830192506f800000000000000000000000000000008282028161331957fe5b049050621c63808102830192506f800000000000000000000000000000008282028161334157fe5b0490506201c6388102830192506f800000000000000000000000000000008282028161336957fe5b049050611ab88102830192506f800000000000000000000000000000008282028161339057fe5b04905061017c8102830192506f80000000000000000000000000000000828202816133b757fe5b04905060148102830192506f80000000000000000000000000000000828202816133dd57fe5b04905060018102830192506f80000000000000000000000000000000826721c3677c82b40000858161340b57fe5b040101925060006f1000000000000000000000000000000086161461345b5770018ebef9eac820ae8682b9793ac6d1e7767001c3d6a24ed82218787d624d3e5eba95f984028161345757fe5b0492505b60006f200000000000000000000000000000008616146134a6577001368b2fc6f9609fe7aceb46aa619baed470018ebef9eac820ae8682b9793ac6d1e7788402816134a257fe5b0492505b60006f400000000000000000000000000000008616146134f0576fbc5ab1b16779be3575bd8f0520a9f21f7001368b2fc6f9609fe7aceb46aa619baed58402816134ec57fe5b0492505b60006f80000000000000000000000000000000861614613539576f454aaa8efe072e7f6ddbab84b40a55c96fbc5ab1b16779be3575bd8f0520a9f21e84028161353557fe5b0492505b6000700100000000000000000000000000000000861614613583576f0960aadc109e7a3bf4578099615711ea6f454aaa8efe072e7f6ddbab84b40a55c584028161357f57fe5b0492505b60007002000000000000000000000000000000008616146135cc576e2bf84208204f5977f9a8cf01fdce3d6f0960aadc109e7a3bf4578099615711d78402816135c857fe5b0492505b6000700400000000000000000000000000000000861614613613576d03c6ab775dd0b95b4cbee7e65d116e2bf84208204f5977f9a8cf01fdc30784028161360f57fe5b0492505b829350505050919050565b600080602090506000607f90505b8060ff166001830160ff16101561367b576000600282840160ff168161364e57fe5b0490508460078260ff166080811061366257fe5b01541061367157809250613675565b8091505b5061362c565b8360078260ff166080811061368c57fe5b01541061369d5780925050506136ce565b8360078360ff16608081106136ae57fe5b0154106136bf5781925050506136ce565b60006136c757fe5b6000925050505b919050565b60008083905060008090508360ff16858302901c91506f03442c4e6074a82f1797f72ac00000008202810190508360ff16858302901c91506f0116b96f757c380fb287fd0e400000008202810190508360ff16858302901c91506e45ae5bdd5f0e03eca1ff43900000008202810190508360ff16858302901c91506e0defabf91302cd95b9ffda500000008202810190508360ff16858302901c91506e02529ca9832b22439efff9b80000008202810190508360ff16858302901c91506d54f1cf12bd04e516b6da880000008202810190508360ff16858302901c91506d0a9e39e257a09ca2d6db510000008202810190508360ff16858302901c91506d012e066e7b839fa050c3090000008202810190508360ff16858302901c91506c1e33d7d926c329a1ad1a8000008202810190508360ff16858302901c91506c02bee513bdb4a6b19b5f8000008202810190508360ff16858302901c91506b3a9316fa79b88eccf2a000008202810190508360ff16858302901c91506b048177ebe1fa8123752000008202810190508360ff16858302901c91506a5263fe90242dcbacf000008202810190508360ff16858302901c91506a057e22099c030d941000008202810190508360ff16858302901c91506957e22099c030d94100008202810190508360ff16858302901c915069052b6b545699763100008202810190508360ff16858302901c9150684985f67696bf7480008202810190508360ff16858302901c91506803dea12ea99e4980008202810190508360ff16858302901c91506731880f2214b6e0008202810190508360ff16858302901c915067025bcff56eb360008202810190508360ff16858302901c9150661b722e10ab10008202810190508360ff16858302901c91506601317c700770008202810190508360ff16858302901c9150650cba84aafa008202810190508360ff16858302901c91506482573a0a008202810190508360ff16858302901c91506405035ad9008202810190508360ff16858302901c9150632f881b008202810190508360ff16858302901c91506301b293408202810190508360ff16858302901c9150620efc408202810190508360ff16858302901c9150617fe08202810190508360ff16858302901c91506104208202810190508360ff16858302901c915060218202810190508360ff16858302901c915060018202810190508360ff166001901b856f0688589cc0e9505e2f2fee55800000008381613a6457fe5b0401019250505092915050565b600073ffffffffffffffffffffffffffffffffffffffff168273ffffffffffffffffffffffffffffffffffffffff161415613af7576040517f08c379a0000000000000000000000000000000000000000000000000000000008152600401808060200182810382526021815260200180613f7b6021913960400191505060405180910390fd5b613b0382600083612921565b613b6e81604051806060016040528060228152602001613ea2602291396000808673ffffffffffffffffffffffffffffffffffffffff1673ffffffffffffffffffffffffffffffffffffffff1681526020019081526020016000205461213c9092919063ffffffff16565b6000808473ffffffffffffffffffffffffffffffffffffffff1673ffffffffffffffffffffffffffffffffffffffff16815260200190815260200160002081905550613bc58160025461252890919063ffffffff16565b600281905550600073ffffffffffffffffffffffffffffffffffffffff168273ffffffffffffffffffffffffffffffffffffffff167fddf252ad1be2c89b69c2b068fc378daa952ba7f163c4a11628f55a4df523b3ef836040518082815260200191505060405180910390a35050565b600073ffffffffffffffffffffffffffffffffffffffff168273ffffffffffffffffffffffffffffffffffffffff161415613cd8576040517f08c379a000000000000000000000000000000000000000000000000000000000815260040180806020018281038252601f8152602001807f45524332303a206d696e7420746f20746865207a65726f20616464726573730081525060200191505060405180910390fd5b613ce460008383612921565b613cf9816002546122cc90919063ffffffff16565b600281905550613d50816000808573ffffffffffffffffffffffffffffffffffffffff1673ffffffffffffffffffffffffffffffffffffffff168152602001908152602001600020546122cc90919063ffffffff16565b6000808473ffffffffffffffffffffffffffffffffffffffff1673ffffffffffffffffffffffffffffffffffffffff168152602001908152602001600020819055508173ffffffffffffffffffffffffffffffffffffffff16600073ffffffffffffffffffffffffffffffffffffffff167fddf252ad1be2c89b69c2b068fc378daa952ba7f163c4a11628f55a4df523b3ef836040518082815260200191505060405180910390a35050565b600080600090506000839050610100811015613e33575b6001811115613e2e57600181901c9050600182019150613e13565b613e74565b6000608090505b60008160ff161115613e72578060ff166001901b8210613e63578060ff1682901c915080831792505b60018160ff16901c9050613e3a565b505b819250505091905056fe45524332303a207472616e7366657220746f20746865207a65726f206164647265737345524332303a206275726e20616d6f756e7420657863656564732062616c616e63654f776e61626c653a206e6577206f776e657220697320746865207a65726f206164647265737345524332303a20617070726f766520746f20746865207a65726f206164647265737345524332303a207472616e7366657220616d6f756e7420657863656564732062616c616e6365536166654d6174683a206d756c7469706c69636174696f6e206f766572666c6f7745524332303a207472616e7366657220616d6f756e74206578636565647320616c6c6f77616e636545524332303a206275726e2066726f6d20746865207a65726f206164647265737345524332303a207472616e736665722066726f6d20746865207a65726f206164647265737345524332303a20617070726f76652066726f6d20746865207a65726f206164647265737345524332303a2064656372656173656420616c6c6f77616e63652062656c6f77207a65726fa2646970667358221220d53e6c116cc514b91f37ee0bd7128c7775c051f597dc2e5d06f7df381f88fe1564736f6c63430006060033",
  "immutableReferences": {},
  "source": "pragma solidity ^0.6.6;\n\nimport \"@openzeppelin/contracts/token/ERC20/ERC20.sol\";\nimport \"@openzeppelin/contracts/access/Ownable.sol\";\nimport \"./BancorBondingCurve.sol\";\n\ncontract ProductToken is ERC20, Ownable, BancorBondingCurve {\n\tusing SafeMath for uint256;\n\n\tevent Minted(address sender, uint32 amount, uint deposit);\t\t// event to fire when a new token is minted\n  event Traded(address sender, uint32 amount, uint refund);\t\t\t// event to fire when a token has been sold back\n  event Burned(address sender, uint32 amount);\t\t\t\t\t\t\t\t\t// event to fire when a token is redeemed in the real world\n\n  uint256 public reserveBalance = 330000000000000000;\t\t// amount in ether, about 1/3 of a ether. This is initialized for testing, according to\n                                                        // a pricing function of y = x ^ 2, at a token supply (x) of 1\n  uint32 public exponent;\n  uint256 public reserveRatio;\n\n  uint32 public maxTokenCount;\n  uint32 public burnedCount = 0;\n\n  // mapping (address => uint256) ownerTokenCount;\n\n\t/**\n   * @dev Constructor\n   *\n   * @param _exponent              \t\tthe exponent in the curve function\n   * @param _maxTokenCount\t\t\t\t\t\tthe amount of token that will exist for this type.\n  */\n  constructor(uint32 _exponent, uint32 _maxTokenCount) ERC20(\"ProductToken\", \"\") public {\t\t\n  \trequire(_maxTokenCount > 0, \"Invalid max token count.\");\n  \texponent = _exponent;\n    reserveRatio = 330000; // uint256(1000000).div(uint256(_exponent).add(1));\t\t// initialize the reserve ratio for this token in ppm. This is hardcoded right now because we are testing with 33%\n    maxTokenCount = _maxTokenCount;\n    _mint(msg.sender, 1);\n  }\n\n  /**\n   * @dev When user wants to buy tokens from the pool\n   *\n  */\n  function buy() public payable {\n    require(msg.value > 0, \"Must send ether to buy tokens.\");\n    _discreteMint(msg.value);\n  }\n\n\t/**\n   * @dev When user wants to sell their tokens back to the pool\n   *\n  */\n \tfunction sell(uint32 _amount) public {\n    uint256 returnAmount = _discreteSale(_amount);\n    msg.sender.transfer(returnAmount);\n  }\n\n\t/**\n   * @dev When user wants to trade in their token for retail product\n   * the logistics for transfering product should be handled by the front end\n   *\n  */\n  function tradein(uint32 _amount) public {\n  \t_discreteBurn(_amount);\n  }\n\n  // function () public payable { mint(); }\n\n  // View Functions for outside.\n\n  // Remember this is a view function. Removed view modifier for testing only\n  function getCurrentPrice() \n  \tpublic returns\t(uint256 price)\n  {\n  \treturn calculateUnitPrice(totalSupply() + burnedCount, reserveBalance, uint32(reserveRatio));\n  }\n\n  function getPriceForN(uint32 _amount) \n  \tpublic returns\t(uint256 price)\n  {\n  \treturn calculatePriceForNTokens(totalSupply() + burnedCount, reserveBalance, exponent, _amount);\n  }\n\n  // Remember this is a view function. Removed view modifier for testing only\n  function calculateBuyReturn(uint256 _amount)\n    public returns (uint256 mintAmount)\n  {\n    return calculatePurchaseReturn(totalSupply() + burnedCount, reserveBalance, uint32(reserveRatio), _amount);\n  }\n\n  function calculateSellReturn(uint256 _amount)\n    public view returns (uint256 burnAmount)\n  {\n    return calculateSaleReturn(totalSupply() + burnedCount, reserveBalance, uint32(reserveRatio), _amount);\n  }\n\n  // specific implementations of transaction logics.\n  function _discreteMint(uint256 _deposit)\n    internal returns (uint256)\n  {\n  \trequire(totalSupply() + burnedCount < maxTokenCount, \"Sorry, this token is sold out.\");\n    require(_deposit > 0, \"Deposit must be non-zero.\");\n\n    uint256 amount = calculateBuyReturn(_deposit);\t    // have to make it discrete here. Replace amount with uint32\n\n    _mint(msg.sender, amount);\t\t// have to specifically mint whole numbers\n    reserveBalance = reserveBalance.add(_deposit);\n    // emit Minted(msg.sender, amount, _deposit);\t\t// need to change amount to precise token counts.\n    return amount;\n  }\n\n  // have to add a function about redeeming token\n  function _discreteSale(uint32 _amount)\n    internal returns (uint256)\n  {\n  \trequire(_amount > 0, \"Amount must be non-zero.\");\n    require(balanceOf(msg.sender) >= _amount, \"Insufficient tokens to sell.\");\n\n  \t// uint256 reimburseAmount = calculateSellReturn(_amount);\n \t\t// reserveBalance = reserveBalance.sub(reimburseAmount);\n\n  }\n\n  // have to change return types, since burning a product token have a different set of logics.\n  function _discreteBurn(uint32 _amount)\n    internal \n  {\n    require(_amount > 0, \"Amount must be non-zero.\");\n    require(balanceOf(msg.sender) >= _amount, \"Insufficient tokens to burn.\");\n\n    // have to change burn function here\n    _burn(msg.sender, _amount);\n    // emit Burned(msg.sender, _amount, reimburseAmount);\n    burnedCount = burnedCount + _amount;\t\t\t// Future: use safe math here.\n    // return reimburseAmount;\n  }\n}\n",
  "sourcePath": "/Users/sd/Documents/GitHub/virtualmarket/contracts/ProductToken.sol",
  "compiler": {
    "name": "solc",
    "version": "0.6.6+commit.6c089d02.Emscripten.clang"
  },
  "schemaVersion": "3.3.4",
  "updatedAt": "2021-04-01T18:39:54.771Z",
  "devdoc": {
    "methods": {
      "allowance(address,address)": {
        "details": "See {IERC20-allowance}."
      },
      "approve(address,uint256)": {
        "details": "See {IERC20-approve}.     * Requirements:     * - `spender` cannot be the zero address."
      },
      "balanceOf(address)": {
        "details": "See {IERC20-balanceOf}."
      },
      "buy()": {
        "details": "When user wants to buy tokens from the pool  "
      },
      "calculatePriceForNTokens(uint256,uint256,uint32,uint32)": {
        "details": "Try to compute the price to purchage n token   * Formula: Return = _reserveBalance * ((_amount / _supply + 1) ^ (_exponent + 1) -1)",
        "params": {
          "_amount": "number to tokens one wishes to purchase",
          "_exponent": "The exponent component in the bancor curve.",
          "_reserveBalance": "total reserve token balance",
          "_supply": "continuous token total supply"
        },
        "returns": {
          "_0": "price for N tokens "
        }
      },
      "calculatePurchaseReturn(uint256,uint256,uint32,uint256)": {
        "details": "given a continuous token supply, reserve token balance, reserve ratio, and a deposit amount (in the reserve token), calculates the return for a given conversion (in the continuous token)   * Formula: Return = _supply * ((1 + _depositAmount / _reserveBalance) ^ (_reserveRatio / MAX_RESERVE_RATIO) - 1)",
        "params": {
          "_depositAmount": "deposit amount, in reserve token",
          "_reserveBalance": "total reserve token balance",
          "_reserveRatio": "reserve ratio, represented in ppm, 1-1000000",
          "_supply": "continuous token total supply"
        },
        "returns": {
          "_0": "purchase return amount"
        }
      },
      "calculateSaleReturn(uint256,uint256,uint32,uint256)": {
        "details": "given a continuous token supply, reserve token balance, reserve ratio and a sell amount (in the continuous token), calculates the return for a given conversion (in the reserve token)   * Formula: Return = _reserveBalance * (1 - (1 - _sellAmount / _supply) ^ (1 / (_reserveRatio / MAX_RESERVE_RATIO)))",
        "params": {
          "_reserveBalance": "total reserve token balance",
          "_reserveRatio": "constant reserve ratio, represented in ppm, 1-1000000",
          "_sellAmount": "sell amount, in the continuous token itself",
          "_supply": "continuous token total supply"
        },
        "returns": {
          "_0": "sale return amount"
        }
      },
      "calculateUnitPrice(uint256,uint256,uint32)": {
        "details": "Try to compute the current price for a given token   * Formula: Return = balance / (supply * reserve ratio)",
        "params": {
          "_reserveBalance": "total reserve token balance",
          "_reserveRatio": "reserve ratio, represented in ppm, 1-1000000",
          "_supply": "continuous token total supply"
        },
        "returns": {
          "_0": "unit price per token (as of function call)"
        }
      },
      "constructor": {
        "details": "Constructor",
        "params": {
          "_exponent": "the exponent in the curve function",
          "_maxTokenCount": "the amount of token that will exist for this type."
        }
      },
      "decimals()": {
        "details": "Returns the number of decimals used to get its user representation. For example, if `decimals` equals `2`, a balance of `505` tokens should be displayed to a user as `5,05` (`505 / 10 ** 2`).     * Tokens usually opt for a value of 18, imitating the relationship between Ether and Wei. This is the value {ERC20} uses, unless {_setupDecimals} is called.     * NOTE: This information is only used for _display_ purposes: it in no way affects any of the arithmetic of the contract, including {IERC20-balanceOf} and {IERC20-transfer}."
      },
      "decreaseAllowance(address,uint256)": {
        "details": "Atomically decreases the allowance granted to `spender` by the caller.     * This is an alternative to {approve} that can be used as a mitigation for problems described in {IERC20-approve}.     * Emits an {Approval} event indicating the updated allowance.     * Requirements:     * - `spender` cannot be the zero address. - `spender` must have allowance for the caller of at least `subtractedValue`."
      },
      "increaseAllowance(address,uint256)": {
        "details": "Atomically increases the allowance granted to `spender` by the caller.     * This is an alternative to {approve} that can be used as a mitigation for problems described in {IERC20-approve}.     * Emits an {Approval} event indicating the updated allowance.     * Requirements:     * - `spender` cannot be the zero address."
      },
      "name()": {
        "details": "Returns the name of the token."
      },
      "owner()": {
        "details": "Returns the address of the current owner."
      },
      "renounceOwnership()": {
        "details": "Leaves the contract without owner. It will not be possible to call `onlyOwner` functions anymore. Can only be called by the current owner.     * NOTE: Renouncing ownership will leave the contract without an owner, thereby removing any functionality that is only available to the owner."
      },
      "sell(uint32)": {
        "details": "When user wants to sell their tokens back to the pool  "
      },
      "symbol()": {
        "details": "Returns the symbol of the token, usually a shorter version of the name."
      },
      "totalSupply()": {
        "details": "See {IERC20-totalSupply}."
      },
      "tradein(uint32)": {
        "details": "When user wants to trade in their token for retail product the logistics for transfering product should be handled by the front end  "
      },
      "transfer(address,uint256)": {
        "details": "See {IERC20-transfer}.     * Requirements:     * - `recipient` cannot be the zero address. - the caller must have a balance of at least `amount`."
      },
      "transferFrom(address,address,uint256)": {
        "details": "See {IERC20-transferFrom}.     * Emits an {Approval} event indicating the updated allowance. This is not required by the EIP. See the note at the beginning of {ERC20};     * Requirements: - `sender` and `recipient` cannot be the zero address. - `sender` must have a balance of at least `amount`. - the caller must have allowance for ``sender``'s tokens of at least `amount`."
      },
      "transferOwnership(address)": {
        "details": "Transfers ownership of the contract to a new account (`newOwner`). Can only be called by the current owner."
      }
    }
  },
  "userdoc": {
    "methods": {}
  }
}